{
  "contractName": "Auction",
  "abi": [
    {
      "anonymous": false,
      "inputs": [
        {
          "indexed": false,
          "internalType": "address",
          "name": "bidder",
          "type": "address"
        },
        {
          "indexed": false,
          "internalType": "uint256",
          "name": "amount",
          "type": "uint256"
        },
        {
          "indexed": false,
          "internalType": "uint256",
          "name": "blockNumber",
          "type": "uint256"
        }
      ],
      "name": "AuctionBidded",
      "type": "event"
    },
    {
      "anonymous": false,
      "inputs": [
        {
          "indexed": false,
          "internalType": "uint256",
          "name": "token",
          "type": "uint256"
        }
      ],
      "name": "AuctionCanceled",
      "type": "event"
    },
    {
      "anonymous": false,
      "inputs": [
        {
          "indexed": false,
          "internalType": "uint256",
          "name": "token",
          "type": "uint256"
        },
        {
          "indexed": false,
          "internalType": "uint256",
          "name": "startBid",
          "type": "uint256"
        },
        {
          "indexed": false,
          "internalType": "uint256",
          "name": "startTime",
          "type": "uint256"
        },
        {
          "indexed": false,
          "internalType": "uint256",
          "name": "duration",
          "type": "uint256"
        }
      ],
      "name": "AuctionCreated",
      "type": "event"
    },
    {
      "anonymous": false,
      "inputs": [
        {
          "indexed": false,
          "internalType": "address",
          "name": "seller",
          "type": "address"
        },
        {
          "indexed": false,
          "internalType": "address",
          "name": "winner",
          "type": "address"
        },
        {
          "indexed": false,
          "internalType": "uint64",
          "name": "dealPrice",
          "type": "uint64"
        }
      ],
      "name": "AuctionEnded",
      "type": "event"
    },
    {
      "anonymous": false,
      "inputs": [
        {
          "indexed": false,
          "internalType": "uint256",
          "name": "token",
          "type": "uint256"
        },
        {
          "indexed": false,
          "internalType": "address",
          "name": "withdrawer",
          "type": "address"
        },
        {
          "indexed": false,
          "internalType": "uint256",
          "name": "amount",
          "type": "uint256"
        },
        {
          "indexed": false,
          "internalType": "uint256",
          "name": "index",
          "type": "uint256"
        }
      ],
      "name": "BidWithdrew",
      "type": "event"
    },
    {
      "anonymous": false,
      "inputs": [
        {
          "indexed": true,
          "internalType": "address",
          "name": "previousOwner",
          "type": "address"
        },
        {
          "indexed": true,
          "internalType": "address",
          "name": "newOwner",
          "type": "address"
        }
      ],
      "name": "OwnershipTransferred",
      "type": "event"
    },
    {
      "inputs": [
        {
          "internalType": "address",
          "name": "",
          "type": "address"
        },
        {
          "internalType": "uint256",
          "name": "",
          "type": "uint256"
        }
      ],
      "name": "bidderBids",
      "outputs": [
        {
          "internalType": "uint64",
          "name": "",
          "type": "uint64"
        }
      ],
      "stateMutability": "view",
      "type": "function",
      "constant": true
    },
    {
      "inputs": [
        {
          "internalType": "address",
          "name": "player",
          "type": "address"
        }
      ],
      "name": "getMoney",
      "outputs": [
        {
          "internalType": "uint256",
          "name": "",
          "type": "uint256"
        }
      ],
      "stateMutability": "view",
      "type": "function",
      "constant": true
    },
    {
      "inputs": [
        {
          "internalType": "address",
          "name": "_person",
          "type": "address"
        },
        {
          "internalType": "uint256",
          "name": "_value",
          "type": "uint256"
        }
      ],
      "name": "getMoneyFromShop",
      "outputs": [],
      "stateMutability": "nonpayable",
      "type": "function"
    },
    {
      "inputs": [],
      "name": "getTokensList",
      "outputs": [
        {
          "internalType": "uint256[]",
          "name": "",
          "type": "uint256[]"
        }
      ],
      "stateMutability": "view",
      "type": "function",
      "constant": true
    },
    {
      "inputs": [
        {
          "internalType": "address",
          "name": "",
          "type": "address"
        }
      ],
      "name": "money",
      "outputs": [
        {
          "internalType": "uint256",
          "name": "",
          "type": "uint256"
        }
      ],
      "stateMutability": "view",
      "type": "function",
      "constant": true
    },
    {
      "inputs": [],
      "name": "owner",
      "outputs": [
        {
          "internalType": "address",
          "name": "",
          "type": "address"
        }
      ],
      "stateMutability": "view",
      "type": "function",
      "constant": true
    },
    {
      "inputs": [
        {
          "internalType": "uint256",
          "name": "_value",
          "type": "uint256"
        }
      ],
      "name": "rechargeMoney",
      "outputs": [],
      "stateMutability": "payable",
      "type": "function",
      "payable": true
    },
    {
      "inputs": [],
      "name": "renounceOwnership",
      "outputs": [],
      "stateMutability": "nonpayable",
      "type": "function"
    },
    {
      "inputs": [
        {
          "internalType": "uint256",
          "name": "",
          "type": "uint256"
        }
      ],
      "name": "status",
      "outputs": [
        {
          "internalType": "enum AuctionBase.AuctionStatus",
          "name": "",
          "type": "uint8"
        }
      ],
      "stateMutability": "view",
      "type": "function",
      "constant": true
    },
    {
      "inputs": [
        {
          "internalType": "uint256",
          "name": "",
          "type": "uint256"
        }
      ],
      "name": "tokenToAuction",
      "outputs": [
        {
          "internalType": "address",
          "name": "seller",
          "type": "address"
        },
        {
          "internalType": "uint64",
          "name": "startingPrice",
          "type": "uint64"
        },
        {
          "internalType": "uint64",
          "name": "highestBid",
          "type": "uint64"
        },
        {
          "internalType": "address",
          "name": "highestBidder",
          "type": "address"
        },
        {
          "internalType": "uint256",
          "name": "startTime",
          "type": "uint256"
        },
        {
          "internalType": "uint256",
          "name": "duration",
          "type": "uint256"
        }
      ],
      "stateMutability": "view",
      "type": "function",
      "constant": true
    },
    {
      "inputs": [
        {
          "internalType": "uint256",
          "name": "",
          "type": "uint256"
        }
      ],
      "name": "tokenToMoneyRemain",
      "outputs": [
        {
          "internalType": "uint64",
          "name": "",
          "type": "uint64"
        }
      ],
      "stateMutability": "view",
      "type": "function",
      "constant": true
    },
    {
      "inputs": [
        {
          "internalType": "uint256",
          "name": "",
          "type": "uint256"
        }
      ],
      "name": "tokens",
      "outputs": [
        {
          "internalType": "uint256",
          "name": "",
          "type": "uint256"
        }
      ],
      "stateMutability": "view",
      "type": "function",
      "constant": true
    },
    {
      "inputs": [
        {
          "internalType": "address",
          "name": "newOwner",
          "type": "address"
        }
      ],
      "name": "transferOwnership",
      "outputs": [],
      "stateMutability": "nonpayable",
      "type": "function"
    },
    {
      "inputs": [
        {
          "internalType": "address",
          "name": "p1",
          "type": "address"
        },
        {
          "internalType": "address",
          "name": "p2",
          "type": "address"
        },
        {
          "internalType": "uint256",
          "name": "_value",
          "type": "uint256"
        }
      ],
      "name": "transferTo",
      "outputs": [
        {
          "internalType": "bool",
          "name": "",
          "type": "bool"
        }
      ],
      "stateMutability": "nonpayable",
      "type": "function"
    },
    {
      "inputs": [
        {
          "internalType": "address",
          "name": "_person",
          "type": "address"
        },
        {
          "internalType": "uint256",
          "name": "_value",
          "type": "uint256"
        }
      ],
      "name": "transferToShop",
      "outputs": [
        {
          "internalType": "bool",
          "name": "",
          "type": "bool"
        }
      ],
      "stateMutability": "nonpayable",
      "type": "function"
    },
    {
      "inputs": [
        {
          "internalType": "uint64",
          "name": "_startPrice",
          "type": "uint64"
        },
        {
          "internalType": "uint256",
          "name": "_endTime",
          "type": "uint256"
        }
      ],
      "name": "createAuction",
      "outputs": [
        {
          "internalType": "uint256",
          "name": "token",
          "type": "uint256"
        }
      ],
      "stateMutability": "nonpayable",
      "type": "function"
    },
    {
      "inputs": [
        {
          "internalType": "uint256",
          "name": "_token",
          "type": "uint256"
        }
      ],
      "name": "cancelAuction",
      "outputs": [],
      "stateMutability": "nonpayable",
      "type": "function"
    },
    {
      "inputs": [
        {
          "internalType": "uint256",
          "name": "_token",
          "type": "uint256"
        },
        {
          "internalType": "uint64",
          "name": "_money",
          "type": "uint64"
        }
      ],
      "name": "bid",
      "outputs": [],
      "stateMutability": "nonpayable",
      "type": "function"
    },
    {
      "inputs": [
        {
          "internalType": "uint256",
          "name": "_token",
          "type": "uint256"
        }
      ],
      "name": "withdraw",
      "outputs": [],
      "stateMutability": "nonpayable",
      "type": "function"
    }
  ],
  "bytecode": "0x608060405234801561001057600080fd5b50600080546001600160a01b031916339081178255604051909182917f8be0079c531659141344cd1fd0a4f28419497f9722a3daafe3b4186f6b6457e0908290a3506112c7806100616000396000f3fe6080604052600436106101145760003560e01c80634f64b2be116100a0578063a5f2a15211610064578063a5f2a15214610330578063a95bf96214610350578063bb19dd081461039e578063ed1c74ed14610451578063f2fde38b1461049257600080fd5b80634f64b2be1461027d578063715018a61461029d578063717d5527146102b25780638da5cb5b146102e857806396b5a7551461031057600080fd5b806325e2ba9e116100e757806325e2ba9e146101be5780632e1a7d4d146101de57806342d21ef7146101fe578063466bca021461023b57806347af13f91461025d57600080fd5b806302cf547114610119578063095ec7451461014c578063155b39041461017c57806315e1f7cd14610191575b600080fd5b34801561012557600080fd5b506101396101343660046110f4565b6104b2565b6040519081526020015b60405180910390f35b34801561015857600080fd5b5061016c610167366004611063565b6105e4565b6040519015158152602001610143565b61018f61018a3660046110af565b610657565b005b34801561019d57600080fd5b506101396101ac366004611005565b60016020526000908152604090205481565b3480156101ca57600080fd5b5061018f6101d93660046110c8565b610765565b3480156101ea57600080fd5b5061018f6101f93660046110af565b61099a565b34801561020a57600080fd5b5061022e6102193660046110af565b60076020526000908152604090205460ff1681565b6040516101439190611154565b34801561024757600080fd5b50610250610b6b565b6040516101439190611110565b34801561026957600080fd5b5061018f610278366004611063565b610bc3565b34801561028957600080fd5b506101396102983660046110af565b610c07565b3480156102a957600080fd5b5061018f610c28565b3480156102be57600080fd5b506101396102cd366004611005565b6001600160a01b031660009081526001602052604090205490565b3480156102f457600080fd5b506000546040516001600160a01b039091168152602001610143565b34801561031c57600080fd5b5061018f61032b3660046110af565b610ccc565b34801561033c57600080fd5b5061016c61034b366004611027565b610dde565b34801561035c57600080fd5b5061038661036b3660046110af565b6006602052600090815260409020546001600160401b031681565b6040516001600160401b039091168152602001610143565b3480156103aa57600080fd5b506104096103b93660046110af565b60046020526000908152604090208054600182015460028301546003909301546001600160a01b03808416946001600160401b03600160a01b909504851694841693600160401b90049091169186565b604080516001600160a01b0397881681526001600160401b039687166020820152949095169484019490945293166060820152608081019290925260a082015260c001610143565b34801561045d57600080fd5b5061038661046c366004611063565b60056020908152600092835260408084209091529082529020546001600160401b031681565b34801561049e57600080fd5b5061018f6104ad366004611005565b610e5a565b6040805160c0810182523381526001600160401b038416602082015260009181018290526060810182905242608082015260a0810183905281600081815260046020908152604080832085518154848801516001600160401b03908116600160a01b026001600160e01b03199283166001600160a01b0394851617178455848901516001808601805460608d0151909616600160401b029590941691909216179290921790556080870151600283015560a087015160039092019190915560079092529091208054929450909160ff191682800217905550604080518381526001600160401b03861660208201524291810191909152606081018490527fa9c8dfcda5664a5a124c713e386da27de87432d5b668e79458501eb296389ba79060800160405180910390a1505b92915050565b6001600160a01b03821660009081526001602052604081205482111561060c575060006105de565b6001600160a01b038316600090815260016020526040902054610630908390611226565b6001600160a01b038416600090815260016020819052604090912091909155905092915050565b6002546040516323b872dd60e01b8152336004820152306024820152604481018390526000916001600160a01b0316906323b872dd90606401602060405180830381600087803b1580156106aa57600080fd5b505af11580156106be573d6000803e3d6000fd5b505050506040513d601f19601f820116820180604052508101906106e2919061108d565b9050806107285760405162461bcd60e51b815260206004820152600f60248201526e149958da185c99d94819985a5b1959608a1b60448201526064015b60405180910390fd5b610737645d21dba00083611204565b3360009081526001602052604090205461075191906111c1565b336000908152600160205260409020555050565b60008281526004602052604090205482906001600160a01b031633141561079e5760405162461bcd60e51b815260040161071f9061117c565b6000838152600460205260409020600160008581526007602052604090205460ff1660038111156107d1576107d161127b565b1480156107f05750806003015481600201546107ed91906111c1565b42105b1561080f576000848152600760205260409020805460ff191660021790555b60018101546001600160401b03908116908416116108845760405162461bcd60e51b815260206004820152602c60248201527f596f752063616e6e6f7420626964206c657373207468616e2063757272656e7460448201526b081a1a59da195cdd08189a5960a21b606482015260840161071f565b6001810180546001600160401b0385166001600160e01b0319909116811733600160401b8102919091179092556108bd91903090610dde565b50600084815260066020526040812080548592906108e59084906001600160401b03166111d9565b82546101009290920a6001600160401b03818102199093169183160217909155336000908152600560209081526040808320898452909152812080548794509092610932918591166111d9565b82546101009290920a6001600160401b0381810219909316918316021790915560408051338152918616602083015243908201527f510ce6507cd75f3d5fd2f94210e61d197156a1787d9f2d53f6946782a5d1b033915060600160405180910390a150505050565b6109a381610f74565b156109e85760405162461bcd60e51b8152602060048201526015602482015274105d58dd1a5bdb881a185cc81b9bdd08195b991959605a1b604482015260640161071f565b3360009081526005602090815260408083208484529091529020546001600160401b0316610a625760405162461bcd60e51b815260206004820152602160248201527f596f752068617665206e6f206d6f6e657920696e20746869732061756374696f6044820152603760f91b606482015260840161071f565b3360008181526005602090815260408083208584529091529020805467ffffffffffffffff1981169091556001600160401b031690610aa390309083610dde565b5060008281526006602052604081208054839290610acb9084906001600160401b031661123d565b82546101009290920a6001600160401b038181021990931691831602179091556040805185815233602082015291841690820152606081018490527f9010b8e852740cd006887bc171ed0b92465fdce6965caf4a04e05e67eb6c6699915060800160405180910390a16000828152600660205260409020546001600160401b0316610b67576000828152600760205260409020805460ff191690555b5050565b60606003805480602002602001604051908101604052809291908181526020018280548015610bb957602002820191906000526020600020905b815481526020019060010190808311610ba5575b5050505050905090565b6001600160a01b038216600090815260016020526040902054610be79082906111c1565b6001600160a01b0390921660009081526001602052604090209190915550565b60038181548110610c1757600080fd5b600091825260209091200154905081565b6000546001600160a01b03163314610c825760405162461bcd60e51b815260206004820181905260248201527f4f776e61626c653a2063616c6c6572206973206e6f7420746865206f776e6572604482015260640161071f565b600080546040516001600160a01b03909116907f8be0079c531659141344cd1fd0a4f28419497f9722a3daafe3b4186f6b6457e0908390a3600080546001600160a01b0319169055565b60008181526004602052604090205481906001600160a01b03163314610d045760405162461bcd60e51b815260040161071f9061117c565b600160008381526007602052604090205460ff166003811115610d2957610d2961127b565b14610d8d5760405162461bcd60e51b815260206004820152602e60248201527f546869732041756374696f6e2069732072756e6e696e67206f7220686173206160448201526d1b1c9958591e4818d85b98db195960921b606482015260840161071f565b600082815260076020908152604091829020805460ff1916600317905590518381527f28601d865dccc9f113e15a7185c1b38c085d598c71250d3337916a428536d771910160405180910390a15050565b6001600160a01b038316600090815260016020526040812054610e02908390611226565b6001600160a01b038086166000908152600160205260408082209390935590851681522054610e329083906111c1565b6001600160a01b03841660009081526001602081905260409091209190915590509392505050565b6000546001600160a01b03163314610eb45760405162461bcd60e51b815260206004820181905260248201527f4f776e61626c653a2063616c6c6572206973206e6f7420746865206f776e6572604482015260640161071f565b6001600160a01b038116610f195760405162461bcd60e51b815260206004820152602660248201527f4f776e61626c653a206e6577206f776e657220697320746865207a65726f206160448201526564647265737360d01b606482015260840161071f565b600080546040516001600160a01b03808516939216917f8be0079c531659141344cd1fd0a4f28419497f9722a3daafe3b4186f6b6457e091a3600080546001600160a01b0319166001600160a01b0392909216919091179055565b6000600160008381526007602052604090205460ff166003811115610f9b57610f9b61127b565b1480156105de57506105de826000818152600460205260408120600381015460028201544291610fca916111c1565b109392505050565b80356001600160a01b0381168114610fe957600080fd5b919050565b80356001600160401b0381168114610fe957600080fd5b60006020828403121561101757600080fd5b61102082610fd2565b9392505050565b60008060006060848603121561103c57600080fd5b61104584610fd2565b925061105360208501610fd2565b9150604084013590509250925092565b6000806040838503121561107657600080fd5b61107f83610fd2565b946020939093013593505050565b60006020828403121561109f57600080fd5b8151801515811461102057600080fd5b6000602082840312156110c157600080fd5b5035919050565b600080604083850312156110db57600080fd5b823591506110eb60208401610fee565b90509250929050565b6000806040838503121561110757600080fd5b61107f83610fee565b6020808252825182820181905260009190848201906040850190845b818110156111485783518352928401929184019160010161112c565b50909695505050505050565b602081016004831061117657634e487b7160e01b600052602160045260246000fd5b91905290565b60208082526025908201527f596f7520617265206e6f7420746865206f776e6572206f66207468697320617560408201526431ba34b7b760d91b606082015260800190565b600082198211156111d4576111d4611265565b500190565b60006001600160401b038083168185168083038211156111fb576111fb611265565b01949350505050565b60008261122157634e487b7160e01b600052601260045260246000fd5b500490565b60008282101561123857611238611265565b500390565b60006001600160401b038381169083168181101561125d5761125d611265565b039392505050565b634e487b7160e01b600052601160045260246000fd5b634e487b7160e01b600052602160045260246000fdfea2646970667358221220da816bc460e4d9345a37dc798eaaa746b9bd4966344c2386235d630f9160cf9e64736f6c63430008050033",
  "immutableReferences": {},
  "source": "// SPDX-License-Identifier: MIT\r\npragma solidity ^0.8.0;\r\nimport \"./AuctionBase.sol\";\r\n\r\ncontract Auction is AuctionBase {\r\n    /// @dev \r\n    /// @notice token\r\n    function _addAuction(uint256 _token, Auction calldata _auction) internal {\r\n        //\r\n        tokenToAuction[_token] = _auction;\r\n        emit AuctionCreated(\r\n            _token,\r\n            _auction.startingPrice,\r\n            _auction.startTime,\r\n            _auction.duration\r\n        );\r\n    }\r\n\r\n    function _findFirstAuctionSlot() internal pure returns (uint256) {\r\n        // RUNNING\r\n        return 0;\r\n    }\r\n\r\n    function _canBid(uint256 _token) internal view returns (bool) {\r\n        return status[_token] == AuctionStatus.RUNNING && _isTimeEnd(_token);\r\n    }\r\n\r\n    /// @dev \r\n    function _isTimeEnd(uint256 _token) internal view returns (bool) {\r\n        Auction storage auction = tokenToAuction[_token];\r\n        return auction.startTime + auction.duration < block.timestamp;\r\n    }\r\n\r\n    event AuctionCreated(\r\n        uint256 token,\r\n        uint256 startBid,\r\n        uint256 startTime,\r\n        uint256 duration\r\n    );\r\n\r\n    /// @notice \r\n    /// @return token token\r\n    function createAuction(uint64 _startPrice, uint256 _endTime)\r\n        public\r\n        returns (uint256 token)\r\n    {\r\n        Auction memory _auction =\r\n            Auction({\r\n                seller: msg.sender,\r\n                startingPrice: _startPrice,\r\n                highestBid: 0,\r\n                highestBidder: address(0),\r\n                startTime: block.timestamp,\r\n                duration: _endTime\r\n            });\r\n        token = _findFirstAuctionSlot();\r\n        tokenToAuction[token] = _auction;\r\n        status[token] = AuctionStatus.RUNNING;\r\n        emit AuctionCreated(token, _startPrice, block.timestamp, _endTime);\r\n        return token;\r\n    }\r\n\r\n    event AuctionCanceled(uint256 token);\r\n\r\n    /// @notice \r\n    function cancelAuction(uint256 _token) public ownerOf(_token) {\r\n        require(\r\n            status[_token] == AuctionStatus.RUNNING,\r\n            \"This Auction is running or has already cancled\"\r\n        );\r\n        status[_token] = AuctionStatus.CANCELED;\r\n        emit AuctionCanceled(_token);\r\n    }\r\n\r\n    event AuctionBidded(address bidder, uint256 amount, uint256 blockNumber);\r\n\r\n    /// @notice \r\n    /// @param _token \r\n    /// @param _money \r\n    function bid(uint256 _token, uint64 _money) public notOwnerOf(_token) {\r\n        Auction storage _auction = tokenToAuction[_token];\r\n        if (\r\n            status[_token] == AuctionStatus.RUNNING &&\r\n            block.timestamp < _auction.startTime + _auction.duration\r\n        ) {\r\n            status[_token] = AuctionStatus.FINISHED;\r\n        }\r\n\r\n        require(\r\n            _money > _auction.highestBid,\r\n            \"You cannot bid less than current highest bid\"\r\n        );\r\n        //uint64 previousBid = _auction.highestBid;\r\n        //address previousBidder = _auction.highestBidder;\r\n\r\n        _auction.highestBid = _money;\r\n        _auction.highestBidder = msg.sender;\r\n        // bool isSuccess =\r\n        //     ercToken.transferFrom(msg.sender, address(this), _money);\r\n        // if (!isSuccess) {\r\n        //     _auction.highestBid = previousBid;\r\n        //     _auction.highestBidder = previousBidder;\r\n        //     revert(\"Transfer erc token failed\");\r\n        // }\r\n        transferTo(msg.sender, address(this), _money);\r\n\r\n        tokenToMoneyRemain[_token] += _money;\r\n        bidderBids[msg.sender][_token] += _money;\r\n        emit AuctionBidded(msg.sender, _money, block.number);\r\n    }\r\n\r\n    event BidWithdrew(\r\n        uint256 token,\r\n        address withdrawer,\r\n        uint256 amount,\r\n        uint256 index\r\n    );\r\n\r\n    /// @notice \r\n    /// @param _token token\r\n    function withdraw(uint256 _token) public {\r\n        require(!_canBid(_token), \"Auction has not ended\");\r\n        require(\r\n            bidderBids[msg.sender][_token] > 0, // sender _index \r\n            \"You have no money in this auction\"\r\n        );\r\n\r\n        uint64 amount = bidderBids[msg.sender][_token];\r\n\r\n        //uint64 previousRemain = bidderBids[msg.sender][_token];\r\n        bidderBids[msg.sender][_token] = 0;\r\n        //  0\r\n        // bool isSuccess = ercToken.transfer(msg.sender, amount);\r\n        // if (!isSuccess) {\r\n        //     bidderBids[msg.sender][_token] = previousRemain;\r\n        //     revert(\"Transfer failed\");\r\n        // }\r\n        transferTo(address(this), msg.sender, amount);\r\n        tokenToMoneyRemain[_token] -= amount;\r\n        emit BidWithdrew(_token, msg.sender, amount, _token);\r\n        if (tokenToMoneyRemain[_token] == 0) {\r\n            // \r\n            status[_token] = AuctionStatus.PENDING;\r\n        }\r\n    }\r\n}\r\n",
  "sourcePath": "D:/ETH Project/Pixfarmon/contracts/Auction.sol",
  "compiler": {
    "name": "solc",
    "version": "0.8.5+commit.a4f2e591.Emscripten.clang"
  },
  "schemaVersion": "3.4.1",
  "updatedAt": "2021-06-18T03:14:52.673Z",
  "networkType": "ethereum",
  "devdoc": {
    "kind": "dev",
    "methods": {
      "bid(uint256,uint64)": {
        "params": {
          "_money": "",
          "_token": ""
        }
      },
      "createAuction(uint64,uint256)": {
        "returns": {
          "token": "token"
        }
      },
      "getMoneyFromShop(address,uint256)": {
        "details": ""
      },
      "owner()": {
        "details": "Returns the address of the current owner."
      },
      "renounceOwnership()": {
        "details": "Leaves the contract without owner. It will not be possible to call `onlyOwner` functions anymore. Can only be called by the current owner. NOTE: Renouncing ownership will leave the contract without an owner, thereby removing any functionality that is only available to the owner."
      },
      "transferOwnership(address)": {
        "details": "Transfers ownership of the contract to a new account (`newOwner`). Can only be called by the current owner."
      },
      "transferTo(address,address,uint256)": {
        "details": ""
      },
      "transferToShop(address,uint256)": {
        "details": ""
      },
      "withdraw(uint256)": {
        "params": {
          "_token": "token"
        }
      }
    },
    "version": 1
  },
  "userdoc": {
    "kind": "user",
    "methods": {
      "bid(uint256,uint64)": {
        "notice": ""
      },
      "cancelAuction(uint256)": {
        "notice": ""
      },
      "createAuction(uint64,uint256)": {
        "notice": ""
      },
      "rechargeMoney(uint256)": {
        "notice": ""
      },
      "withdraw(uint256)": {
        "notice": ""
      }
    },
    "version": 1
  }
}