{
  "contractName": "AuctionBase",
  "abi": [
    {
      "anonymous": false,
      "inputs": [
        {
          "indexed": false,
          "internalType": "address",
          "name": "seller",
          "type": "address"
        },
        {
          "indexed": false,
          "internalType": "address",
          "name": "winner",
          "type": "address"
        },
        {
          "indexed": false,
          "internalType": "uint64",
          "name": "dealPrice",
          "type": "uint64"
        }
      ],
      "name": "AuctionEnded",
      "type": "event"
    },
    {
      "anonymous": false,
      "inputs": [
        {
          "indexed": true,
          "internalType": "address",
          "name": "previousOwner",
          "type": "address"
        },
        {
          "indexed": true,
          "internalType": "address",
          "name": "newOwner",
          "type": "address"
        }
      ],
      "name": "OwnershipTransferred",
      "type": "event"
    },
    {
      "inputs": [
        {
          "internalType": "address",
          "name": "",
          "type": "address"
        },
        {
          "internalType": "uint256",
          "name": "",
          "type": "uint256"
        }
      ],
      "name": "bidderBids",
      "outputs": [
        {
          "internalType": "uint64",
          "name": "",
          "type": "uint64"
        }
      ],
      "stateMutability": "view",
      "type": "function"
    },
    {
      "inputs": [
        {
          "internalType": "address",
          "name": "player",
          "type": "address"
        }
      ],
      "name": "getMoney",
      "outputs": [
        {
          "internalType": "uint256",
          "name": "",
          "type": "uint256"
        }
      ],
      "stateMutability": "view",
      "type": "function"
    },
    {
      "inputs": [
        {
          "internalType": "address",
          "name": "_person",
          "type": "address"
        },
        {
          "internalType": "uint256",
          "name": "_value",
          "type": "uint256"
        }
      ],
      "name": "getMoneyFromShop",
      "outputs": [],
      "stateMutability": "nonpayable",
      "type": "function"
    },
    {
      "inputs": [
        {
          "internalType": "address",
          "name": "",
          "type": "address"
        }
      ],
      "name": "money",
      "outputs": [
        {
          "internalType": "uint256",
          "name": "",
          "type": "uint256"
        }
      ],
      "stateMutability": "view",
      "type": "function"
    },
    {
      "inputs": [],
      "name": "owner",
      "outputs": [
        {
          "internalType": "address",
          "name": "",
          "type": "address"
        }
      ],
      "stateMutability": "view",
      "type": "function"
    },
    {
      "inputs": [
        {
          "internalType": "uint256",
          "name": "_value",
          "type": "uint256"
        }
      ],
      "name": "rechargeMoney",
      "outputs": [],
      "stateMutability": "payable",
      "type": "function"
    },
    {
      "inputs": [],
      "name": "renounceOwnership",
      "outputs": [],
      "stateMutability": "nonpayable",
      "type": "function"
    },
    {
      "inputs": [
        {
          "internalType": "uint256",
          "name": "",
          "type": "uint256"
        }
      ],
      "name": "status",
      "outputs": [
        {
          "internalType": "enum AuctionBase.AuctionStatus",
          "name": "",
          "type": "uint8"
        }
      ],
      "stateMutability": "view",
      "type": "function"
    },
    {
      "inputs": [
        {
          "internalType": "uint256",
          "name": "",
          "type": "uint256"
        }
      ],
      "name": "tokenToAuction",
      "outputs": [
        {
          "internalType": "address",
          "name": "seller",
          "type": "address"
        },
        {
          "internalType": "uint64",
          "name": "startingPrice",
          "type": "uint64"
        },
        {
          "internalType": "uint64",
          "name": "highestBid",
          "type": "uint64"
        },
        {
          "internalType": "address",
          "name": "highestBidder",
          "type": "address"
        },
        {
          "internalType": "uint256",
          "name": "startTime",
          "type": "uint256"
        },
        {
          "internalType": "uint256",
          "name": "duration",
          "type": "uint256"
        }
      ],
      "stateMutability": "view",
      "type": "function"
    },
    {
      "inputs": [
        {
          "internalType": "uint256",
          "name": "",
          "type": "uint256"
        }
      ],
      "name": "tokenToMoneyRemain",
      "outputs": [
        {
          "internalType": "uint64",
          "name": "",
          "type": "uint64"
        }
      ],
      "stateMutability": "view",
      "type": "function"
    },
    {
      "inputs": [
        {
          "internalType": "uint256",
          "name": "",
          "type": "uint256"
        }
      ],
      "name": "tokens",
      "outputs": [
        {
          "internalType": "uint256",
          "name": "",
          "type": "uint256"
        }
      ],
      "stateMutability": "view",
      "type": "function"
    },
    {
      "inputs": [
        {
          "internalType": "address",
          "name": "newOwner",
          "type": "address"
        }
      ],
      "name": "transferOwnership",
      "outputs": [],
      "stateMutability": "nonpayable",
      "type": "function"
    },
    {
      "inputs": [
        {
          "internalType": "address",
          "name": "p1",
          "type": "address"
        },
        {
          "internalType": "address",
          "name": "p2",
          "type": "address"
        },
        {
          "internalType": "uint256",
          "name": "_value",
          "type": "uint256"
        }
      ],
      "name": "transferTo",
      "outputs": [
        {
          "internalType": "bool",
          "name": "",
          "type": "bool"
        }
      ],
      "stateMutability": "nonpayable",
      "type": "function"
    },
    {
      "inputs": [
        {
          "internalType": "address",
          "name": "_person",
          "type": "address"
        },
        {
          "internalType": "uint256",
          "name": "_value",
          "type": "uint256"
        }
      ],
      "name": "transferToShop",
      "outputs": [
        {
          "internalType": "bool",
          "name": "",
          "type": "bool"
        }
      ],
      "stateMutability": "nonpayable",
      "type": "function"
    },
    {
      "inputs": [],
      "name": "getTokensList",
      "outputs": [
        {
          "internalType": "uint256[]",
          "name": "",
          "type": "uint256[]"
        }
      ],
      "stateMutability": "view",
      "type": "function"
    }
  ],
  "bytecode": "0x608060405234801561001057600080fd5b50600080546001600160a01b031916339081178255604051909182917f8be0079c531659141344cd1fd0a4f28419497f9722a3daafe3b4186f6b6457e0908290a350610a71806100616000396000f3fe6080604052600436106100e85760003560e01c8063715018a61161008a578063a95bf96211610059578063a95bf962146102a4578063bb19dd08146102f4578063ed1c74ed146103ae578063f2fde38b146103f057600080fd5b8063715018a614610211578063717d5527146102265780638da5cb5b1461025c578063a5f2a1521461028457600080fd5b806342d21ef7116100c657806342d21ef714610172578063466bca02146101af57806347af13f9146101d15780634f64b2be146101f157600080fd5b8063095ec745146100ed578063155b39041461012257806315e1f7cd14610137575b600080fd5b3480156100f957600080fd5b5061010d610108366004610903565b610410565b60405190151581526020015b60405180910390f35b61013561013036600461094f565b610484565b005b34801561014357600080fd5b506101646101523660046108a5565b60016020526000908152604090205481565b604051908152602001610119565b34801561017e57600080fd5b506101a261018d36600461094f565b60076020526000908152604090205460ff1681565b60405161011991906109ac565b3480156101bb57600080fd5b506101c4610592565b6040516101199190610968565b3480156101dd57600080fd5b506101356101ec366004610903565b6105ea565b3480156101fd57600080fd5b5061016461020c36600461094f565b61062e565b34801561021d57600080fd5b5061013561064f565b34801561023257600080fd5b506101646102413660046108a5565b6001600160a01b031660009081526001602052604090205490565b34801561026857600080fd5b506000546040516001600160a01b039091168152602001610119565b34801561029057600080fd5b5061010d61029f3660046108c7565b6106f3565b3480156102b057600080fd5b506102db6102bf36600461094f565b60066020526000908152604090205467ffffffffffffffff1681565b60405167ffffffffffffffff9091168152602001610119565b34801561030057600080fd5b5061036561030f36600461094f565b60046020526000908152604090208054600182015460028301546003909301546001600160a01b038084169467ffffffffffffffff600160a01b9095048516948416936801000000000000000090049091169186565b604080516001600160a01b03978816815267ffffffffffffffff9687166020820152949095169484019490945293166060820152608081019290925260a082015260c001610119565b3480156103ba57600080fd5b506102db6103c9366004610903565b600560209081526000928352604080842090915290825290205467ffffffffffffffff1681565b3480156103fc57600080fd5b5061013561040b3660046108a5565b61076f565b6001600160a01b0382166000908152600160205260408120548211156104385750600061047e565b6001600160a01b03831660009081526001602052604090205461045c908390610a0e565b6001600160a01b03841660009081526001602081905260409091209190915590505b92915050565b6002546040516323b872dd60e01b8152336004820152306024820152604481018390526000916001600160a01b0316906323b872dd90606401602060405180830381600087803b1580156104d757600080fd5b505af11580156104eb573d6000803e3d6000fd5b505050506040513d601f19601f8201168201806040525081019061050f919061092d565b9050806105555760405162461bcd60e51b815260206004820152600f60248201526e149958da185c99d94819985a5b1959608a1b60448201526064015b60405180910390fd5b610564645d21dba000836109ec565b3360009081526001602052604090205461057e91906109d4565b336000908152600160205260409020555050565b606060038054806020026020016040519081016040528092919081815260200182805480156105e057602002820191906000526020600020905b8154815260200190600101908083116105cc575b5050505050905090565b6001600160a01b03821660009081526001602052604090205461060e9082906109d4565b6001600160a01b0390921660009081526001602052604090209190915550565b6003818154811061063e57600080fd5b600091825260209091200154905081565b6000546001600160a01b031633146106a95760405162461bcd60e51b815260206004820181905260248201527f4f776e61626c653a2063616c6c6572206973206e6f7420746865206f776e6572604482015260640161054c565b600080546040516001600160a01b03909116907f8be0079c531659141344cd1fd0a4f28419497f9722a3daafe3b4186f6b6457e0908390a3600080546001600160a01b0319169055565b6001600160a01b038316600090815260016020526040812054610717908390610a0e565b6001600160a01b0380861660009081526001602052604080822093909355908516815220546107479083906109d4565b6001600160a01b03841660009081526001602081905260409091209190915590509392505050565b6000546001600160a01b031633146107c95760405162461bcd60e51b815260206004820181905260248201527f4f776e61626c653a2063616c6c6572206973206e6f7420746865206f776e6572604482015260640161054c565b6001600160a01b03811661082e5760405162461bcd60e51b815260206004820152602660248201527f4f776e61626c653a206e6577206f776e657220697320746865207a65726f206160448201526564647265737360d01b606482015260840161054c565b600080546040516001600160a01b03808516939216917f8be0079c531659141344cd1fd0a4f28419497f9722a3daafe3b4186f6b6457e091a3600080546001600160a01b0319166001600160a01b0392909216919091179055565b80356001600160a01b03811681146108a057600080fd5b919050565b6000602082840312156108b757600080fd5b6108c082610889565b9392505050565b6000806000606084860312156108dc57600080fd5b6108e584610889565b92506108f360208501610889565b9150604084013590509250925092565b6000806040838503121561091657600080fd5b61091f83610889565b946020939093013593505050565b60006020828403121561093f57600080fd5b815180151581146108c057600080fd5b60006020828403121561096157600080fd5b5035919050565b6020808252825182820181905260009190848201906040850190845b818110156109a057835183529284019291840191600101610984565b50909695505050505050565b60208101600483106109ce57634e487b7160e01b600052602160045260246000fd5b91905290565b600082198211156109e7576109e7610a25565b500190565b600082610a0957634e487b7160e01b600052601260045260246000fd5b500490565b600082821015610a2057610a20610a25565b500390565b634e487b7160e01b600052601160045260246000fdfea26469706673582212203b8811fbee62870bb120f89c33a33d1c0eedef2a8be1e6f3c017d9a44fa3cc7564736f6c63430008050033",
  "immutableReferences": {},
  "source": "// SPDX-License-Identifier: MIT\r\npragma solidity ^0.8.0;\r\n\r\nimport \"@openzeppelin/contracts/token/ERC20/IERC20.sol\";\r\nimport \"@openzeppelin/contracts/access/Ownable.sol\";\r\nimport \"./Money.sol\";\r\n\r\ncontract AuctionBase is Ownable, Money {\r\n    enum AuctionStatus {\r\n        PENDING, // \r\n        RUNNING, // \r\n        FINISHED, // \r\n        CANCELED // \r\n    }\r\n\r\n    struct Auction {\r\n        address seller; //\r\n        uint64 startingPrice; //\r\n        uint64 highestBid; //\r\n        address highestBidder; //\r\n        uint256 startTime; // \r\n        uint256 duration; // \r\n    }\r\n\r\n    uint256[] public tokens; //\r\n    /// @dev Token \r\n    mapping(uint256 => Auction) public tokenToAuction;\r\n\r\n    /// @dev  => (token => )\r\n    mapping(address => mapping(uint256 => uint64)) public bidderBids;\r\n\r\n    /// @dev \r\n    mapping(uint256 => uint64) public tokenToMoneyRemain;\r\n\r\n    /// @dev \r\n    mapping(uint256 => AuctionStatus) public status;\r\n\r\n    event AuctionEnded(address seller, address winner, uint64 dealPrice);\r\n    modifier ownerOf(uint256 _token) {\r\n        require(\r\n            tokenToAuction[_token].seller == msg.sender,\r\n            \"You are not the owner of this auction\"\r\n        );\r\n        _;\r\n    }\r\n\r\n    modifier notOwnerOf(uint256 _token) {\r\n        require(\r\n            tokenToAuction[_token].seller != msg.sender,\r\n            \"You are not the owner of this auction\"\r\n        );\r\n        _;\r\n    }\r\n\r\n    function getTokensList() public view returns (uint256[] memory) {\r\n        return tokens;\r\n    }\r\n}\r\n",
  "sourcePath": "D:/ETH Project/Pixfarmon/contracts/AuctionBase.sol",
  "compiler": {
    "name": "solc",
    "version": "0.8.5+commit.a4f2e591.Emscripten.clang"
  },
  "schemaVersion": "3.4.1",
  "updatedAt": "2021-06-18T03:14:52.608Z",
  "networkType": "ethereum",
  "devdoc": {
    "kind": "dev",
    "methods": {
      "getMoneyFromShop(address,uint256)": {
        "details": ""
      },
      "owner()": {
        "details": "Returns the address of the current owner."
      },
      "renounceOwnership()": {
        "details": "Leaves the contract without owner. It will not be possible to call `onlyOwner` functions anymore. Can only be called by the current owner. NOTE: Renouncing ownership will leave the contract without an owner, thereby removing any functionality that is only available to the owner."
      },
      "transferOwnership(address)": {
        "details": "Transfers ownership of the contract to a new account (`newOwner`). Can only be called by the current owner."
      },
      "transferTo(address,address,uint256)": {
        "details": ""
      },
      "transferToShop(address,uint256)": {
        "details": ""
      }
    },
    "stateVariables": {
      "bidderBids": {
        "details": " => (token => )"
      },
      "status": {
        "details": ""
      },
      "tokenToAuction": {
        "details": "Token "
      },
      "tokenToMoneyRemain": {
        "details": ""
      }
    },
    "version": 1
  },
  "userdoc": {
    "kind": "user",
    "methods": {
      "rechargeMoney(uint256)": {
        "notice": ""
      }
    },
    "version": 1
  }
}