{
  "contractName": "Auction",
  "abi": [
    {
      "anonymous": false,
      "inputs": [
        {
          "indexed": false,
          "internalType": "address",
          "name": "bidder",
          "type": "address"
        },
        {
          "indexed": false,
          "internalType": "uint256",
          "name": "amount",
          "type": "uint256"
        },
        {
          "indexed": false,
          "internalType": "uint256",
          "name": "blockNumber",
          "type": "uint256"
        }
      ],
      "name": "AuctionBidded",
      "type": "event"
    },
    {
      "anonymous": false,
      "inputs": [
        {
          "indexed": false,
          "internalType": "uint256",
          "name": "token",
          "type": "uint256"
        }
      ],
      "name": "AuctionCanceled",
      "type": "event"
    },
    {
      "anonymous": false,
      "inputs": [
        {
          "indexed": false,
          "internalType": "uint256",
          "name": "token",
          "type": "uint256"
        },
        {
          "indexed": false,
          "internalType": "uint256",
          "name": "startBid",
          "type": "uint256"
        },
        {
          "indexed": false,
          "internalType": "uint256",
          "name": "startTime",
          "type": "uint256"
        },
        {
          "indexed": false,
          "internalType": "uint256",
          "name": "duration",
          "type": "uint256"
        }
      ],
      "name": "AuctionCreated",
      "type": "event"
    },
    {
      "anonymous": false,
      "inputs": [
        {
          "indexed": false,
          "internalType": "address",
          "name": "seller",
          "type": "address"
        },
        {
          "indexed": false,
          "internalType": "address",
          "name": "winner",
          "type": "address"
        },
        {
          "indexed": false,
          "internalType": "uint64",
          "name": "dealPrice",
          "type": "uint64"
        }
      ],
      "name": "AuctionEnded",
      "type": "event"
    },
    {
      "anonymous": false,
      "inputs": [
        {
          "indexed": false,
          "internalType": "uint256",
          "name": "token",
          "type": "uint256"
        },
        {
          "indexed": false,
          "internalType": "address",
          "name": "withdrawer",
          "type": "address"
        },
        {
          "indexed": false,
          "internalType": "uint256",
          "name": "amount",
          "type": "uint256"
        },
        {
          "indexed": false,
          "internalType": "uint256",
          "name": "index",
          "type": "uint256"
        }
      ],
      "name": "BidWithdrew",
      "type": "event"
    },
    {
      "anonymous": false,
      "inputs": [
        {
          "indexed": true,
          "internalType": "address",
          "name": "previousOwner",
          "type": "address"
        },
        {
          "indexed": true,
          "internalType": "address",
          "name": "newOwner",
          "type": "address"
        }
      ],
      "name": "OwnershipTransferred",
      "type": "event"
    },
    {
      "inputs": [
        {
          "internalType": "address",
          "name": "",
          "type": "address"
        },
        {
          "internalType": "uint256",
          "name": "",
          "type": "uint256"
        }
      ],
      "name": "bidderBids",
      "outputs": [
        {
          "internalType": "uint64",
          "name": "",
          "type": "uint64"
        }
      ],
      "stateMutability": "view",
      "type": "function",
      "constant": true
    },
    {
      "inputs": [
        {
          "internalType": "address",
          "name": "player",
          "type": "address"
        }
      ],
      "name": "getMoney",
      "outputs": [
        {
          "internalType": "uint256",
          "name": "",
          "type": "uint256"
        }
      ],
      "stateMutability": "view",
      "type": "function",
      "constant": true
    },
    {
      "inputs": [
        {
          "internalType": "address",
          "name": "_person",
          "type": "address"
        },
        {
          "internalType": "uint256",
          "name": "_value",
          "type": "uint256"
        }
      ],
      "name": "getMoneyFromShop",
      "outputs": [],
      "stateMutability": "nonpayable",
      "type": "function"
    },
    {
      "inputs": [],
      "name": "getTokensList",
      "outputs": [
        {
          "internalType": "uint256[]",
          "name": "",
          "type": "uint256[]"
        }
      ],
      "stateMutability": "view",
      "type": "function",
      "constant": true
    },
    {
      "inputs": [],
      "name": "owner",
      "outputs": [
        {
          "internalType": "address",
          "name": "",
          "type": "address"
        }
      ],
      "stateMutability": "view",
      "type": "function",
      "constant": true
    },
    {
      "inputs": [
        {
          "internalType": "uint256",
          "name": "_value",
          "type": "uint256"
        }
      ],
      "name": "rechargeMoney",
      "outputs": [],
      "stateMutability": "payable",
      "type": "function",
      "payable": true
    },
    {
      "inputs": [],
      "name": "renounceOwnership",
      "outputs": [],
      "stateMutability": "nonpayable",
      "type": "function"
    },
    {
      "inputs": [
        {
          "internalType": "uint256",
          "name": "",
          "type": "uint256"
        }
      ],
      "name": "status",
      "outputs": [
        {
          "internalType": "enum AuctionBase.AuctionStatus",
          "name": "",
          "type": "uint8"
        }
      ],
      "stateMutability": "view",
      "type": "function",
      "constant": true
    },
    {
      "inputs": [
        {
          "internalType": "uint256",
          "name": "",
          "type": "uint256"
        }
      ],
      "name": "tokenToAuction",
      "outputs": [
        {
          "internalType": "address",
          "name": "seller",
          "type": "address"
        },
        {
          "internalType": "uint64",
          "name": "startingPrice",
          "type": "uint64"
        },
        {
          "internalType": "uint64",
          "name": "highestBid",
          "type": "uint64"
        },
        {
          "internalType": "address",
          "name": "highestBidder",
          "type": "address"
        },
        {
          "internalType": "uint256",
          "name": "startTime",
          "type": "uint256"
        },
        {
          "internalType": "uint256",
          "name": "duration",
          "type": "uint256"
        }
      ],
      "stateMutability": "view",
      "type": "function",
      "constant": true
    },
    {
      "inputs": [
        {
          "internalType": "uint256",
          "name": "",
          "type": "uint256"
        }
      ],
      "name": "tokenToMoneyRemain",
      "outputs": [
        {
          "internalType": "uint64",
          "name": "",
          "type": "uint64"
        }
      ],
      "stateMutability": "view",
      "type": "function",
      "constant": true
    },
    {
      "inputs": [
        {
          "internalType": "uint256",
          "name": "",
          "type": "uint256"
        }
      ],
      "name": "tokens",
      "outputs": [
        {
          "internalType": "uint256",
          "name": "",
          "type": "uint256"
        }
      ],
      "stateMutability": "view",
      "type": "function",
      "constant": true
    },
    {
      "inputs": [
        {
          "internalType": "address",
          "name": "newOwner",
          "type": "address"
        }
      ],
      "name": "transferOwnership",
      "outputs": [],
      "stateMutability": "nonpayable",
      "type": "function"
    },
    {
      "inputs": [
        {
          "internalType": "address",
          "name": "p1",
          "type": "address"
        },
        {
          "internalType": "address",
          "name": "p2",
          "type": "address"
        },
        {
          "internalType": "uint256",
          "name": "_value",
          "type": "uint256"
        }
      ],
      "name": "transferTo",
      "outputs": [],
      "stateMutability": "nonpayable",
      "type": "function"
    },
    {
      "inputs": [
        {
          "internalType": "address",
          "name": "_person",
          "type": "address"
        },
        {
          "internalType": "uint256",
          "name": "_value",
          "type": "uint256"
        }
      ],
      "name": "transferToShop",
      "outputs": [
        {
          "internalType": "bool",
          "name": "",
          "type": "bool"
        }
      ],
      "stateMutability": "nonpayable",
      "type": "function"
    },
    {
      "inputs": [
        {
          "internalType": "uint64",
          "name": "_startPrice",
          "type": "uint64"
        },
        {
          "internalType": "uint256",
          "name": "_endTime",
          "type": "uint256"
        }
      ],
      "name": "createAuction",
      "outputs": [
        {
          "internalType": "uint256",
          "name": "token",
          "type": "uint256"
        }
      ],
      "stateMutability": "nonpayable",
      "type": "function"
    },
    {
      "inputs": [
        {
          "internalType": "uint256",
          "name": "_token",
          "type": "uint256"
        }
      ],
      "name": "cancelAuction",
      "outputs": [],
      "stateMutability": "nonpayable",
      "type": "function"
    },
    {
      "inputs": [
        {
          "internalType": "uint256",
          "name": "_token",
          "type": "uint256"
        },
        {
          "internalType": "uint64",
          "name": "_money",
          "type": "uint64"
        }
      ],
      "name": "bid",
      "outputs": [],
      "stateMutability": "nonpayable",
      "type": "function"
    },
    {
      "inputs": [
        {
          "internalType": "uint256",
          "name": "_token",
          "type": "uint256"
        }
      ],
      "name": "withdraw",
      "outputs": [],
      "stateMutability": "nonpayable",
      "type": "function"
    }
  ],
  "bytecode": "0x608060405234801561001057600080fd5b50600080546001600160a01b031916339081178255604051909182917f8be0079c531659141344cd1fd0a4f28419497f9722a3daafe3b4186f6b6457e0908290a3506113d7806100616000396000f3fe6080604052600436106101295760003560e01c8063715018a6116100a5578063a5f2a15211610074578063bb19dd0811610059578063bb19dd0814610388578063ed1c74ed14610442578063f2fde38b1461048457600080fd5b8063a5f2a15214610318578063a95bf9621461033857600080fd5b8063715018a614610285578063717d55271461029a5780638da5cb5b146102d057806396b5a755146102f857600080fd5b80632e1a7d4d116100fc578063466bca02116100e1578063466bca021461022357806347af13f9146102455780634f64b2be1461026557600080fd5b80632e1a7d4d146101c657806342d21ef7146101e657600080fd5b806302cf54711461012e578063095ec74514610161578063155b39041461019157806325e2ba9e146101a6575b600080fd5b34801561013a57600080fd5b5061014e610149366004611260565b6104a4565b6040519081526020015b60405180910390f35b34801561016d57600080fd5b5061018161017c3660046111d4565b6105f6565b6040519015158152602001610158565b6101a461019f36600461121d565b610669565b005b3480156101b257600080fd5b506101a46101c1366004611235565b61079e565b3480156101d257600080fd5b506101a46101e136600461121d565b610a51565b3480156101f257600080fd5b5061021661020136600461121d565b60076020526000908152604090205460ff1681565b60405161015891906112bf565b34801561022f57600080fd5b50610238610c4a565b604051610158919061127b565b34801561025157600080fd5b506101a46102603660046111d4565b610ca2565b34801561027157600080fd5b5061014e61028036600461121d565b610ce6565b34801561029157600080fd5b506101a4610d07565b3480156102a657600080fd5b5061014e6102b5366004611178565b6001600160a01b031660009081526001602052604090205490565b3480156102dc57600080fd5b506000546040516001600160a01b039091168152602001610158565b34801561030457600080fd5b506101a461031336600461121d565b610db8565b34801561032457600080fd5b506101a4610333366004611199565b610f25565b34801561034457600080fd5b5061036f61035336600461121d565b60066020526000908152604090205467ffffffffffffffff1681565b60405167ffffffffffffffff9091168152602001610158565b34801561039457600080fd5b506103f96103a336600461121d565b60046020526000908152604090208054600182015460028301546003909301546001600160a01b038084169467ffffffffffffffff600160a01b9095048516948416936801000000000000000090049091169186565b604080516001600160a01b03978816815267ffffffffffffffff9687166020820152949095169484019490945293166060820152608081019290925260a082015260c001610158565b34801561044e57600080fd5b5061036f61045d3660046111d4565b600560209081526000928352604080842090915290825290205467ffffffffffffffff1681565b34801561049057600080fd5b506101a461049f366004611178565b610f9a565b6040805160c08101825233815267ffffffffffffffff8416602082015260009181018290526060810182905242608082015260a08101839052816000818152600460209081526040808320855181548488015167ffffffffffffffff908116600160a01b027fffffffff000000000000000000000000000000000000000000000000000000009283166001600160a01b0394851617178455848901516001808601805460608d015190961668010000000000000000029590941691909216179290921790556080870151600283015560a087015160039092019190915560079092529091208054929450909160ff1916828002179055506040805183815267ffffffffffffffff861660208201524291810191909152606081018490527fa9c8dfcda5664a5a124c713e386da27de87432d5b668e79458501eb296389ba79060800160405180910390a1505b92915050565b6001600160a01b03821660009081526001602052604081205482111561061e575060006105f0565b6001600160a01b03831660009081526001602052604090205461064290839061134b565b6001600160a01b038416600090815260016020819052604090912091909155905092915050565b6002546040517f23b872dd000000000000000000000000000000000000000000000000000000008152336004820152306024820152604481018390526000916001600160a01b0316906323b872dd90606401602060405180830381600087803b1580156106d557600080fd5b505af11580156106e9573d6000803e3d6000fd5b505050506040513d601f19601f8201168201806040525081019061070d91906111fd565b9050806107615760405162461bcd60e51b815260206004820152600f60248201527f5265636861726765206661696c6564000000000000000000000000000000000060448201526064015b60405180910390fd5b610770645d21dba0008361132b565b3360009081526001602052604090205461078a91906112e7565b336000908152600160205260409020555050565b60008281526004602052604090205482906001600160a01b03163314156108155760405162461bcd60e51b815260206004820152602560248201527f596f7520617265206e6f7420746865206f776e6572206f66207468697320617560448201526431ba34b7b760d91b6064820152608401610758565b6000838152600460205260409020600160008581526007602052604090205460ff16600381111561085657634e487b7160e01b600052602160045260246000fd5b14801561087557508060030154816002015461087291906112e7565b42105b15610894576000848152600760205260409020805460ff191660021790555b600181015467ffffffffffffffff9081169084161161091b5760405162461bcd60e51b815260206004820152602c60248201527f596f752063616e6e6f7420626964206c657373207468616e2063757272656e7460448201527f20686967686573742062696400000000000000000000000000000000000000006064820152608401610758565b60018101805467ffffffffffffffff85167fffffffff000000000000000000000000000000000000000000000000000000009091168117336801000000000000000081029190911790925561097291903090610f25565b6000848152600660205260408120805485929061099a90849067ffffffffffffffff166112ff565b82546101009290920a67ffffffffffffffff8181021990931691831602179091553360009081526005602090815260408083208984529091528120805487945090926109e8918591166112ff565b82546101009290920a67ffffffffffffffff81810219909316918316021790915560408051338152918616602083015243908201527f510ce6507cd75f3d5fd2f94210e61d197156a1787d9f2d53f6946782a5d1b033915060600160405180910390a150505050565b610a5a816110d8565b15610aa75760405162461bcd60e51b815260206004820152601560248201527f41756374696f6e20686173206e6f7420656e64656400000000000000000000006044820152606401610758565b33600090815260056020908152604080832084845290915290205467ffffffffffffffff16610b3e5760405162461bcd60e51b815260206004820152602160248201527f596f752068617665206e6f206d6f6e657920696e20746869732061756374696f60448201527f6e000000000000000000000000000000000000000000000000000000000000006064820152608401610758565b3360008181526005602090815260408083208584529091529020805467ffffffffffffffff19811690915567ffffffffffffffff1690610b8090309083610f25565b60008281526006602052604081208054839290610ba890849067ffffffffffffffff16611362565b82546101009290920a67ffffffffffffffff8181021990931691831602179091556040805185815233602082015291841690820152606081018490527f9010b8e852740cd006887bc171ed0b92465fdce6965caf4a04e05e67eb6c6699915060800160405180910390a160008281526006602052604090205467ffffffffffffffff16610c46576000828152600760205260409020805460ff191690555b5050565b60606003805480602002602001604051908101604052809291908181526020018280548015610c9857602002820191906000526020600020905b815481526020019060010190808311610c84575b5050505050905090565b6001600160a01b038216600090815260016020526040902054610cc69082906112e7565b6001600160a01b0390921660009081526001602052604090209190915550565b60038181548110610cf657600080fd5b600091825260209091200154905081565b6000546001600160a01b03163314610d615760405162461bcd60e51b815260206004820181905260248201527f4f776e61626c653a2063616c6c6572206973206e6f7420746865206f776e65726044820152606401610758565b600080546040516001600160a01b03909116907f8be0079c531659141344cd1fd0a4f28419497f9722a3daafe3b4186f6b6457e0908390a36000805473ffffffffffffffffffffffffffffffffffffffff19169055565b60008181526004602052604090205481906001600160a01b03163314610e2e5760405162461bcd60e51b815260206004820152602560248201527f596f7520617265206e6f7420746865206f776e6572206f66207468697320617560448201526431ba34b7b760d91b6064820152608401610758565b600160008381526007602052604090205460ff166003811115610e6157634e487b7160e01b600052602160045260246000fd5b14610ed45760405162461bcd60e51b815260206004820152602e60248201527f546869732041756374696f6e2069732072756e6e696e67206f7220686173206160448201527f6c72656164792063616e636c65640000000000000000000000000000000000006064820152608401610758565b600082815260076020908152604091829020805460ff1916600317905590518381527f28601d865dccc9f113e15a7185c1b38c085d598c71250d3337916a428536d771910160405180910390a15050565b6001600160a01b038316600090815260016020526040902054610f4990829061134b565b6001600160a01b038085166000908152600160205260408082209390935590841681522054610f799082906112e7565b6001600160a01b039092166000908152600160205260409020919091555050565b6000546001600160a01b03163314610ff45760405162461bcd60e51b815260206004820181905260248201527f4f776e61626c653a2063616c6c6572206973206e6f7420746865206f776e65726044820152606401610758565b6001600160a01b0381166110705760405162461bcd60e51b815260206004820152602660248201527f4f776e61626c653a206e6577206f776e657220697320746865207a65726f206160448201527f64647265737300000000000000000000000000000000000000000000000000006064820152608401610758565b600080546040516001600160a01b03808516939216917f8be0079c531659141344cd1fd0a4f28419497f9722a3daafe3b4186f6b6457e091a36000805473ffffffffffffffffffffffffffffffffffffffff19166001600160a01b0392909216919091179055565b6000600160008381526007602052604090205460ff16600381111561110d57634e487b7160e01b600052602160045260246000fd5b1480156105f057506105f082600081815260046020526040812060038101546002820154429161113c916112e7565b109392505050565b80356001600160a01b038116811461115b57600080fd5b919050565b803567ffffffffffffffff8116811461115b57600080fd5b600060208284031215611189578081fd5b61119282611144565b9392505050565b6000806000606084860312156111ad578182fd5b6111b684611144565b92506111c460208501611144565b9150604084013590509250925092565b600080604083850312156111e6578182fd5b6111ef83611144565b946020939093013593505050565b60006020828403121561120e578081fd5b81518015158114611192578182fd5b60006020828403121561122e578081fd5b5035919050565b60008060408385031215611247578182fd5b8235915061125760208401611160565b90509250929050565b60008060408385031215611272578182fd5b6111ef83611160565b6020808252825182820181905260009190848201906040850190845b818110156112b357835183529284019291840191600101611297565b50909695505050505050565b60208101600483106112e157634e487b7160e01b600052602160045260246000fd5b91905290565b600082198211156112fa576112fa61138b565b500190565b600067ffffffffffffffff8083168185168083038211156113225761132261138b565b01949350505050565b60008261134657634e487b7160e01b81526012600452602481fd5b500490565b60008282101561135d5761135d61138b565b500390565b600067ffffffffffffffff838116908316818110156113835761138361138b565b039392505050565b634e487b7160e01b600052601160045260246000fdfea26469706673582212203f5b3a9f97c4a1d198da636de5146e243826180907b95040d023543899526c4d64736f6c63430008040033",
  "immutableReferences": {},
  "source": "// SPDX-License-Identifier: MIT\npragma solidity ^0.8.0;\nimport \"./AuctionBase.sol\";\n\ncontract Auction is AuctionBase {\n    /// @dev \n    /// @notice token\n    function _addAuction(uint256 _token, Auction calldata _auction) internal {\n        //\n        tokenToAuction[_token] = _auction;\n        emit AuctionCreated(\n            _token,\n            _auction.startingPrice,\n            _auction.startTime,\n            _auction.duration\n        );\n    }\n\n    function _findFirstAuctionSlot() internal pure returns (uint256) {\n        // RUNNING\n        return 0;\n    }\n\n    function _canBid(uint256 _token) internal view returns (bool) {\n        return status[_token] == AuctionStatus.RUNNING && _isTimeEnd(_token);\n    }\n\n    /// @dev \n    function _isTimeEnd(uint256 _token) internal view returns (bool) {\n        Auction storage auction = tokenToAuction[_token];\n        return auction.startTime + auction.duration < block.timestamp;\n    }\n\n    event AuctionCreated(\n        uint256 token,\n        uint256 startBid,\n        uint256 startTime,\n        uint256 duration\n    );\n\n    /// @notice \n    /// @return token token\n    function createAuction(uint64 _startPrice, uint256 _endTime)\n        public\n        returns (uint256 token)\n    {\n        Auction memory _auction =\n            Auction({\n                seller: msg.sender,\n                startingPrice: _startPrice,\n                highestBid: 0,\n                highestBidder: address(0),\n                startTime: block.timestamp,\n                duration: _endTime\n            });\n        token = _findFirstAuctionSlot();\n        tokenToAuction[token] = _auction;\n        status[token] = AuctionStatus.RUNNING;\n        emit AuctionCreated(token, _startPrice, block.timestamp, _endTime);\n        return token;\n    }\n\n    event AuctionCanceled(uint256 token);\n\n    /// @notice \n    function cancelAuction(uint256 _token) public ownerOf(_token) {\n        require(\n            status[_token] == AuctionStatus.RUNNING,\n            \"This Auction is running or has already cancled\"\n        );\n        status[_token] = AuctionStatus.CANCELED;\n        emit AuctionCanceled(_token);\n    }\n\n    event AuctionBidded(address bidder, uint256 amount, uint256 blockNumber);\n\n    /// @notice \n    /// @param _token \n    /// @param _money \n    function bid(uint256 _token, uint64 _money) public notOwnerOf(_token) {\n        Auction storage _auction = tokenToAuction[_token];\n        if (\n            status[_token] == AuctionStatus.RUNNING &&\n            block.timestamp < _auction.startTime + _auction.duration\n        ) {\n            status[_token] = AuctionStatus.FINISHED;\n        }\n\n        require(\n            _money > _auction.highestBid,\n            \"You cannot bid less than current highest bid\"\n        );\n        //uint64 previousBid = _auction.highestBid;\n        //address previousBidder = _auction.highestBidder;\n\n        _auction.highestBid = _money;\n        _auction.highestBidder = msg.sender;\n        // bool isSuccess =\n        //     ercToken.transferFrom(msg.sender, address(this), _money);\n        // if (!isSuccess) {\n        //     _auction.highestBid = previousBid;\n        //     _auction.highestBidder = previousBidder;\n        //     revert(\"Transfer erc token failed\");\n        // }\n        transferTo(msg.sender, address(this), _money);\n\n        tokenToMoneyRemain[_token] += _money;\n        bidderBids[msg.sender][_token] += _money;\n        emit AuctionBidded(msg.sender, _money, block.number);\n    }\n\n    event BidWithdrew(\n        uint256 token,\n        address withdrawer,\n        uint256 amount,\n        uint256 index\n    );\n\n    /// @notice \n    /// @param _token token\n    function withdraw(uint256 _token) public {\n        require(!_canBid(_token), \"Auction has not ended\");\n        require(\n            bidderBids[msg.sender][_token] > 0, // sender _index \n            \"You have no money in this auction\"\n        );\n\n        uint64 amount = bidderBids[msg.sender][_token];\n\n        //uint64 previousRemain = bidderBids[msg.sender][_token];\n        bidderBids[msg.sender][_token] = 0;\n        //  0\n        // bool isSuccess = ercToken.transfer(msg.sender, amount);\n        // if (!isSuccess) {\n        //     bidderBids[msg.sender][_token] = previousRemain;\n        //     revert(\"Transfer failed\");\n        // }\n        transferTo(address(this), msg.sender, amount);\n        tokenToMoneyRemain[_token] -= amount;\n        emit BidWithdrew(_token, msg.sender, amount, _token);\n        if (tokenToMoneyRemain[_token] == 0) {\n            // \n            status[_token] = AuctionStatus.PENDING;\n        }\n    }\n}\n",
  "sourcePath": "F:/Projects/PixFarmon-frontend/src/util/pixfarmon-dapp/Pixfarmon/contracts/Auction.sol",
  "compiler": {
    "name": "solc",
    "version": "0.8.4+commit.c7e474f2.Emscripten.clang"
  },
  "schemaVersion": "3.3.4",
  "updatedAt": "2021-06-02T10:53:47.370Z",
  "networkType": "ethereum",
  "devdoc": {
    "kind": "dev",
    "methods": {
      "bid(uint256,uint64)": {
        "params": {
          "_money": "",
          "_token": ""
        }
      },
      "createAuction(uint64,uint256)": {
        "returns": {
          "token": "token"
        }
      },
      "getMoneyFromShop(address,uint256)": {
        "details": ""
      },
      "owner()": {
        "details": "Returns the address of the current owner."
      },
      "renounceOwnership()": {
        "details": "Leaves the contract without owner. It will not be possible to call `onlyOwner` functions anymore. Can only be called by the current owner. NOTE: Renouncing ownership will leave the contract without an owner, thereby removing any functionality that is only available to the owner."
      },
      "transferOwnership(address)": {
        "details": "Transfers ownership of the contract to a new account (`newOwner`). Can only be called by the current owner."
      },
      "transferTo(address,address,uint256)": {
        "details": ""
      },
      "transferToShop(address,uint256)": {
        "details": ""
      },
      "withdraw(uint256)": {
        "params": {
          "_token": "token"
        }
      }
    },
    "version": 1
  },
  "userdoc": {
    "kind": "user",
    "methods": {
      "bid(uint256,uint64)": {
        "notice": ""
      },
      "cancelAuction(uint256)": {
        "notice": ""
      },
      "createAuction(uint64,uint256)": {
        "notice": ""
      },
      "rechargeMoney(uint256)": {
        "notice": ""
      },
      "withdraw(uint256)": {
        "notice": ""
      }
    },
    "version": 1
  }
}