{
  "contractName": "FarmBase",
  "abi": [
    {
      "inputs": [
        {
          "internalType": "contract Repository",
          "name": "_repo",
          "type": "address"
        }
      ],
      "stateMutability": "nonpayable",
      "type": "constructor"
    },
    {
      "anonymous": false,
      "inputs": [
        {
          "indexed": true,
          "internalType": "address",
          "name": "previousOwner",
          "type": "address"
        },
        {
          "indexed": true,
          "internalType": "address",
          "name": "newOwner",
          "type": "address"
        }
      ],
      "name": "OwnershipTransferred",
      "type": "event"
    },
    {
      "inputs": [],
      "name": "owner",
      "outputs": [
        {
          "internalType": "address",
          "name": "",
          "type": "address"
        }
      ],
      "stateMutability": "view",
      "type": "function"
    },
    {
      "inputs": [],
      "name": "renounceOwnership",
      "outputs": [],
      "stateMutability": "nonpayable",
      "type": "function"
    },
    {
      "inputs": [
        {
          "internalType": "address",
          "name": "newOwner",
          "type": "address"
        }
      ],
      "name": "transferOwnership",
      "outputs": [],
      "stateMutability": "nonpayable",
      "type": "function"
    },
    {
      "inputs": [
        {
          "internalType": "string",
          "name": "_name",
          "type": "string"
        }
      ],
      "name": "register",
      "outputs": [],
      "stateMutability": "nonpayable",
      "type": "function"
    }
  ],
  "bytecode": "0x60806040526001805460ff60a01b1916600360a11b17905534801561002357600080fd5b5060405161077a38038061077a833981016040819052610042916101ff565b600080546001600160a01b031916339081178255604051909182917f8be0079c531659141344cd1fd0a4f28419497f9722a3daafe3b4186f6b6457e0908290a350600180546001600160a01b0319166001600160a01b0383161781556100a990600061022f565b7ff32690bee57e29022528069e856666a4c94d80d6e20ecfc384d13712394a8ed9555061012c7faddaec9d1d3b26bf3fc48791a6fb7a35fd550fdd74b687234a56a3ee0a17d57e55610e107f2d7784e164926896ebc14b7cb0296e9b3026a60f1cfb62c78be0a3679b1a96c6556154607f2ed53151f2af672bfe545bf210815b5a063ba102f44b0edb9b808c3020394a5b5561a8c07fab40d900b0c8e409fe0ec4fd407b48b5e7d9103f943090b76bb2aaf00e9f7d18556093602052600a7f7e8dc06c87ab7a762aa9ab66951ffbe2ce5c32bbf37f9067e7f9b44668a6034b55600f7fa85dabd40fce20f9d7c6b25b8a3950a395e86e9872d6cf62e2e20dc93ac667135560197fae2350ee47dc45c7bfb6462910609c63ba45a989ac4ea1000ac62b5f361596d355600460005260237f15e51d34b0e9e04d7f260d84c1e052f125f6143e4a0d50589273ee2436b7571655610254565b60006020828403121561021157600080fd5b81516001600160a01b038116811461022857600080fd5b9392505050565b60008282101561024f57634e487b7160e01b600052601160045260246000fd5b500390565b610517806102636000396000f3fe608060405234801561001057600080fd5b506004361061004c5760003560e01c8063715018a6146100515780638da5cb5b1461005b578063f2c298be1461007a578063f2fde38b1461008d575b600080fd5b6100596100a0565b005b600054604080516001600160a01b039092168252519081900360200190f35b6100596100883660046103c5565b610149565b61005961009b366004610395565b61027b565b6000546001600160a01b031633146100ff5760405162461bcd60e51b815260206004820181905260248201527f4f776e61626c653a2063616c6c6572206973206e6f7420746865206f776e657260448201526064015b60405180910390fd5b600080546040516001600160a01b03909116907f8be0079c531659141344cd1fd0a4f28419497f9722a3daafe3b4186f6b6457e0908390a3600080546001600160a01b0319169055565b6001546040516335911a1760e01b81526001600160a01b03909116906335911a1790610179908490600401610476565b600060405180830381600087803b15801561019357600080fd5b505af11580156101a7573d6000803e3d6000fd5b50506001546040516347af13f960e01b81523360048201526103e860248201526001600160a01b0390911692506347af13f99150604401600060405180830381600087803b1580156101f857600080fd5b505af115801561020c573d6000803e3d6000fd5b50505050600160009054906101000a90046001600160a01b03166001600160a01b0316632403e8836040518163ffffffff1660e01b8152600401600060405180830381600087803b15801561026057600080fd5b505af1158015610274573d6000803e3d6000fd5b5050505050565b6000546001600160a01b031633146102d55760405162461bcd60e51b815260206004820181905260248201527f4f776e61626c653a2063616c6c6572206973206e6f7420746865206f776e657260448201526064016100f6565b6001600160a01b03811661033a5760405162461bcd60e51b815260206004820152602660248201527f4f776e61626c653a206e6577206f776e657220697320746865207a65726f206160448201526564647265737360d01b60648201526084016100f6565b600080546040516001600160a01b03808516939216917f8be0079c531659141344cd1fd0a4f28419497f9722a3daafe3b4186f6b6457e091a3600080546001600160a01b0319166001600160a01b0392909216919091179055565b6000602082840312156103a757600080fd5b81356001600160a01b03811681146103be57600080fd5b9392505050565b6000602082840312156103d757600080fd5b813567ffffffffffffffff808211156103ef57600080fd5b818401915084601f83011261040357600080fd5b813581811115610415576104156104cb565b604051601f8201601f19908116603f0116810190838211818310171561043d5761043d6104cb565b8160405282815287602084870101111561045657600080fd5b826020860160208301376000928101602001929092525095945050505050565b600060208083528351808285015260005b818110156104a357858101830151858201604001528201610487565b818111156104b5576000604083870101525b50601f01601f1916929092016040019392505050565b634e487b7160e01b600052604160045260246000fdfea26469706673582212208af4020d5a32f93bda70fae4ba2eed5c8f1777b8d82226d994f66784ecb3927064736f6c63430008050033",
  "immutableReferences": {},
  "source": "// SPDX-License-Identifier: MIT\r\npragma solidity ^0.8.0;\r\n\r\nimport \"./Repository.sol\";\r\nimport \"@openzeppelin/contracts/access/Ownable.sol\";\r\n\r\ncontract FarmBase is Ownable {\r\n    //TODO to interface IRepository\r\n    Repository repo;\r\n    // /// @dev \r\n    // struct PlantPropertiesPacked {\r\n    //     Specie specie;\r\n    //     uint8 hp;\r\n    //     uint8 atk;\r\n    //     uint8 def;\r\n    //     uint8 spd;\r\n    // }\r\n\r\n    struct Field {\r\n        Specie specie;\r\n        uint256 sowingTime;\r\n        address owner; //\r\n        address farmer; //\r\n    }\r\n    //mapping(address => uint256) farmExperience;\r\n    //mapping(address => address[]) public owners;\r\n    //mapping(address => ) fields;\r\n    uint8 fieldSize = 6;\r\n    Field[6][6] fields;\r\n\r\n    /// @dev \r\n    enum Specie {empty, branut, moonbean, sunberry, charis}\r\n\r\n    //total:21 bits\r\n    //  example:\r\n    //  specie (4bits)\r\n    //  |   hp (3bits)\r\n    //  |   |  atk (3bits)\r\n    //  |   |  |  def (3bits)\r\n    //  |   |  |  |  spd (3bits)\r\n    //  |   |  |  |  |  DNA  quality (2bits)\r\n    //  |   |  |  |  |       | itemType (3bits)\r\n    //  |   |  |  |  |       | |\r\n    //  0011001010011100     01010\r\n\r\n    constructor(Repository _repo) {\r\n        repo = _repo;\r\n\r\n        specieTime[Specie.empty] = uint256(0) - 1;\r\n        specieTime[Specie.branut] = 300;\r\n        specieTime[Specie.moonbean] = 3600;\r\n        specieTime[Specie.sunberry] = 21600;\r\n        specieTime[Specie.charis] = 43200;\r\n\r\n        successRate[Specie.branut] = 10;\r\n        successRate[Specie.moonbean] = 15;\r\n        successRate[Specie.sunberry] = 25;\r\n        successRate[Specie.charis] = 35;\r\n    }\r\n\r\n    /// @dev \r\n    //uint256[] specieTime = [uint256(300), 3600, 21600, 43200];\r\n    mapping(Specie => uint256) specieTime;\r\n\r\n    /// @dev \r\n    mapping(Specie => uint256) successRate;\r\n\r\n    /// @dev \r\n    //uint256[] specieFull = [10, 10, 10, 10, 20, 20, 15, 15, 15, 15, 10, 15];\r\n\r\n    /// @dev \r\n    //uint256[] landPrice = [12000, 300000, 6000000, 8000000];\r\n\r\n    /// @dev \r\n    //uint256[] landExp = [500, 8000, 120000, 500000];\r\n\r\n    // function getFarmLevel(address _owner) public view returns (uint8) {\r\n    //     uint8 level;\r\n    //     uint256 Exp = farmExperience[_owner];\r\n    //     // for (uint8 i = 0; i < landExp.length; i++) {\r\n    //     //     if (farmExperience[_owner] > landExp[i]) {\r\n    //     //         level = i + 2;\r\n    //     //     }\r\n    //     // }\r\n    //     if (Exp < 500) {\r\n    //         level = 1;\r\n    //     } else if (Exp < 8000) {\r\n    //         level = 2;\r\n    //     } else if (Exp < 120000) {\r\n    //         level = 3;\r\n    //     } else if (Exp < 500000) {\r\n    //         level = 4;\r\n    //     } else {\r\n    //         level = 5;\r\n    //     }\r\n\r\n    //     return level;\r\n    // }\r\n\r\n    // function upgradeLand(uint8 level) public {\r\n    //     require(getFarmLevel(msg.sender) >= level);\r\n    //     if (level != 1) {\r\n    //         repo.transferToShop(msg.sender, landPrice[level - 2]);\r\n    //     }\r\n    //     for (uint8 i = 0; i < level + 1; i++) {\r\n    //         for (uint8 j = 0; j < level + 1; j++) {\r\n    //             fields[msg.sender][i][j].unlocked = true;\r\n    //         }\r\n    //     }\r\n    // }\r\n\r\n    /// @dev \r\n    function _initField(Field storage _field) internal {\r\n        if (_field.specie == Specie.empty) {\r\n            _field.sowingTime = 0;\r\n            _field.farmer = address(0);\r\n        }\r\n    }\r\n\r\n    /// @dev \r\n    function register(string memory _name) public {\r\n        repo._registration(_name);\r\n        //upgradeLand(1);\r\n        repo.getMoneyFromShop(msg.sender, 1000);\r\n        repo.updateMaxIndex();\r\n    }\r\n\r\n    function startInit() internal {\r\n        for (uint8 i = 0; i < fieldSize * fieldSize; i++) {\r\n            fields[i / 6][i % 6].specie = Specie.empty;\r\n            fields[i / 6][i % 6].sowingTime = 0;\r\n            fields[i / 6][i % 6].owner = address(this);\r\n            fields[i / 6][i % 6].farmer = address(0);\r\n        }\r\n    }\r\n}\r\n",
  "sourcePath": "D:\\ETH Project\\Pixfarmon\\contracts\\FarmBase.sol",
  "compiler": {
    "name": "solc",
    "version": "0.8.5+commit.a4f2e591.Emscripten.clang"
  },
  "schemaVersion": "3.4.1",
  "updatedAt": "2021-06-18T01:54:35.971Z",
  "devdoc": {
    "kind": "dev",
    "methods": {
      "owner()": {
        "details": "Returns the address of the current owner."
      },
      "register(string)": {
        "details": ""
      },
      "renounceOwnership()": {
        "details": "Leaves the contract without owner. It will not be possible to call `onlyOwner` functions anymore. Can only be called by the current owner. NOTE: Renouncing ownership will leave the contract without an owner, thereby removing any functionality that is only available to the owner."
      },
      "transferOwnership(address)": {
        "details": "Transfers ownership of the contract to a new account (`newOwner`). Can only be called by the current owner."
      }
    },
    "stateVariables": {
      "specieTime": {
        "details": ""
      },
      "successRate": {
        "details": ""
      }
    },
    "version": 1
  },
  "userdoc": {
    "kind": "user",
    "methods": {},
    "version": 1
  }
}