{
  "contractName": "FarmFactory",
  "abi": [
    {
      "inputs": [
        {
          "internalType": "contract Repository",
          "name": "_repo",
          "type": "address"
        }
      ],
      "stateMutability": "nonpayable",
      "type": "constructor"
    },
    {
      "anonymous": false,
      "inputs": [
        {
          "indexed": true,
          "internalType": "address",
          "name": "previousOwner",
          "type": "address"
        },
        {
          "indexed": true,
          "internalType": "address",
          "name": "newOwner",
          "type": "address"
        }
      ],
      "name": "OwnershipTransferred",
      "type": "event"
    },
    {
      "inputs": [
        {
          "internalType": "address",
          "name": "_owner",
          "type": "address"
        }
      ],
      "name": "getFarmLevel",
      "outputs": [
        {
          "internalType": "uint8",
          "name": "",
          "type": "uint8"
        }
      ],
      "stateMutability": "view",
      "type": "function",
      "constant": true
    },
    {
      "inputs": [],
      "name": "owner",
      "outputs": [
        {
          "internalType": "address",
          "name": "",
          "type": "address"
        }
      ],
      "stateMutability": "view",
      "type": "function",
      "constant": true
    },
    {
      "inputs": [
        {
          "internalType": "address",
          "name": "",
          "type": "address"
        },
        {
          "internalType": "uint256",
          "name": "",
          "type": "uint256"
        }
      ],
      "name": "owners",
      "outputs": [
        {
          "internalType": "address",
          "name": "",
          "type": "address"
        }
      ],
      "stateMutability": "view",
      "type": "function",
      "constant": true
    },
    {
      "inputs": [
        {
          "internalType": "string",
          "name": "_name",
          "type": "string"
        }
      ],
      "name": "register",
      "outputs": [],
      "stateMutability": "nonpayable",
      "type": "function"
    },
    {
      "inputs": [],
      "name": "renounceOwnership",
      "outputs": [],
      "stateMutability": "nonpayable",
      "type": "function"
    },
    {
      "inputs": [
        {
          "internalType": "address",
          "name": "newOwner",
          "type": "address"
        }
      ],
      "name": "transferOwnership",
      "outputs": [],
      "stateMutability": "nonpayable",
      "type": "function"
    },
    {
      "inputs": [
        {
          "internalType": "uint8",
          "name": "level",
          "type": "uint8"
        }
      ],
      "name": "upgradeLand",
      "outputs": [],
      "stateMutability": "nonpayable",
      "type": "function"
    },
    {
      "inputs": [
        {
          "internalType": "uint256",
          "name": "_seedTag",
          "type": "uint256"
        }
      ],
      "name": "getFruitTag",
      "outputs": [
        {
          "internalType": "uint256",
          "name": "fruitTag",
          "type": "uint256"
        }
      ],
      "stateMutability": "view",
      "type": "function",
      "constant": true
    },
    {
      "inputs": [
        {
          "components": [
            {
              "internalType": "enum FarmBase.Specie",
              "name": "specie",
              "type": "uint8"
            },
            {
              "internalType": "uint8",
              "name": "hp",
              "type": "uint8"
            },
            {
              "internalType": "uint8",
              "name": "atk",
              "type": "uint8"
            },
            {
              "internalType": "uint8",
              "name": "def",
              "type": "uint8"
            },
            {
              "internalType": "uint8",
              "name": "spd",
              "type": "uint8"
            }
          ],
          "internalType": "struct FarmBase.PlantPropertiesPacked",
          "name": "_pack",
          "type": "tuple"
        }
      ],
      "name": "getSeedTag",
      "outputs": [
        {
          "internalType": "uint256",
          "name": "SeedTag",
          "type": "uint256"
        }
      ],
      "stateMutability": "pure",
      "type": "function",
      "constant": true
    },
    {
      "inputs": [
        {
          "internalType": "uint256",
          "name": "_dna",
          "type": "uint256"
        }
      ],
      "name": "getPlantProperties",
      "outputs": [
        {
          "components": [
            {
              "internalType": "enum FarmBase.Specie",
              "name": "specie",
              "type": "uint8"
            },
            {
              "internalType": "uint8",
              "name": "hp",
              "type": "uint8"
            },
            {
              "internalType": "uint8",
              "name": "atk",
              "type": "uint8"
            },
            {
              "internalType": "uint8",
              "name": "def",
              "type": "uint8"
            },
            {
              "internalType": "uint8",
              "name": "spd",
              "type": "uint8"
            }
          ],
          "internalType": "struct FarmBase.PlantPropertiesPacked",
          "name": "",
          "type": "tuple"
        }
      ],
      "stateMutability": "pure",
      "type": "function",
      "constant": true
    },
    {
      "inputs": [
        {
          "components": [
            {
              "internalType": "enum FarmBase.Specie",
              "name": "specie",
              "type": "uint8"
            },
            {
              "internalType": "uint8",
              "name": "hp",
              "type": "uint8"
            },
            {
              "internalType": "uint8",
              "name": "atk",
              "type": "uint8"
            },
            {
              "internalType": "uint8",
              "name": "def",
              "type": "uint8"
            },
            {
              "internalType": "uint8",
              "name": "spd",
              "type": "uint8"
            }
          ],
          "internalType": "struct FarmBase.PlantPropertiesPacked",
          "name": "_pack",
          "type": "tuple"
        }
      ],
      "name": "calDna",
      "outputs": [
        {
          "internalType": "uint256",
          "name": "dna",
          "type": "uint256"
        }
      ],
      "stateMutability": "pure",
      "type": "function",
      "constant": true
    },
    {
      "inputs": [
        {
          "components": [
            {
              "internalType": "enum FarmBase.Specie",
              "name": "specie",
              "type": "uint8"
            },
            {
              "internalType": "uint8",
              "name": "hp",
              "type": "uint8"
            },
            {
              "internalType": "uint8",
              "name": "atk",
              "type": "uint8"
            },
            {
              "internalType": "uint8",
              "name": "def",
              "type": "uint8"
            },
            {
              "internalType": "uint8",
              "name": "spd",
              "type": "uint8"
            }
          ],
          "internalType": "struct FarmBase.PlantPropertiesPacked",
          "name": "_pack",
          "type": "tuple"
        },
        {
          "internalType": "enum FarmBase.Quality",
          "name": "quality",
          "type": "uint8"
        },
        {
          "internalType": "enum Repository.ItemType",
          "name": "itemType",
          "type": "uint8"
        }
      ],
      "name": "calTag",
      "outputs": [
        {
          "internalType": "uint256",
          "name": "tag",
          "type": "uint256"
        }
      ],
      "stateMutability": "pure",
      "type": "function",
      "constant": true
    },
    {
      "inputs": [
        {
          "internalType": "uint256",
          "name": "_fruitTag",
          "type": "uint256"
        }
      ],
      "name": "disassembleFruit",
      "outputs": [
        {
          "internalType": "uint256",
          "name": "seedTag",
          "type": "uint256"
        },
        {
          "internalType": "bool",
          "name": "getSpecialSeed",
          "type": "bool"
        }
      ],
      "stateMutability": "view",
      "type": "function",
      "constant": true
    },
    {
      "inputs": [
        {
          "components": [
            {
              "internalType": "enum FarmBase.Specie",
              "name": "specie",
              "type": "uint8"
            },
            {
              "internalType": "uint8",
              "name": "hp",
              "type": "uint8"
            },
            {
              "internalType": "uint8",
              "name": "atk",
              "type": "uint8"
            },
            {
              "internalType": "uint8",
              "name": "def",
              "type": "uint8"
            },
            {
              "internalType": "uint8",
              "name": "spd",
              "type": "uint8"
            }
          ],
          "internalType": "struct FarmBase.PlantPropertiesPacked",
          "name": "_pack",
          "type": "tuple"
        },
        {
          "internalType": "uint256",
          "name": "quality",
          "type": "uint256"
        }
      ],
      "name": "generateRandomAttribute",
      "outputs": [
        {
          "components": [
            {
              "internalType": "enum FarmBase.Specie",
              "name": "specie",
              "type": "uint8"
            },
            {
              "internalType": "uint8",
              "name": "hp",
              "type": "uint8"
            },
            {
              "internalType": "uint8",
              "name": "atk",
              "type": "uint8"
            },
            {
              "internalType": "uint8",
              "name": "def",
              "type": "uint8"
            },
            {
              "internalType": "uint8",
              "name": "spd",
              "type": "uint8"
            }
          ],
          "internalType": "struct FarmBase.PlantPropertiesPacked",
          "name": "",
          "type": "tuple"
        }
      ],
      "stateMutability": "view",
      "type": "function",
      "constant": true
    },
    {
      "inputs": [
        {
          "internalType": "uint256",
          "name": "_tag",
          "type": "uint256"
        }
      ],
      "name": "getPropertiesByTag",
      "outputs": [
        {
          "components": [
            {
              "internalType": "enum FarmBase.Specie",
              "name": "specie",
              "type": "uint8"
            },
            {
              "internalType": "uint8",
              "name": "hp",
              "type": "uint8"
            },
            {
              "internalType": "uint8",
              "name": "atk",
              "type": "uint8"
            },
            {
              "internalType": "uint8",
              "name": "def",
              "type": "uint8"
            },
            {
              "internalType": "uint8",
              "name": "spd",
              "type": "uint8"
            }
          ],
          "internalType": "struct FarmBase.PlantPropertiesPacked",
          "name": "",
          "type": "tuple"
        }
      ],
      "stateMutability": "pure",
      "type": "function",
      "constant": true
    },
    {
      "inputs": [],
      "name": "getDreamySeedTag",
      "outputs": [
        {
          "internalType": "uint256",
          "name": "",
          "type": "uint256"
        }
      ],
      "stateMutability": "view",
      "type": "function",
      "constant": true
    },
    {
      "inputs": [
        {
          "internalType": "uint256",
          "name": "parent1",
          "type": "uint256"
        },
        {
          "internalType": "uint256",
          "name": "parent2",
          "type": "uint256"
        }
      ],
      "name": "getHybridizedSeedTag",
      "outputs": [
        {
          "internalType": "uint256",
          "name": "",
          "type": "uint256"
        }
      ],
      "stateMutability": "pure",
      "type": "function",
      "constant": true
    },
    {
      "inputs": [
        {
          "internalType": "uint256",
          "name": "parent1",
          "type": "uint256"
        },
        {
          "internalType": "uint256",
          "name": "parent2",
          "type": "uint256"
        }
      ],
      "name": "getHarvestFruitTag",
      "outputs": [
        {
          "internalType": "uint256",
          "name": "",
          "type": "uint256"
        }
      ],
      "stateMutability": "view",
      "type": "function",
      "constant": true
    },
    {
      "inputs": [
        {
          "internalType": "address",
          "name": "_owner",
          "type": "address"
        },
        {
          "internalType": "uint8",
          "name": "_x",
          "type": "uint8"
        },
        {
          "internalType": "uint8",
          "name": "_y",
          "type": "uint8"
        }
      ],
      "name": "HybridizationCheck",
      "outputs": [
        {
          "internalType": "uint8",
          "name": "",
          "type": "uint8"
        },
        {
          "internalType": "uint256",
          "name": "",
          "type": "uint256"
        }
      ],
      "stateMutability": "view",
      "type": "function",
      "constant": true
    },
    {
      "inputs": [
        {
          "internalType": "address",
          "name": "_owner",
          "type": "address"
        },
        {
          "internalType": "uint8",
          "name": "_x",
          "type": "uint8"
        },
        {
          "internalType": "uint8",
          "name": "_y",
          "type": "uint8"
        }
      ],
      "name": "randomHybridize",
      "outputs": [
        {
          "internalType": "uint8",
          "name": "",
          "type": "uint8"
        }
      ],
      "stateMutability": "view",
      "type": "function",
      "constant": true
    }
  ],
  "bytecode": "0x60016101808181526000196101a08190526101c08190526101e0839052608091825261020083815261022082905261024082905261026084905260a0526102808381526102a08290526102c08490526102e082905260c05261030081815261032084905261034084905261036082905260e0526103808181526103a08490526103c08290526103e084905261010052610400818152610420919091526104408390526104608390526101205261048082815260006104a08190526104c08190526104e08190526101409190915261058060405261050081815261052082905261054091909152610560929092526101609190915262000103906005906008620002cf565b5060405180610180016040528061012c815260200161025881526020016107088152602001610e108152602001611c2081526020016146508152602001617080815260200161a8c0815260200162015180815260200162015180815260200162015180815260200162015180815250600690600c620001849291906200032d565b506040805161018081018252600a808252602082018190529181018290526060810182905260146080820181905260a0820152600f60c0820181905260e0820181905261010082018190526101208201819052610140820192909252610160810191909152620001f990600790600c62000379565b5060408051608081018252612ee08152620493e06020820152625b8d8091810191909152627a1200606082015262000236906008906004620003bc565b503480156200024457600080fd5b5060405162002aa038038062002aa083398101604081905262000267916200045c565b600080546001600160a01b031916339081178255604051839282917f8be0079c531659141344cd1fd0a4f28419497f9722a3daafe3b4186f6b6457e0908290a350600180546001600160a01b0319166001600160a01b0392909216919091179055506200048c565b8280548282559060005260206000209081019282156200031b579160200282015b828111156200031b5782516200030a90839060046200032d565b5091602001919060010190620002f0565b506200032992915062000401565b5090565b8280548282559060005260206000209081019282156200036b579160200282015b828111156200036b5782518255916020019190600101906200034e565b506200032992915062000422565b8280548282559060005260206000209081019282156200036b579160200282015b828111156200036b578251829060ff169055916020019190600101906200039a565b8280548282559060005260206000209081019282156200036b579160200282015b828111156200036b578251829062ffffff16905591602001919060010190620003dd565b808211156200032957600062000418828262000439565b5060010162000401565b5b8082111562000329576000815560010162000423565b508054600082559060005260206000209081019062000459919062000422565b50565b6000602082840312156200046e578081fd5b81516001600160a01b038116811462000485578182fd5b9392505050565b612604806200049c6000396000f3fe608060405234801561001057600080fd5b506004361061012c5760003560e01c806393f8cccf116100ad578063e0691cfe11610071578063e0691cfe146102b0578063f2c298be146102c3578063f2fde38b146102d6578063f434d748146102e9578063fccadeef146102fc57600080fd5b806393f8cccf1461025c5780639b3e27871461026f578063c809951314610282578063cea602a314610295578063db9b80e61461029d57600080fd5b8063794ac79b116100f4578063794ac79b146101c05780637da1618f146101ec57806389be4668146102115780638d55953d146102245780638da5cb5b1461023757600080fd5b806307e1373d146101315780632d8051f61461015a5780633c4a29b61461017b578063593a5d51146101a3578063715018a6146101b8575b600080fd5b61014461013f366004612366565b61030f565b6040516101519190612424565b60405180910390f35b61016d610168366004612396565b6103e0565b604051908152602001610151565b61018e610189366004612366565b61048c565b60408051928352901515602083015201610151565b6101b66101b13660046123b7565b6106a6565b005b6101b6610864565b6101d36101ce3660046121c6565b610908565b6040805160ff9093168352602083019190915201610151565b6101ff6101fa366004612183565b610e2e565b60405160ff9091168152602001610151565b61016d61021f3660046122d2565b610ea3565b610144610232366004612366565b610f2c565b6000546001600160a01b03165b6040516001600160a01b039091168152602001610151565b61016d61026a3660046122ed565b610f59565b61024461027d36600461219d565b610fcb565b61014461029036600461233c565b611003565b61016d6111d6565b61016d6102ab366004612366565b6112c1565b61016d6102be3660046122d2565b611494565b6101b66102d1366004612228565b6114a0565b6101b66102e4366004612183565b6115dc565b6101ff6102f73660046121c6565b6116f6565b61016d61030a366004612396565b611960565b610317612090565b816110008111156103265760051b5b61032e612090565b610339600883612578565b60ff16608082015261034c600883612578565b60ff16606082015261035f600883612578565b60ff166040820152610372601083612578565b60ff16600b81111561039457634e487b7160e01b600052602160045260246000fd5b8190600b8111156103b557634e487b7160e01b600052602160045260246000fd5b9081600b8111156103d657634e487b7160e01b600052602160045260246000fd5b9052509392505050565b60015460405163261e906160e21b8152600a6004820152601460248201526000916001600160a01b03169063987a41849060440160206040518083038186803b15801561042c57600080fd5b505afa158015610440573d6000803e3d6000fd5b505050506040513d601f19601f820116820180604052508101906104649190612208565b1561047957610472836112c1565b9050610486565b6104726102ab8484611960565b92915050565b600080601183901c600881106104c35760405162461bcd60e51b815260206004820152600060248201526044015b60405180910390fd5b600384901c60006104d5600483612578565b905060006104e28361030f565b90506104ee8183611003565b9050600082600314156105865760015460405163261e906160e21b815260056004820152606460248201526001600160a01b039091169063987a4184906044015b60206040518083038186803b15801561054757600080fd5b505afa15801561055b573d6000803e3d6000fd5b505050506040513d601f19601f8201168201806040525081019061057f9190612208565b9050610690565b82600214156105c7576001805460405163261e906160e21b81526004810192909252605f60248301526001600160a01b03169063987a41849060440161052f565b82600114156106095760015460405163261e906160e21b8152600560048201526103ac60248201526001600160a01b039091169063987a41849060440161052f565b6001805460405163261e906160e21b815260048101929092526103a760248301526001600160a01b03169063987a41849060440160206040518083038186803b15801561065557600080fd5b505afa158015610669573d6000803e3d6000fd5b505050506040513d601f19601f8201168201806040525081019061068d9190612208565b90505b61069982611494565b9890975095505050505050565b8060ff166106b333610e2e565b60ff1610156106c157600080fd5b8060ff16600114610798576001546001600160a01b031663095ec7453360086106eb600286612518565b60ff168154811061070c57634e487b7160e01b600052603260045260246000fd5b6000918252602090912001546040516001600160e01b031960e085901b1681526001600160a01b0390921660048301526024820152604401602060405180830381600087803b15801561075e57600080fd5b505af1158015610772573d6000803e3d6000fd5b505050506040513d601f19601f820116820180604052508101906107969190612208565b505b60005b6107a68260016124df565b60ff168160ff1610156108605760005b6107c18360016124df565b60ff168160ff16101561084d5733600090815260046020526040902060019060ff84166006811061080257634e487b7160e01b600052603260045260246000fd5b602402018260ff166006811061082857634e487b7160e01b600052603260045260246000fd5b60060201805460ff19169115159190911790558061084581612558565b9150506107b6565b508061085881612558565b91505061079b565b5050565b6000546001600160a01b031633146108be5760405162461bcd60e51b815260206004820181905260248201527f4f776e61626c653a2063616c6c6572206973206e6f7420746865206f776e657260448201526064016104ba565b600080546040516001600160a01b03909116907f8be0079c531659141344cd1fd0a4f28419497f9722a3daafe3b4186f6b6457e0908390a3600080546001600160a01b0319169055565b6001600160a01b03831660009081526004602052604081208190819060119060ff87166006811061094957634e487b7160e01b600052603260045260246000fd5b602402018560ff166006811061096f57634e487b7160e01b600052603260045260246000fd5b6006020160010154901c905060008060058660ff16108015610a0757506001600160a01b0388166000908152600460205260409020839060119060ff8a16600681106109cb57634e487b7160e01b600052603260045260246000fd5b602402016109da8960016124df565b60ff16600681106109fb57634e487b7160e01b600052603260045260246000fd5b6006020160010154901c145b8015610a8457506001600160a01b038816600090815260046020526040902060ff881660068110610a4857634e487b7160e01b600052603260045260246000fd5b60240201610a578760016124df565b60ff1660068110610a7857634e487b7160e01b600052603260045260246000fd5b60060201600301544210155b15610aa757610a97600183811b906124c7565b915080610aa381612558565b9150505b60008660ff16118015610b3057506001600160a01b0388166000908152600460205260409020839060119060ff8a1660068110610af457634e487b7160e01b600052603260045260246000fd5b60240201610b0360018a612518565b60ff1660068110610b2457634e487b7160e01b600052603260045260246000fd5b6006020160010154901c145b8015610bad57506001600160a01b038816600090815260046020526040902060ff881660068110610b7157634e487b7160e01b600052603260045260246000fd5b60240201610b80600188612518565b60ff1660068110610ba157634e487b7160e01b600052603260045260246000fd5b60060201600301544210155b15610bd057610bc0600183811b906124c7565b915080610bcc81612558565b9150505b60008760ff16118015610c5957506001600160a01b03881660009081526004602052604090208390601190610c0660018b612518565b60ff1660068110610c2757634e487b7160e01b600052603260045260246000fd5b602402018860ff1660068110610c4d57634e487b7160e01b600052603260045260246000fd5b6006020160010154901c145b8015610cd657506001600160a01b0388166000908152600460205260409020610c83600189612518565b60ff1660068110610ca457634e487b7160e01b600052603260045260246000fd5b602402018660ff1660068110610cca57634e487b7160e01b600052603260045260246000fd5b60060201600301544210155b15610cf957610ce9600183811b906124c7565b915080610cf581612558565b9150505b60058760ff16108015610d8257506001600160a01b03881660009081526004602052604090208390601190610d2f8a60016124df565b60ff1660068110610d5057634e487b7160e01b600052603260045260246000fd5b602402018860ff1660068110610d7657634e487b7160e01b600052603260045260246000fd5b6006020160010154901c145b8015610dff57506001600160a01b0388166000908152600460205260409020610dac8860016124df565b60ff1660068110610dcd57634e487b7160e01b600052603260045260246000fd5b602402018660ff1660068110610df357634e487b7160e01b600052603260045260246000fd5b60060201600301544210155b15610e2257610e12600183811b906124c7565b915080610e1e81612558565b9150505b97909650945050505050565b6001600160a01b03811660009081526002602052604081205481906101f4811015610e5c5760019150610e9c565b611f40811015610e6f5760029150610e9c565b6201d4c0811015610e835760039150610e9c565b6207a120811015610e975760049150610e9c565b600591505b5092915050565b600080600d8360000151600b811115610ecc57634e487b7160e01b600052602160045260246000fd5b60ff16901b6009846020015160ff16901b6006856040015160ff16901b6003866060015160ff16901b8660800151610f0491906124df565b610f0e91906124df565b610f1891906124df565b610f2291906124df565b60ff169392505050565b610f34612090565b6002610f41600884612578565b1115610f4c57600080fd5b610486600583901c61030f565b600080826002811115610f7c57634e487b7160e01b600052602160045260246000fd5b6003856003811115610f9e57634e487b7160e01b600052602160045260246000fd5b901b6005610fab88610ea3565b610fb692911b6124c7565b610fc091906124c7565b9150505b9392505050565b60036020528160005260406000208181548110610fe757600080fd5b6000918252602090912001546001600160a01b03169150829050565b61100b612090565b60015460405163261e906160e21b815260026004820152600a60248201526001600160a01b039091169063987a41849060440160206040518083038186803b15801561105657600080fd5b505afa15801561106a573d6000803e3d6000fd5b505050506040513d601f19601f8201168201806040525081019061108e9190612208565b1561109f5761109c83611978565b92505b6110a883611a0c565b5081600314156110bb5761047283611c76565b816002141561115d5760015460405163261e906160e21b815260326004820152606460248201526001600160a01b039091169063987a4184906044015b60206040518083038186803b15801561111057600080fd5b505afa158015611124573d6000803e3d6000fd5b505050506040513d601f19601f820116820180604052508101906111489190612208565b156111565761047283611c76565b5081610486565b816001141561119e5760015460405163261e906160e21b8152601e6004820152606460248201526001600160a01b039091169063987a4184906044016110f8565b60015460405163261e906160e21b8152600a6004820152606460248201526001600160a01b039091169063987a4184906044016110f8565b60006111e0612090565b600154604051633352da4560e21b81526004808201526000916001600160a01b03169063cd4b69149060240160206040518083038186803b15801561122457600080fd5b505afa158015611238573d6000803e3d6000fd5b505050506040513d601f19601f8201168201806040525081019061125c919061237e565b9050806112735760088252600560208301526112b1565b806001141561128c5760098252600560408301526112b1565b80600214156112a557600a8252600560608301526112b1565b600b8252600560808301525b6112ba82611494565b9250505090565b6000806112cd83610f2c565b6001805460405163261e906160e21b81526004810192909252606460248301529192506000916001600160a01b03169063987a41849060440160206040518083038186803b15801561131e57600080fd5b505afa158015611332573d6000803e3d6000fd5b505050506040513d601f19601f820116820180604052508101906113569190612208565b156113655760035b9050611480565b60015460405163261e906160e21b815260056004820152606360248201526001600160a01b039091169063987a41849060440160206040518083038186803b1580156113b057600080fd5b505afa1580156113c4573d6000803e3d6000fd5b505050506040513d601f19601f820116820180604052508101906113e89190612208565b156113f457600261135e565b60015460405163261e906160e21b8152600a6004820152605e60248201526001600160a01b039091169063987a41849060440160206040518083038186803b15801561143f57600080fd5b505afa158015611453573d6000803e3d6000fd5b505050506040513d601f19601f820116820180604052508101906114779190612208565b15611480575060015b61148c82826001610f59565b949350505050565b600080610fc483610ea3565b6001546040516335911a1760e01b81526001600160a01b03909116906335911a17906114d09084906004016123d1565b600060405180830381600087803b1580156114ea57600080fd5b505af11580156114fe573d6000803e3d6000fd5b5050505061150c60016106a6565b6001546040516347af13f960e01b81523360048201526103e860248201526001600160a01b03909116906347af13f990604401600060405180830381600087803b15801561155957600080fd5b505af115801561156d573d6000803e3d6000fd5b50505050600160009054906101000a90046001600160a01b03166001600160a01b0316632403e8836040518163ffffffff1660e01b8152600401600060405180830381600087803b1580156115c157600080fd5b505af11580156115d5573d6000803e3d6000fd5b5050505050565b6000546001600160a01b031633146116365760405162461bcd60e51b815260206004820181905260248201527f4f776e61626c653a2063616c6c6572206973206e6f7420746865206f776e657260448201526064016104ba565b6001600160a01b03811661169b5760405162461bcd60e51b815260206004820152602660248201527f4f776e61626c653a206e6577206f776e657220697320746865207a65726f206160448201526564647265737360d01b60648201526084016104ba565b600080546040516001600160a01b03808516939216917f8be0079c531659141344cd1fd0a4f28419497f9722a3daafe3b4186f6b6457e091a3600080546001600160a01b0319166001600160a01b0392909216919091179055565b600080600080611707878787610908565b909350915060ff83166117205760009350505050610fc4565b600154604051633352da4560e21b815260ff851660048201526000916001600160a01b03169063cd4b69149060240160206040518083038186803b15801561176757600080fd5b505afa15801561177b573d6000803e3d6000fd5b505050506040513d601f19601f8201168201806040525081019061179f919061237e565b905060606117ae600285612578565b600114156117fb576004818460ff16815181106117db57634e487b7160e01b600052603260045260246000fd5b60ff90921660209283029190910190910152826117f781612558565b9350505b611806600285612504565b9350611813600285612578565b60011415611860576003818460ff168151811061184057634e487b7160e01b600052603260045260246000fd5b60ff909216602092830291909101909101528261185c81612558565b9350505b61186b600285612504565b9350611878600285612578565b600114156118c5576002818460ff16815181106118a557634e487b7160e01b600052603260045260246000fd5b60ff90921660209283029190910190910152826118c181612558565b9350505b6118d0600285612504565b93506118dd600285612578565b6001141561192a576001818460ff168151811061190a57634e487b7160e01b600052603260045260246000fd5b60ff909216602092830291909101909101528261192681612558565b9350505b80828151811061194a57634e487b7160e01b600052603260045260246000fd5b6020026020010151955050505050509392505050565b6000600261196e83856124c7565b610fc49190612504565b611980612090565b611988611f6c565b82602001516119979190612487565b60ff1660208301526119a7611f6c565b82604001516119b69190612487565b60ff1660408301526119c6611f6c565b82606001516119d59190612487565b60ff1660608301526119e5611f6c565b82608001516119f49190612487565b60ff166080830152611a0582611a0c565b5090919050565b611a14612090565b6006826020015160ff161115611a2c57600060208301525b6006826040015160ff161115611a4457600060408301525b6006826060015160ff161115611a5c57600060608301525b6006826080015160ff161115611a7457600060808301525b816020015160ff1660061415611a9b5760208201805190611a948261253b565b60ff169052505b816040015160ff1660061415611ac25760408201805190611abb8261253b565b60ff169052505b816060015160ff1660061415611ae95760608201805190611ae28261253b565b60ff169052505b816080015160ff1660061415611b105760808201805190611b098261253b565b60ff169052505b600060088360800151846060015185604001518660200151611b3291906124df565b611b3c91906124df565b611b4691906124df565b60ff161115611c7057600154604051633352da4560e21b81526004808201526001600160a01b039091169063cd4b69149060240160206040518083038186803b158015611b9257600080fd5b505afa158015611ba6573d6000803e3d6000fd5b505050506040513d601f19601f82011682018060405250810190611bca919061237e565b905080611bfa57602083015160ff1615611bf55760208301805190611bee8261253b565b60ff169052505b611a05565b8060011415611c2057604083015160ff1615611bf55760408301805190611bee8261253b565b8060021415611c4657606083015160ff1615611bf55760608301805190611bee8261253b565b608083015160ff1615611a055760808301805190611c638261253b565b60ff169052505090919050565b50919050565b611c7e612090565b600154604051633352da4560e21b81526004808201526000916001600160a01b03169063cd4b69149060240160206040518083038186803b158015611cc257600080fd5b505afa158015611cd6573d6000803e3d6000fd5b505050506040513d601f19601f82011682018060405250810190611cfa919061237e565b905080611d94578251600590600b811115611d2557634e487b7160e01b600052602160045260246000fd5b81548110611d4357634e487b7160e01b600052603260045260246000fd5b90600052602060002001600081548110611d6d57634e487b7160e01b600052603260045260246000fd5b90600052602060002001548360200151611d879190612487565b60ff166020840152611f5b565b8060011415611e30578251600590600b811115611dc157634e487b7160e01b600052602160045260246000fd5b81548110611ddf57634e487b7160e01b600052603260045260246000fd5b90600052602060002001600181548110611e0957634e487b7160e01b600052603260045260246000fd5b90600052602060002001548360400151611e239190612487565b60ff166040840152611f5b565b8060021415611ecc578251600590600b811115611e5d57634e487b7160e01b600052602160045260246000fd5b81548110611e7b57634e487b7160e01b600052603260045260246000fd5b90600052602060002001600281548110611ea557634e487b7160e01b600052603260045260246000fd5b90600052602060002001548360600151611ebf9190612487565b60ff166060840152611f5b565b8251600590600b811115611ef057634e487b7160e01b600052602160045260246000fd5b81548110611f0e57634e487b7160e01b600052603260045260246000fd5b90600052602060002001600381548110611f3857634e487b7160e01b600052603260045260246000fd5b90600052602060002001548360800151611f529190612487565b60ff1660808401525b611f6483611a0c565b509192915050565b60015460405163261e906160e21b815260056004820152606460248201526000916001600160a01b03169063987a41849060440160206040518083038186803b158015611fb857600080fd5b505afa158015611fcc573d6000803e3d6000fd5b505050506040513d601f19601f82011682018060405250810190611ff09190612208565b15611ffb5750600190565b60015460405163261e906160e21b815260056004820152605f60248201526001600160a01b039091169063987a41849060440160206040518083038186803b15801561204657600080fd5b505afa15801561205a573d6000803e3d6000fd5b505050506040513d601f19601f8201168201806040525081019061207e9190612208565b1561208a575060001990565b50600090565b6040805160a081019091528060008152600060208201819052604082018190526060820181905260809091015290565b80356001600160a01b03811681146120d757600080fd5b919050565b600060a082840312156120ed578081fd5b60405160a0810181811067ffffffffffffffff82111715612110576121106125b8565b6040529050808235600c811061212557600080fd5b815261213360208401612172565b602082015261214460408401612172565b604082015261215560608401612172565b606082015261216660808401612172565b60808201525092915050565b803560ff811681146120d757600080fd5b600060208284031215612194578081fd5b610fc4826120c0565b600080604083850312156121af578081fd5b6121b8836120c0565b946020939093013593505050565b6000806000606084860312156121da578081fd5b6121e3846120c0565b92506121f160208501612172565b91506121ff60408501612172565b90509250925092565b600060208284031215612219578081fd5b81518015158114610fc4578182fd5b600060208284031215612239578081fd5b813567ffffffffffffffff80821115612250578283fd5b818401915084601f830112612263578283fd5b813581811115612275576122756125b8565b604051601f8201601f19908116603f0116810190838211818310171561229d5761229d6125b8565b816040528281528760208487010111156122b5578586fd5b826020860160208301379182016020019490945295945050505050565b600060a082840312156122e3578081fd5b610fc483836120dc565b600080600060e08486031215612301578283fd5b61230b85856120dc565b925060a08401356004811061231e578283fd5b915060c084013560038110612331578182fd5b809150509250925092565b60008060c0838503121561234e578182fd5b61235884846120dc565b9460a0939093013593505050565b600060208284031215612377578081fd5b5035919050565b60006020828403121561238f578081fd5b5051919050565b600080604083850312156123a8578182fd5b50508035926020909101359150565b6000602082840312156123c8578081fd5b610fc482612172565b6000602080835283518082850152825b818110156123fd578581018301518582016040015282016123e1565b8181111561240e5783604083870101525b50601f01601f1916929092016040019392505050565b815160a0820190600c811061244957634e487b7160e01b600052602160045260246000fd5b8083525060ff602084015116602083015260ff604084015116604083015260ff606084015116606083015260ff608084015116608083015292915050565b600081810b83820b82821282607f038213811516156124a8576124a861258c565b82607f190382128116156124be576124be61258c565b50019392505050565b600082198211156124da576124da61258c565b500190565b600060ff821660ff84168060ff038211156124fc576124fc61258c565b019392505050565b600082612513576125136125a2565b500490565b600060ff821660ff8416808210156125325761253261258c565b90039392505050565b600060ff82168061254e5761254e61258c565b6000190192915050565b600060ff821660ff81141561256f5761256f61258c565b60010192915050565b600082612587576125876125a2565b500690565b634e487b7160e01b600052601160045260246000fd5b634e487b7160e01b600052601260045260246000fd5b634e487b7160e01b600052604160045260246000fdfea26469706673582212200b4e4a5065e6b76e2e52ec8691288adc447f3ab41240554e3c398932e41bd17264736f6c63430008040033",
  "immutableReferences": {},
  "source": "// SPDX-License-Identifier: MIT\npragma solidity ^0.8.0;\n\nimport \"@openzeppelin/contracts/access/Ownable.sol\";\n\nimport \"./FarmBase.sol\";\nimport \"./Repository.sol\";\n\nabstract contract IFarmFactory {\n    ///@dev \n    function getPlantProperties(uint256 _dna)\n        public\n        view\n        virtual\n        returns (FarmBase.PlantPropertiesPacked memory);\n\n    ///@dev DNA\n    function calDna(FarmBase.PlantPropertiesPacked memory _pack)\n        public\n        view\n        virtual\n        returns (uint256 dna);\n\n    ///@dev Tag\n    function calTag(\n        FarmBase.PlantPropertiesPacked memory _pack,\n        FarmBase.Quality quality,\n        Repository.ItemType itemType\n    ) public pure virtual returns (uint256 tag);\n\n    ///@dev \n    function getFruitTag(uint256 _seedTag)\n        public\n        view\n        virtual\n        returns (uint256 fruitTag);\n\n    ///@dev \n    function getSeedTag(FarmBase.PlantPropertiesPacked memory _pack)\n        public\n        pure\n        virtual\n        returns (uint256 seedTag);\n\n    ///@dev \n    function disassembleFruit(uint256 _fruitTag)\n        public\n        virtual\n        returns (uint256 seedTag, bool getSpecialSeed);\n\n    ///@dev Tag\n    function getPropertiesByTag(uint256 tag)\n        public\n        pure\n        virtual\n        returns (FarmBase.PlantPropertiesPacked memory);\n\n    ///@dev tag\n    function getDreamySeedTag() public view virtual returns (uint256);\n\n    ///@dev tag\n    function getHybridizedSeedTag(uint256 parent1, uint256 parent2)\n        public\n        pure\n        virtual\n        returns (uint256);\n\n    ///@dev tag\n    function getHarvestFruitTag(uint256 parent1, uint256 parent2)\n        public\n        view\n        virtual\n        returns (uint256);\n\n    ///@dev \n    function HybridizationCheck(\n        address _owner,\n        uint8 _x,\n        uint8 _y\n    ) public view virtual returns (uint8, uint256);\n\n    ///@dev \n    function randomHybridize(\n        address _owner,\n        uint8 _x,\n        uint8 _y\n    ) public view virtual returns (uint8);\n}\n\ncontract FarmFactory is IFarmFactory, FarmBase {\n    constructor(Repository _repo) FarmBase(_repo) {}\n\n    function _generateDna(uint256 Dna1, uint256 Dna2)\n        private\n        pure\n        returns (uint256)\n    {\n        uint256 child;\n        child = (Dna1 + Dna2) / 2;\n        return child;\n    }\n\n    function getFruitTag(uint256 _seedTag)\n        public\n        view\n        override\n        returns (uint256 fruitTag)\n    {\n        PlantPropertiesPacked memory pack = getPropertiesByTag(_seedTag);\n        Quality quality;\n        if (repo.probabilityCheck(1, 100)) {\n            quality = Quality(3);\n        } else if (repo.probabilityCheck(5, 99)) {\n            quality = Quality(2);\n        } else if (repo.probabilityCheck(10, 94)) {\n            quality = Quality(1);\n        }\n        return calTag(pack, quality, Repository.ItemType.Fruit);\n    }\n\n    function getSeedTag(PlantPropertiesPacked memory _pack)\n        public\n        pure\n        override\n        returns (uint256 SeedTag)\n    {\n        uint256 tag = calDna(_pack);\n        tag << 5;\n        return tag;\n    }\n\n    function getPlantProperties(uint256 _dna)\n        public\n        pure\n        override\n        returns (PlantPropertiesPacked memory)\n    {\n        uint256 dna = _dna;\n        if (dna > (1 << 12)) {\n            dna <<= 5;\n        }\n        PlantPropertiesPacked memory pack;\n        pack.spd = uint8(dna % 8);\n        dna >> 3;\n        pack.def = uint8(dna % 8);\n        dna >> 3;\n        pack.atk = uint8(dna % 8);\n        pack.hp >> 3;\n        pack.specie = Specie(uint8(dna % 16));\n        return pack;\n    }\n\n    function calDna(PlantPropertiesPacked memory _pack)\n        public\n        pure\n        override\n        returns (uint256 dna)\n    {\n        uint256 _dna =\n            _pack.spd +\n                (_pack.def << 3) +\n                (_pack.atk << 6) +\n                (_pack.hp << 9) +\n                (uint8(_pack.specie) << 13);\n        return _dna;\n    }\n\n    function calTag(\n        PlantPropertiesPacked memory _pack,\n        Quality quality,\n        Repository.ItemType itemType\n    ) public pure override returns (uint256 tag) {\n        uint256 _tag =\n            (calDna(_pack) << 5) + (uint256(quality) << 3) + uint256(itemType);\n        return _tag;\n    }\n\n    //\n    //FruitTag\n    //SeedTagbool()\n    function disassembleFruit(uint256 _fruitTag)\n        public\n        view\n        override\n        returns (uint256 seedTag, bool getSpecialSeed)\n    {\n        uint256 specie = _fruitTag >> 17;\n        require(specie < 8, \"\");\n        uint256 dna = _fruitTag >> 3;\n        uint256 quality = dna % 4;\n        dna >> 2;\n        PlantPropertiesPacked memory pack = getPlantProperties(dna);\n        pack = generateRandomAttribute(pack, quality);\n        bool check;\n        if (quality == 3) {\n            check = repo.probabilityCheck(5, 100);\n        } else if (quality == 2) {\n            check = repo.probabilityCheck(1, 95);\n        } else if (quality == 1) {\n            check = repo.probabilityCheck(5, 940);\n        } else {\n            check = repo.probabilityCheck(1, 935);\n        }\n        return (getSeedTag(pack), check);\n    }\n\n    //\n    //PlantPropertiesPackedQuality\n    //PlantPropertiesPacked\n    function generateRandomAttribute(\n        PlantPropertiesPacked memory _pack,\n        uint256 quality\n    ) public view returns (PlantPropertiesPacked memory) {\n        if (repo.probabilityCheck(2, 10)) {\n            _pack = followRandom(_pack);\n        }\n        PropertiesLegelCheck(_pack);\n        if (quality == 3) {\n            return followSpecie(_pack);\n        } else if (quality == 2) {\n            if (repo.probabilityCheck(50, 100)) {\n                return followSpecie(_pack);\n            }\n            return _pack;\n        } else if (quality == 1) {\n            if (repo.probabilityCheck(30, 100)) {\n                return followSpecie(_pack);\n            }\n            return _pack;\n        } else {\n            if (repo.probabilityCheck(10, 100)) {\n                return followSpecie(_pack);\n            }\n            return _pack;\n        }\n    }\n\n    //\n    //PlantPropertiesPacked\n    //PlantPropertiesPacked\n    function followSpecie(PlantPropertiesPacked memory _pack)\n        internal\n        view\n        returns (PlantPropertiesPacked memory)\n    {\n        uint256 rnd = repo.getRandom(4);\n        if (rnd == 0) {\n            _pack.hp = uint8(\n                int8(_pack.hp) + int8(specieData[uint256(_pack.specie)][0])\n            );\n        } else if (rnd == 1) {\n            _pack.atk = uint8(\n                int8(_pack.atk) + int8(specieData[uint256(_pack.specie)][1])\n            );\n        } else if (rnd == 2) {\n            _pack.def = uint8(\n                int8(_pack.def) + int8(specieData[uint256(_pack.specie)][2])\n            );\n        } else {\n            _pack.spd = uint8(\n                int8(_pack.spd) + int8(specieData[uint256(_pack.specie)][3])\n            );\n        }\n        PropertiesLegelCheck(_pack);\n        return _pack;\n    }\n\n    //\n    //PlantPropertiesPacked\n    //PlantPropertiesPacked\n    function followRandom(PlantPropertiesPacked memory _pack)\n        internal\n        view\n        returns (PlantPropertiesPacked memory)\n    {\n        _pack.hp = uint8(int8(_pack.hp) + getFollowRandom());\n        _pack.atk = uint8(int8(_pack.atk) + getFollowRandom());\n        _pack.def = uint8(int8(_pack.def) + getFollowRandom());\n        _pack.spd = uint8(int8(_pack.spd) + getFollowRandom());\n        PropertiesLegelCheck(_pack);\n        return _pack;\n    }\n\n    //\n    //int8\n    function getFollowRandom() internal view returns (int8) {\n        if (repo.probabilityCheck(5, 100)) {\n            return 1;\n        } else if (repo.probabilityCheck(5, 95)) {\n            return -1;\n        }\n        return 0;\n    }\n\n    //\n    //PlantPropertiesPacked\n    //PlantPropertiesPacked\n    function PropertiesLegelCheck(PlantPropertiesPacked memory _pack)\n        internal\n        view\n        returns (PlantPropertiesPacked memory pack)\n    {\n        //uint\n        if (_pack.hp > 6) {\n            _pack.hp = 0;\n        }\n        if (_pack.atk > 6) {\n            _pack.atk = 0;\n        }\n        if (_pack.def > 6) {\n            _pack.def = 0;\n        }\n        if (_pack.spd > 6) {\n            _pack.spd = 0;\n        }\n        //\n        if (_pack.hp == 6) {\n            _pack.hp--;\n        }\n        if (_pack.atk == 6) {\n            _pack.atk--;\n        }\n        if (_pack.def == 6) {\n            _pack.def--;\n        }\n        if (_pack.spd == 6) {\n            _pack.spd--;\n        }\n        //>8\n        uint256 rnd;\n        while (_pack.hp + _pack.atk + _pack.def + _pack.spd > 8) {\n            rnd = repo.getRandom(4);\n            if (rnd == 0) {\n                if (_pack.hp > 0) {\n                    _pack.hp--;\n                }\n            } else if (rnd == 1) {\n                if (_pack.atk > 0) {\n                    _pack.atk--;\n                }\n            } else if (rnd == 2) {\n                if (_pack.def > 0) {\n                    _pack.def--;\n                }\n            } else {\n                if (_pack.spd > 0) {\n                    _pack.spd--;\n                }\n            }\n            return _pack;\n        }\n    }\n\n    //Tag\n    //uint256\n    //PlantPropertiesPacked\n    function getPropertiesByTag(uint256 _tag)\n        public\n        pure\n        override\n        returns (PlantPropertiesPacked memory)\n    {\n        require(_tag % 8 <= 2);\n        return getPlantProperties(_tag >> 5);\n    }\n\n    //tag\n    //uint256\n    function getDreamySeedTag() public view override returns (uint256) {\n        PlantPropertiesPacked memory pack;\n        uint256 rnd = repo.getRandom(4);\n        if (rnd == 0) {\n            pack.specie = Specie(8);\n            pack.hp = 5;\n        } else if (rnd == 1) {\n            pack.specie = Specie(9);\n            pack.atk = 5;\n        } else if (rnd == 2) {\n            pack.specie = Specie(10);\n            pack.def = 5;\n        } else {\n            pack.specie = Specie(11);\n            pack.spd = 5;\n        }\n        return getSeedTag(pack);\n    }\n\n    //tag\n    //uint256 p1, uint256 p2\n    //uint256\n    function getHybridizedSeedTag(uint256 parent1, uint256 parent2)\n        public\n        pure\n        override\n        returns (uint256)\n    {\n        return (parent1 + parent2) / 2;\n    }\n\n    //tag\n    //uint256 p1, uint256 p2\n    //uint256\n    function getHarvestFruitTag(uint256 parent1, uint256 parent2)\n        public\n        view\n        override\n        returns (uint256)\n    {\n        if (repo.probabilityCheck(10, 20)) {\n            return getFruitTag(parent1);\n        } else {\n            return getFruitTag(getHybridizedSeedTag(parent1, parent2));\n        }\n    }\n\n    //\n    //address _owner, uint8 _x,uint8 _y\n    //uint8 count,uint256\n    function HybridizationCheck(\n        address _owner,\n        uint8 _x,\n        uint8 _y\n    ) public view override returns (uint8, uint256) {\n        uint256 specie = fields[_owner][_x][_y].seedTag >> 17;\n        uint256 sign;\n        uint8 count;\n        //up\n        if (\n            _y < 5 &&\n            fields[_owner][_x][_y + 1].seedTag >> 17 == specie &&\n            block.timestamp >= fields[_owner][_x][_y + 1].maturityTime\n        ) {\n            sign = (sign << 1) + 1;\n            count++;\n        }\n        //down\n        if (\n            _y > 0 &&\n            fields[_owner][_x][_y - 1].seedTag >> 17 == specie &&\n            block.timestamp >= fields[_owner][_x][_y - 1].maturityTime\n        ) {\n            sign = (sign << 1) + 1;\n            count++;\n        }\n        //left\n        if (\n            _x > 0 &&\n            fields[_owner][_x - 1][_y].seedTag >> 17 == specie &&\n            block.timestamp >= fields[_owner][_x - 1][_y].maturityTime\n        ) {\n            sign = (sign << 1) + 1;\n            count++;\n        }\n        //right\n        if (\n            _x < 5 &&\n            fields[_owner][_x + 1][_y].seedTag >> 17 == specie &&\n            block.timestamp >= fields[_owner][_x + 1][_y].maturityTime\n        ) {\n            sign = (sign << 1) + 1;\n            count++;\n        }\n        return (count, sign);\n    }\n\n    //\n    //address _owner, uint8 _x,uint8 _y\n    //uint8\n    function randomHybridize(\n        address _owner,\n        uint8 _x,\n        uint8 _y\n    ) public view override returns (uint8) {\n        uint8 count;\n        uint256 sign;\n        uint8 p;\n        (count, sign) = HybridizationCheck(_owner, _x, _y);\n        if (count == 0) {\n            return 0;\n        }\n        uint256 rnd = repo.getRandom(count);\n        uint8[] memory temp;\n        if (sign % 2 == 1) {\n            temp[p] = 4;\n            p++;\n        }\n        sign /= 2;\n        if (sign % 2 == 1) {\n            temp[p] = 3;\n            p++;\n        }\n        sign /= 2;\n        if (sign % 2 == 1) {\n            temp[p] = 2;\n            p++;\n        }\n        sign /= 2;\n        if (sign % 2 == 1) {\n            temp[p] = 1;\n            p++;\n        }\n        return temp[rnd];\n    }\n}\n",
  "sourcePath": "F:/Projects/PixFarmon-frontend/src/util/pixfarmon-dapp/Pixfarmon/contracts/FarmFactory.sol",
  "compiler": {
    "name": "solc",
    "version": "0.8.4+commit.c7e474f2.Emscripten.clang"
  },
  "schemaVersion": "3.3.4",
  "updatedAt": "2021-06-02T10:53:47.186Z",
  "networkType": "ethereum",
  "devdoc": {
    "kind": "dev",
    "methods": {
      "HybridizationCheck(address,uint8,uint8)": {
        "details": ""
      },
      "calDna((uint8,uint8,uint8,uint8,uint8))": {
        "details": "DNA"
      },
      "calTag((uint8,uint8,uint8,uint8,uint8),uint8,uint8)": {
        "details": "Tag"
      },
      "disassembleFruit(uint256)": {
        "details": ""
      },
      "getDreamySeedTag()": {
        "details": "tag"
      },
      "getFarmLevel(address)": {
        "details": ""
      },
      "getFruitTag(uint256)": {
        "details": ""
      },
      "getHarvestFruitTag(uint256,uint256)": {
        "details": "tag"
      },
      "getHybridizedSeedTag(uint256,uint256)": {
        "details": "tag"
      },
      "getPlantProperties(uint256)": {
        "details": ""
      },
      "getSeedTag((uint8,uint8,uint8,uint8,uint8))": {
        "details": ""
      },
      "owner()": {
        "details": "Returns the address of the current owner."
      },
      "randomHybridize(address,uint8,uint8)": {
        "details": ""
      },
      "register(string)": {
        "details": ""
      },
      "renounceOwnership()": {
        "details": "Leaves the contract without owner. It will not be possible to call `onlyOwner` functions anymore. Can only be called by the current owner. NOTE: Renouncing ownership will leave the contract without an owner, thereby removing any functionality that is only available to the owner."
      },
      "transferOwnership(address)": {
        "details": "Transfers ownership of the contract to a new account (`newOwner`). Can only be called by the current owner."
      }
    },
    "version": 1
  },
  "userdoc": {
    "kind": "user",
    "methods": {},
    "version": 1
  }
}