{
  "contractName": "FarmMarket",
  "abi": [
    {
      "inputs": [
        {
          "internalType": "contract FarmFactory",
          "name": "_fc",
          "type": "address"
        },
        {
          "internalType": "contract Repository",
          "name": "_repo",
          "type": "address"
        }
      ],
      "stateMutability": "nonpayable",
      "type": "constructor"
    },
    {
      "anonymous": false,
      "inputs": [
        {
          "indexed": false,
          "internalType": "uint256",
          "name": "seedTag",
          "type": "uint256"
        }
      ],
      "name": "CalculatedTag",
      "type": "event"
    },
    {
      "anonymous": false,
      "inputs": [
        {
          "indexed": true,
          "internalType": "address",
          "name": "previousOwner",
          "type": "address"
        },
        {
          "indexed": true,
          "internalType": "address",
          "name": "newOwner",
          "type": "address"
        }
      ],
      "name": "OwnershipTransferred",
      "type": "event"
    },
    {
      "anonymous": false,
      "inputs": [
        {
          "indexed": false,
          "internalType": "address",
          "name": "buyer",
          "type": "address"
        },
        {
          "indexed": false,
          "internalType": "uint256",
          "name": "tag",
          "type": "uint256"
        },
        {
          "indexed": false,
          "internalType": "uint256",
          "name": "_amount",
          "type": "uint256"
        },
        {
          "indexed": false,
          "internalType": "uint256",
          "name": "cost",
          "type": "uint256"
        }
      ],
      "name": "SeedSoldFromShop",
      "type": "event"
    },
    {
      "inputs": [
        {
          "internalType": "address",
          "name": "_owner",
          "type": "address"
        }
      ],
      "name": "getFarmLevel",
      "outputs": [
        {
          "internalType": "uint8",
          "name": "",
          "type": "uint8"
        }
      ],
      "stateMutability": "view",
      "type": "function",
      "constant": true
    },
    {
      "inputs": [],
      "name": "owner",
      "outputs": [
        {
          "internalType": "address",
          "name": "",
          "type": "address"
        }
      ],
      "stateMutability": "view",
      "type": "function",
      "constant": true
    },
    {
      "inputs": [
        {
          "internalType": "address",
          "name": "",
          "type": "address"
        },
        {
          "internalType": "uint256",
          "name": "",
          "type": "uint256"
        }
      ],
      "name": "owners",
      "outputs": [
        {
          "internalType": "address",
          "name": "",
          "type": "address"
        }
      ],
      "stateMutability": "view",
      "type": "function",
      "constant": true
    },
    {
      "inputs": [
        {
          "internalType": "string",
          "name": "_name",
          "type": "string"
        }
      ],
      "name": "register",
      "outputs": [],
      "stateMutability": "nonpayable",
      "type": "function"
    },
    {
      "inputs": [],
      "name": "renounceOwnership",
      "outputs": [],
      "stateMutability": "nonpayable",
      "type": "function"
    },
    {
      "inputs": [
        {
          "internalType": "address",
          "name": "newOwner",
          "type": "address"
        }
      ],
      "name": "transferOwnership",
      "outputs": [],
      "stateMutability": "nonpayable",
      "type": "function"
    },
    {
      "inputs": [
        {
          "internalType": "uint8",
          "name": "level",
          "type": "uint8"
        }
      ],
      "name": "upgradeLand",
      "outputs": [],
      "stateMutability": "nonpayable",
      "type": "function"
    },
    {
      "inputs": [
        {
          "internalType": "uint256",
          "name": "specie",
          "type": "uint256"
        },
        {
          "internalType": "uint256",
          "name": "level",
          "type": "uint256"
        },
        {
          "internalType": "uint256",
          "name": "_amount",
          "type": "uint256"
        }
      ],
      "name": "buySeed",
      "outputs": [],
      "stateMutability": "nonpayable",
      "type": "function"
    },
    {
      "inputs": [
        {
          "internalType": "uint256",
          "name": "specie",
          "type": "uint256"
        },
        {
          "internalType": "uint256",
          "name": "level",
          "type": "uint256"
        }
      ],
      "name": "getFruitValue",
      "outputs": [
        {
          "internalType": "uint256",
          "name": "",
          "type": "uint256"
        }
      ],
      "stateMutability": "view",
      "type": "function",
      "constant": true
    },
    {
      "inputs": [
        {
          "internalType": "uint256",
          "name": "_tag",
          "type": "uint256"
        }
      ],
      "name": "getFruitValueByTag",
      "outputs": [
        {
          "internalType": "uint256",
          "name": "",
          "type": "uint256"
        }
      ],
      "stateMutability": "view",
      "type": "function",
      "constant": true
    },
    {
      "inputs": [
        {
          "internalType": "uint256",
          "name": "_tag",
          "type": "uint256"
        },
        {
          "internalType": "uint256",
          "name": "_amount",
          "type": "uint256"
        }
      ],
      "name": "sellFruit",
      "outputs": [
        {
          "internalType": "bool",
          "name": "",
          "type": "bool"
        }
      ],
      "stateMutability": "nonpayable",
      "type": "function"
    }
  ],
  "bytecode": "0x6101806040526064608090815260c860a05261019060c05261032060e0526104b061010052610708610120526109c461014052610dac61016052620000499060019060086200047c565b5060405180610100016040528060968152602001606481526020016096815260200160c8815260200160fa815260200160fa815260200161012c81526020016101908152506002906008620000a09291906200047c565b506040518061010001604052806001815260200160018152602001600281526020016003815260200160058152602001600a8152602001600f815260200160148152506003906008620000f59291906200047c565b506040518061010001604052806040518060800160405280600181526020016000198152602001600019815260200160018152508152602001604051806080016040528060018152602001600019815260200160001981526020016001815250815260200160405180608001604052806001815260200160001981526020016001815260200160001981525081526020016040518060800160405280600019815260200160018152602001600181526020016000198152508152602001604051806080016040528060001981526020016001815260200160001981526020016001815250815260200160405180608001604052806000198152602001600019815260200160018152602001600181525081526020016040518060800160405280600181526020016000815260200160008152602001600081525081526020016040518060800160405280600081526020016000815260200160008152602001600181525081525060099060086200026e929190620004cc565b5060405180610180016040528061012c815260200161025881526020016107088152602001610e108152602001611c2081526020016146508152602001617080815260200161a8c0815260200162015180815260200162015180815260200162015180815260200162015180815250600a90600c620002ef9291906200047c565b506040805161018081018252600a808252602082018190529181018290526060810182905260146080820181905260a0820152600f60c0820181905260e08201819052610100820181905261012082018190526101408201929092526101608101919091526200036490600b90600c62000526565b5060408051608081018252612ee08152620493e06020820152625b8d8091810191909152627a12006060820152620003a190600c90600462000569565b50348015620003af57600080fd5b5060405162001a9938038062001a99833981016040819052620003d29162000609565b600080546001600160a01b0319166001600160a01b0383161781558190620003f73390565b600480546001600160a01b0319166001600160a01b038316908117909155604051919250906000907f8be0079c531659141344cd1fd0a4f28419497f9722a3daafe3b4186f6b6457e0908290a350600580546001600160a01b039283166001600160a01b031991821617909155600d805494909216931692909217909155506200065d565b828054828255906000526020600020908101928215620004ba579160200282015b82811115620004ba5782518255916020019190600101906200049d565b50620004c8929150620005ae565b5090565b82805482825590600052602060002090810192821562000518579160200282015b82811115620005185782516200050790839060046200047c565b5091602001919060010190620004ed565b50620004c8929150620005c5565b828054828255906000526020600020908101928215620004ba579160200282015b82811115620004ba578251829060ff1690559160200191906001019062000547565b828054828255906000526020600020908101928215620004ba579160200282015b82811115620004ba578251829062ffffff169055916020019190600101906200058a565b5b80821115620004c85760008155600101620005af565b80821115620004c8576000620005dc8282620005e6565b50600101620005c5565b5080546000825590600052602060002090810190620006069190620005ae565b50565b600080604083850312156200061c578182fd5b8251620006298162000647565b60208401519092506200063c8162000647565b809150509250929050565b6001600160a01b03811681146200060657600080fd5b61142c806200066d6000396000f3fe608060405234801561001057600080fd5b50600436106100a95760003560e01c80637da1618f116100715780637da1618f146101275780638da5cb5b1461014c5780639b3e278714610171578063cd9f51cc14610184578063f2c298be14610197578063f2fde38b146101aa57600080fd5b80633bebb905146100ae578063593a5d51146100d45780636d0811b5146100e9578063715018a61461010c5780637381bbae14610114575b600080fd5b6100c16100bc366004611177565b6101bd565b6040519081526020015b60405180910390f35b6100e76100e23660046111c3565b610282565b005b6100fc6100f7366004611177565b610440565b60405190151581526020016100cb565b6100e7610460565b6100e7610122366004611198565b610509565b61013a610135366004610fa0565b61096f565b60405160ff90911681526020016100cb565b6004546001600160a01b03165b6040516001600160a01b0390911681526020016100cb565b61015961017f366004610fba565b6109e4565b6100c1610192366004611147565b610a1c565b6100e76101a5366004611003565b610bce565b6100e76101b8366004610fa0565b610d0a565b6000600883106101cc57600080fd5b6064600384815481106101ef57634e487b7160e01b600052603260045260246000fd5b90600052602060002001546102049190611305565b61020f9060646112c8565b6001838154811061023057634e487b7160e01b600052603260045260246000fd5b90600052602060002001546002858154811061025c57634e487b7160e01b600052603260045260246000fd5b906000526020600020015461027191906112c8565b61027b9190611325565b9392505050565b8060ff1661028f3361096f565b60ff16101561029d57600080fd5b8060ff16600114610374576005546001600160a01b031663095ec74533600c6102c7600286611344565b60ff16815481106102e857634e487b7160e01b600052603260045260246000fd5b6000918252602090912001546040516001600160e01b031960e085901b1681526001600160a01b0390921660048301526024820152604401602060405180830381600087803b15801561033a57600080fd5b505af115801561034e573d6000803e3d6000fd5b505050506040513d601f19601f820116820180604052508101906103729190610fe3565b505b60005b6103828260016112e0565b60ff168160ff16101561043c5760005b61039d8360016112e0565b60ff168160ff1610156104295733600090815260086020526040902060019060ff8416600681106103de57634e487b7160e01b600052603260045260246000fd5b602402018260ff166006811061040457634e487b7160e01b600052603260045260246000fd5b60060201805460ff19169115159190911790558061042181611382565b915050610392565b508061043481611382565b915050610377565b5050565b60006104576001848461045287610a1c565b610e25565b50600192915050565b6004546001600160a01b031633146104bf5760405162461bcd60e51b815260206004820181905260248201527f4f776e61626c653a2063616c6c6572206973206e6f7420746865206f776e657260448201526064015b60405180910390fd5b6004546040516000916001600160a01b0316907f8be0079c531659141344cd1fd0a4f28419497f9722a3daafe3b4186f6b6457e0908390a3600480546001600160a01b0319169055565b600482111561054a5760405162461bcd60e51b815260206004820152600d60248201526c11549497d05491d7d311559153609a1b60448201526064016104b6565b816105543361096f565b60ff16101561058f5760405162461bcd60e51b815260206004820152600760248201526611549497d3159360ca1b60448201526064016104b6565b6040805160a08101825260008082526020820181905291810182905260608101829052608081019190915283600b8111156105da57634e487b7160e01b600052602160045260246000fd5b8190600b8111156105fb57634e487b7160e01b600052602160045260246000fd5b9081600b81111561061c57634e487b7160e01b600052602160045260246000fd5b9052506000602082018190526040820181905260608201819052608082018190525b8381101561074957600554604051633352da4560e21b81526004808201526000916001600160a01b03169063cd4b69149060240160206040518083038186803b15801561068a57600080fd5b505afa15801561069e573d6000803e3d6000fd5b505050506040513d601f19601f820116820180604052508101906106c2919061115f565b9050806106e457602083018051906106d982611382565b60ff16905250610736565b80600114156106fd57604083018051906106d982611382565b806002141561071657606083018051906106d982611382565b8060031415610736576080830180519061072f82611382565b60ff169052505b508061074181611367565b91505061063e565b5060006107568585610f20565b600d546040516370348e7f60e11b81529192506000916001600160a01b039091169063e0691cfe9061078c908690600401611273565b60206040518083038186803b1580156107a457600080fd5b505afa1580156107b8573d6000803e3d6000fd5b505050506040513d601f19601f820116820180604052508101906107dc919061115f565b90507fbb30e2d2b5569e43d01ab29cd798913c26cda4849285b0d9540d0bdbc3c9bd858160405161080f91815260200190565b60405180910390a1600554604051635975b25760e01b815260048101839052336024820152604481018690526001600160a01b0390911690635975b25790606401600060405180830381600087803b15801561086a57600080fd5b505af115801561087e573d6000803e3d6000fd5b50506005546001600160a01b0316915063095ec7459050336108a08989610f20565b6040516001600160e01b031960e085901b1681526001600160a01b0390921660048301526024820152604401602060405180830381600087803b1580156108e657600080fd5b505af11580156108fa573d6000803e3d6000fd5b505050506040513d601f19601f8201168201806040525081019061091e9190610fe3565b506040805133815260208101839052908101859052606081018390527f15a54036d1f489642c78d6d67804eb544daab7b09d2fcadd47f2be75bcc4fff69060800160405180910390a1505050505050565b6001600160a01b03811660009081526006602052604081205481906101f481101561099d57600191506109dd565b611f408110156109b057600291506109dd565b6201d4c08110156109c457600391506109dd565b6207a1208110156109d857600491506109dd565b600591505b5092915050565b60076020528160005260406000208181548110610a0057600080fd5b6000918252602090912001546001600160a01b03169150829050565b600d54604051638d55953d60e01b81526004810183905260009182916001600160a01b0390911690638d55953d9060240160a06040518083038186803b158015610a6557600080fd5b505afa158015610a79573d6000803e3d6000fd5b505050506040513d601f19601f82011682018060405250810190610a9d91906110ad565b905060008160000151600b811115610ac557634e487b7160e01b600052602160045260246000fd5b905060008260800151836060015184602001518560400151610ae791906112e0565b610af191906112e0565b610afb91906112e0565b905060088260ff1610610b0d57600080fd5b606460038360ff1681548110610b3357634e487b7160e01b600052603260045260246000fd5b9060005260206000200154610b489190611305565b610b539060646112c8565b60018260ff1681548110610b7757634e487b7160e01b600052603260045260246000fd5b906000526020600020015460028460ff1681548110610ba657634e487b7160e01b600052603260045260246000fd5b9060005260206000200154610bbb91906112c8565b610bc59190611325565b95945050505050565b6005546040516335911a1760e01b81526001600160a01b03909116906335911a1790610bfe908490600401611220565b600060405180830381600087803b158015610c1857600080fd5b505af1158015610c2c573d6000803e3d6000fd5b50505050610c3a6001610282565b6005546040516347af13f960e01b81523360048201526103e860248201526001600160a01b03909116906347af13f990604401600060405180830381600087803b158015610c8757600080fd5b505af1158015610c9b573d6000803e3d6000fd5b50505050600560009054906101000a90046001600160a01b03166001600160a01b0316632403e8836040518163ffffffff1660e01b8152600401600060405180830381600087803b158015610cef57600080fd5b505af1158015610d03573d6000803e3d6000fd5b5050505050565b6004546001600160a01b03163314610d645760405162461bcd60e51b815260206004820181905260248201527f4f776e61626c653a2063616c6c6572206973206e6f7420746865206f776e657260448201526064016104b6565b6001600160a01b038116610dc95760405162461bcd60e51b815260206004820152602660248201527f4f776e61626c653a206e6577206f776e657220697320746865207a65726f206160448201526564647265737360d01b60648201526084016104b6565b6004546040516001600160a01b038084169216907f8be0079c531659141344cd1fd0a4f28419497f9722a3daafe3b4186f6b6457e090600090a3600480546001600160a01b0319166001600160a01b0392909216919091179055565b6000546040516329d8ba7160e21b81526001600160a01b039091169063a762e9c490610e5b9033908890889088906004016111df565b602060405180830381600087803b158015610e7557600080fd5b505af1158015610e89573d6000803e3d6000fd5b505050506040513d601f19601f82011682018060405250810190610ead9190610fe3565b610eb657600080fd5b6000546040516347af13f960e01b8152336004820152602481018390526001600160a01b03909116906347af13f990604401600060405180830381600087803b158015610f0257600080fd5b505af1158015610f16573d6000803e3d6000fd5b5050505050505050565b600060018281548110610f4357634e487b7160e01b600052603260045260246000fd5b906000526020600020015460028481548110610f6f57634e487b7160e01b600052603260045260246000fd5b906000526020600020015461027b91906112c8565b80356001600160a01b0381168114610f9b57600080fd5b919050565b600060208284031215610fb1578081fd5b61027b82610f84565b60008060408385031215610fcc578081fd5b610fd583610f84565b946020939093013593505050565b600060208284031215610ff4578081fd5b8151801515811461027b578182fd5b600060208284031215611014578081fd5b813567ffffffffffffffff8082111561102b578283fd5b818401915084601f83011261103e578283fd5b813581811115611050576110506113ce565b604051601f8201601f19908116603f01168101908382118183101715611078576110786113ce565b81604052828152876020848701011115611090578586fd5b826020860160208301379182016020019490945295945050505050565b600060a082840312156110be578081fd5b60405160a0810181811067ffffffffffffffff821117156110e1576110e16113ce565b6040528251600c81106110f2578283fd5b81526020830151611102816113e4565b60208201526040830151611115816113e4565b60408201526060830151611128816113e4565b6060820152608083015161113b816113e4565b60808201529392505050565b600060208284031215611158578081fd5b5035919050565b600060208284031215611170578081fd5b5051919050565b60008060408385031215611189578182fd5b50508035926020909101359150565b6000806000606084860312156111ac578081fd5b505081359360208301359350604090920135919050565b6000602082840312156111d4578081fd5b813561027b816113e4565b6001600160a01b038516815260808101600385106111ff576111ff6113b8565b84602083015283604083015263ffffffff8316606083015295945050505050565b6000602080835283518082850152825b8181101561124c57858101830151858201604001528201611230565b8181111561125d5783604083870101525b50601f01601f1916929092016040019392505050565b815160a0820190600c811061128a5761128a6113b8565b8083525060ff602084015116602083015260ff604084015116604083015260ff606084015116606083015260ff608084015116608083015292915050565b600082198211156112db576112db6113a2565b500190565b600060ff821660ff84168060ff038211156112fd576112fd6113a2565b019392505050565b60008261132057634e487b7160e01b81526012600452602481fd5b500490565b600081600019048311821515161561133f5761133f6113a2565b500290565b600060ff821660ff84168082101561135e5761135e6113a2565b90039392505050565b600060001982141561137b5761137b6113a2565b5060010190565b600060ff821660ff811415611399576113996113a2565b60010192915050565b634e487b7160e01b600052601160045260246000fd5b634e487b7160e01b600052602160045260246000fd5b634e487b7160e01b600052604160045260246000fd5b60ff811681146113f357600080fd5b5056fea2646970667358221220a0cdc78a88e5932071034680b61b85a2e56a135a75d3e33f993332d8fc0aa1d964736f6c63430008040033",
  "immutableReferences": {},
  "source": "// SPDX-License-Identifier: MIT\npragma solidity ^0.8.0;\n\nimport \"./MarketBase.sol\";\nimport \"./FarmBase.sol\";\nimport \"./FarmFactory.sol\";\n\ncontract FarmMarket is MarketBase, FarmBase {\n    FarmFactory fc;\n\n    constructor(FarmFactory _fc, Repository _repo)\n        FarmBase(_repo)\n        MarketBase(_repo)\n    {\n        fc = _fc;\n    }\n\n    event SeedSoldFromShop(\n        address buyer,\n        uint256 tag,\n        uint256 _amount,\n        uint256 cost\n    );\n    event CalculatedTag(uint256 seedTag);\n\n    function buySeed(\n        uint256 specie,\n        uint256 level,\n        uint256 _amount\n    ) public {\n        require(level <= 4, \"ERR_ARG_LEVEL\");\n        require(getFarmLevel(msg.sender) >= level, \"ERR_LVL\");\n        PlantPropertiesPacked memory pack;\n        pack.specie = Specie(specie);\n        pack.hp = 0;\n        pack.atk = 0;\n        pack.def = 0;\n        pack.spd = 0;\n        // \n        for (uint256 i = 0; i < level; i++) {\n            uint256 rnd = repo.getRandom(4);\n            if (rnd == 0) {\n                pack.hp++;\n            } else if (rnd == 1) {\n                pack.atk++;\n            } else if (rnd == 2) {\n                pack.def++;\n            } else if (rnd == 3) {\n                pack.spd++;\n            }\n        }\n        // \n        uint256 _price = getSeedValue(specie, level);\n        uint256 seedTag = fc.getSeedTag(pack);\n        emit CalculatedTag(seedTag);\n        // Item memory item;\n        // item.tag = uint32(seedTag);\n        // item.stack = uint32(_amount);\n        // item.usable = true;\n        repo.addSeed(seedTag, msg.sender, _amount);\n        repo.transferToShop(msg.sender, getSeedValue(specie, level));\n        emit SeedSoldFromShop(msg.sender, seedTag, _amount, _price);\n    }\n\n    /// @dev \n    function getSeedValue(uint256 specie, uint256 level)\n        internal\n        view\n        returns (uint256)\n    {\n        return\n            MarketBase.PirceForSpecie[specie] + MarketBase.PirceForLevel[level];\n    }\n\n    /// @dev \n    function getFruitValue(uint256 specie, uint256 level)\n        public\n        view\n        returns (uint256)\n    {\n        require(specie < 8);\n        return\n            (MarketBase.PirceForSpecie[specie] +\n                MarketBase.PirceForLevel[level]) *\n            (100 + MarketBase.RateForBenefit[specie] / 100);\n    }\n\n    /// @dev Tag\n    function getFruitValueByTag(uint256 _tag) public view returns (uint256) {\n        PlantPropertiesPacked memory pack = fc.getPropertiesByTag(_tag);\n        uint8 specie = uint8(pack.specie);\n        uint8 level = pack.atk + pack.hp + pack.def + pack.spd;\n        require(specie < 8);\n        return\n            (MarketBase.PirceForSpecie[specie] +\n                MarketBase.PirceForLevel[level]) *\n            (100 + MarketBase.RateForBenefit[specie] / 100);\n    }\n\n    function sellFruit(uint256 _tag, uint256 _amount) public returns (bool) {\n        sell(\n            Repository.ItemType.Fruit,\n            _tag,\n            uint32(_amount),\n            getFruitValueByTag(_tag)\n        );\n        return true;\n    }\n}\n",
  "sourcePath": "F:/Projects/PixFarmon-frontend/src/util/pixfarmon-dapp/Pixfarmon/contracts/FarmMarket.sol",
  "compiler": {
    "name": "solc",
    "version": "0.8.4+commit.c7e474f2.Emscripten.clang"
  },
  "schemaVersion": "3.3.4",
  "updatedAt": "2021-06-02T10:29:11.987Z",
  "networkType": "ethereum",
  "devdoc": {
    "kind": "dev",
    "methods": {
      "getFarmLevel(address)": {
        "details": ""
      },
      "getFruitValue(uint256,uint256)": {
        "details": ""
      },
      "getFruitValueByTag(uint256)": {
        "details": "Tag"
      },
      "owner()": {
        "details": "Returns the address of the current owner."
      },
      "register(string)": {
        "details": ""
      },
      "renounceOwnership()": {
        "details": "Leaves the contract without owner. It will not be possible to call `onlyOwner` functions anymore. Can only be called by the current owner. NOTE: Renouncing ownership will leave the contract without an owner, thereby removing any functionality that is only available to the owner."
      },
      "transferOwnership(address)": {
        "details": "Transfers ownership of the contract to a new account (`newOwner`). Can only be called by the current owner."
      }
    },
    "version": 1
  },
  "userdoc": {
    "kind": "user",
    "methods": {},
    "version": 1
  }
}