{
  "contractName": "FarmMarket",
  "abi": [
    {
      "inputs": [
        {
          "internalType": "contract Repository",
          "name": "_repo",
          "type": "address"
        }
      ],
      "stateMutability": "nonpayable",
      "type": "constructor"
    },
    {
      "anonymous": false,
      "inputs": [
        {
          "indexed": true,
          "internalType": "address",
          "name": "previousOwner",
          "type": "address"
        },
        {
          "indexed": true,
          "internalType": "address",
          "name": "newOwner",
          "type": "address"
        }
      ],
      "name": "OwnershipTransferred",
      "type": "event"
    },
    {
      "anonymous": false,
      "inputs": [
        {
          "indexed": false,
          "internalType": "address",
          "name": "buyer",
          "type": "address"
        },
        {
          "indexed": false,
          "internalType": "uint256",
          "name": "tag",
          "type": "uint256"
        },
        {
          "indexed": false,
          "internalType": "uint256",
          "name": "_amount",
          "type": "uint256"
        },
        {
          "indexed": false,
          "internalType": "uint256",
          "name": "cost",
          "type": "uint256"
        }
      ],
      "name": "SeedSoldFromShop",
      "type": "event"
    },
    {
      "inputs": [
        {
          "internalType": "enum FarmBase.Specie",
          "name": "",
          "type": "uint8"
        }
      ],
      "name": "PriceForSpecie",
      "outputs": [
        {
          "internalType": "uint256",
          "name": "",
          "type": "uint256"
        }
      ],
      "stateMutability": "view",
      "type": "function"
    },
    {
      "inputs": [],
      "name": "owner",
      "outputs": [
        {
          "internalType": "address",
          "name": "",
          "type": "address"
        }
      ],
      "stateMutability": "view",
      "type": "function"
    },
    {
      "inputs": [
        {
          "internalType": "string",
          "name": "_name",
          "type": "string"
        }
      ],
      "name": "register",
      "outputs": [],
      "stateMutability": "nonpayable",
      "type": "function"
    },
    {
      "inputs": [],
      "name": "renounceOwnership",
      "outputs": [],
      "stateMutability": "nonpayable",
      "type": "function"
    },
    {
      "inputs": [
        {
          "internalType": "address",
          "name": "newOwner",
          "type": "address"
        }
      ],
      "name": "transferOwnership",
      "outputs": [],
      "stateMutability": "nonpayable",
      "type": "function"
    },
    {
      "inputs": [
        {
          "internalType": "uint8",
          "name": "_specie",
          "type": "uint8"
        },
        {
          "internalType": "uint256",
          "name": "_amount",
          "type": "uint256"
        }
      ],
      "name": "buySeed",
      "outputs": [],
      "stateMutability": "nonpayable",
      "type": "function"
    },
    {
      "inputs": [
        {
          "internalType": "enum FarmBase.Specie",
          "name": "_specie",
          "type": "uint8"
        },
        {
          "internalType": "uint256",
          "name": "_amount",
          "type": "uint256"
        }
      ],
      "name": "sellFruit",
      "outputs": [
        {
          "internalType": "bool",
          "name": "",
          "type": "bool"
        }
      ],
      "stateMutability": "nonpayable",
      "type": "function"
    }
  ],
  "bytecode": "0x60806040526004805460ff60a01b1916600360a11b17905534801561002357600080fd5b50604051610e6c380380610e6c833981016040819052610042916103a6565b600080546001600160a01b0319166001600160a01b0383161781557fa6eef7e35abe7026729641147f7915573c7e97b47efa546f5f6e3230263bcb4981905560967fcc69885fda6bcc1a4ace058b4a62bf5e179ea78fd58a1ccd71c22cc9b688792f5561012c7fd9d16d34ffb15ba3a3d852f0d403e2ce1d691fb54de27ac87cd2f993f3ec330f556101f47f7dfe757ecd65cbd7922a9c0161e935dd7fdbcc0e999689c7d31633896b1fc60b556103207fedc95719e9a3b28dd8e80877cb5880a9be7de1a13fc8b05e7999683b6b5676435560026020527fac33ff75c19e70fe83507db0d683fd3465c996598dc972688b7ace676c89077b819055600a7fe90b7bceb6e7df5418fb78d8ee546e97c83a08bbccc01a0644d599ccd2a7c2e055600f7f679795a0195a1b76cdebb7c51d74e058aee92919b8c3389af86ef24535e8a28c55601e7f88601476d11616a71c5be67555bd1dff4b1cbf21533d2669b768b61518cfe1c3556004815260327fee60d0579bcffd98e668647d59fec1ff86a7fb340ce572e844f234ae73a6918f5581906101da3390565b600380546001600160a01b0319166001600160a01b038316908117909155604051919250906000907f8be0079c531659141344cd1fd0a4f28419497f9722a3daafe3b4186f6b6457e0908290a350600480546001600160a01b0319166001600160a01b03831617905561024f600160006103d6565b7fb549bce5aade8ab6e8d0d2a4d697fb7c69b945ba0f10770d3672687fc00a87f555505061012c7f15d1cde52671d507b32522a16b81a73d6d0592373ad6076c660c6059e85360cc55610e107f53d96aabee68c233127a6b86d4805d43a0ad41cc67b88182f775c81d2d5e2da4556154607fff2f6061821ac517e91d216ea689168a886ee0741f0e41e2b6df143c23d040995561a8c07f506773733b9d2cd5b1427cebcad0d3bb4f1588fb85c6b58569c887d58abde828556096602052600a7f75307ea008dc324a00e3355178806383067feafdcaaba95b2b00be58aa667c8b55600f7f307deefd7ef7787e6f68a868ca5c12530851d854f061182ef9ad1b41290b91525560197fdb5eb42606015161c7989c8eaa4d79583b3ab9c572050244257f3777441c14bd55600460005260237f9fbeee72f1e399b03eb564af329475a870fa3c62af7dd3effd98f9b1ad89dd61556103fb565b6000602082840312156103b857600080fd5b81516001600160a01b03811681146103cf57600080fd5b9392505050565b6000828210156103f657634e487b7160e01b600052601160045260246000fd5b500390565b610a628061040a6000396000f3fe608060405234801561001057600080fd5b506004361061007d5760003560e01c80638da5cb5b1161005b5780638da5cb5b146100d2578063999174f0146100ed578063f2c298be14610110578063f2fde38b1461012357600080fd5b80630cb9e328146100825780635a670d50146100b5578063715018a6146100ca575b600080fd5b6100a261009036600461079e565b60016020526000908152604090205481565b6040519081526020015b60405180910390f35b6100c86100c3366004610894565b610136565b005b6100c86102a0565b6003546040516001600160a01b0390911681526020016100ac565b6101006100fb3660046107b9565b610349565b60405190151581526020016100ac565b6100c861011e3660046107e3565b610360565b6100c861013136600461074c565b610485565b600480546001600160a01b03169063c2dcc1b09060ff85169081111561015e5761015e610a00565b33846040518463ffffffff1660e01b815260040161017e93929190610914565b600060405180830381600087803b15801561019857600080fd5b505af11580156101ac573d6000803e3d6000fd5b5050600480546001600160a01b0316925063095ec74591503390849060019060009060ff8916908111156101e2576101e2610a00565b60048111156101f3576101f3610a00565b600481111561020457610204610a00565b81526020019081526020016000205461021d91906109cb565b6040516001600160e01b031960e085901b1681526001600160a01b0390921660048301526024820152604401602060405180830381600087803b15801561026357600080fd5b505af1158015610277573d6000803e3d6000fd5b505050506040513d601f19601f8201168201806040525081019061029b919061077c565b505050565b6003546001600160a01b031633146102ff5760405162461bcd60e51b815260206004820181905260248201527f4f776e61626c653a2063616c6c6572206973206e6f7420746865206f776e657260448201526064015b60405180910390fd5b6003546040516000916001600160a01b0316907f8be0079c531659141344cd1fd0a4f28419497f9722a3daafe3b4186f6b6457e0908390a3600380546001600160a01b0319169055565b6000610357600184846105a0565b50600192915050565b600480546040516335911a1760e01b81526001600160a01b03909116916335911a179161038f9185910161093c565b600060405180830381600087803b1580156103a957600080fd5b505af11580156103bd573d6000803e3d6000fd5b5050600480546040516347af13f960e01b815233928101929092526103e860248301526001600160a01b031692506347af13f99150604401600060405180830381600087803b15801561040f57600080fd5b505af1158015610423573d6000803e3d6000fd5b50506004805460408051632403e88360e01b815290516001600160a01b039092169450632403e8839350808301926000929182900301818387803b15801561046a57600080fd5b505af115801561047e573d6000803e3d6000fd5b5050505050565b6003546001600160a01b031633146104df5760405162461bcd60e51b815260206004820181905260248201527f4f776e61626c653a2063616c6c6572206973206e6f7420746865206f776e657260448201526064016102f6565b6001600160a01b0381166105445760405162461bcd60e51b815260206004820152602660248201527f4f776e61626c653a206e6577206f776e657220697320746865207a65726f206160448201526564647265737360d01b60648201526084016102f6565b6003546040516001600160a01b038084169216907f8be0079c531659141344cd1fd0a4f28419497f9722a3daafe3b4186f6b6457e090600090a3600380546001600160a01b0319166001600160a01b0392909216919091179055565b600054604051634dd4739160e11b81526001600160a01b0390911690639ba8e722906105d69033908790879087906004016108cc565b602060405180830381600087803b1580156105f057600080fd5b505af1158015610604573d6000803e3d6000fd5b505050506040513d601f19601f82011682018060405250810190610628919061077c565b61063157600080fd5b600080546001600160a01b0316906347af13f990339060649060029087600481111561065f5761065f610a00565b600481111561067057610670610a00565b815260200190815260200160002054606461068b9190610991565b600160008860048111156106a1576106a1610a00565b60048111156106b2576106b2610a00565b8152602001908152602001600020546106cb91906109cb565b6106d591906109a9565b6040516001600160e01b031960e085901b1681526001600160a01b0390921660048301526024820152604401600060405180830381600087803b15801561071b57600080fd5b505af115801561072f573d6000803e3d6000fd5b50505050505050565b80356005811061074757600080fd5b919050565b60006020828403121561075e57600080fd5b81356001600160a01b038116811461077557600080fd5b9392505050565b60006020828403121561078e57600080fd5b8151801515811461077557600080fd5b6000602082840312156107b057600080fd5b61077582610738565b600080604083850312156107cc57600080fd5b6107d583610738565b946020939093013593505050565b6000602082840312156107f557600080fd5b813567ffffffffffffffff8082111561080d57600080fd5b818401915084601f83011261082157600080fd5b81358181111561083357610833610a16565b604051601f8201601f19908116603f0116810190838211818310171561085b5761085b610a16565b8160405282815287602084870101111561087457600080fd5b826020860160208301376000928101602001929092525095945050505050565b600080604083850312156108a757600080fd5b823560ff811681146107d557600080fd5b600581106108c8576108c8610a00565b9052565b6001600160a01b038516815260808101600385106108ec576108ec610a00565b8460208301526108ff60408301856108b8565b63ffffffff8316606083015295945050505050565b6060810161092282866108b8565b6001600160a01b0393909316602082015260400152919050565b600060208083528351808285015260005b818110156109695785810183015185820160400152820161094d565b8181111561097b576000604083870101525b50601f01601f1916929092016040019392505050565b600082198211156109a4576109a46109ea565b500190565b6000826109c657634e487b7160e01b600052601260045260246000fd5b500490565b60008160001904831182151516156109e5576109e56109ea565b500290565b634e487b7160e01b600052601160045260246000fd5b634e487b7160e01b600052602160045260246000fd5b634e487b7160e01b600052604160045260246000fdfea264697066735822122095bcf6156e3b048367db08951622d8c5f35a05d57c43940c1c5c3d9aa04c806d64736f6c63430008050033",
  "immutableReferences": {},
  "source": "// SPDX-License-Identifier: MIT\r\npragma solidity ^0.8.0;\r\n\r\nimport \"./MarketBase.sol\";\r\nimport \"./FarmBase.sol\";\r\n\r\ncontract FarmMarket is MarketBase, FarmBase {\r\n    constructor(Repository _repo) FarmBase(_repo) MarketBase(_repo) {}\r\n\r\n    event SeedSoldFromShop(\r\n        address buyer,\r\n        uint256 tag,\r\n        uint256 _amount,\r\n        uint256 cost\r\n    );\r\n\r\n    function buySeed(uint8 _specie, uint256 _amount) public {\r\n        repo.addSeed(Specie(_specie), msg.sender, _amount);\r\n        repo.transferToShop(\r\n            msg.sender,\r\n            PriceForSpecie[Specie(_specie)] * _amount\r\n        );\r\n        //emit SeedSoldFromShop(msg.sender, seedTag, _amount, _price);\r\n    }\r\n\r\n    function sellFruit(Specie _specie, uint256 _amount) public returns (bool) {\r\n        _sell(Repository.ItemType.Fruit, _specie, uint32(_amount));\r\n        return true;\r\n    }\r\n}\r\n",
  "sourcePath": "D:\\ETH Project\\Pixfarmon\\contracts\\FarmMarket.sol",
  "compiler": {
    "name": "solc",
    "version": "0.8.5+commit.a4f2e591.Emscripten.clang"
  },
  "schemaVersion": "3.4.1",
  "updatedAt": "2021-06-18T01:54:35.979Z",
  "devdoc": {
    "kind": "dev",
    "methods": {
      "owner()": {
        "details": "Returns the address of the current owner."
      },
      "register(string)": {
        "details": ""
      },
      "renounceOwnership()": {
        "details": "Leaves the contract without owner. It will not be possible to call `onlyOwner` functions anymore. Can only be called by the current owner. NOTE: Renouncing ownership will leave the contract without an owner, thereby removing any functionality that is only available to the owner."
      },
      "transferOwnership(address)": {
        "details": "Transfers ownership of the contract to a new account (`newOwner`). Can only be called by the current owner."
      }
    },
    "version": 1
  },
  "userdoc": {
    "kind": "user",
    "methods": {},
    "version": 1
  }
}