{
  "contractName": "FarmBase",
  "abi": [
    {
      "inputs": [
        {
          "internalType": "contract Repository",
          "name": "_repo",
          "type": "address"
        }
      ],
      "stateMutability": "nonpayable",
      "type": "constructor"
    },
    {
      "anonymous": false,
      "inputs": [
        {
          "indexed": true,
          "internalType": "address",
          "name": "previousOwner",
          "type": "address"
        },
        {
          "indexed": true,
          "internalType": "address",
          "name": "newOwner",
          "type": "address"
        }
      ],
      "name": "OwnershipTransferred",
      "type": "event"
    },
    {
      "inputs": [],
      "name": "owner",
      "outputs": [
        {
          "internalType": "address",
          "name": "",
          "type": "address"
        }
      ],
      "stateMutability": "view",
      "type": "function"
    },
    {
      "inputs": [
        {
          "internalType": "address",
          "name": "",
          "type": "address"
        },
        {
          "internalType": "uint256",
          "name": "",
          "type": "uint256"
        }
      ],
      "name": "owners",
      "outputs": [
        {
          "internalType": "address",
          "name": "",
          "type": "address"
        }
      ],
      "stateMutability": "view",
      "type": "function"
    },
    {
      "inputs": [],
      "name": "renounceOwnership",
      "outputs": [],
      "stateMutability": "nonpayable",
      "type": "function"
    },
    {
      "inputs": [
        {
          "internalType": "address",
          "name": "newOwner",
          "type": "address"
        }
      ],
      "name": "transferOwnership",
      "outputs": [],
      "stateMutability": "nonpayable",
      "type": "function"
    },
    {
      "inputs": [
        {
          "internalType": "address",
          "name": "_owner",
          "type": "address"
        }
      ],
      "name": "getFarmLevel",
      "outputs": [
        {
          "internalType": "uint8",
          "name": "",
          "type": "uint8"
        }
      ],
      "stateMutability": "view",
      "type": "function"
    },
    {
      "inputs": [
        {
          "internalType": "uint8",
          "name": "level",
          "type": "uint8"
        }
      ],
      "name": "upgradeLand",
      "outputs": [],
      "stateMutability": "nonpayable",
      "type": "function"
    },
    {
      "inputs": [
        {
          "internalType": "string",
          "name": "_name",
          "type": "string"
        }
      ],
      "name": "register",
      "outputs": [],
      "stateMutability": "nonpayable",
      "type": "function"
    }
  ],
  "bytecode": "0x60016101808181526000196101a08190526101c08190526101e0839052608091825261020083815261022082905261024082905261026084905260a0526102808381526102a08290526102c08490526102e082905260c05261030081815261032084905261034084905261036082905260e0526103808181526103a08490526103c08290526103e084905261010052610400818152610420919091526104408390526104608390526101205261048082815260006104a08190526104c08190526104e08190526101409190915261058060405261050081815261052082905261054091909152610560929092526101609190915262000103906005906008620002ce565b5060405180610180016040528061012c815260200161025881526020016107088152602001610e108152602001611c2081526020016146508152602001617080815260200161a8c0815260200162015180815260200162015180815260200162015180815260200162015180815250600690600c620001849291906200032c565b506040805161018081018252600a808252602082018190529181018290526060810182905260146080820181905260a0820152600f60c0820181905260e0820181905261010082018190526101208201819052610140820192909252610160810191909152620001f990600790600c62000378565b5060408051608081018252612ee08152620493e06020820152625b8d8091810191909152627a1200606082015262000236906008906004620003bb565b503480156200024457600080fd5b5060405162000d9a38038062000d9a83398101604081905262000267916200045b565b600080546001600160a01b031916339081178255604051909182917f8be0079c531659141344cd1fd0a4f28419497f9722a3daafe3b4186f6b6457e0908290a350600180546001600160a01b0319166001600160a01b03929092169190911790556200048b565b8280548282559060005260206000209081019282156200031a579160200282015b828111156200031a5782516200030990839060046200032c565b5091602001919060010190620002ef565b506200032892915062000400565b5090565b8280548282559060005260206000209081019282156200036a579160200282015b828111156200036a5782518255916020019190600101906200034d565b506200032892915062000421565b8280548282559060005260206000209081019282156200036a579160200282015b828111156200036a578251829060ff1690559160200191906001019062000399565b8280548282559060005260206000209081019282156200036a579160200282015b828111156200036a578251829062ffffff16905591602001919060010190620003dc565b808211156200032857600062000417828262000438565b5060010162000400565b5b8082111562000328576000815560010162000422565b508054600082559060005260206000209081019062000458919062000421565b50565b6000602082840312156200046d578081fd5b81516001600160a01b038116811462000484578182fd5b9392505050565b6108ff806200049b6000396000f3fe608060405234801561001057600080fd5b506004361061007d5760003560e01c80638da5cb5b1161005b5780638da5cb5b146100c95780639b3e2787146100ee578063f2c298be14610101578063f2fde38b1461011457600080fd5b8063593a5d5114610082578063715018a6146100975780637da1618f1461009f575b600080fd5b6100956100903660046107c1565b610127565b005b6100956102e5565b6100b26100ad3660046106ad565b61038e565b60405160ff90911681526020015b60405180910390f35b6000546001600160a01b03165b6040516001600160a01b0390911681526020016100c0565b6100d66100fc3660046106ce565b610403565b61009561010f366004610717565b61043b565b6100956101223660046106ad565b610577565b8060ff166101343361038e565b60ff16101561014257600080fd5b8060ff16600114610219576001546001600160a01b031663095ec74533600861016c60028661085a565b60ff168154811061018d57634e487b7160e01b600052603260045260246000fd5b6000918252602090912001546040516001600160e01b031960e085901b1681526001600160a01b0390921660048301526024820152604401602060405180830381600087803b1580156101df57600080fd5b505af11580156101f3573d6000803e3d6000fd5b505050506040513d601f19601f8201168201806040525081019061021791906106f7565b505b60005b610227826001610835565b60ff168160ff1610156102e15760005b610242836001610835565b60ff168160ff1610156102ce5733600090815260046020526040902060019060ff84166006811061028357634e487b7160e01b600052603260045260246000fd5b602402018260ff16600681106102a957634e487b7160e01b600052603260045260246000fd5b60060201805460ff1916911515919091179055806102c68161087d565b915050610237565b50806102d98161087d565b91505061021c565b5050565b6000546001600160a01b031633146103445760405162461bcd60e51b815260206004820181905260248201527f4f776e61626c653a2063616c6c6572206973206e6f7420746865206f776e657260448201526064015b60405180910390fd5b600080546040516001600160a01b03909116907f8be0079c531659141344cd1fd0a4f28419497f9722a3daafe3b4186f6b6457e0908390a3600080546001600160a01b0319169055565b6001600160a01b03811660009081526002602052604081205481906101f48110156103bc57600191506103fc565b611f408110156103cf57600291506103fc565b6201d4c08110156103e357600391506103fc565b6207a1208110156103f757600491506103fc565b600591505b5092915050565b6003602052816000526040600020818154811061041f57600080fd5b6000918252602090912001546001600160a01b03169150829050565b6001546040516335911a1760e01b81526001600160a01b03909116906335911a179061046b9084906004016107e2565b600060405180830381600087803b15801561048557600080fd5b505af1158015610499573d6000803e3d6000fd5b505050506104a76001610127565b6001546040516347af13f960e01b81523360048201526103e860248201526001600160a01b03909116906347af13f990604401600060405180830381600087803b1580156104f457600080fd5b505af1158015610508573d6000803e3d6000fd5b50505050600160009054906101000a90046001600160a01b03166001600160a01b0316632403e8836040518163ffffffff1660e01b8152600401600060405180830381600087803b15801561055c57600080fd5b505af1158015610570573d6000803e3d6000fd5b5050505050565b6000546001600160a01b031633146105d15760405162461bcd60e51b815260206004820181905260248201527f4f776e61626c653a2063616c6c6572206973206e6f7420746865206f776e6572604482015260640161033b565b6001600160a01b0381166106365760405162461bcd60e51b815260206004820152602660248201527f4f776e61626c653a206e6577206f776e657220697320746865207a65726f206160448201526564647265737360d01b606482015260840161033b565b600080546040516001600160a01b03808516939216917f8be0079c531659141344cd1fd0a4f28419497f9722a3daafe3b4186f6b6457e091a3600080546001600160a01b0319166001600160a01b0392909216919091179055565b80356001600160a01b03811681146106a857600080fd5b919050565b6000602082840312156106be578081fd5b6106c782610691565b9392505050565b600080604083850312156106e0578081fd5b6106e983610691565b946020939093013593505050565b600060208284031215610708578081fd5b815180151581146106c7578182fd5b600060208284031215610728578081fd5b813567ffffffffffffffff8082111561073f578283fd5b818401915084601f830112610752578283fd5b813581811115610764576107646108b3565b604051601f8201601f19908116603f0116810190838211818310171561078c5761078c6108b3565b816040528281528760208487010111156107a4578586fd5b826020860160208301379182016020019490945295945050505050565b6000602082840312156107d2578081fd5b813560ff811681146106c7578182fd5b6000602080835283518082850152825b8181101561080e578581018301518582016040015282016107f2565b8181111561081f5783604083870101525b50601f01601f1916929092016040019392505050565b600060ff821660ff84168060ff038211156108525761085261089d565b019392505050565b600060ff821660ff8416808210156108745761087461089d565b90039392505050565b600060ff821660ff8114156108945761089461089d565b60010192915050565b634e487b7160e01b600052601160045260246000fd5b634e487b7160e01b600052604160045260246000fdfea2646970667358221220078b7294bd6576455df54354163cc79a250bfa5609d7e36b5b5d3cb3b6e1b56764736f6c63430008040033",
  "immutableReferences": {},
  "source": "// SPDX-License-Identifier: MIT\npragma solidity ^0.8.0;\n\nimport \"./Repository.sol\";\nimport \"@openzeppelin/contracts/access/Ownable.sol\";\n\ncontract FarmBase is Ownable {\n    //TODO to interface IRepository\n    Repository repo;\n    /// @dev \n    struct PlantPropertiesPacked {\n        Specie specie;\n        uint8 hp;\n        uint8 atk;\n        uint8 def;\n        uint8 spd;\n    }\n\n    struct Field {\n        bool unlocked;\n        bool used;\n        uint256 seedTag;\n        uint256 sowingTime;\n        uint256 maturityTime;\n        bool stolen;\n        address firstThief;\n        address secondThief;\n    }\n    mapping(address => uint256) farmExperience;\n    mapping(address => address[]) public owners;\n    mapping(address => Field[6][6]) fields;\n    /// @dev \n    enum Quality {N, R, SR, SSR}\n    /// @dev \n    enum Specie {\n        spirel,\n        zebrot,\n        branut,\n        moonbean,\n        malener,\n        sunberry,\n        barner,\n        thorner,\n        quernom,\n        demute,\n        charis,\n        peento\n    }\n\n    //total:21 bits\n    //  example:\n    //  specie (4bits)\n    //  |   hp (3bits)\n    //  |   |  atk (3bits)\n    //  |   |  |  def (3bits)\n    //  |   |  |  |  spd (3bits)\n    //  |   |  |  |  |  DNA  quality (2bits)\n    //  |   |  |  |  |       | itemType (3bits)\n    //  |   |  |  |  |       | |\n    //  0011001010011100     01010\n\n    constructor(Repository _repo) {\n        repo = _repo;\n    }\n\n    /// @dev \n    int256[][] specieData = [\n        [int256(1), -1, -1, 1],\n        [int256(1), -1, -1, 1],\n        [int256(1), -1, 1, -1],\n        [int256(-1), 1, 1, -1],\n        [int256(-1), 1, -1, 1],\n        [int256(-1), -1, 1, 1],\n        [int256(1), 0, 0, 0],\n        [int256(0), 0, 0, 1]\n    ];\n    /// @dev \n    uint256[] specieTime = [\n        uint256(300),\n        600,\n        1800,\n        3600,\n        7200,\n        18000,\n        28800,\n        43200,\n        86400,\n        86400,\n        86400,\n        86400\n    ];\n    /// @dev \n    uint256[] specieFull = [10, 10, 10, 10, 20, 20, 15, 15, 15, 15, 10, 15];\n\n    /// @dev \n    uint256[] landPrice = [12000, 300000, 6000000, 8000000];\n\n    /// @dev \n    //uint256[] landExp = [500, 8000, 120000, 500000];\n\n    function getFarmLevel(address _owner) public view returns (uint8) {\n        uint8 level;\n        uint256 Exp = farmExperience[_owner];\n        // for (uint8 i = 0; i < landExp.length; i++) {\n        //     if (farmExperience[_owner] > landExp[i]) {\n        //         level = i + 2;\n        //     }\n        // }\n        if (Exp < 500) {\n            level = 1;\n        } else if (Exp < 8000) {\n            level = 2;\n        } else if (Exp < 120000) {\n            level = 3;\n        } else if (Exp < 500000) {\n            level = 4;\n        } else {\n            level = 5;\n        }\n\n        return level;\n    }\n\n    function upgradeLand(uint8 level) public {\n        require(getFarmLevel(msg.sender) >= level);\n        if (level != 1) {\n            repo.transferToShop(msg.sender, landPrice[level - 2]);\n        }\n        for (uint8 i = 0; i < level + 1; i++) {\n            for (uint8 j = 0; j < level + 1; j++) {\n                fields[msg.sender][i][j].unlocked = true;\n            }\n        }\n    }\n\n    /// @dev \n    function _initField(Field storage _field) internal {\n        if (_field.used == false) {\n            _field.seedTag = 0;\n            _field.sowingTime = 0;\n            _field.maturityTime = 0;\n            _field.stolen = false;\n            _field.firstThief = address(0);\n            _field.secondThief = address(0);\n        }\n    }\n\n    /// @dev \n    function register(string memory _name) public {\n        repo._registration(_name);\n        upgradeLand(1);\n        repo.getMoneyFromShop(msg.sender, 1000);\n        repo.updateMaxIndex();\n    }\n}\n",
  "sourcePath": "F:\\Projects\\PixFarmon-frontend\\src\\util\\pixfarmon-dapp\\Pixfarmon\\contracts\\FarmBase.sol",
  "compiler": {
    "name": "solc",
    "version": "0.8.4+commit.c7e474f2.Emscripten.clang"
  },
  "schemaVersion": "3.3.4",
  "updatedAt": "2021-06-02T03:56:52.474Z",
  "networkType": "ethereum",
  "devdoc": {
    "kind": "dev",
    "methods": {
      "getFarmLevel(address)": {
        "details": ""
      },
      "owner()": {
        "details": "Returns the address of the current owner."
      },
      "register(string)": {
        "details": ""
      },
      "renounceOwnership()": {
        "details": "Leaves the contract without owner. It will not be possible to call `onlyOwner` functions anymore. Can only be called by the current owner. NOTE: Renouncing ownership will leave the contract without an owner, thereby removing any functionality that is only available to the owner."
      },
      "transferOwnership(address)": {
        "details": "Transfers ownership of the contract to a new account (`newOwner`). Can only be called by the current owner."
      }
    },
    "stateVariables": {
      "landPrice": {
        "details": ""
      },
      "specieData": {
        "details": ""
      },
      "specieFull": {
        "details": ""
      },
      "specieTime": {
        "details": ""
      }
    },
    "version": 1
  },
  "userdoc": {
    "kind": "user",
    "methods": {},
    "version": 1
  }
}