{
  "contractName": "MarketBase",
  "abi": [
    {
      "inputs": [
        {
          "internalType": "contract Repository",
          "name": "_repo",
          "type": "address"
        }
      ],
      "stateMutability": "nonpayable",
      "type": "constructor"
    },
    {
      "inputs": [
        {
          "internalType": "enum FarmBase.Specie",
          "name": "",
          "type": "uint8"
        }
      ],
      "name": "PriceForSpecie",
      "outputs": [
        {
          "internalType": "uint256",
          "name": "",
          "type": "uint256"
        }
      ],
      "stateMutability": "view",
      "type": "function"
    }
  ],
  "bytecode": "0x608060405234801561001057600080fd5b506040516102be3803806102be83398101604081905261002f916101c8565b600080546001600160a01b0319166001600160a01b03929092169190911781557fa6eef7e35abe7026729641147f7915573c7e97b47efa546f5f6e3230263bcb4981905560967fcc69885fda6bcc1a4ace058b4a62bf5e179ea78fd58a1ccd71c22cc9b688792f5561012c7fd9d16d34ffb15ba3a3d852f0d403e2ce1d691fb54de27ac87cd2f993f3ec330f556101f47f7dfe757ecd65cbd7922a9c0161e935dd7fdbcc0e999689c7d31633896b1fc60b556103207fedc95719e9a3b28dd8e80877cb5880a9be7de1a13fc8b05e7999683b6b5676435560026020527fac33ff75c19e70fe83507db0d683fd3465c996598dc972688b7ace676c89077b819055600a7fe90b7bceb6e7df5418fb78d8ee546e97c83a08bbccc01a0644d599ccd2a7c2e055600f7f679795a0195a1b76cdebb7c51d74e058aee92919b8c3389af86ef24535e8a28c55601e7f88601476d11616a71c5be67555bd1dff4b1cbf21533d2669b768b61518cfe1c3556004905260327fee60d0579bcffd98e668647d59fec1ff86a7fb340ce572e844f234ae73a6918f556101f8565b6000602082840312156101da57600080fd5b81516001600160a01b03811681146101f157600080fd5b9392505050565b60b8806102066000396000f3fe6080604052348015600f57600080fd5b506004361060285760003560e01c80630cb9e32814602d575b600080fd5b604a6038366004605c565b60016020526000908152604090205481565b60405190815260200160405180910390f35b600060208284031215606d57600080fd5b813560058110607b57600080fd5b939250505056fea26469706673582212208e03b7fe94321f3abe7a985cd2523cb85b73a38d995e7b311f1164cdf92ddc4764736f6c63430008050033",
  "immutableReferences": {},
  "source": "// SPDX-License-Identifier: MIT\r\npragma solidity ^0.8.0;\r\n\r\nimport \"./Repository.sol\";\r\nimport \"./FarmBase.sol\";\r\n\r\ncontract MarketBase {\r\n    Repository private repo;\r\n\r\n    constructor(Repository _repo) {\r\n        repo = _repo;\r\n\r\n        PriceForSpecie[FarmBase.Specie.empty] = 0;\r\n        PriceForSpecie[FarmBase.Specie.branut] = 150;\r\n        PriceForSpecie[FarmBase.Specie.moonbean] = 300;\r\n        PriceForSpecie[FarmBase.Specie.sunberry] = 500;\r\n        PriceForSpecie[FarmBase.Specie.charis] = 800;\r\n\r\n        RateForBenefit[FarmBase.Specie.empty] = 0;\r\n        RateForBenefit[FarmBase.Specie.branut] = 10;\r\n        RateForBenefit[FarmBase.Specie.moonbean] = 15;\r\n        RateForBenefit[FarmBase.Specie.sunberry] = 30;\r\n        RateForBenefit[FarmBase.Specie.charis] = 50;\r\n    }\r\n\r\n    /// @dev 等级附加售价\r\n    // uint256[] PirceForLevel = [\r\n    //     uint256(100),\r\n    //     200,\r\n    //     400,\r\n    //     800,\r\n    //     1200,\r\n    //     1800,\r\n    //     2500,\r\n    //     3500\r\n    // ];\r\n    /// @dev 作物本身价格\r\n    //uint256[] PirceForSpecie = [uint256(150), 300, 500, 800];\r\n    mapping(FarmBase.Specie => uint256) public PriceForSpecie;\r\n    /// @dev 作物收益\r\n    //uint256[] RateForBenefit = [uint256(10), 15, 30, 50];\r\n    mapping(FarmBase.Specie => uint256) RateForBenefit;\r\n\r\n    // function _setBankAddress(address bankAddress) public onlyOwner {\r\n    //     bank = IERC20(bankAddress);\r\n    // }\r\n\r\n    /// @dev 仅用于付费，获取（生成）商品信息在调用的函数中生成\r\n    function _buy(\r\n        FarmBase.Specie _specie,\r\n        uint256 _amount,\r\n        uint256 _price\r\n    ) internal {\r\n        //require(bank.allowance(msg.sender, address(this)) > _amount);\r\n        require(repo.transferToShop(msg.sender, _amount * _price));\r\n        Repository.Item memory newItem;\r\n        newItem.specie = _specie;\r\n        newItem.stack = uint32(_amount);\r\n        newItem.usable = true;\r\n        //_repository[ItemType(_tag % 8)][msg.sender].push(newItem);\r\n        repo.addItem(Repository.ItemType.Seed, msg.sender, newItem);\r\n    }\r\n\r\n    function _sell(\r\n        Repository.ItemType _type,\r\n        FarmBase.Specie _specie,\r\n        uint32 _amount\r\n    ) internal {\r\n        require(repo.removeItem(msg.sender, _type, _specie, _amount));\r\n        repo.getMoneyFromShop(\r\n            msg.sender,\r\n            (PriceForSpecie[_specie] * (100 + RateForBenefit[_specie])) / 100\r\n        );\r\n    }\r\n}\r\n",
  "sourcePath": "D:\\ETH Project\\Pixfarmon\\contracts\\MarketBase.sol",
  "compiler": {
    "name": "solc",
    "version": "0.8.5+commit.a4f2e591.Emscripten.clang"
  },
  "schemaVersion": "3.4.1",
  "updatedAt": "2021-06-18T01:54:35.985Z",
  "devdoc": {
    "kind": "dev",
    "methods": {},
    "stateVariables": {
      "PriceForSpecie": {
        "details": "作物本身价格"
      },
      "RateForBenefit": {
        "details": "作物收益"
      }
    },
    "version": 1
  },
  "userdoc": {
    "kind": "user",
    "methods": {},
    "version": 1
  }
}