{
  "contractName": "Money",
  "abi": [
    {
      "inputs": [
        {
          "internalType": "address",
          "name": "",
          "type": "address"
        }
      ],
      "name": "money",
      "outputs": [
        {
          "internalType": "uint256",
          "name": "",
          "type": "uint256"
        }
      ],
      "stateMutability": "view",
      "type": "function"
    },
    {
      "inputs": [
        {
          "internalType": "address",
          "name": "_person",
          "type": "address"
        },
        {
          "internalType": "uint256",
          "name": "_value",
          "type": "uint256"
        }
      ],
      "name": "transferToShop",
      "outputs": [
        {
          "internalType": "bool",
          "name": "",
          "type": "bool"
        }
      ],
      "stateMutability": "nonpayable",
      "type": "function"
    },
    {
      "inputs": [
        {
          "internalType": "address",
          "name": "_person",
          "type": "address"
        },
        {
          "internalType": "uint256",
          "name": "_value",
          "type": "uint256"
        }
      ],
      "name": "getMoneyFromShop",
      "outputs": [],
      "stateMutability": "nonpayable",
      "type": "function"
    },
    {
      "inputs": [
        {
          "internalType": "address",
          "name": "p1",
          "type": "address"
        },
        {
          "internalType": "address",
          "name": "p2",
          "type": "address"
        },
        {
          "internalType": "uint256",
          "name": "_value",
          "type": "uint256"
        }
      ],
      "name": "transferTo",
      "outputs": [],
      "stateMutability": "nonpayable",
      "type": "function"
    },
    {
      "inputs": [
        {
          "internalType": "uint256",
          "name": "_value",
          "type": "uint256"
        }
      ],
      "name": "rechargeMoney",
      "outputs": [],
      "stateMutability": "payable",
      "type": "function"
    },
    {
      "inputs": [
        {
          "internalType": "address",
          "name": "player",
          "type": "address"
        }
      ],
      "name": "getMoney",
      "outputs": [
        {
          "internalType": "uint256",
          "name": "",
          "type": "uint256"
        }
      ],
      "stateMutability": "view",
      "type": "function"
    }
  ],
  "bytecode": "0x608060405234801561001057600080fd5b506104fe806100206000396000f3fe6080604052600436106100555760003560e01c8063095ec7451461005a578063155b39041461008f57806315e1f7cd146100a457806347af13f9146100df578063717d5527146100ff578063a5f2a15214610135575b600080fd5b34801561006657600080fd5b5061007a610075366004610402565b610155565b60405190151581526020015b60405180910390f35b6100a261009d36600461044b565b6101c4565b005b3480156100b057600080fd5b506100d16100bf3660046103a6565b60006020819052908152604090205481565b604051908152602001610086565b3480156100eb57600080fd5b506100a26100fa366004610402565b6102d1565b34801561010b57600080fd5b506100d161011a3660046103a6565b6001600160a01b031660009081526020819052604090205490565b34801561014157600080fd5b506100a26101503660046103c7565b610315565b6001600160a01b03821660009081526020819052604081205482111561017d575060006101be565b6001600160a01b0383166000908152602081905260409020546101a190839061049b565b6001600160a01b0384166000908152602081905260409020555060015b92915050565b6001546040516323b872dd60e01b8152336004820152306024820152604481018390526000916001600160a01b0316906323b872dd90606401602060405180830381600087803b15801561021757600080fd5b505af115801561022b573d6000803e3d6000fd5b505050506040513d601f19601f8201168201806040525081019061024f919061042b565b9050806102945760405162461bcd60e51b815260206004820152600f60248201526e149958da185c99d94819985a5b1959608a1b604482015260640160405180910390fd5b6102a3645d21dba0008361047b565b336000908152602081905260409020546102bd9190610463565b336000908152602081905260409020555050565b6001600160a01b0382166000908152602081905260409020546102f5908290610463565b6001600160a01b0390921660009081526020819052604090209190915550565b6001600160a01b03831660009081526020819052604090205461033990829061049b565b6001600160a01b038085166000908152602081905260408082209390935590841681522054610369908290610463565b6001600160a01b039092166000908152602081905260409020919091555050565b80356001600160a01b03811681146103a157600080fd5b919050565b6000602082840312156103b7578081fd5b6103c08261038a565b9392505050565b6000806000606084860312156103db578182fd5b6103e48461038a565b92506103f26020850161038a565b9150604084013590509250925092565b60008060408385031215610414578182fd5b61041d8361038a565b946020939093013593505050565b60006020828403121561043c578081fd5b815180151581146103c0578182fd5b60006020828403121561045c578081fd5b5035919050565b60008219821115610476576104766104b2565b500190565b60008261049657634e487b7160e01b81526012600452602481fd5b500490565b6000828210156104ad576104ad6104b2565b500390565b634e487b7160e01b600052601160045260246000fdfea2646970667358221220657ec23bd81f8b52be355661c296d364d5deed14910b9d6db19b41f81a9726b864736f6c63430008040033",
  "immutableReferences": {},
  "source": "// SPDX-License-Identifier: MIT\npragma solidity ^0.8.0;\nimport \"@openzeppelin/contracts/token/ERC20/IERC20.sol\";\n\ncontract Money {\n    mapping(address => uint256) public money;\n\n    IERC20 internal contrac;\n\n    /// @dev \n    function transferToShop(address _person, uint256 _value)\n        public\n        returns (bool)\n    {\n        if (_value > money[_person]) {\n            return false;\n        }\n        money[_person] = money[_person] - _value;\n        return true;\n    }\n\n    /// @dev \n    function getMoneyFromShop(address _person, uint256 _value) public {\n        money[_person] = money[_person] + _value;\n    }\n\n    /// @dev \n    function transferTo(\n        address p1,\n        address p2,\n        uint256 _value\n    ) public {\n        money[p1] = money[p1] - _value;\n        money[p2] = money[p2] + _value;\n    }\n\n    ///\n    function rechargeMoney(uint256 _value) public payable {\n        bool isSuccess =\n            contrac.transferFrom(msg.sender, address(this), _value);\n        if (!isSuccess) {\n            revert(\"Recharge failed\");\n        }\n        money[msg.sender] = money[msg.sender] + (_value / 400000000000);\n    }\n\n    function getMoney(address player) public view returns (uint256) {\n        return money[player];\n    }\n}\n",
  "sourcePath": "F:\\Projects\\PixFarmon-frontend\\src\\util\\pixfarmon-dapp\\Pixfarmon\\contracts\\Money.sol",
  "compiler": {
    "name": "solc",
    "version": "0.8.4+commit.c7e474f2.Emscripten.clang"
  },
  "schemaVersion": "3.3.4",
  "updatedAt": "2021-06-02T03:56:52.403Z",
  "networkType": "ethereum",
  "devdoc": {
    "kind": "dev",
    "methods": {
      "getMoneyFromShop(address,uint256)": {
        "details": ""
      },
      "transferTo(address,address,uint256)": {
        "details": ""
      },
      "transferToShop(address,uint256)": {
        "details": ""
      }
    },
    "version": 1
  },
  "userdoc": {
    "kind": "user",
    "methods": {
      "rechargeMoney(uint256)": {
        "notice": ""
      }
    },
    "version": 1
  }
}