{
  "contractName": "Money",
  "abi": [
    {
      "inputs": [
        {
          "internalType": "address",
          "name": "",
          "type": "address"
        }
      ],
      "name": "money",
      "outputs": [
        {
          "internalType": "uint256",
          "name": "",
          "type": "uint256"
        }
      ],
      "stateMutability": "view",
      "type": "function"
    },
    {
      "inputs": [
        {
          "internalType": "address",
          "name": "_person",
          "type": "address"
        },
        {
          "internalType": "uint256",
          "name": "_value",
          "type": "uint256"
        }
      ],
      "name": "transferToShop",
      "outputs": [
        {
          "internalType": "bool",
          "name": "",
          "type": "bool"
        }
      ],
      "stateMutability": "nonpayable",
      "type": "function"
    },
    {
      "inputs": [
        {
          "internalType": "address",
          "name": "_person",
          "type": "address"
        },
        {
          "internalType": "uint256",
          "name": "_value",
          "type": "uint256"
        }
      ],
      "name": "getMoneyFromShop",
      "outputs": [],
      "stateMutability": "nonpayable",
      "type": "function"
    },
    {
      "inputs": [
        {
          "internalType": "address",
          "name": "p1",
          "type": "address"
        },
        {
          "internalType": "address",
          "name": "p2",
          "type": "address"
        },
        {
          "internalType": "uint256",
          "name": "_value",
          "type": "uint256"
        }
      ],
      "name": "transferTo",
      "outputs": [
        {
          "internalType": "bool",
          "name": "",
          "type": "bool"
        }
      ],
      "stateMutability": "nonpayable",
      "type": "function"
    },
    {
      "inputs": [
        {
          "internalType": "uint256",
          "name": "_value",
          "type": "uint256"
        }
      ],
      "name": "rechargeMoney",
      "outputs": [],
      "stateMutability": "payable",
      "type": "function"
    },
    {
      "inputs": [
        {
          "internalType": "address",
          "name": "player",
          "type": "address"
        }
      ],
      "name": "getMoney",
      "outputs": [
        {
          "internalType": "uint256",
          "name": "",
          "type": "uint256"
        }
      ],
      "stateMutability": "view",
      "type": "function"
    }
  ],
  "bytecode": "0x608060405234801561001057600080fd5b50610508806100206000396000f3fe6080604052600436106100555760003560e01c8063095ec7451461005a578063155b39041461008f57806315e1f7cd146100a457806347af13f9146100df578063717d5527146100ff578063a5f2a15214610135575b600080fd5b34801561006657600080fd5b5061007a610075366004610406565b610155565b60405190151581526020015b60405180910390f35b6100a261009d366004610452565b6101c4565b005b3480156100b057600080fd5b506100d16100bf3660046103a8565b60006020819052908152604090205481565b604051908152602001610086565b3480156100eb57600080fd5b506100a26100fa366004610406565b6102d1565b34801561010b57600080fd5b506100d161011a3660046103a8565b6001600160a01b031660009081526020819052604090205490565b34801561014157600080fd5b5061007a6101503660046103ca565b610315565b6001600160a01b03821660009081526020819052604081205482111561017d575060006101be565b6001600160a01b0383166000908152602081905260409020546101a19083906104a5565b6001600160a01b0384166000908152602081905260409020555060015b92915050565b6001546040516323b872dd60e01b8152336004820152306024820152604481018390526000916001600160a01b0316906323b872dd90606401602060405180830381600087803b15801561021757600080fd5b505af115801561022b573d6000803e3d6000fd5b505050506040513d601f19601f8201168201806040525081019061024f9190610430565b9050806102945760405162461bcd60e51b815260206004820152600f60248201526e149958da185c99d94819985a5b1959608a1b604482015260640160405180910390fd5b6102a3645d21dba00083610483565b336000908152602081905260409020546102bd919061046b565b336000908152602081905260409020555050565b6001600160a01b0382166000908152602081905260409020546102f590829061046b565b6001600160a01b0390921660009081526020819052604090209190915550565b6001600160a01b0383166000908152602081905260408120546103399083906104a5565b6001600160a01b03808616600090815260208190526040808220939093559085168152205461036990839061046b565b6001600160a01b0384166000908152602081905260409020555060019392505050565b80356001600160a01b03811681146103a357600080fd5b919050565b6000602082840312156103ba57600080fd5b6103c38261038c565b9392505050565b6000806000606084860312156103df57600080fd5b6103e88461038c565b92506103f66020850161038c565b9150604084013590509250925092565b6000806040838503121561041957600080fd5b6104228361038c565b946020939093013593505050565b60006020828403121561044257600080fd5b815180151581146103c357600080fd5b60006020828403121561046457600080fd5b5035919050565b6000821982111561047e5761047e6104bc565b500190565b6000826104a057634e487b7160e01b600052601260045260246000fd5b500490565b6000828210156104b7576104b76104bc565b500390565b634e487b7160e01b600052601160045260246000fdfea2646970667358221220662ca553f8ecf2108a06c2e63aec275a6591e698f88fa6bdb0cdde0af06e781e64736f6c63430008050033",
  "immutableReferences": {},
  "source": "// SPDX-License-Identifier: MIT\r\npragma solidity ^0.8.0;\r\nimport \"@openzeppelin/contracts/token/ERC20/IERC20.sol\";\r\n\r\ncontract Money {\r\n    mapping(address => uint256) public money;\r\n\r\n    IERC20 internal contrac;\r\n\r\n    /// @dev \r\n    function transferToShop(address _person, uint256 _value)\r\n        public\r\n        returns (bool)\r\n    {\r\n        if (_value > money[_person]) {\r\n            return false;\r\n        }\r\n        money[_person] = money[_person] - _value;\r\n        return true;\r\n    }\r\n\r\n    /// @dev \r\n    function getMoneyFromShop(address _person, uint256 _value) public {\r\n        money[_person] = money[_person] + _value;\r\n    }\r\n\r\n    /// @dev \r\n    function transferTo(\r\n        address p1,\r\n        address p2,\r\n        uint256 _value\r\n    ) public returns (bool) {\r\n        money[p1] = money[p1] - _value;\r\n        money[p2] = money[p2] + _value;\r\n        return true;\r\n    }\r\n\r\n    ///\r\n    function rechargeMoney(uint256 _value) public payable {\r\n        bool isSuccess =\r\n            contrac.transferFrom(msg.sender, address(this), _value);\r\n        if (!isSuccess) {\r\n            revert(\"Recharge failed\");\r\n        }\r\n        money[msg.sender] = money[msg.sender] + (_value / 400000000000);\r\n    }\r\n\r\n    function getMoney(address player) public view returns (uint256) {\r\n        return money[player];\r\n    }\r\n}\r\n",
  "sourcePath": "D:\\ETH Project\\Pixfarmon\\contracts\\Money.sol",
  "compiler": {
    "name": "solc",
    "version": "0.8.5+commit.a4f2e591.Emscripten.clang"
  },
  "schemaVersion": "3.4.1",
  "updatedAt": "2021-06-18T01:54:35.990Z",
  "devdoc": {
    "kind": "dev",
    "methods": {
      "getMoneyFromShop(address,uint256)": {
        "details": ""
      },
      "transferTo(address,address,uint256)": {
        "details": ""
      },
      "transferToShop(address,uint256)": {
        "details": ""
      }
    },
    "version": 1
  },
  "userdoc": {
    "kind": "user",
    "methods": {
      "rechargeMoney(uint256)": {
        "notice": ""
      }
    },
    "version": 1
  }
}