{
  "contractName": "PetBase",
  "abi": [
    {
      "inputs": [
        {
          "internalType": "address",
          "name": "_player",
          "type": "address"
        },
        {
          "internalType": "enum Repository.ItemType",
          "name": "_itemType",
          "type": "uint8"
        }
      ],
      "name": "_findFirstPlace",
      "outputs": [
        {
          "internalType": "uint256",
          "name": "",
          "type": "uint256"
        }
      ],
      "stateMutability": "view",
      "type": "function"
    },
    {
      "inputs": [
        {
          "internalType": "address",
          "name": "_person",
          "type": "address"
        }
      ],
      "name": "_isregister",
      "outputs": [
        {
          "internalType": "bool",
          "name": "",
          "type": "bool"
        }
      ],
      "stateMutability": "view",
      "type": "function"
    },
    {
      "inputs": [
        {
          "internalType": "string",
          "name": "_name",
          "type": "string"
        }
      ],
      "name": "_registration",
      "outputs": [],
      "stateMutability": "nonpayable",
      "type": "function"
    },
    {
      "inputs": [
        {
          "internalType": "uint256",
          "name": "_index",
          "type": "uint256"
        }
      ],
      "name": "acceptFriend",
      "outputs": [],
      "stateMutability": "nonpayable",
      "type": "function"
    },
    {
      "inputs": [
        {
          "internalType": "address",
          "name": "_address",
          "type": "address"
        }
      ],
      "name": "addFriendByAddress",
      "outputs": [
        {
          "internalType": "bool",
          "name": "",
          "type": "bool"
        }
      ],
      "stateMutability": "nonpayable",
      "type": "function"
    },
    {
      "inputs": [
        {
          "internalType": "string",
          "name": "_name",
          "type": "string"
        }
      ],
      "name": "addFriendByName",
      "outputs": [
        {
          "internalType": "bool",
          "name": "",
          "type": "bool"
        }
      ],
      "stateMutability": "nonpayable",
      "type": "function"
    },
    {
      "inputs": [
        {
          "internalType": "uint256",
          "name": "_tag",
          "type": "uint256"
        },
        {
          "internalType": "address",
          "name": "_player",
          "type": "address"
        },
        {
          "internalType": "uint256",
          "name": "_amount",
          "type": "uint256"
        }
      ],
      "name": "addFruit",
      "outputs": [],
      "stateMutability": "nonpayable",
      "type": "function"
    },
    {
      "inputs": [
        {
          "internalType": "enum Repository.ItemType",
          "name": "_itemType",
          "type": "uint8"
        },
        {
          "internalType": "address",
          "name": "_player",
          "type": "address"
        },
        {
          "components": [
            {
              "internalType": "bool",
              "name": "usable",
              "type": "bool"
            },
            {
              "internalType": "uint32",
              "name": "tag",
              "type": "uint32"
            },
            {
              "internalType": "uint32",
              "name": "stack",
              "type": "uint32"
            }
          ],
          "internalType": "struct Repository.Item",
          "name": "_item",
          "type": "tuple"
        }
      ],
      "name": "addItem",
      "outputs": [
        {
          "internalType": "bool",
          "name": "",
          "type": "bool"
        }
      ],
      "stateMutability": "nonpayable",
      "type": "function"
    },
    {
      "inputs": [
        {
          "internalType": "uint256",
          "name": "_tag",
          "type": "uint256"
        },
        {
          "internalType": "address",
          "name": "_player",
          "type": "address"
        },
        {
          "internalType": "uint256",
          "name": "_amount",
          "type": "uint256"
        }
      ],
      "name": "addSeed",
      "outputs": [],
      "stateMutability": "nonpayable",
      "type": "function"
    },
    {
      "inputs": [
        {
          "internalType": "address",
          "name": "",
          "type": "address"
        }
      ],
      "name": "addressToName",
      "outputs": [
        {
          "internalType": "string",
          "name": "",
          "type": "string"
        }
      ],
      "stateMutability": "view",
      "type": "function"
    },
    {
      "inputs": [
        {
          "internalType": "address",
          "name": "user",
          "type": "address"
        },
        {
          "internalType": "address",
          "name": "target",
          "type": "address"
        }
      ],
      "name": "changePermission",
      "outputs": [],
      "stateMutability": "nonpayable",
      "type": "function"
    },
    {
      "inputs": [
        {
          "internalType": "address",
          "name": "p1",
          "type": "address"
        },
        {
          "internalType": "address",
          "name": "p2",
          "type": "address"
        }
      ],
      "name": "friendCheck",
      "outputs": [
        {
          "internalType": "bool",
          "name": "",
          "type": "bool"
        }
      ],
      "stateMutability": "view",
      "type": "function"
    },
    {
      "inputs": [
        {
          "internalType": "address",
          "name": "",
          "type": "address"
        },
        {
          "internalType": "uint256",
          "name": "",
          "type": "uint256"
        }
      ],
      "name": "friendList",
      "outputs": [
        {
          "internalType": "string",
          "name": "friendName",
          "type": "string"
        },
        {
          "internalType": "address",
          "name": "friendAddress",
          "type": "address"
        }
      ],
      "stateMutability": "view",
      "type": "function"
    },
    {
      "inputs": [],
      "name": "getFriendList",
      "outputs": [
        {
          "components": [
            {
              "internalType": "string",
              "name": "friendName",
              "type": "string"
            },
            {
              "internalType": "address",
              "name": "friendAddress",
              "type": "address"
            }
          ],
          "internalType": "struct Repository.friend[]",
          "name": "",
          "type": "tuple[]"
        }
      ],
      "stateMutability": "view",
      "type": "function"
    },
    {
      "inputs": [
        {
          "internalType": "uint8",
          "name": "itemType",
          "type": "uint8"
        },
        {
          "internalType": "address",
          "name": "user",
          "type": "address"
        },
        {
          "internalType": "address",
          "name": "target",
          "type": "address"
        }
      ],
      "name": "getItemList",
      "outputs": [
        {
          "components": [
            {
              "internalType": "bool",
              "name": "usable",
              "type": "bool"
            },
            {
              "internalType": "uint32",
              "name": "tag",
              "type": "uint32"
            },
            {
              "internalType": "uint32",
              "name": "stack",
              "type": "uint32"
            }
          ],
          "internalType": "struct Repository.Item[50]",
          "name": "",
          "type": "tuple[50]"
        }
      ],
      "stateMutability": "view",
      "type": "function"
    },
    {
      "inputs": [
        {
          "internalType": "address",
          "name": "player",
          "type": "address"
        }
      ],
      "name": "getMoney",
      "outputs": [
        {
          "internalType": "uint256",
          "name": "",
          "type": "uint256"
        }
      ],
      "stateMutability": "view",
      "type": "function"
    },
    {
      "inputs": [
        {
          "internalType": "address",
          "name": "_person",
          "type": "address"
        },
        {
          "internalType": "uint256",
          "name": "_value",
          "type": "uint256"
        }
      ],
      "name": "getMoneyFromShop",
      "outputs": [],
      "stateMutability": "nonpayable",
      "type": "function"
    },
    {
      "inputs": [
        {
          "internalType": "uint256",
          "name": "decimal",
          "type": "uint256"
        }
      ],
      "name": "getRandom",
      "outputs": [
        {
          "internalType": "uint256",
          "name": "",
          "type": "uint256"
        }
      ],
      "stateMutability": "view",
      "type": "function"
    },
    {
      "inputs": [
        {
          "internalType": "address",
          "name": "_person",
          "type": "address"
        }
      ],
      "name": "getUsername",
      "outputs": [
        {
          "internalType": "string",
          "name": "",
          "type": "string"
        }
      ],
      "stateMutability": "view",
      "type": "function"
    },
    {
      "inputs": [
        {
          "internalType": "string",
          "name": "_name",
          "type": "string"
        }
      ],
      "name": "playerCreate",
      "outputs": [
        {
          "internalType": "bool",
          "name": "",
          "type": "bool"
        }
      ],
      "stateMutability": "nonpayable",
      "type": "function"
    },
    {
      "inputs": [
        {
          "internalType": "uint256",
          "name": "numerator",
          "type": "uint256"
        },
        {
          "internalType": "uint256",
          "name": "denominator",
          "type": "uint256"
        }
      ],
      "name": "probabilityCheck",
      "outputs": [
        {
          "internalType": "bool",
          "name": "",
          "type": "bool"
        }
      ],
      "stateMutability": "view",
      "type": "function"
    },
    {
      "inputs": [
        {
          "internalType": "enum Repository.ItemType",
          "name": "_itemType",
          "type": "uint8"
        },
        {
          "internalType": "address",
          "name": "_player",
          "type": "address"
        },
        {
          "components": [
            {
              "internalType": "bool",
              "name": "usable",
              "type": "bool"
            },
            {
              "internalType": "uint32",
              "name": "tag",
              "type": "uint32"
            },
            {
              "internalType": "uint32",
              "name": "stack",
              "type": "uint32"
            }
          ],
          "internalType": "struct Repository.Item",
          "name": "_item",
          "type": "tuple"
        }
      ],
      "name": "quieckAddItem",
      "outputs": [
        {
          "internalType": "bool",
          "name": "",
          "type": "bool"
        }
      ],
      "stateMutability": "nonpayable",
      "type": "function"
    },
    {
      "inputs": [
        {
          "internalType": "uint256",
          "name": "_value",
          "type": "uint256"
        }
      ],
      "name": "rechargeMoney",
      "outputs": [],
      "stateMutability": "payable",
      "type": "function"
    },
    {
      "inputs": [
        {
          "internalType": "uint256",
          "name": "_index",
          "type": "uint256"
        }
      ],
      "name": "refuseFriend",
      "outputs": [],
      "stateMutability": "nonpayable",
      "type": "function"
    },
    {
      "inputs": [
        {
          "internalType": "address",
          "name": "_player",
          "type": "address"
        },
        {
          "internalType": "enum Repository.ItemType",
          "name": "_itemType",
          "type": "uint8"
        },
        {
          "internalType": "uint256",
          "name": "_tag",
          "type": "uint256"
        },
        {
          "internalType": "uint32",
          "name": "_amount",
          "type": "uint32"
        }
      ],
      "name": "removeItem",
      "outputs": [
        {
          "internalType": "bool",
          "name": "",
          "type": "bool"
        }
      ],
      "stateMutability": "nonpayable",
      "type": "function"
    },
    {
      "inputs": [
        {
          "internalType": "address",
          "name": "",
          "type": "address"
        },
        {
          "internalType": "address",
          "name": "",
          "type": "address"
        }
      ],
      "name": "storageAllowence",
      "outputs": [
        {
          "internalType": "bool",
          "name": "",
          "type": "bool"
        }
      ],
      "stateMutability": "view",
      "type": "function"
    },
    {
      "inputs": [
        {
          "internalType": "address",
          "name": "p1",
          "type": "address"
        },
        {
          "internalType": "address",
          "name": "p2",
          "type": "address"
        },
        {
          "internalType": "uint256",
          "name": "_value",
          "type": "uint256"
        }
      ],
      "name": "transferTo",
      "outputs": [],
      "stateMutability": "nonpayable",
      "type": "function"
    },
    {
      "inputs": [
        {
          "internalType": "address",
          "name": "_person",
          "type": "address"
        },
        {
          "internalType": "uint256",
          "name": "_value",
          "type": "uint256"
        }
      ],
      "name": "transferToShop",
      "outputs": [
        {
          "internalType": "bool",
          "name": "",
          "type": "bool"
        }
      ],
      "stateMutability": "nonpayable",
      "type": "function"
    },
    {
      "inputs": [],
      "name": "updateMaxIndex",
      "outputs": [],
      "stateMutability": "nonpayable",
      "type": "function"
    }
  ],
  "bytecode": "0x6101a060405260006080908152600260a052600460c052600560e0526007610100526008610120526009610140819052600a610160819052610180526200004991600b916200005e565b503480156200005757600080fd5b5062000122565b82805482825590600052602060002090601f01602090048101928215620000f95791602002820160005b83821115620000c857835183826101000a81548160ff021916908360ff160217905550926020019260010160208160000104928301926001030262000088565b8015620000f75782816101000a81549060ff0219169055600101602081600001049283019260010302620000c8565b505b50620001079291506200010b565b5090565b5b808211156200010757600081556001016200010c565b612c9d80620001326000396000f3fe6080604052600436106101c25760003560e01c80638d2cb64f116100f7578063b7bf029911610095578063ce43c03211610064578063ce43c032146105a7578063dd6803c7146105d4578063e2a04b62146105f4578063e87cb06b1461061457600080fd5b8063b7bf029914610519578063bf73337d14610539578063cc39e72114610567578063cd4b69141461058757600080fd5b8063a762e9c4116100d1578063a762e9c414610465578063abeac80714610485578063afc18679146104a5578063b60689c7146104c557600080fd5b80638d2cb64f14610403578063987a418414610425578063a5f2a1521461044557600080fd5b80633b955fcb116101645780635975b2571161013e5780635975b2571461036d578063623845081461038d57806370b5d4b8146103ad578063717d5527146103cd57600080fd5b80633b955fcb1461030d5780633df918721461032d57806347af13f91461034d57600080fd5b80631699a9fa116101a05780631699a9fa1461023f5780632403e8831461027a5780633093b2f7146102cd57806335911a17146102ed57600080fd5b8063013fdb87146101c7578063095ec745146101fa578063155b39041461022a575b600080fd5b3480156101d357600080fd5b506101e76101e23660046126a2565b610641565b6040519081526020015b60405180910390f35b34801561020657600080fd5b5061021a610215366004612717565b610825565b60405190151581526020016101f1565b61023d6102383660046128a9565b610893565b005b34801561024b57600080fd5b5061021a61025a366004612635565b600960209081526000928352604080842090915290825290205460ff1681565b34801561028657600080fd5b5061023d3360009081526006602081905260408220828155600181018390556002810183905560038101839055600481018390556005810183905590810182905560070155565b3480156102d957600080fd5b5061021a6102e836600461261b565b6109a1565b3480156102f957600080fd5b5061023d6103083660046127ff565b610a14565b34801561031957600080fd5b5061021a6103283660046127ff565b610aba565b34801561033957600080fd5b5061021a610348366004612635565b610b7e565b34801561035957600080fd5b5061023d610368366004612717565b610c28565b34801561037957600080fd5b5061023d6103883660046128c1565b610c6c565b34801561039957600080fd5b5061021a6103a836600461275c565b610ca3565b3480156103b957600080fd5b5061023d6103c83660046128a9565b610d7a565b3480156103d957600080fd5b506101e76103e836600461261b565b6001600160a01b031660009081526020819052604090205490565b34801561040f57600080fd5b50610418610eed565b6040516101f191906129ed565b34801561043157600080fd5b5061021a6104403660046128e5565b610ffc565b34801561045157600080fd5b5061023d610460366004612667565b61101f565b34801561047157600080fd5b5061021a6104803660046126cb565b611094565b34801561049157600080fd5b5061021a6104a036600461261b565b61129c565b3480156104b157600080fd5b5061023d6104c03660046128a9565b611478565b3480156104d157600080fd5b5061023d6104e0366004612635565b6001600160a01b0391821660009081526009602090815260408083209390941682529190915220805460ff81161560ff19909116179055565b34801561052557600080fd5b5061021a6105343660046127ff565b6118e4565b34801561054557600080fd5b50610559610554366004612717565b611a19565b6040516101f1929190612a7e565b34801561057357600080fd5b5061023d6105823660046128c1565b611aeb565b34801561059357600080fd5b506101e76105a23660046128a9565b611b1d565b3480156105b357600080fd5b506105c76105c236600461261b565b611bb6565b6040516101f19190612a6b565b3480156105e057600080fd5b5061021a6105ef36600461275c565b611cb9565b34801561060057600080fd5b506105c761060f36600461261b565b61205d565b34801561062057600080fd5b5061063461062f366004612906565b6120f7565b6040516101f19190612997565b60008060005b6001600160a01b038516600090815260066020526040902084600281111561067f57634e487b7160e01b600052602160045260246000fd5b60ff16600881106106a057634e487b7160e01b600052603260045260246000fd5b0154811015610746576001600160a01b0385166000908152600560205260408120908560028111156106e257634e487b7160e01b600052602160045260246000fd5b600281111561070157634e487b7160e01b600052602160045260246000fd5b815260208082019290925260409081016000908120848252909252902054600160281b900463ffffffff16610734578091505b8061073e81612bc8565b915050610647565b50801580156107b157506001600160a01b038416600090815260066020526040902060319084600281111561078b57634e487b7160e01b600052602160045260246000fd5b60ff16600881106107ac57634e487b7160e01b600052603260045260246000fd5b015411155b15610819576001600160a01b03841660009081526006602052604090208360028111156107ee57634e487b7160e01b600052602160045260246000fd5b60ff166008811061080f57634e487b7160e01b600052603260045260246000fd5b015491505061081f565b60329150505b92915050565b6001600160a01b03821660009081526020819052604081205482111561084d5750600061081f565b6001600160a01b038316600090815260208190526040902054610871908390612b21565b6001600160a01b03841660009081526020819052604090205550600192915050565b6001546040516323b872dd60e01b8152336004820152306024820152604481018390526000916001600160a01b0316906323b872dd90606401602060405180830381600087803b1580156108e657600080fd5b505af11580156108fa573d6000803e3d6000fd5b505050506040513d601f19601f8201168201806040525081019061091e9190612740565b9050806109645760405162461bcd60e51b815260206004820152600f60248201526e149958da185c99d94819985a5b1959608a1b60448201526064015b60405180910390fd5b610973645d21dba00083612b0d565b3360009081526020819052604090205461098d9190612aa8565b336000908152602081905260409020555050565b600080805b600254811015610a0d57836001600160a01b0316600282815481106109db57634e487b7160e01b600052603260045260246000fd5b6000918252602090912001546001600160a01b031614156109fb57600191505b80610a0581612bc8565b9150506109a6565b5092915050565b600280546001810182556000919091527f405787fa12a823e0f2b7631cc41b3ba8828b3321ca811111fa75cd3aa3bb5ace0180546001600160a01b03191633908117909155604051600390610a6a90849061297b565b908152604080516020928190038301902080546001600160a01b0319166001600160a01b03949094169390931790925533600090815260048252919091208251610ab692840190612450565b5050565b6000610ac5826121b0565b610b715760028054600181019091557f405787fa12a823e0f2b7631cc41b3ba8828b3321ca811111fa75cd3aa3bb5ace0180546001600160a01b0319163390811790915560009081526004602090815260409091208351610b2892850190612450565b5033600383604051610b3a919061297b565b90815260405190819003602001902080546001600160a01b03929092166001600160a01b0319909216919091179055506001919050565b506000919050565b919050565b6000805b6001600160a01b038416600090815260076020526040902054811015610c1e576001600160a01b03848116600090815260076020526040902080549185169183908110610bdf57634e487b7160e01b600052603260045260246000fd5b60009182526020909120600160029092020101546001600160a01b03161415610c0c57600191505061081f565b80610c1681612bc8565b915050610b82565b5060009392505050565b6001600160a01b038216600090815260208190526040902054610c4c908290612aa8565b6001600160a01b0390921660009081526020819052604090209190915550565b6040805160608101825263ffffffff858116602083015260018252831691810191909152610c9c60008483611cb9565b5050505050565b6001600160a01b0382166000908152600560205260408120829082866002811115610cde57634e487b7160e01b600052602160045260246000fd5b6002811115610cfd57634e487b7160e01b600052602160045260246000fd5b8152602080820192909252604090810160009081206001808352908452908290208451815494860151959093015164ffffffffff1990941692151564ffffffff0019169290921761010063ffffffff958616021768ffffffff00000000001916600160281b949093169390930291909117905590505b9392505050565b805b33600090815260086020526040902054811015610e8257336000908152600860205260409020610dad826001612aa8565b81548110610dcb57634e487b7160e01b600052603260045260246000fd5b906000526020600020906002020160086000336001600160a01b03166001600160a01b031681526020019081526020016000208281548110610e1d57634e487b7160e01b600052603260045260246000fd5b90600052602060002090600202016000820181600001908054610e3f90612b8d565b610e4a9291906124d4565b50600191820154910180546001600160a01b0319166001600160a01b0390921691909117905580610e7a81612bc8565b915050610d7c565b503360009081526008602052604090208054610ea090600190612b21565b81548110610ebe57634e487b7160e01b600052603260045260246000fd5b60009182526020822060029091020190610ed8828261254f565b5060010180546001600160a01b031916905550565b336000908152600760209081526040808320805482518185028101850190935280835260609492939192909184015b82821015610ff35783829060005260206000209060020201604051806040016040529081600082018054610f4f90612b8d565b80601f0160208091040260200160405190810160405280929190818152602001828054610f7b90612b8d565b8015610fc85780601f10610f9d57610100808354040283529160200191610fc8565b820191906000526020600020905b815481529060010190602001808311610fab57829003601f168201915b50505091835250506001918201546001600160a01b0316602091820152918352929092019101610f1c565b50505050905090565b60008261100883611b1d565b10156110165750600161081f565b50600092915050565b6001600160a01b038316600090815260208190526040902054611043908290612b21565b6001600160a01b038085166000908152602081905260408082209390935590841681522054611073908290612aa8565b6001600160a01b039092166000908152602081905260409020919091555050565b6000805b603281101561128e576001600160a01b038616600090815260056020526040812085918760028111156110db57634e487b7160e01b600052602160045260246000fd5b60028111156110fa57634e487b7160e01b600052602160045260246000fd5b815260208082019290925260409081016000908120858252909252902054610100900463ffffffff16141561127c576001600160a01b03861660009081526005602052604081209086600281111561116257634e487b7160e01b600052602160045260246000fd5b600281111561118157634e487b7160e01b600052602160045260246000fd5b81526020808201929092526040908101600090812084825290925290205463ffffffff600160281b909104811690841611156111c1576000915050611294565b6001600160a01b038616600090815260056020526040812084918760028111156111fb57634e487b7160e01b600052602160045260246000fd5b600281111561121a57634e487b7160e01b600052602160045260246000fd5b81526020808201929092526040908101600090812085825290925290208054600590611254908490600160281b900463ffffffff16612b38565b92506101000a81548163ffffffff021916908363ffffffff1602179055506001915050611294565b8061128681612bc8565b915050611098565b50600090505b949350505050565b6001600160a01b0381166000908152600460205260408120805461134791906112c490612b8d565b80601f01602080910402602001604051908101604052809291908181526020018280546112f090612b8d565b801561133d5780601f106113125761010080835404028352916020019161133d565b820191906000526020600020905b81548152906001019060200180831161132057829003601f168201915b50505050506121b0565b61135357506000919050565b6040805180820182526060815233602080830182905260009182526004905291909120805461138190612b8d565b80601f01602080910402602001604051908101604052809291908181526020018280546113ad90612b8d565b80156113fa5780601f106113cf576101008083540402835291602001916113fa565b820191906000526020600020905b8154815290600101906020018083116113dd57829003601f168201915b50505091835250506001600160a01b038316600090815260086020908152604082208054600181018255908352918190208351805185946002029092019261144792849290910190612450565b5060209190910151600191820180546001600160a01b0319166001600160a01b039092169190911790559392505050565b6040805180820190915260608152600060208201523360009081526008602052604090208054839081106114bc57634e487b7160e01b600052603260045260246000fd5b906000526020600020906002020160000180546114d890612b8d565b80601f016020809104026020016040519081016040528092919081815260200182805461150490612b8d565b80156115515780601f1061152657610100808354040283529160200191611551565b820191906000526020600020905b81548152906001019060200180831161153457829003601f168201915b505050918352505033600090815260086020526040902080548390811061158857634e487b7160e01b600052603260045260246000fd5b600091825260208083206002928302016001908101546001600160a01b031685830152338452600782526040842080549182018155845292819020845180518695909402909101926115dd9284920190612450565b5060209182015160019190910180546001600160a01b0319166001600160a01b0390921691909117905560408051808201825260608152600081840181905233815260049093529120805461163190612b8d565b80601f016020809104026020016040519081016040528092919081815260200182805461165d90612b8d565b80156116aa5780601f1061167f576101008083540402835291602001916116aa565b820191906000526020600020905b81548152906001019060200180831161168d57829003601f168201915b50505091835250503360208083018290526000918252600890526040812080546007929190869081106116ed57634e487b7160e01b600052603260045260246000fd5b600091825260208083206002928302016001908101546001600160a01b031685528482019590955260409093018220805494850181558252908290208451805186959093029091019261174592849290910190612450565b5060209190910151600190910180546001600160a01b0319166001600160a01b03909216919091179055825b33600090815260086020526040902054811015611877573360009081526008602052604090206117a2826001612aa8565b815481106117c057634e487b7160e01b600052603260045260246000fd5b906000526020600020906002020160086000336001600160a01b03166001600160a01b03168152602001908152602001600020828154811061181257634e487b7160e01b600052603260045260246000fd5b9060005260206000209060020201600082018160000190805461183490612b8d565b61183f9291906124d4565b50600191820154910180546001600160a01b0319166001600160a01b039092169190911790558061186f81612bc8565b915050611771565b50336000908152600860205260409020805461189590600190612b21565b815481106118b357634e487b7160e01b600052603260045260246000fd5b600091825260208220600290910201906118cd828261254f565b5060010180546001600160a01b0319169055505050565b60006118ef826121b0565b6118fb57506000919050565b6040805180820182526060815233602080830182905260009182526004905291909120805461192990612b8d565b80601f016020809104026020016040519081016040528092919081815260200182805461195590612b8d565b80156119a25780601f10611977576101008083540402835291602001916119a2565b820191906000526020600020905b81548152906001019060200180831161198557829003601f168201915b50505091835250506040516008906000906003906119c190879061297b565b9081526040805160209281900383019020546001600160a01b03168352828201939093529101600090812080546001810182559082529082902083518051859460029094029092019261144792849290910190612450565b60076020528160005260406000208181548110611a3557600080fd5b906000526020600020906002020160009150915050806000018054611a5990612b8d565b80601f0160208091040260200160405190810160405280929190818152602001828054611a8590612b8d565b8015611ad25780601f10611aa757610100808354040283529160200191611ad2565b820191906000526020600020905b815481529060010190602001808311611ab557829003601f168201915b505050600190930154919250506001600160a01b031682565b6040805160608101825263ffffffff858116602083015260018083529084169282019290925290610c9c908483611cb9565b600081335a444345604051602001611b3791815260200190565b60405160208183030381529060405280519060200120604051602001611b9395949392919060609590951b6bffffffffffffffffffffffff19168552601485019390935260348401919091526054830152607482015260940190565b6040516020818303038152906040528051906020012060001c61081f9190612c03565b6001600160a01b038116600090815260046020526040812080546060929190611bde90612b8d565b80601f0160208091040260200160405190810160405280929190818152602001828054611c0a90612b8d565b8015611c575780601f10611c2c57610100808354040283529160200191611c57565b820191906000526020600020905b815481529060010190602001808311611c3a57829003601f168201915b50505050509050611c7781604051806020016040528060008152506121f2565b1561081f5760405162461bcd60e51b81526020600482015260126024820152711554d15497d393d5149151d254d51154915160721b604482015260640161095b565b6000805b6001600160a01b0384166000908152600660205260409020856002811115611cf557634e487b7160e01b600052602160045260246000fd5b60ff1660088110611d1657634e487b7160e01b600052603260045260246000fd5b0154811015611e86576020808401516001600160a01b038616600090815260059092526040822063ffffffff90911691876002811115611d6657634e487b7160e01b600052602160045260246000fd5b6002811115611d8557634e487b7160e01b600052602160045260246000fd5b815260208082019290925260409081016000908120858252909252902054610100900463ffffffff161415611e74576040808401516001600160a01b038616600090815260056020529182209091876002811115611df357634e487b7160e01b600052602160045260246000fd5b6002811115611e1257634e487b7160e01b600052602160045260246000fd5b81526020808201929092526040908101600090812085825290925290208054600590611e4c908490600160281b900463ffffffff16612ac0565b92506101000a81548163ffffffff021916908363ffffffff1602179055506001915050610d73565b80611e7e81612bc8565b915050611cbd565b50611e918385610641565b60321415611ea157506000610d73565b6001600160a01b03831660009081526005602052604081208391866002811115611edb57634e487b7160e01b600052602160045260246000fd5b6002811115611efa57634e487b7160e01b600052602160045260246000fd5b81526020019081526020016000206000611f148688610641565b81526020808201929092526040908101600090812084518154868601519685015164ffffffffff1990911691151564ffffffff0019169190911761010063ffffffff978816021768ffffffff00000000001916600160281b9690911695909502949094179093556001600160a01b038616835260069091529020846002811115611fae57634e487b7160e01b600052602160045260246000fd5b60ff1660088110611fcf57634e487b7160e01b600052603260045260246000fd5b0154611fdb8486610641565b1415612053576001600160a01b038316600090815260066020526040902060019085600281111561201c57634e487b7160e01b600052602160045260246000fd5b60ff166008811061203d57634e487b7160e01b600052603260045260246000fd5b01600082825461204d9190612aa8565b90915550505b5060019392505050565b6004602052600090815260409020805461207690612b8d565b80601f01602080910402602001604051908101604052809291908181526020018280546120a290612b8d565b80156120ef5780601f106120c4576101008083540402835291602001916120ef565b820191906000526020600020905b8154815290600101906020018083116120d257829003601f168201915b505050505081565b6120ff61258c565b816001600160a01b0316836001600160a01b0316148061214457506001600160a01b0380831660009081526009602090815260408083209387168352929052205460ff165b6121845760405162461bcd60e51b81526020600482015260116024820152701c195c9b5a5cdcda5bdb8819195b9a5959607a1b604482015260640161095b565b6112948460ff1660028111156121aa57634e487b7160e01b600052602160045260246000fd5b8361224b565b6000806001600160a01b03166003836040516121cc919061297b565b908152604051908190036020019020546001600160a01b031614610b7157506001919050565b600081604051602001612205919061297b565b604051602081830303815290604052805190602001208360405160200161222c919061297b565b6040516020818303038152906040528051906020012014905092915050565b61225361258c565b61225b61258c565b6000805b6001600160a01b038516600090815260066020526040902086600281111561229757634e487b7160e01b600052602160045260246000fd5b60ff16600881106122b857634e487b7160e01b600052603260045260246000fd5b01548160ff161015612446576001600160a01b0385166000908152600560205260408120908760028111156122fd57634e487b7160e01b600052602160045260246000fd5b600281111561231c57634e487b7160e01b600052602160045260246000fd5b81526020808201929092526040908101600090812060ff85168252909252902054600160281b900463ffffffff1615612434576001600160a01b03851660009081526005602052604081209087600281111561238857634e487b7160e01b600052602160045260246000fd5b60028111156123a757634e487b7160e01b600052602160045260246000fd5b81526020808201929092526040908101600090812060ff808616835290845290829020825160608101845290548083161515825263ffffffff6101008204811695830195909552600160281b900490931691830191909152849084166032811061242157634e487b7160e01b600052603260045260246000fd5b6020020152612431600183612ae8565b91505b8061243e81612be3565b91505061225f565b5090949350505050565b82805461245c90612b8d565b90600052602060002090601f01602090048101928261247e57600085556124c4565b82601f1061249757805160ff19168380011785556124c4565b828001600101855582156124c4579182015b828111156124c45782518255916020019190600101906124a9565b506124d09291506125cc565b5090565b8280546124e090612b8d565b90600052602060002090601f01602090048101928261250257600085556124c4565b82601f1061251357805485556124c4565b828001600101855582156124c457600052602060002091601f016020900482015b828111156124c4578254825591600101919060010190612534565b50805461255b90612b8d565b6000825580601f1061256b575050565b601f01602090049060005260206000209081019061258991906125cc565b50565b6040518061064001604052806032905b604080516060810182526000808252602080830182905292820152825260001990920191018161259c5790505090565b5b808211156124d057600081556001016125cd565b80356001600160a01b0381168114610b7957600080fd5b803560038110610b7957600080fd5b803563ffffffff81168114610b7957600080fd5b60006020828403121561262c578081fd5b610d73826125e1565b60008060408385031215612647578081fd5b612650836125e1565b915061265e602084016125e1565b90509250929050565b60008060006060848603121561267b578081fd5b612684846125e1565b9250612692602085016125e1565b9150604084013590509250925092565b600080604083850312156126b4578182fd5b6126bd836125e1565b915061265e602084016125f8565b600080600080608085870312156126e0578081fd5b6126e9856125e1565b93506126f7602086016125f8565b92506040850135915061270c60608601612607565b905092959194509250565b60008060408385031215612729578182fd5b612732836125e1565b946020939093013593505050565b600060208284031215612751578081fd5b8151610d7381612c59565b600080600083850360a0811215612771578384fd5b61277a856125f8565b9350612788602086016125e1565b92506060603f198201121561279b578182fd5b506040516060810181811067ffffffffffffffff821117156127bf576127bf612c43565b60409081528501356127d081612c59565b81526127de60608601612607565b60208201526127ef60808601612607565b6040820152809150509250925092565b600060208284031215612810578081fd5b813567ffffffffffffffff80821115612827578283fd5b818401915084601f83011261283a578283fd5b81358181111561284c5761284c612c43565b604051601f8201601f19908116603f0116810190838211818310171561287457612874612c43565b8160405282815287602084870101111561288c578586fd5b826020860160208301379182016020019490945295945050505050565b6000602082840312156128ba578081fd5b5035919050565b6000806000606084860312156128d5578283fd5b83359250612692602085016125e1565b600080604083850312156128f7578182fd5b50508035926020909101359150565b60008060006060848603121561291a578081fd5b833560ff8116811461292a578182fd5b9250612938602085016125e1565b9150612946604085016125e1565b90509250925092565b60008151808452612967816020860160208601612b5d565b601f01601f19169290920160200192915050565b6000825161298d818460208701612b5d565b9190910192915050565b6112c08101818360005b60328110156129e457815180511515845260208082015163ffffffff908116828701526040928301511691850191909152606090930192909101906001016129a1565b50505092915050565b60006020808301818452808551808352604092508286019150828160051b870101848801865b83811015612a5d57888303603f1901855281518051878552612a378886018261294f565b918901516001600160a01b03169489019490945294870194925090860190600101612a13565b509098975050505050505050565b602081526000610d73602083018461294f565b604081526000612a91604083018561294f565b905060018060a01b03831660208301529392505050565b60008219821115612abb57612abb612c17565b500190565b600063ffffffff808316818516808303821115612adf57612adf612c17565b01949350505050565b600060ff821660ff84168060ff03821115612b0557612b05612c17565b019392505050565b600082612b1c57612b1c612c2d565b500490565b600082821015612b3357612b33612c17565b500390565b600063ffffffff83811690831681811015612b5557612b55612c17565b039392505050565b60005b83811015612b78578181015183820152602001612b60565b83811115612b87576000848401525b50505050565b600181811c90821680612ba157607f821691505b60208210811415612bc257634e487b7160e01b600052602260045260246000fd5b50919050565b6000600019821415612bdc57612bdc612c17565b5060010190565b600060ff821660ff811415612bfa57612bfa612c17565b60010192915050565b600082612c1257612c12612c2d565b500690565b634e487b7160e01b600052601160045260246000fd5b634e487b7160e01b600052601260045260246000fd5b634e487b7160e01b600052604160045260246000fd5b801515811461258957600080fdfea264697066735822122025e9b3c157a09cedca262d61cf84dd3998eaf3280b55501ea808c7e01df6b10764736f6c63430008040033",
  "immutableReferences": {},
  "source": "// SPDX-License-Identifier: MIT\npragma solidity ^0.8.0;\n\nimport \"./Repository.sol\";\n\ncontract PetBase is Repository {\n    /// @dev  \n    mapping(address => PetPropertiesPacked[]) internal petList;\n\n    uint8[] propertiesTrough = [0, 2, 4, 5, 7, 8, 9, 10, 10];\n\n    //\n    //hp(6bits)\n    //atk(6bits)\n    //def(6bits)\n    //spd(6bits)\n    //shape(4bits)each\n    //color(4bits)each\n    //-------------------DNA\n    //\n    //hp(11bits)\n    //atk(11bits)\n    //def(11bits)\n    //spd(11bits)\n    //Level(5bits)\n    struct PetPropertiesPacked {\n        uint8 hp;\n        uint8 atk;\n        uint8 def;\n        uint8 spd;\n        uint32 petExperience;\n        uint16 maxPropertiesTrough;\n        uint8 fullDegree;\n        uint256 zeroTime;\n    }\n}\n",
  "sourcePath": "F:/Projects/PixFarmon-frontend/src/util/pixfarmon-dapp/Pixfarmon/contracts/PetBase.sol",
  "compiler": {
    "name": "solc",
    "version": "0.8.4+commit.c7e474f2.Emscripten.clang"
  },
  "schemaVersion": "3.3.4",
  "updatedAt": "2021-06-02T10:53:47.245Z",
  "networkType": "ethereum",
  "devdoc": {
    "kind": "dev",
    "methods": {
      "_findFirstPlace(address,uint8)": {
        "details": ""
      },
      "_isregister(address)": {
        "details": ""
      },
      "_registration(string)": {
        "details": ""
      },
      "addFruit(uint256,address,uint256)": {
        "details": ""
      },
      "addItem(uint8,address,(bool,uint32,uint32))": {
        "details": ""
      },
      "addSeed(uint256,address,uint256)": {
        "details": ""
      },
      "getMoneyFromShop(address,uint256)": {
        "details": ""
      },
      "removeItem(address,uint8,uint256,uint32)": {
        "details": " tag  _amount "
      },
      "transferTo(address,address,uint256)": {
        "details": ""
      },
      "transferToShop(address,uint256)": {
        "details": ""
      }
    },
    "stateVariables": {
      "petList": {
        "details": ""
      }
    },
    "version": 1
  },
  "userdoc": {
    "kind": "user",
    "methods": {
      "rechargeMoney(uint256)": {
        "notice": ""
      }
    },
    "version": 1
  }
}