{
  "contractName": "PetFactory",
  "abi": [
    {
      "anonymous": false,
      "inputs": [
        {
          "indexed": true,
          "internalType": "address",
          "name": "previousOwner",
          "type": "address"
        },
        {
          "indexed": true,
          "internalType": "address",
          "name": "newOwner",
          "type": "address"
        }
      ],
      "name": "OwnershipTransferred",
      "type": "event"
    },
    {
      "inputs": [
        {
          "internalType": "address",
          "name": "_player",
          "type": "address"
        },
        {
          "internalType": "enum Repository.ItemType",
          "name": "_itemType",
          "type": "uint8"
        }
      ],
      "name": "_findFirstPlace",
      "outputs": [
        {
          "internalType": "uint256",
          "name": "",
          "type": "uint256"
        }
      ],
      "stateMutability": "view",
      "type": "function"
    },
    {
      "inputs": [
        {
          "internalType": "address",
          "name": "_person",
          "type": "address"
        }
      ],
      "name": "_isregister",
      "outputs": [
        {
          "internalType": "bool",
          "name": "",
          "type": "bool"
        }
      ],
      "stateMutability": "view",
      "type": "function"
    },
    {
      "inputs": [
        {
          "internalType": "string",
          "name": "_name",
          "type": "string"
        }
      ],
      "name": "_registration",
      "outputs": [],
      "stateMutability": "nonpayable",
      "type": "function"
    },
    {
      "inputs": [
        {
          "internalType": "uint256",
          "name": "_index",
          "type": "uint256"
        }
      ],
      "name": "acceptFriend",
      "outputs": [],
      "stateMutability": "nonpayable",
      "type": "function"
    },
    {
      "inputs": [
        {
          "internalType": "address",
          "name": "_address",
          "type": "address"
        }
      ],
      "name": "addFriendByAddress",
      "outputs": [
        {
          "internalType": "bool",
          "name": "",
          "type": "bool"
        }
      ],
      "stateMutability": "nonpayable",
      "type": "function"
    },
    {
      "inputs": [
        {
          "internalType": "string",
          "name": "_name",
          "type": "string"
        }
      ],
      "name": "addFriendByName",
      "outputs": [
        {
          "internalType": "bool",
          "name": "",
          "type": "bool"
        }
      ],
      "stateMutability": "nonpayable",
      "type": "function"
    },
    {
      "inputs": [
        {
          "internalType": "uint256",
          "name": "_tag",
          "type": "uint256"
        },
        {
          "internalType": "address",
          "name": "_player",
          "type": "address"
        },
        {
          "internalType": "uint256",
          "name": "_amount",
          "type": "uint256"
        }
      ],
      "name": "addFruit",
      "outputs": [],
      "stateMutability": "nonpayable",
      "type": "function"
    },
    {
      "inputs": [
        {
          "internalType": "enum Repository.ItemType",
          "name": "_itemType",
          "type": "uint8"
        },
        {
          "internalType": "address",
          "name": "_player",
          "type": "address"
        },
        {
          "components": [
            {
              "internalType": "bool",
              "name": "usable",
              "type": "bool"
            },
            {
              "internalType": "uint32",
              "name": "tag",
              "type": "uint32"
            },
            {
              "internalType": "uint32",
              "name": "stack",
              "type": "uint32"
            }
          ],
          "internalType": "struct Repository.Item",
          "name": "_item",
          "type": "tuple"
        }
      ],
      "name": "addItem",
      "outputs": [
        {
          "internalType": "bool",
          "name": "",
          "type": "bool"
        }
      ],
      "stateMutability": "nonpayable",
      "type": "function"
    },
    {
      "inputs": [
        {
          "internalType": "uint256",
          "name": "_tag",
          "type": "uint256"
        },
        {
          "internalType": "address",
          "name": "_player",
          "type": "address"
        },
        {
          "internalType": "uint256",
          "name": "_amount",
          "type": "uint256"
        }
      ],
      "name": "addSeed",
      "outputs": [],
      "stateMutability": "nonpayable",
      "type": "function"
    },
    {
      "inputs": [
        {
          "internalType": "address",
          "name": "",
          "type": "address"
        }
      ],
      "name": "addressToName",
      "outputs": [
        {
          "internalType": "string",
          "name": "",
          "type": "string"
        }
      ],
      "stateMutability": "view",
      "type": "function"
    },
    {
      "inputs": [
        {
          "internalType": "address",
          "name": "user",
          "type": "address"
        },
        {
          "internalType": "address",
          "name": "target",
          "type": "address"
        }
      ],
      "name": "changePermission",
      "outputs": [],
      "stateMutability": "nonpayable",
      "type": "function"
    },
    {
      "inputs": [
        {
          "internalType": "address",
          "name": "p1",
          "type": "address"
        },
        {
          "internalType": "address",
          "name": "p2",
          "type": "address"
        }
      ],
      "name": "friendCheck",
      "outputs": [
        {
          "internalType": "bool",
          "name": "",
          "type": "bool"
        }
      ],
      "stateMutability": "view",
      "type": "function"
    },
    {
      "inputs": [
        {
          "internalType": "address",
          "name": "",
          "type": "address"
        },
        {
          "internalType": "uint256",
          "name": "",
          "type": "uint256"
        }
      ],
      "name": "friendList",
      "outputs": [
        {
          "internalType": "string",
          "name": "friendName",
          "type": "string"
        },
        {
          "internalType": "address",
          "name": "friendAddress",
          "type": "address"
        }
      ],
      "stateMutability": "view",
      "type": "function"
    },
    {
      "inputs": [],
      "name": "getFriendList",
      "outputs": [
        {
          "components": [
            {
              "internalType": "string",
              "name": "friendName",
              "type": "string"
            },
            {
              "internalType": "address",
              "name": "friendAddress",
              "type": "address"
            }
          ],
          "internalType": "struct Repository.friend[]",
          "name": "",
          "type": "tuple[]"
        }
      ],
      "stateMutability": "view",
      "type": "function"
    },
    {
      "inputs": [
        {
          "internalType": "uint8",
          "name": "itemType",
          "type": "uint8"
        },
        {
          "internalType": "address",
          "name": "user",
          "type": "address"
        },
        {
          "internalType": "address",
          "name": "target",
          "type": "address"
        }
      ],
      "name": "getItemList",
      "outputs": [
        {
          "components": [
            {
              "internalType": "bool",
              "name": "usable",
              "type": "bool"
            },
            {
              "internalType": "uint32",
              "name": "tag",
              "type": "uint32"
            },
            {
              "internalType": "uint32",
              "name": "stack",
              "type": "uint32"
            }
          ],
          "internalType": "struct Repository.Item[50]",
          "name": "",
          "type": "tuple[50]"
        }
      ],
      "stateMutability": "view",
      "type": "function"
    },
    {
      "inputs": [
        {
          "internalType": "address",
          "name": "player",
          "type": "address"
        }
      ],
      "name": "getMoney",
      "outputs": [
        {
          "internalType": "uint256",
          "name": "",
          "type": "uint256"
        }
      ],
      "stateMutability": "view",
      "type": "function"
    },
    {
      "inputs": [
        {
          "internalType": "address",
          "name": "_person",
          "type": "address"
        },
        {
          "internalType": "uint256",
          "name": "_value",
          "type": "uint256"
        }
      ],
      "name": "getMoneyFromShop",
      "outputs": [],
      "stateMutability": "nonpayable",
      "type": "function"
    },
    {
      "inputs": [
        {
          "internalType": "uint256",
          "name": "decimal",
          "type": "uint256"
        }
      ],
      "name": "getRandom",
      "outputs": [
        {
          "internalType": "uint256",
          "name": "",
          "type": "uint256"
        }
      ],
      "stateMutability": "view",
      "type": "function"
    },
    {
      "inputs": [
        {
          "internalType": "address",
          "name": "_person",
          "type": "address"
        }
      ],
      "name": "getUsername",
      "outputs": [
        {
          "internalType": "string",
          "name": "",
          "type": "string"
        }
      ],
      "stateMutability": "view",
      "type": "function"
    },
    {
      "inputs": [],
      "name": "owner",
      "outputs": [
        {
          "internalType": "address",
          "name": "",
          "type": "address"
        }
      ],
      "stateMutability": "view",
      "type": "function"
    },
    {
      "inputs": [
        {
          "internalType": "string",
          "name": "_name",
          "type": "string"
        }
      ],
      "name": "playerCreate",
      "outputs": [
        {
          "internalType": "bool",
          "name": "",
          "type": "bool"
        }
      ],
      "stateMutability": "nonpayable",
      "type": "function"
    },
    {
      "inputs": [
        {
          "internalType": "uint256",
          "name": "numerator",
          "type": "uint256"
        },
        {
          "internalType": "uint256",
          "name": "denominator",
          "type": "uint256"
        }
      ],
      "name": "probabilityCheck",
      "outputs": [
        {
          "internalType": "bool",
          "name": "",
          "type": "bool"
        }
      ],
      "stateMutability": "view",
      "type": "function"
    },
    {
      "inputs": [
        {
          "internalType": "enum Repository.ItemType",
          "name": "_itemType",
          "type": "uint8"
        },
        {
          "internalType": "address",
          "name": "_player",
          "type": "address"
        },
        {
          "components": [
            {
              "internalType": "bool",
              "name": "usable",
              "type": "bool"
            },
            {
              "internalType": "uint32",
              "name": "tag",
              "type": "uint32"
            },
            {
              "internalType": "uint32",
              "name": "stack",
              "type": "uint32"
            }
          ],
          "internalType": "struct Repository.Item",
          "name": "_item",
          "type": "tuple"
        }
      ],
      "name": "quieckAddItem",
      "outputs": [
        {
          "internalType": "bool",
          "name": "",
          "type": "bool"
        }
      ],
      "stateMutability": "nonpayable",
      "type": "function"
    },
    {
      "inputs": [
        {
          "internalType": "uint256",
          "name": "_value",
          "type": "uint256"
        }
      ],
      "name": "rechargeMoney",
      "outputs": [],
      "stateMutability": "payable",
      "type": "function"
    },
    {
      "inputs": [
        {
          "internalType": "uint256",
          "name": "_index",
          "type": "uint256"
        }
      ],
      "name": "refuseFriend",
      "outputs": [],
      "stateMutability": "nonpayable",
      "type": "function"
    },
    {
      "inputs": [
        {
          "internalType": "address",
          "name": "_player",
          "type": "address"
        },
        {
          "internalType": "enum Repository.ItemType",
          "name": "_itemType",
          "type": "uint8"
        },
        {
          "internalType": "uint256",
          "name": "_tag",
          "type": "uint256"
        },
        {
          "internalType": "uint32",
          "name": "_amount",
          "type": "uint32"
        }
      ],
      "name": "removeItem",
      "outputs": [
        {
          "internalType": "bool",
          "name": "",
          "type": "bool"
        }
      ],
      "stateMutability": "nonpayable",
      "type": "function"
    },
    {
      "inputs": [],
      "name": "renounceOwnership",
      "outputs": [],
      "stateMutability": "nonpayable",
      "type": "function"
    },
    {
      "inputs": [
        {
          "internalType": "address",
          "name": "",
          "type": "address"
        },
        {
          "internalType": "address",
          "name": "",
          "type": "address"
        }
      ],
      "name": "storageAllowence",
      "outputs": [
        {
          "internalType": "bool",
          "name": "",
          "type": "bool"
        }
      ],
      "stateMutability": "view",
      "type": "function"
    },
    {
      "inputs": [
        {
          "internalType": "address",
          "name": "newOwner",
          "type": "address"
        }
      ],
      "name": "transferOwnership",
      "outputs": [],
      "stateMutability": "nonpayable",
      "type": "function"
    },
    {
      "inputs": [
        {
          "internalType": "address",
          "name": "p1",
          "type": "address"
        },
        {
          "internalType": "address",
          "name": "p2",
          "type": "address"
        },
        {
          "internalType": "uint256",
          "name": "_value",
          "type": "uint256"
        }
      ],
      "name": "transferTo",
      "outputs": [],
      "stateMutability": "nonpayable",
      "type": "function"
    },
    {
      "inputs": [
        {
          "internalType": "address",
          "name": "_person",
          "type": "address"
        },
        {
          "internalType": "uint256",
          "name": "_value",
          "type": "uint256"
        }
      ],
      "name": "transferToShop",
      "outputs": [
        {
          "internalType": "bool",
          "name": "",
          "type": "bool"
        }
      ],
      "stateMutability": "nonpayable",
      "type": "function"
    }
  ],
  "bytecode": "0x6101a060405260006080908152600260a052600460c052600560e0526007610100526008610120526009610140819052600a610160819052610180526200004991600c916200009f565b503480156200005757600080fd5b50600080546001600160a01b031916339081178255604051909182917f8be0079c531659141344cd1fd0a4f28419497f9722a3daafe3b4186f6b6457e0908290a35062000163565b82805482825590600052602060002090601f016020900481019282156200013a5791602002820160005b838211156200010957835183826101000a81548160ff021916908360ff1602179055509260200192600101602081600001049283019260010302620000c9565b8015620001385782816101000a81549060ff021916905560010160208160000104928301926001030262000109565b505b50620001489291506200014c565b5090565b5b808211156200014857600081556001016200014d565b612ee680620001736000396000f3fe6080604052600436106101d85760003560e01c80638da5cb5b11610102578063bf73337d11610095578063dd6803c711610064578063dd6803c7146105d4578063e2a04b62146105f4578063e87cb06b14610614578063f2fde38b1461064157600080fd5b8063bf73337d14610539578063cc39e72114610567578063cd4b691414610587578063ce43c032146105a757600080fd5b8063abeac807116100d1578063abeac80714610485578063afc18679146104a5578063b60689c7146104c5578063b7bf02991461051957600080fd5b80638da5cb5b146103fd578063987a418414610425578063a5f2a15214610445578063a762e9c41461046557600080fd5b80633df918721161017a57806370b5d4b81161014957806370b5d4b814610370578063715018a614610390578063717d5527146103a55780638d2cb64f146103db57600080fd5b80633df91872146102f057806347af13f9146103105780635975b25714610330578063623845081461035057600080fd5b80631699a9fa116101b65780631699a9fa146102555780633093b2f71461029057806335911a17146102b05780633b955fcb146102d057600080fd5b8063013fdb87146101dd578063095ec74514610210578063155b390414610240575b600080fd5b3480156101e957600080fd5b506101fd6101f83660046128ea565b610661565b6040519081526020015b60405180910390f35b34801561021c57600080fd5b5061023061022b36600461295f565b610847565b6040519015158152602001610207565b61025361024e366004612af1565b6108ba565b005b34801561026157600080fd5b5061023061027036600461287d565b600a60209081526000928352604080842090915290825290205460ff1681565b34801561029c57600080fd5b506102306102ab366004612863565b6109ef565b3480156102bc57600080fd5b506102536102cb366004612a47565b610a62565b3480156102dc57600080fd5b506102306102eb366004612a47565b610b08565b3480156102fc57600080fd5b5061023061030b36600461287d565b610bcc565b34801561031c57600080fd5b5061025361032b36600461295f565b610c76565b34801561033c57600080fd5b5061025361034b366004612b09565b610cba565b34801561035c57600080fd5b5061023061036b3660046129a4565b610cf1565b34801561037c57600080fd5b5061025361038b366004612af1565b610dca565b34801561039c57600080fd5b50610253610f3d565b3480156103b157600080fd5b506101fd6103c0366004612863565b6001600160a01b031660009081526001602052604090205490565b3480156103e757600080fd5b506103f0610fe1565b6040516102079190612c35565b34801561040957600080fd5b506000546040516001600160a01b039091168152602001610207565b34801561043157600080fd5b50610230610440366004612b2d565b6110f0565b34801561045157600080fd5b506102536104603660046128af565b611113565b34801561047157600080fd5b50610230610480366004612913565b611188565b34801561049157600080fd5b506102306104a0366004612863565b611394565b3480156104b157600080fd5b506102536104c0366004612af1565b611570565b3480156104d157600080fd5b506102536104e036600461287d565b6001600160a01b039182166000908152600a602090815260408083209390941682529190915220805460ff81161560ff19909116179055565b34801561052557600080fd5b50610230610534366004612a47565b6119dc565b34801561054557600080fd5b5061055961055436600461295f565b611b11565b604051610207929190612cc6565b34801561057357600080fd5b50610253610582366004612b09565b611be3565b34801561059357600080fd5b506101fd6105a2366004612af1565b611c15565b3480156105b357600080fd5b506105c76105c2366004612863565b611cae565b6040516102079190612cb3565b3480156105e057600080fd5b506102306105ef3660046129a4565b611dbc565b34801561060057600080fd5b506105c761060f366004612863565b612164565b34801561062057600080fd5b5061063461062f366004612b4e565b6121fe565b6040516102079190612bdf565b34801561064d57600080fd5b5061025361065c366004612863565b6122c3565b60008060005b6001600160a01b038516600090815260076020526040902084600281111561069f57634e487b7160e01b600052602160045260246000fd5b60ff16600881106106c057634e487b7160e01b600052603260045260246000fd5b0154811015610768576001600160a01b03851660009081526006602052604081209085600281111561070257634e487b7160e01b600052602160045260246000fd5b600281111561072157634e487b7160e01b600052602160045260246000fd5b81526020808201929092526040908101600090812084825290925290205465010000000000900463ffffffff16610756578091505b8061076081612e11565b915050610667565b50801580156107d357506001600160a01b03841660009081526007602052604090206031908460028111156107ad57634e487b7160e01b600052602160045260246000fd5b60ff16600881106107ce57634e487b7160e01b600052603260045260246000fd5b015411155b1561083b576001600160a01b038416600090815260076020526040902083600281111561081057634e487b7160e01b600052602160045260246000fd5b60ff166008811061083157634e487b7160e01b600052603260045260246000fd5b0154915050610841565b60329150505b92915050565b6001600160a01b03821660009081526001602052604081205482111561086f57506000610841565b6001600160a01b038316600090815260016020526040902054610893908390612d6a565b6001600160a01b038416600090815260016020819052604090912091909155905092915050565b6002546040517f23b872dd000000000000000000000000000000000000000000000000000000008152336004820152306024820152604481018390526000916001600160a01b0316906323b872dd90606401602060405180830381600087803b15801561092657600080fd5b505af115801561093a573d6000803e3d6000fd5b505050506040513d601f19601f8201168201806040525081019061095e9190612988565b9050806109b25760405162461bcd60e51b815260206004820152600f60248201527f5265636861726765206661696c6564000000000000000000000000000000000060448201526064015b60405180910390fd5b6109c1645d21dba00083612d56565b336000908152600160205260409020546109db9190612cf1565b336000908152600160205260409020555050565b600080805b600354811015610a5b57836001600160a01b031660038281548110610a2957634e487b7160e01b600052603260045260246000fd5b6000918252602090912001546001600160a01b03161415610a4957600191505b80610a5381612e11565b9150506109f4565b5092915050565b600380546001810182556000919091527fc2575a0e9e593c00f959f8c92f12db2869c3395a3b0502d05e2516446f71f85b0180546001600160a01b03191633908117909155604051600490610ab8908490612bc3565b908152604080516020928190038301902080546001600160a01b0319166001600160a01b03949094169390931790925533600090815260058252919091208251610b0492840190612698565b5050565b6000610b13826123f4565b610bbf5760038054600181019091557fc2575a0e9e593c00f959f8c92f12db2869c3395a3b0502d05e2516446f71f85b0180546001600160a01b0319163390811790915560009081526005602090815260409091208351610b7692850190612698565b5033600483604051610b889190612bc3565b90815260405190819003602001902080546001600160a01b03929092166001600160a01b0319909216919091179055506001919050565b506000919050565b919050565b6000805b6001600160a01b038416600090815260086020526040902054811015610c6c576001600160a01b03848116600090815260086020526040902080549185169183908110610c2d57634e487b7160e01b600052603260045260246000fd5b60009182526020909120600160029092020101546001600160a01b03161415610c5a576001915050610841565b80610c6481612e11565b915050610bd0565b5060009392505050565b6001600160a01b038216600090815260016020526040902054610c9a908290612cf1565b6001600160a01b0390921660009081526001602052604090209190915550565b6040805160608101825263ffffffff858116602083015260018252831691810191909152610cea60008483611dbc565b5050505050565b6001600160a01b0382166000908152600660205260408120829082866002811115610d2c57634e487b7160e01b600052602160045260246000fd5b6002811115610d4b57634e487b7160e01b600052602160045260246000fd5b8152602080820192909252604090810160009081206001808352908452908290208451815494860151959093015164ffffffffff1990941692151564ffffffff0019169290921761010063ffffffff958616021768ffffffff0000000000191665010000000000949093169390930291909117905590505b9392505050565b805b33600090815260096020526040902054811015610ed257336000908152600960205260409020610dfd826001612cf1565b81548110610e1b57634e487b7160e01b600052603260045260246000fd5b906000526020600020906002020160096000336001600160a01b03166001600160a01b031681526020019081526020016000208281548110610e6d57634e487b7160e01b600052603260045260246000fd5b90600052602060002090600202016000820181600001908054610e8f90612dd6565b610e9a92919061271c565b50600191820154910180546001600160a01b0319166001600160a01b0390921691909117905580610eca81612e11565b915050610dcc565b503360009081526009602052604090208054610ef090600190612d6a565b81548110610f0e57634e487b7160e01b600052603260045260246000fd5b60009182526020822060029091020190610f288282612797565b5060010180546001600160a01b031916905550565b6000546001600160a01b03163314610f975760405162461bcd60e51b815260206004820181905260248201527f4f776e61626c653a2063616c6c6572206973206e6f7420746865206f776e657260448201526064016109a9565b600080546040516001600160a01b03909116907f8be0079c531659141344cd1fd0a4f28419497f9722a3daafe3b4186f6b6457e0908390a3600080546001600160a01b0319169055565b336000908152600860209081526040808320805482518185028101850190935280835260609492939192909184015b828210156110e7578382906000526020600020906002020160405180604001604052908160008201805461104390612dd6565b80601f016020809104026020016040519081016040528092919081815260200182805461106f90612dd6565b80156110bc5780601f10611091576101008083540402835291602001916110bc565b820191906000526020600020905b81548152906001019060200180831161109f57829003601f168201915b50505091835250506001918201546001600160a01b0316602091820152918352929092019101611010565b50505050905090565b6000826110fc83611c15565b101561110a57506001610841565b50600092915050565b6001600160a01b038316600090815260016020526040902054611137908290612d6a565b6001600160a01b038085166000908152600160205260408082209390935590841681522054611167908290612cf1565b6001600160a01b039092166000908152600160205260409020919091555050565b6000805b6032811015611386576001600160a01b038616600090815260066020526040812085918760028111156111cf57634e487b7160e01b600052602160045260246000fd5b60028111156111ee57634e487b7160e01b600052602160045260246000fd5b815260208082019290925260409081016000908120858252909252902054610100900463ffffffff161415611374576001600160a01b03861660009081526006602052604081209086600281111561125657634e487b7160e01b600052602160045260246000fd5b600281111561127557634e487b7160e01b600052602160045260246000fd5b81526020808201929092526040908101600090812084825290925290205463ffffffff65010000000000909104811690841611156112b757600091505061138c565b6001600160a01b038616600090815260066020526040812084918760028111156112f157634e487b7160e01b600052602160045260246000fd5b600281111561131057634e487b7160e01b600052602160045260246000fd5b8152602080820192909252604090810160009081208582529092529020805460059061134c90849065010000000000900463ffffffff16612d81565b92506101000a81548163ffffffff021916908363ffffffff160217905550600191505061138c565b8061137e81612e11565b91505061118c565b50600090505b949350505050565b6001600160a01b0381166000908152600560205260408120805461143f91906113bc90612dd6565b80601f01602080910402602001604051908101604052809291908181526020018280546113e890612dd6565b80156114355780601f1061140a57610100808354040283529160200191611435565b820191906000526020600020905b81548152906001019060200180831161141857829003601f168201915b50505050506123f4565b61144b57506000919050565b6040805180820182526060815233602080830182905260009182526005905291909120805461147990612dd6565b80601f01602080910402602001604051908101604052809291908181526020018280546114a590612dd6565b80156114f25780601f106114c7576101008083540402835291602001916114f2565b820191906000526020600020905b8154815290600101906020018083116114d557829003601f168201915b50505091835250506001600160a01b038316600090815260096020908152604082208054600181018255908352918190208351805185946002029092019261153f92849290910190612698565b5060209190910151600191820180546001600160a01b0319166001600160a01b039092169190911790559392505050565b6040805180820190915260608152600060208201523360009081526009602052604090208054839081106115b457634e487b7160e01b600052603260045260246000fd5b906000526020600020906002020160000180546115d090612dd6565b80601f01602080910402602001604051908101604052809291908181526020018280546115fc90612dd6565b80156116495780601f1061161e57610100808354040283529160200191611649565b820191906000526020600020905b81548152906001019060200180831161162c57829003601f168201915b505050918352505033600090815260096020526040902080548390811061168057634e487b7160e01b600052603260045260246000fd5b600091825260208083206002928302016001908101546001600160a01b031685830152338452600882526040842080549182018155845292819020845180518695909402909101926116d59284920190612698565b5060209182015160019190910180546001600160a01b0319166001600160a01b0390921691909117905560408051808201825260608152600081840181905233815260059093529120805461172990612dd6565b80601f016020809104026020016040519081016040528092919081815260200182805461175590612dd6565b80156117a25780601f10611777576101008083540402835291602001916117a2565b820191906000526020600020905b81548152906001019060200180831161178557829003601f168201915b50505091835250503360208083018290526000918252600990526040812080546008929190869081106117e557634e487b7160e01b600052603260045260246000fd5b600091825260208083206002928302016001908101546001600160a01b031685528482019590955260409093018220805494850181558252908290208451805186959093029091019261183d92849290910190612698565b5060209190910151600190910180546001600160a01b0319166001600160a01b03909216919091179055825b3360009081526009602052604090205481101561196f5733600090815260096020526040902061189a826001612cf1565b815481106118b857634e487b7160e01b600052603260045260246000fd5b906000526020600020906002020160096000336001600160a01b03166001600160a01b03168152602001908152602001600020828154811061190a57634e487b7160e01b600052603260045260246000fd5b9060005260206000209060020201600082018160000190805461192c90612dd6565b61193792919061271c565b50600191820154910180546001600160a01b0319166001600160a01b039092169190911790558061196781612e11565b915050611869565b50336000908152600960205260409020805461198d90600190612d6a565b815481106119ab57634e487b7160e01b600052603260045260246000fd5b600091825260208220600290910201906119c58282612797565b5060010180546001600160a01b0319169055505050565b60006119e7826123f4565b6119f357506000919050565b60408051808201825260608152336020808301829052600091825260059052919091208054611a2190612dd6565b80601f0160208091040260200160405190810160405280929190818152602001828054611a4d90612dd6565b8015611a9a5780601f10611a6f57610100808354040283529160200191611a9a565b820191906000526020600020905b815481529060010190602001808311611a7d57829003601f168201915b5050509183525050604051600990600090600490611ab9908790612bc3565b9081526040805160209281900383019020546001600160a01b03168352828201939093529101600090812080546001810182559082529082902083518051859460029094029092019261153f92849290910190612698565b60086020528160005260406000208181548110611b2d57600080fd5b906000526020600020906002020160009150915050806000018054611b5190612dd6565b80601f0160208091040260200160405190810160405280929190818152602001828054611b7d90612dd6565b8015611bca5780601f10611b9f57610100808354040283529160200191611bca565b820191906000526020600020905b815481529060010190602001808311611bad57829003601f168201915b505050600190930154919250506001600160a01b031682565b6040805160608101825263ffffffff858116602083015260018083529084169282019290925290610cea908483611dbc565b600081335a444345604051602001611c2f91815260200190565b60405160208183030381529060405280519060200120604051602001611c8b95949392919060609590951b6bffffffffffffffffffffffff19168552601485019390935260348401919091526054830152607482015260940190565b6040516020818303038152906040528051906020012060001c6108419190612e4c565b6001600160a01b038116600090815260056020526040812080546060929190611cd690612dd6565b80601f0160208091040260200160405190810160405280929190818152602001828054611d0290612dd6565b8015611d4f5780601f10611d2457610100808354040283529160200191611d4f565b820191906000526020600020905b815481529060010190602001808311611d3257829003601f168201915b50505050509050611d6f8160405180602001604052806000815250612436565b156108415760405162461bcd60e51b815260206004820152601260248201527f555345525f4e4f5452454749535445524544000000000000000000000000000060448201526064016109a9565b6000805b6001600160a01b0384166000908152600760205260409020856002811115611df857634e487b7160e01b600052602160045260246000fd5b60ff1660088110611e1957634e487b7160e01b600052603260045260246000fd5b0154811015611f8b576020808401516001600160a01b038616600090815260069092526040822063ffffffff90911691876002811115611e6957634e487b7160e01b600052602160045260246000fd5b6002811115611e8857634e487b7160e01b600052602160045260246000fd5b815260208082019290925260409081016000908120858252909252902054610100900463ffffffff161415611f79576040808401516001600160a01b038616600090815260066020529182209091876002811115611ef657634e487b7160e01b600052602160045260246000fd5b6002811115611f1557634e487b7160e01b600052602160045260246000fd5b81526020808201929092526040908101600090812085825290925290208054600590611f5190849065010000000000900463ffffffff16612d09565b92506101000a81548163ffffffff021916908363ffffffff1602179055506001915050610dc3565b80611f8381612e11565b915050611dc0565b50611f968385610661565b60321415611fa657506000610dc3565b6001600160a01b03831660009081526006602052604081208391866002811115611fe057634e487b7160e01b600052602160045260246000fd5b6002811115611fff57634e487b7160e01b600052602160045260246000fd5b815260200190815260200160002060006120198688610661565b81526020808201929092526040908101600090812084518154868601519685015164ffffffffff1990911691151564ffffffff0019169190911761010063ffffffff978816021768ffffffff00000000001916650100000000009690911695909502949094179093556001600160a01b0386168352600790915290208460028111156120b557634e487b7160e01b600052602160045260246000fd5b60ff16600881106120d657634e487b7160e01b600052603260045260246000fd5b01546120e28486610661565b141561215a576001600160a01b038316600090815260076020526040902060019085600281111561212357634e487b7160e01b600052602160045260246000fd5b60ff166008811061214457634e487b7160e01b600052603260045260246000fd5b0160008282546121549190612cf1565b90915550505b5060019392505050565b6005602052600090815260409020805461217d90612dd6565b80601f01602080910402602001604051908101604052809291908181526020018280546121a990612dd6565b80156121f65780601f106121cb576101008083540402835291602001916121f6565b820191906000526020600020905b8154815290600101906020018083116121d957829003601f168201915b505050505081565b6122066127d4565b816001600160a01b0316836001600160a01b0316148061224b57506001600160a01b038083166000908152600a602090815260408083209387168352929052205460ff165b6122975760405162461bcd60e51b815260206004820152601160248201527f7065726d697373696f6e2064656e69656400000000000000000000000000000060448201526064016109a9565b61138c8460ff1660028111156122bd57634e487b7160e01b600052602160045260246000fd5b8361248f565b6000546001600160a01b0316331461231d5760405162461bcd60e51b815260206004820181905260248201527f4f776e61626c653a2063616c6c6572206973206e6f7420746865206f776e657260448201526064016109a9565b6001600160a01b0381166123995760405162461bcd60e51b815260206004820152602660248201527f4f776e61626c653a206e6577206f776e657220697320746865207a65726f206160448201527f646472657373000000000000000000000000000000000000000000000000000060648201526084016109a9565b600080546040516001600160a01b03808516939216917f8be0079c531659141344cd1fd0a4f28419497f9722a3daafe3b4186f6b6457e091a3600080546001600160a01b0319166001600160a01b0392909216919091179055565b6000806001600160a01b03166004836040516124109190612bc3565b908152604051908190036020019020546001600160a01b031614610bbf57506001919050565b6000816040516020016124499190612bc3565b60405160208183030381529060405280519060200120836040516020016124709190612bc3565b6040516020818303038152906040528051906020012014905092915050565b6124976127d4565b61249f6127d4565b6000805b6001600160a01b03851660009081526007602052604090208660028111156124db57634e487b7160e01b600052602160045260246000fd5b60ff16600881106124fc57634e487b7160e01b600052603260045260246000fd5b01548160ff16101561268e576001600160a01b03851660009081526006602052604081209087600281111561254157634e487b7160e01b600052602160045260246000fd5b600281111561256057634e487b7160e01b600052602160045260246000fd5b81526020808201929092526040908101600090812060ff8516825290925290205465010000000000900463ffffffff161561267c576001600160a01b0385166000908152600660205260408120908760028111156125ce57634e487b7160e01b600052602160045260246000fd5b60028111156125ed57634e487b7160e01b600052602160045260246000fd5b81526020808201929092526040908101600090812060ff808616835290845290829020825160608101845290548083161515825263ffffffff610100820481169583019590955265010000000000900490931691830191909152849084166032811061266957634e487b7160e01b600052603260045260246000fd5b6020020152612679600183612d31565b91505b8061268681612e2c565b9150506124a3565b5090949350505050565b8280546126a490612dd6565b90600052602060002090601f0160209004810192826126c6576000855561270c565b82601f106126df57805160ff191683800117855561270c565b8280016001018555821561270c579182015b8281111561270c5782518255916020019190600101906126f1565b50612718929150612814565b5090565b82805461272890612dd6565b90600052602060002090601f01602090048101928261274a576000855561270c565b82601f1061275b578054855561270c565b8280016001018555821561270c57600052602060002091601f016020900482015b8281111561270c57825482559160010191906001019061277c565b5080546127a390612dd6565b6000825580601f106127b3575050565b601f0160209004906000526020600020908101906127d19190612814565b50565b6040518061064001604052806032905b60408051606081018252600080825260208083018290529282015282526000199092019101816127e45790505090565b5b808211156127185760008155600101612815565b80356001600160a01b0381168114610bc757600080fd5b803560038110610bc757600080fd5b803563ffffffff81168114610bc757600080fd5b600060208284031215612874578081fd5b610dc382612829565b6000806040838503121561288f578081fd5b61289883612829565b91506128a660208401612829565b90509250929050565b6000806000606084860312156128c3578081fd5b6128cc84612829565b92506128da60208501612829565b9150604084013590509250925092565b600080604083850312156128fc578182fd5b61290583612829565b91506128a660208401612840565b60008060008060808587031215612928578081fd5b61293185612829565b935061293f60208601612840565b9250604085013591506129546060860161284f565b905092959194509250565b60008060408385031215612971578182fd5b61297a83612829565b946020939093013593505050565b600060208284031215612999578081fd5b8151610dc381612ea2565b600080600083850360a08112156129b9578384fd5b6129c285612840565b93506129d060208601612829565b92506060603f19820112156129e3578182fd5b506040516060810181811067ffffffffffffffff82111715612a0757612a07612e8c565b6040908152850135612a1881612ea2565b8152612a266060860161284f565b6020820152612a376080860161284f565b6040820152809150509250925092565b600060208284031215612a58578081fd5b813567ffffffffffffffff80821115612a6f578283fd5b818401915084601f830112612a82578283fd5b813581811115612a9457612a94612e8c565b604051601f8201601f19908116603f01168101908382118183101715612abc57612abc612e8c565b81604052828152876020848701011115612ad4578586fd5b826020860160208301379182016020019490945295945050505050565b600060208284031215612b02578081fd5b5035919050565b600080600060608486031215612b1d578283fd5b833592506128da60208501612829565b60008060408385031215612b3f578182fd5b50508035926020909101359150565b600080600060608486031215612b62578081fd5b833560ff81168114612b72578182fd5b9250612b8060208501612829565b9150612b8e60408501612829565b90509250925092565b60008151808452612baf816020860160208601612da6565b601f01601f19169290920160200192915050565b60008251612bd5818460208701612da6565b9190910192915050565b6112c08101818360005b6032811015612c2c57815180511515845260208082015163ffffffff90811682870152604092830151169185019190915260609093019290910190600101612be9565b50505092915050565b60006020808301818452808551808352604092508286019150828160051b870101848801865b83811015612ca557888303603f1901855281518051878552612c7f88860182612b97565b918901516001600160a01b03169489019490945294870194925090860190600101612c5b565b509098975050505050505050565b602081526000610dc36020830184612b97565b604081526000612cd96040830185612b97565b90506001600160a01b03831660208301529392505050565b60008219821115612d0457612d04612e60565b500190565b600063ffffffff808316818516808303821115612d2857612d28612e60565b01949350505050565b600060ff821660ff84168060ff03821115612d4e57612d4e612e60565b019392505050565b600082612d6557612d65612e76565b500490565b600082821015612d7c57612d7c612e60565b500390565b600063ffffffff83811690831681811015612d9e57612d9e612e60565b039392505050565b60005b83811015612dc1578181015183820152602001612da9565b83811115612dd0576000848401525b50505050565b600181811c90821680612dea57607f821691505b60208210811415612e0b57634e487b7160e01b600052602260045260246000fd5b50919050565b6000600019821415612e2557612e25612e60565b5060010190565b600060ff821660ff811415612e4357612e43612e60565b60010192915050565b600082612e5b57612e5b612e76565b500690565b634e487b7160e01b600052601160045260246000fd5b634e487b7160e01b600052601260045260246000fd5b634e487b7160e01b600052604160045260246000fd5b80151581146127d157600080fdfea26469706673582212204a074e0fe3db68851b58f776d3da4a0bb0419a9c0447fcd83f50c0a89d300bfb64736f6c63430008040033",
  "immutableReferences": {},
  "source": "// SPDX-License-Identifier: MIT\npragma solidity ^0.8.0;\n\nimport \"./PetBase.sol\";\n\ninterface IPetFactory {\n    // ///@dev \n    // function getPetProperties(uint256 _dna)\n    //     external\n    //     view\n    //     returns (PetBase.PetPropertiesPacked calldata);\n    // ///@dev DNA\n    // function calDna(PetBase.PetPropertiesPacked memory _pack)\n    //     external\n    //     view\n    //     returns (uint256 dna);\n}\n\ncontract PetFactory is Ownable, PetBase, IPetFactory {\n    // function getPetProperties(uint256 _dna)\n    //     public\n    //     pure\n    //     override\n    //     returns (PetPropertiesPacked memory)\n    // {\n    //     PetPropertiesPacked memory pack;\n    //     //TODO\n    //     return pack;\n    // }\n    // function calDna(PetPropertiesPacked memory _pack)\n    //     public\n    //     pure\n    //     override\n    //     returns (uint256)\n    // {\n    //     uint256 dna;\n    //     //TODO\n    //     return dna;\n    // }\n    // //\n    // //PlantPropertiesPacked\n    // //PlantPropertiesPacked\n    // function followRandom(PetPropertiesPacked memory _pack)\n    //     internal\n    //     view\n    //     returns (PetPropertiesPacked memory)\n    // {\n    //     //TODO\n    //     return _pack;\n    // }\n}\n",
  "sourcePath": "F:/Projects/PixFarmon-frontend/src/util/pixfarmon-dapp/Pixfarmon/contracts/PetFactory.sol",
  "compiler": {
    "name": "solc",
    "version": "0.8.4+commit.c7e474f2.Emscripten.clang"
  },
  "schemaVersion": "3.3.4",
  "updatedAt": "2021-06-02T10:29:12.027Z",
  "networkType": "ethereum",
  "devdoc": {
    "kind": "dev",
    "methods": {
      "_findFirstPlace(address,uint8)": {
        "details": ""
      },
      "_isregister(address)": {
        "details": ""
      },
      "_registration(string)": {
        "details": ""
      },
      "addFruit(uint256,address,uint256)": {
        "details": ""
      },
      "addItem(uint8,address,(bool,uint32,uint32))": {
        "details": ""
      },
      "addSeed(uint256,address,uint256)": {
        "details": ""
      },
      "getMoneyFromShop(address,uint256)": {
        "details": ""
      },
      "owner()": {
        "details": "Returns the address of the current owner."
      },
      "removeItem(address,uint8,uint256,uint32)": {
        "details": " tag  _amount "
      },
      "renounceOwnership()": {
        "details": "Leaves the contract without owner. It will not be possible to call `onlyOwner` functions anymore. Can only be called by the current owner. NOTE: Renouncing ownership will leave the contract without an owner, thereby removing any functionality that is only available to the owner."
      },
      "transferOwnership(address)": {
        "details": "Transfers ownership of the contract to a new account (`newOwner`). Can only be called by the current owner."
      },
      "transferTo(address,address,uint256)": {
        "details": ""
      },
      "transferToShop(address,uint256)": {
        "details": ""
      }
    },
    "version": 1
  },
  "userdoc": {
    "kind": "user",
    "methods": {
      "rechargeMoney(uint256)": {
        "notice": ""
      }
    },
    "version": 1
  }
}