{
  "contractName": "Pixfarmon",
  "abi": [
    {
      "inputs": [
        {
          "internalType": "address",
          "name": "_auction",
          "type": "address"
        },
        {
          "internalType": "address",
          "name": "_money",
          "type": "address"
        },
        {
          "internalType": "address",
          "name": "_repository",
          "type": "address"
        },
        {
          "internalType": "address",
          "name": "_farmMarket",
          "type": "address"
        },
        {
          "internalType": "address",
          "name": "_farmBase",
          "type": "address"
        }
      ],
      "stateMutability": "nonpayable",
      "type": "constructor"
    },
    {
      "inputs": [],
      "name": "rb",
      "outputs": [
        {
          "internalType": "contract Repository",
          "name": "",
          "type": "address"
        }
      ],
      "stateMutability": "view",
      "type": "function"
    },
    {
      "inputs": [
        {
          "internalType": "string",
          "name": "_name",
          "type": "string"
        }
      ],
      "name": "AddFriendByName",
      "outputs": [],
      "stateMutability": "nonpayable",
      "type": "function"
    },
    {
      "inputs": [
        {
          "internalType": "address",
          "name": "_address",
          "type": "address"
        }
      ],
      "name": "AddFriendByAddress",
      "outputs": [],
      "stateMutability": "nonpayable",
      "type": "function"
    },
    {
      "inputs": [
        {
          "internalType": "uint256",
          "name": "_money",
          "type": "uint256"
        }
      ],
      "name": "RechargeMoney",
      "outputs": [],
      "stateMutability": "nonpayable",
      "type": "function"
    },
    {
      "inputs": [
        {
          "internalType": "uint256",
          "name": "specie",
          "type": "uint256"
        },
        {
          "internalType": "uint256",
          "name": "level",
          "type": "uint256"
        },
        {
          "internalType": "uint256",
          "name": "_amount",
          "type": "uint256"
        }
      ],
      "name": "BuySeedFromShop",
      "outputs": [],
      "stateMutability": "nonpayable",
      "type": "function"
    },
    {
      "inputs": [],
      "name": "deployAnAuction",
      "outputs": [
        {
          "internalType": "uint256[]",
          "name": "",
          "type": "uint256[]"
        }
      ],
      "stateMutability": "view",
      "type": "function"
    },
    {
      "inputs": [
        {
          "internalType": "string",
          "name": "_name",
          "type": "string"
        }
      ],
      "name": "register",
      "outputs": [],
      "stateMutability": "nonpayable",
      "type": "function"
    },
    {
      "inputs": [
        {
          "internalType": "address",
          "name": "_person",
          "type": "address"
        }
      ],
      "name": "isregister",
      "outputs": [
        {
          "internalType": "bool",
          "name": "",
          "type": "bool"
        }
      ],
      "stateMutability": "view",
      "type": "function"
    },
    {
      "inputs": [
        {
          "internalType": "address",
          "name": "player",
          "type": "address"
        }
      ],
      "name": "getUsername",
      "outputs": [
        {
          "internalType": "string",
          "name": "",
          "type": "string"
        }
      ],
      "stateMutability": "view",
      "type": "function"
    }
  ],
  "bytecode": "0x608060405234801561001057600080fd5b50604051610a21380380610a2183398101604081905261002f916100ad565b600080546001600160a01b03199081166001600160a01b03978816179091556001805482169587169590951790945560028054851693861693909317909255600380548416918516919091179055600480549092169216919091179055610111565b80516001600160a01b03811681146100a857600080fd5b919050565b600080600080600060a086880312156100c4578081fd5b6100cd86610091565b94506100db60208701610091565b93506100e960408701610091565b92506100f760608701610091565b915061010560808701610091565b90509295509295909350565b610901806101206000396000f3fe608060405234801561001057600080fd5b50600436106100935760003560e01c8063b6ae33d811610066578063b6ae33d8146100f1578063ce43c0321461011c578063dc106d9f1461013c578063f2c298be1461014f578063f563f33f1461016257600080fd5b80630a6893eb146100985780630d3f080e146100ad5780632f0cc603146100c05780639c9178d4146100de575b600080fd5b6100ab6100a6366004610590565b610185565b005b6100ab6100bb36600461078a565b610209565b6100c861027a565b6040516100d591906107b5565b60405180910390f35b6100ab6100ec366004610772565b6102ff565b600254610104906001600160a01b031681565b6040516001600160a01b0390911681526020016100d5565b61012f61012a366004610590565b610361565b6040516100d591906107f9565b6100ab61014a366004610686565b6103e9565b6100ab61015d366004610686565b610419565b610175610170366004610590565b610512565b60405190151581526020016100d5565b60025460405163abeac80760e01b81526001600160a01b0383811660048301529091169063abeac807906024015b602060405180830381600087803b1580156101cd57600080fd5b505af11580156101e1573d6000803e3d6000fd5b505050506040513d601f19601f820116820180604052508101906102059190610666565b5050565b6003546040516339c0ddd760e11b81526004810185905260248101849052604481018390526001600160a01b0390911690637381bbae90606401600060405180830381600087803b15801561025d57600080fd5b505af1158015610271573d6000803e3d6000fd5b50505050505050565b6000805460408051632335e50160e11b815290516060936001600160a01b039093169263466bca029260048082019391829003018186803b1580156102be57600080fd5b505afa1580156102d2573d6000803e3d6000fd5b505050506040513d6000823e601f3d908101601f191682016040526102fa91908101906105be565b905090565b600154604051630556ce4160e21b8152600481018390526001600160a01b039091169063155b3904906024015b600060405180830381600087803b15801561034657600080fd5b505af115801561035a573d6000803e3d6000fd5b5050505050565b600254604051636721e01960e11b81526001600160a01b038381166004830152606092169063ce43c0329060240160006040518083038186803b1580156103a757600080fd5b505afa1580156103bb573d6000803e3d6000fd5b505050506040513d6000823e601f3d908101601f191682016040526103e391908101906106ff565b92915050565b60025460405163b7bf029960e01b81526001600160a01b039091169063b7bf0299906101b39084906004016107f9565b6002546040516335911a1760e01b81526001600160a01b03909116906335911a17906104499084906004016107f9565b600060405180830381600087803b15801561046357600080fd5b505af1158015610477573d6000803e3d6000fd5b50506004805460405163593a5d5160e01b81526001928101929092526001600160a01b0316925063593a5d519150602401600060405180830381600087803b1580156104c257600080fd5b505af11580156104d6573d6000803e3d6000fd5b50506001546040516347af13f960e01b81523360048201526103e860248201526001600160a01b0390911692506347af13f9915060440161032c565b600254604051633093b2f760e01b81526001600160a01b0383811660048301526000921690633093b2f79060240160206040518083038186803b15801561055857600080fd5b505afa15801561056c573d6000803e3d6000fd5b505050506040513d601f19601f820116820180604052508101906103e39190610666565b6000602082840312156105a1578081fd5b81356001600160a01b03811681146105b7578182fd5b9392505050565b600060208083850312156105d0578182fd5b825167ffffffffffffffff808211156105e7578384fd5b818501915085601f8301126105fa578384fd5b81518181111561060c5761060c6108b5565b8060051b915061061d84830161082c565b8181528481019084860184860187018a1015610637578788fd5b8795505b8386101561065957805183526001959095019491860191860161063b565b5098975050505050505050565b600060208284031215610677578081fd5b815180151581146105b7578182fd5b600060208284031215610697578081fd5b813567ffffffffffffffff8111156106ad578182fd5b8201601f810184136106bd578182fd5b80356106d06106cb8261085d565b61082c565b8181528560208385010111156106e4578384fd5b81602084016020830137908101602001929092525092915050565b600060208284031215610710578081fd5b815167ffffffffffffffff811115610726578182fd5b8201601f81018413610736578182fd5b80516107446106cb8261085d565b818152856020838501011115610758578384fd5b610769826020830160208601610885565b95945050505050565b600060208284031215610783578081fd5b5035919050565b60008060006060848603121561079e578182fd5b505081359360208301359350604090920135919050565b6020808252825182820181905260009190848201906040850190845b818110156107ed578351835292840192918401916001016107d1565b50909695505050505050565b6020815260008251806020840152610818816040850160208701610885565b601f01601f19169190910160400192915050565b604051601f8201601f1916810167ffffffffffffffff81118282101715610855576108556108b5565b604052919050565b600067ffffffffffffffff821115610877576108776108b5565b50601f01601f191660200190565b60005b838110156108a0578181015183820152602001610888565b838111156108af576000848401525b50505050565b634e487b7160e01b600052604160045260246000fdfea26469706673582212200a55298c3c7cfdc7164fe8757e8086fa2c403f41fb77de7c5d6148f06dab952164736f6c63430008040033",
  "immutableReferences": {},
  "source": "// SPDX-License-Identifier: MIT\npragma solidity ^0.8.0;\n\nimport \"./PixFarm.sol\";\nimport \"./Money.sol\";\nimport \"./Repository.sol\";\nimport \"./Auction.sol\";\nimport \"./FarmMarket.sol\";\n\ncontract Pixfarmon {\n    Auction auction;\n    Money mon;\n    Repository public rb;\n    FarmMarket fm;\n    FarmBase fb;\n\n    constructor(\n        address _auction,\n        address _money,\n        address _repository,\n        address _farmMarket,\n        address _farmBase\n    ) {\n        auction = Auction(_auction);\n        mon = Money(_money);\n        rb = Repository(_repository);\n        fm = FarmMarket(_farmMarket);\n        fb = FarmBase(_farmBase);\n    }\n\n    /// @dev \n    function AddFriendByName(string memory _name) public {\n        rb.addFriendByName(_name);\n    }\n\n    function AddFriendByAddress(address _address) public {\n        rb.addFriendByAddress(_address);\n    }\n\n    /// @dev \n    function RechargeMoney(uint256 _money) public {\n        mon.rechargeMoney(_money);\n    }\n\n    /// @dev \n    function BuySeedFromShop(\n        uint256 specie,\n        uint256 level,\n        uint256 _amount\n    ) public {\n        fm.buySeed(specie, level, _amount);\n    }\n\n    // /// @dev \n    // function Sowing(\n    //     uint256 _x,\n    //     uint256 _y,\n    //     uint256 _tag\n    // ) public {\n    //     sowing(_x, _y, _tag);\n    // }\n\n    // /// @dev \n    // function Harvest(uint256 _x, uint256 _y) public returns (uint256) {\n    //     return harvest(_x, _y);\n    // }\n\n    // /// @dev \n    // function Eradicate(uint256 _x, uint256 _y) public {\n    //     eradicate(_x, _y);\n    // }\n\n    // /// @dev \n    // function Steal(\n    //     address _owner,\n    //     uint256 _x,\n    //     uint256 _y\n    // ) public {\n    //     stealPlant(_owner, _x, _y);\n    // }\n\n    // /// @dev \n    // function Disassembling(uint256 _tag) public returns (bool) {\n    //     return disassembling(_tag);\n    // }\n\n    /// @dev \n    function deployAnAuction() public view returns (uint256[] memory) {\n        return auction.getTokensList();\n    }\n\n    /// @dev \n    function register(string memory _name) public {\n        rb._registration(_name);\n        fb.upgradeLand(1);\n        mon.getMoneyFromShop(msg.sender, 1000);\n    }\n\n    /// @dev \n    function isregister(address _person) public view returns (bool) {\n        return rb._isregister(_person);\n    }\n\n    function getUsername(address player) public view returns (string memory) {\n        return rb.getUsername(player);\n    }\n}\n",
  "sourcePath": "F:/Projects/PixFarmon-frontend/src/util/pixfarmon-dapp/Pixfarmon/contracts/Pixfarmon.sol",
  "compiler": {
    "name": "solc",
    "version": "0.8.4+commit.c7e474f2.Emscripten.clang"
  },
  "schemaVersion": "3.3.4",
  "updatedAt": "2021-06-02T03:56:52.670Z",
  "networkType": "ethereum",
  "devdoc": {
    "kind": "dev",
    "methods": {
      "AddFriendByName(string)": {
        "details": ""
      },
      "BuySeedFromShop(uint256,uint256,uint256)": {
        "details": ""
      },
      "RechargeMoney(uint256)": {
        "details": ""
      },
      "deployAnAuction()": {
        "details": ""
      },
      "isregister(address)": {
        "details": ""
      },
      "register(string)": {
        "details": ""
      }
    },
    "version": 1
  },
  "userdoc": {
    "kind": "user",
    "methods": {},
    "version": 1
  }
}