{
  "contractName": "Pixfarmon",
  "abi": [
    {
      "inputs": [
        {
          "internalType": "address",
          "name": "_auction",
          "type": "address"
        },
        {
          "internalType": "address",
          "name": "_money",
          "type": "address"
        },
        {
          "internalType": "address",
          "name": "_repository",
          "type": "address"
        },
        {
          "internalType": "address",
          "name": "_farmMarket",
          "type": "address"
        },
        {
          "internalType": "address",
          "name": "_farmBase",
          "type": "address"
        }
      ],
      "stateMutability": "nonpayable",
      "type": "constructor"
    },
    {
      "inputs": [],
      "name": "rb",
      "outputs": [
        {
          "internalType": "contract Repository",
          "name": "",
          "type": "address"
        }
      ],
      "stateMutability": "view",
      "type": "function"
    },
    {
      "inputs": [
        {
          "internalType": "uint256",
          "name": "_money",
          "type": "uint256"
        }
      ],
      "name": "RechargeMoney",
      "outputs": [],
      "stateMutability": "nonpayable",
      "type": "function"
    }
  ],
  "bytecode": "0x608060405234801561001057600080fd5b5060405161024438038061024483398101604081905261002f916100ad565b600080546001600160a01b03199081166001600160a01b03978816179091556001805482169587169590951790945560028054851693861693909317909255600380548416918516919091179055600480549092169216919091179055610112565b80516001600160a01b03811681146100a857600080fd5b919050565b600080600080600060a086880312156100c557600080fd5b6100ce86610091565b94506100dc60208701610091565b93506100ea60408701610091565b92506100f860608701610091565b915061010660808701610091565b90509295509295909350565b610123806101216000396000f3fe6080604052348015600f57600080fd5b506004361060325760003560e01c80639c9178d4146037578063b6ae33d8146048575b600080fd5b6046604236600460d5565b6076565b005b600254605a906001600160a01b031681565b6040516001600160a01b03909116815260200160405180910390f35b600154604051630556ce4160e21b8152600481018390526001600160a01b039091169063155b390490602401600060405180830381600087803b15801560bb57600080fd5b505af115801560ce573d6000803e3d6000fd5b5050505050565b60006020828403121560e657600080fd5b503591905056fea26469706673582212201202610d12ed152a9ef92a92ccc4a5586550b835deadaec84dc03cea94a6fb0a64736f6c63430008050033",
  "immutableReferences": {},
  "source": "// SPDX-License-Identifier: MIT\r\npragma solidity ^0.8.0;\r\n\r\nimport \"./PixFarm.sol\";\r\nimport \"./Money.sol\";\r\nimport \"./Repository.sol\";\r\nimport \"./Auction.sol\";\r\nimport \"./FarmMarket.sol\";\r\n\r\ncontract Pixfarmon {\r\n    Auction auction;\r\n    Money mon;\r\n    Repository public rb;\r\n    FarmMarket fm;\r\n    FarmBase fb;\r\n\r\n    constructor(\r\n        address _auction,\r\n        address _money,\r\n        address _repository,\r\n        address _farmMarket,\r\n        address _farmBase\r\n    ) {\r\n        auction = Auction(_auction);\r\n        mon = Money(_money);\r\n        rb = Repository(_repository);\r\n        fm = FarmMarket(_farmMarket);\r\n        fb = FarmBase(_farmBase);\r\n    }\r\n\r\n    /// @dev 添加好友\r\n    // function AddFriendByName(string memory _name) public {\r\n    //     rb.addFriendByName(_name);\r\n    // }\r\n\r\n    // function AddFriendByAddress(address _address) public {\r\n    //     rb.addFriendByAddress(_address);\r\n    // }\r\n\r\n    /// @dev 氪金\r\n    function RechargeMoney(uint256 _money) public {\r\n        mon.rechargeMoney(_money);\r\n    }\r\n\r\n    // /// @dev 买种子\r\n    // function BuySeedFromShop(\r\n    //     uint8 specie,\r\n    //     //uint256 level,\r\n    //     uint256 _amount\r\n    // ) public {\r\n    //     fm.buySeed(specie, _amount);\r\n    // }\r\n\r\n    // /// @dev 播种\r\n    // function Sowing(\r\n    //     uint256 _x,\r\n    //     uint256 _y,\r\n    //     uint256 _tag\r\n    // ) public {\r\n    //     sowing(_x, _y, _tag);\r\n    // }\r\n\r\n    // /// @dev 收获\r\n    // function Harvest(uint256 _x, uint256 _y) public returns (uint256) {\r\n    //     return harvest(_x, _y);\r\n    // }\r\n\r\n    // /// @dev 铲除\r\n    // function Eradicate(uint256 _x, uint256 _y) public {\r\n    //     eradicate(_x, _y);\r\n    // }\r\n\r\n    // /// @dev 偷菜\r\n    // function Steal(\r\n    //     address _owner,\r\n    //     uint256 _x,\r\n    //     uint256 _y\r\n    // ) public {\r\n    //     stealPlant(_owner, _x, _y);\r\n    // }\r\n\r\n    // /// @dev 分解\r\n    // function Disassembling(uint256 _tag) public returns (bool) {\r\n    //     return disassembling(_tag);\r\n    // }\r\n\r\n    // /// @dev 拍卖\r\n    // function deployAnAuction() public view returns (uint256[] memory) {\r\n    //     return auction.getTokensList();\r\n    // }\r\n\r\n    // /// @dev 注册\r\n    // function register(string memory _name) public {\r\n    //     rb._registration(_name);\r\n    //     mon.getMoneyFromShop(msg.sender, 1000);\r\n    // }\r\n\r\n    // /// @dev 检查是否已注册\r\n    // function isregister(address _person) public view returns (bool) {\r\n    //     return rb._isregister(_person);\r\n    // }\r\n\r\n    // function getUsername(address player) public view returns (string memory) {\r\n    //     // return rb.getUsername(player);\r\n    // }\r\n}\r\n",
  "sourcePath": "D:/ETH Project/Pixfarmon/contracts/Pixfarmon.sol",
  "compiler": {
    "name": "solc",
    "version": "0.8.5+commit.a4f2e591.Emscripten.clang"
  },
  "schemaVersion": "3.4.1",
  "updatedAt": "2021-06-18T02:54:17.450Z",
  "devdoc": {
    "kind": "dev",
    "methods": {
      "RechargeMoney(uint256)": {
        "details": "氪金"
      }
    },
    "version": 1
  },
  "userdoc": {
    "kind": "user",
    "methods": {},
    "version": 1
  }
}