{
  "contractName": "Pixfarmon",
  "abi": [
    {
      "inputs": [
        {
          "internalType": "address",
          "name": "_auction",
          "type": "address"
        },
        {
          "internalType": "address",
          "name": "_money",
          "type": "address"
        },
        {
          "internalType": "address",
          "name": "_repository",
          "type": "address"
        },
        {
          "internalType": "address",
          "name": "_farmMarket",
          "type": "address"
        },
        {
          "internalType": "address",
          "name": "_farmBase",
          "type": "address"
        }
      ],
      "stateMutability": "nonpayable",
      "type": "constructor"
    },
    {
      "inputs": [],
      "name": "rb",
      "outputs": [
        {
          "internalType": "contract Repository",
          "name": "",
          "type": "address"
        }
      ],
      "stateMutability": "view",
      "type": "function"
    },
    {
      "inputs": [
        {
          "internalType": "uint256",
          "name": "_money",
          "type": "uint256"
        }
      ],
      "name": "RechargeMoney",
      "outputs": [],
      "stateMutability": "nonpayable",
      "type": "function"
    },
    {
      "inputs": [
        {
          "internalType": "uint8",
          "name": "specie",
          "type": "uint8"
        },
        {
          "internalType": "uint256",
          "name": "_amount",
          "type": "uint256"
        }
      ],
      "name": "BuySeedFromShop",
      "outputs": [],
      "stateMutability": "nonpayable",
      "type": "function"
    },
    {
      "inputs": [],
      "name": "deployAnAuction",
      "outputs": [
        {
          "internalType": "uint256[]",
          "name": "",
          "type": "uint256[]"
        }
      ],
      "stateMutability": "view",
      "type": "function"
    },
    {
      "inputs": [
        {
          "internalType": "string",
          "name": "_name",
          "type": "string"
        }
      ],
      "name": "register",
      "outputs": [],
      "stateMutability": "nonpayable",
      "type": "function"
    },
    {
      "inputs": [
        {
          "internalType": "address",
          "name": "_person",
          "type": "address"
        }
      ],
      "name": "isregister",
      "outputs": [
        {
          "internalType": "bool",
          "name": "",
          "type": "bool"
        }
      ],
      "stateMutability": "view",
      "type": "function"
    },
    {
      "inputs": [
        {
          "internalType": "address",
          "name": "player",
          "type": "address"
        }
      ],
      "name": "getUsername",
      "outputs": [
        {
          "internalType": "string",
          "name": "",
          "type": "string"
        }
      ],
      "stateMutability": "view",
      "type": "function"
    }
  ],
  "bytecode": "0x608060405234801561001057600080fd5b506040516107d03803806107d083398101604081905261002f916100ad565b600080546001600160a01b03199081166001600160a01b03978816179091556001805482169587169590951790945560028054851693861693909317909255600380548416918516919091179055600480549092169216919091179055610112565b80516001600160a01b03811681146100a857600080fd5b919050565b600080600080600060a086880312156100c557600080fd5b6100ce86610091565b94506100dc60208701610091565b93506100ea60408701610091565b92506100f860608701610091565b915061010660808701610091565b90509295509295909350565b6106af806101216000396000f3fe608060405234801561001057600080fd5b506004361061007d5760003560e01c8063b6ae33d81161005b578063b6ae33d8146100c8578063ce43c032146100f3578063f2c298be14610114578063f563f33f1461012757600080fd5b8063139bc7cb146100825780632f0cc603146100975780639c9178d4146100b5575b600080fd5b610095610090366004610567565b61014a565b005b61009f6101b5565b6040516100ac9190610599565b60405180910390f35b6100956100c336600461054e565b61023a565b6002546100db906001600160a01b031681565b6040516001600160a01b0390911681526020016100ac565b6101076101013660046103ba565b50606090565b6040516100ac91906105dd565b6100956101223660046104b9565b61029c565b61013a6101353660046103ba565b610336565b60405190151581526020016100ac565b6003546040516305a670d560e41b815260ff84166004820152602481018390526001600160a01b0390911690635a670d5090604401600060405180830381600087803b15801561019957600080fd5b505af11580156101ad573d6000803e3d6000fd5b505050505050565b6000805460408051632335e50160e11b815290516060936001600160a01b039093169263466bca029260048082019391829003018186803b1580156101f957600080fd5b505afa15801561020d573d6000803e3d6000fd5b505050506040513d6000823e601f3d908101601f1916820160405261023591908101906103ea565b905090565b600154604051630556ce4160e21b8152600481018390526001600160a01b039091169063155b3904906024015b600060405180830381600087803b15801561028157600080fd5b505af1158015610295573d6000803e3d6000fd5b5050505050565b6002546040516335911a1760e01b81526001600160a01b03909116906335911a17906102cc9084906004016105dd565b600060405180830381600087803b1580156102e657600080fd5b505af11580156102fa573d6000803e3d6000fd5b50506001546040516347af13f960e01b81523360048201526103e860248201526001600160a01b0390911692506347af13f99150604401610267565b600254604051633093b2f760e01b81526001600160a01b0383811660048301526000921690633093b2f79060240160206040518083038186803b15801561037c57600080fd5b505afa158015610390573d6000803e3d6000fd5b505050506040513d601f19601f820116820180604052508101906103b49190610497565b92915050565b6000602082840312156103cc57600080fd5b81356001600160a01b03811681146103e357600080fd5b9392505050565b600060208083850312156103fd57600080fd5b825167ffffffffffffffff8082111561041557600080fd5b818501915085601f83011261042957600080fd5b81518181111561043b5761043b610663565b8060051b915061044c848301610632565b8181528481019084860184860187018a101561046757600080fd5b600095505b8386101561048a57805183526001959095019491860191860161046c565b5098975050505050505050565b6000602082840312156104a957600080fd5b815180151581146103e357600080fd5b600060208083850312156104cc57600080fd5b823567ffffffffffffffff808211156104e457600080fd5b818501915085601f8301126104f857600080fd5b81358181111561050a5761050a610663565b61051c601f8201601f19168501610632565b9150808252868482850101111561053257600080fd5b8084840185840137600090820190930192909252509392505050565b60006020828403121561056057600080fd5b5035919050565b6000806040838503121561057a57600080fd5b823560ff8116811461058b57600080fd5b946020939093013593505050565b6020808252825182820181905260009190848201906040850190845b818110156105d1578351835292840192918401916001016105b5565b50909695505050505050565b600060208083528351808285015260005b8181101561060a578581018301518582016040015282016105ee565b8181111561061c576000604083870101525b50601f01601f1916929092016040019392505050565b604051601f8201601f1916810167ffffffffffffffff8111828210171561065b5761065b610663565b604052919050565b634e487b7160e01b600052604160045260246000fdfea2646970667358221220ae1bcf98d1d695b4644388d3f856aa20bdcabb5e681bdf6d02c24c4dd5453d4064736f6c63430008050033",
  "immutableReferences": {},
  "source": "// SPDX-License-Identifier: MIT\r\npragma solidity ^0.8.0;\r\n\r\nimport \"./PixFarm.sol\";\r\nimport \"./Money.sol\";\r\nimport \"./Repository.sol\";\r\nimport \"./Auction.sol\";\r\nimport \"./FarmMarket.sol\";\r\n\r\ncontract Pixfarmon {\r\n    Auction auction;\r\n    Money mon;\r\n    Repository public rb;\r\n    FarmMarket fm;\r\n    FarmBase fb;\r\n\r\n    constructor(\r\n        address _auction,\r\n        address _money,\r\n        address _repository,\r\n        address _farmMarket,\r\n        address _farmBase\r\n    ) {\r\n        auction = Auction(_auction);\r\n        mon = Money(_money);\r\n        rb = Repository(_repository);\r\n        fm = FarmMarket(_farmMarket);\r\n        fb = FarmBase(_farmBase);\r\n    }\r\n\r\n    /// @dev \r\n    // function AddFriendByName(string memory _name) public {\r\n    //     rb.addFriendByName(_name);\r\n    // }\r\n\r\n    // function AddFriendByAddress(address _address) public {\r\n    //     rb.addFriendByAddress(_address);\r\n    // }\r\n\r\n    /// @dev \r\n    function RechargeMoney(uint256 _money) public {\r\n        mon.rechargeMoney(_money);\r\n    }\r\n\r\n    /// @dev \r\n    function BuySeedFromShop(\r\n        uint8 specie,\r\n        //uint256 level,\r\n        uint256 _amount\r\n    ) public {\r\n        fm.buySeed(specie, _amount);\r\n    }\r\n\r\n    // /// @dev \r\n    // function Sowing(\r\n    //     uint256 _x,\r\n    //     uint256 _y,\r\n    //     uint256 _tag\r\n    // ) public {\r\n    //     sowing(_x, _y, _tag);\r\n    // }\r\n\r\n    // /// @dev \r\n    // function Harvest(uint256 _x, uint256 _y) public returns (uint256) {\r\n    //     return harvest(_x, _y);\r\n    // }\r\n\r\n    // /// @dev \r\n    // function Eradicate(uint256 _x, uint256 _y) public {\r\n    //     eradicate(_x, _y);\r\n    // }\r\n\r\n    // /// @dev \r\n    // function Steal(\r\n    //     address _owner,\r\n    //     uint256 _x,\r\n    //     uint256 _y\r\n    // ) public {\r\n    //     stealPlant(_owner, _x, _y);\r\n    // }\r\n\r\n    // /// @dev \r\n    // function Disassembling(uint256 _tag) public returns (bool) {\r\n    //     return disassembling(_tag);\r\n    // }\r\n\r\n    /// @dev \r\n    function deployAnAuction() public view returns (uint256[] memory) {\r\n        return auction.getTokensList();\r\n    }\r\n\r\n    /// @dev \r\n    function register(string memory _name) public {\r\n        rb._registration(_name);\r\n        mon.getMoneyFromShop(msg.sender, 1000);\r\n    }\r\n\r\n    /// @dev \r\n    function isregister(address _person) public view returns (bool) {\r\n        return rb._isregister(_person);\r\n    }\r\n\r\n    function getUsername(address player) public view returns (string memory) {\r\n        // return rb.getUsername(player);\r\n    }\r\n}\r\n",
  "sourcePath": "D:/ETH Project/Pixfarmon/contracts/Pixfarmon.sol",
  "compiler": {
    "name": "solc",
    "version": "0.8.5+commit.a4f2e591.Emscripten.clang"
  },
  "schemaVersion": "3.4.1",
  "updatedAt": "2021-06-18T01:54:36.027Z",
  "devdoc": {
    "kind": "dev",
    "methods": {
      "BuySeedFromShop(uint8,uint256)": {
        "details": ""
      },
      "RechargeMoney(uint256)": {
        "details": ""
      },
      "deployAnAuction()": {
        "details": ""
      },
      "isregister(address)": {
        "details": ""
      },
      "register(string)": {
        "details": ""
      }
    },
    "version": 1
  },
  "userdoc": {
    "kind": "user",
    "methods": {},
    "version": 1
  }
}