{
  "contractName": "PixFarm",
  "abi": [
    {
      "inputs": [
        {
          "internalType": "contract FarmMarket",
          "name": "_fm",
          "type": "address"
        },
        {
          "internalType": "contract FarmFactory",
          "name": "_fc",
          "type": "address"
        },
        {
          "internalType": "contract Repository",
          "name": "_repo",
          "type": "address"
        }
      ],
      "stateMutability": "nonpayable",
      "type": "constructor"
    },
    {
      "anonymous": false,
      "inputs": [
        {
          "indexed": true,
          "internalType": "address",
          "name": "previousOwner",
          "type": "address"
        },
        {
          "indexed": true,
          "internalType": "address",
          "name": "newOwner",
          "type": "address"
        }
      ],
      "name": "OwnershipTransferred",
      "type": "event"
    },
    {
      "anonymous": false,
      "inputs": [
        {
          "indexed": false,
          "internalType": "address",
          "name": "owner",
          "type": "address"
        },
        {
          "indexed": false,
          "internalType": "uint8",
          "name": "x",
          "type": "uint8"
        },
        {
          "indexed": false,
          "internalType": "uint8",
          "name": "y",
          "type": "uint8"
        }
      ],
      "name": "PlantEradicated",
      "type": "event"
    },
    {
      "anonymous": false,
      "inputs": [
        {
          "indexed": false,
          "internalType": "address",
          "name": "owner",
          "type": "address"
        },
        {
          "indexed": false,
          "internalType": "uint8",
          "name": "x",
          "type": "uint8"
        },
        {
          "indexed": false,
          "internalType": "uint8",
          "name": "y",
          "type": "uint8"
        }
      ],
      "name": "PlantHarvested",
      "type": "event"
    },
    {
      "anonymous": false,
      "inputs": [
        {
          "indexed": false,
          "internalType": "address",
          "name": "owner",
          "type": "address"
        },
        {
          "indexed": false,
          "internalType": "uint8",
          "name": "x",
          "type": "uint8"
        },
        {
          "indexed": false,
          "internalType": "uint8",
          "name": "y",
          "type": "uint8"
        }
      ],
      "name": "SeedPlanted",
      "type": "event"
    },
    {
      "inputs": [
        {
          "internalType": "address",
          "name": "_owner",
          "type": "address"
        }
      ],
      "name": "getFarmLevel",
      "outputs": [
        {
          "internalType": "uint8",
          "name": "",
          "type": "uint8"
        }
      ],
      "stateMutability": "view",
      "type": "function",
      "constant": true
    },
    {
      "inputs": [],
      "name": "owner",
      "outputs": [
        {
          "internalType": "address",
          "name": "",
          "type": "address"
        }
      ],
      "stateMutability": "view",
      "type": "function",
      "constant": true
    },
    {
      "inputs": [
        {
          "internalType": "address",
          "name": "",
          "type": "address"
        },
        {
          "internalType": "uint256",
          "name": "",
          "type": "uint256"
        }
      ],
      "name": "owners",
      "outputs": [
        {
          "internalType": "address",
          "name": "",
          "type": "address"
        }
      ],
      "stateMutability": "view",
      "type": "function",
      "constant": true
    },
    {
      "inputs": [
        {
          "internalType": "string",
          "name": "_name",
          "type": "string"
        }
      ],
      "name": "register",
      "outputs": [],
      "stateMutability": "nonpayable",
      "type": "function"
    },
    {
      "inputs": [],
      "name": "renounceOwnership",
      "outputs": [],
      "stateMutability": "nonpayable",
      "type": "function"
    },
    {
      "inputs": [
        {
          "internalType": "address",
          "name": "newOwner",
          "type": "address"
        }
      ],
      "name": "transferOwnership",
      "outputs": [],
      "stateMutability": "nonpayable",
      "type": "function"
    },
    {
      "inputs": [
        {
          "internalType": "uint8",
          "name": "level",
          "type": "uint8"
        }
      ],
      "name": "upgradeLand",
      "outputs": [],
      "stateMutability": "nonpayable",
      "type": "function"
    },
    {
      "inputs": [
        {
          "internalType": "uint256",
          "name": "_x",
          "type": "uint256"
        },
        {
          "internalType": "uint256",
          "name": "_y",
          "type": "uint256"
        },
        {
          "internalType": "uint256",
          "name": "_seedTag",
          "type": "uint256"
        }
      ],
      "name": "sowing",
      "outputs": [
        {
          "internalType": "bool",
          "name": "",
          "type": "bool"
        }
      ],
      "stateMutability": "nonpayable",
      "type": "function"
    },
    {
      "inputs": [
        {
          "internalType": "uint256",
          "name": "_x",
          "type": "uint256"
        },
        {
          "internalType": "uint256",
          "name": "_y",
          "type": "uint256"
        }
      ],
      "name": "harvest",
      "outputs": [],
      "stateMutability": "nonpayable",
      "type": "function"
    },
    {
      "inputs": [
        {
          "internalType": "uint256",
          "name": "_x",
          "type": "uint256"
        },
        {
          "internalType": "uint256",
          "name": "_y",
          "type": "uint256"
        }
      ],
      "name": "eradicate",
      "outputs": [
        {
          "internalType": "bool",
          "name": "",
          "type": "bool"
        }
      ],
      "stateMutability": "nonpayable",
      "type": "function"
    },
    {
      "inputs": [
        {
          "internalType": "uint256",
          "name": "_fruitTag",
          "type": "uint256"
        }
      ],
      "name": "disassembling",
      "outputs": [
        {
          "internalType": "bool",
          "name": "",
          "type": "bool"
        }
      ],
      "stateMutability": "nonpayable",
      "type": "function"
    },
    {
      "inputs": [
        {
          "internalType": "address",
          "name": "player",
          "type": "address"
        }
      ],
      "name": "getFields",
      "outputs": [
        {
          "internalType": "uint256",
          "name": "",
          "type": "uint256"
        },
        {
          "components": [
            {
              "internalType": "bool",
              "name": "unlocked",
              "type": "bool"
            },
            {
              "internalType": "bool",
              "name": "used",
              "type": "bool"
            },
            {
              "internalType": "uint256",
              "name": "seedTag",
              "type": "uint256"
            },
            {
              "internalType": "uint256",
              "name": "sowingTime",
              "type": "uint256"
            },
            {
              "internalType": "uint256",
              "name": "maturityTime",
              "type": "uint256"
            },
            {
              "internalType": "bool",
              "name": "stolen",
              "type": "bool"
            },
            {
              "internalType": "address",
              "name": "firstThief",
              "type": "address"
            },
            {
              "internalType": "address",
              "name": "secondThief",
              "type": "address"
            }
          ],
          "internalType": "struct FarmBase.Field[6][6]",
          "name": "",
          "type": "tuple[6][6]"
        }
      ],
      "stateMutability": "view",
      "type": "function",
      "constant": true
    },
    {
      "inputs": [
        {
          "internalType": "uint256",
          "name": "sowingTime",
          "type": "uint256"
        },
        {
          "internalType": "uint256",
          "name": "maturityTime",
          "type": "uint256"
        }
      ],
      "name": "getAge",
      "outputs": [
        {
          "internalType": "uint8",
          "name": "",
          "type": "uint8"
        }
      ],
      "stateMutability": "view",
      "type": "function",
      "constant": true
    }
  ],
  "bytecode": "0x60016101808181526000196101a08190526101c08190526101e0839052608091825261020083815261022082905261024082905261026084905260a0526102808381526102a08290526102c08490526102e082905260c05261030081815261032084905261034084905261036082905260e0526103808181526103a08490526103c08290526103e084905261010052610400818152610420919091526104408390526104608390526101205261048082815260006104a08190526104c08190526104e08190526101409190915261058060405261050081815261052082905261054091909152610560929092526101609190915262000103906005906008620002ee565b5060405180610180016040528061012c815260200161025881526020016107088152602001610e108152602001611c2081526020016146508152602001617080815260200161a8c0815260200162015180815260200162015180815260200162015180815260200162015180815250600690600c620001849291906200034c565b506040805161018081018252600a808252602082018190529181018290526060810182905260146080820181905260a0820152600f60c0820181905260e0820181905261010082018190526101208201819052610140820192909252610160810191909152620001f990600790600c62000398565b5060408051608081018252612ee08152620493e06020820152625b8d8091810191909152627a1200606082015262000236906008906004620003db565b503480156200024457600080fd5b50604051620025913803806200259183398101604081905262000267916200047b565b600080546001600160a01b031916339081178255604051839282917f8be0079c531659141344cd1fd0a4f28419497f9722a3daafe3b4186f6b6457e0908290a350600180546001600160a01b03199081166001600160a01b039384161790915560098054821695831695909517909455600a805490941692169190911790915550620004e4565b8280548282559060005260206000209081019282156200033a579160200282015b828111156200033a5782516200032990839060046200034c565b50916020019190600101906200030f565b506200034892915062000420565b5090565b8280548282559060005260206000209081019282156200038a579160200282015b828111156200038a5782518255916020019190600101906200036d565b506200034892915062000441565b8280548282559060005260206000209081019282156200038a579160200282015b828111156200038a578251829060ff16905591602001919060010190620003b9565b8280548282559060005260206000209081019282156200038a579160200282015b828111156200038a578251829062ffffff16905591602001919060010190620003fc565b808211156200034857600062000437828262000458565b5060010162000420565b5b8082111562000348576000815560010162000442565b508054600082559060005260206000209081019062000478919062000441565b50565b60008060006060848603121562000490578283fd5b83516200049d81620004ce565b6020850151909350620004b081620004ce565b6040850151909250620004c381620004ce565b809150509250925092565b6001600160a01b03811681146200047857600080fd5b61209d80620004f46000396000f3fe608060405234801561001057600080fd5b50600436106100cf5760003560e01c806386a8bea51161008c578063b26fdc7d11610066578063b26fdc7d146101bd578063e4a4b7b1146101d0578063f2c298be146101e3578063f2fde38b146101f657600080fd5b806386a8bea5146101725780638da5cb5b146101855780639b3e2787146101aa57600080fd5b8063120a27d1146100d4578063576669cf146100fc578063593a5d511461011d578063715018a6146101325780637c0c52f01461013a5780637da1618f1461015f575b600080fd5b6100e76100e2366004611d51565b610209565b60405190151581526020015b60405180910390f35b61010f61010a366004611b34565b6105ff565b6040516100f3929190611e92565b61013061012b366004611d7c565b610709565b005b6101306108c7565b61014d610148366004611d30565b610970565b60405160ff90911681526020016100f3565b61014d61016d366004611b34565b6109ca565b6100e7610180366004611d30565b610a3f565b6000546001600160a01b03165b6040516001600160a01b0390911681526020016100f3565b6101926101b8366004611b4e565b610f81565b6100e76101cb366004611cd5565b610fb9565b6101306101de366004611d30565b611360565b6101306101f1366004611b91565b6117d7565b610130610204366004611b34565b611913565b336000908152600460205260408120846006811061023757634e487b7160e01b600052603260045260246000fd5b60240201836006811061025a57634e487b7160e01b600052603260045260246000fd5b600602015460ff16151560011461027057600080fd5b336000908152600460205260409020846006811061029e57634e487b7160e01b600052603260045260246000fd5b6024020183600681106102c157634e487b7160e01b600052603260045260246000fd5b6006020154610100900460ff16156102d857600080fd5b600180546040516329d8ba7160e21b81526001600160a01b039091169163a762e9c49161030e9133916000918891600401611dba565b602060405180830381600087803b15801561032857600080fd5b505af115801561033c573d6000803e3d6000fd5b505050506040513d601f19601f820116820180604052508101906103609190611b77565b61036c575060006105f8565b3360009081526004602052604090208290856006811061039c57634e487b7160e01b600052603260045260246000fd5b6024020184600681106103bf57634e487b7160e01b600052603260045260246000fd5b60060201600101819055504260046000336001600160a01b03166001600160a01b03168152602001908152602001600020856006811061040f57634e487b7160e01b600052603260045260246000fd5b60240201846006811061043257634e487b7160e01b600052603260045260246000fd5b60069081029190910160020191909155600a54604051638d55953d60e01b8152600481018590526001600160a01b0390911690638d55953d9060240160a06040518083038186803b15801561048657600080fd5b505afa15801561049a573d6000803e3d6000fd5b505050506040513d601f19601f820116820180604052508101906104be9190611c3b565b51600b8111156104de57634e487b7160e01b600052602160045260246000fd5b60ff16815481106104ff57634e487b7160e01b600052603260045260246000fd5b9060005260206000200154426105159190611f56565b336000908152600460205260409020856006811061054357634e487b7160e01b600052603260045260246000fd5b60240201846006811061056657634e487b7160e01b600052603260045260246000fd5b6006020160030181905550600160046000336001600160a01b03166001600160a01b0316815260200190815260200160002085600681106105b757634e487b7160e01b600052603260045260246000fd5b6024020184600681106105da57634e487b7160e01b600052603260045260246000fd5b6006020180549115156101000261ff00199092169190911790555060015b9392505050565b6000610609611a78565b6001600160a01b038316600090815260046020526040808220815160c0810190925242929091908290600690835b828210156106fa576040805160c0810190915260248302850160066000835b828210156106e757604080516101008082018352600685028701805460ff8082161515855290839004811615156020808601919091526001808401549686019690965260028301546060860152600383015460808601526004830154918216151560a08601529290046001600160a01b0390811660c08501526005909101541660e083015290835292019101610656565b5050505081526020019060010190610637565b50505050905091509150915091565b8060ff16610716336109ca565b60ff16101561072457600080fd5b8060ff166001146107fb576001546001600160a01b031663095ec74533600861074e600286611fe9565b60ff168154811061076f57634e487b7160e01b600052603260045260246000fd5b6000918252602090912001546040516001600160e01b031960e085901b1681526001600160a01b0390921660048301526024820152604401602060405180830381600087803b1580156107c157600080fd5b505af11580156107d5573d6000803e3d6000fd5b505050506040513d601f19601f820116820180604052508101906107f99190611b77565b505b60005b610809826001611f6e565b60ff168160ff1610156108c35760005b610824836001611f6e565b60ff168160ff1610156108b05733600090815260046020526040902060019060ff84166006811061086557634e487b7160e01b600052603260045260246000fd5b602402018260ff166006811061088b57634e487b7160e01b600052603260045260246000fd5b60060201805460ff1916911515919091179055806108a88161200c565b915050610819565b50806108bb8161200c565b9150506107fe565b5050565b6000546001600160a01b031633146109265760405162461bcd60e51b815260206004820181905260248201527f4f776e61626c653a2063616c6c6572206973206e6f7420746865206f776e657260448201526064015b60405180910390fd5b600080546040516001600160a01b03909116907f8be0079c531659141344cd1fd0a4f28419497f9722a3daafe3b4186f6b6457e0908390a3600080546001600160a01b0319169055565b60008061097d8442611fd2565b9050600061098b8585611fd2565b6109959083611f93565b9050603281116109aa576000925050506109c4565b606381116109bd576001925050506109c4565b6002925050505b92915050565b6001600160a01b03811660009081526002602052604081205481906101f48110156109f85760019150610a38565b611f40811015610a0b5760029150610a38565b6201d4c0811015610a1f5760039150610a38565b6207a120811015610a335760049150610a38565b600591505b5092915050565b3360009081526004602052604081208360068110610a6d57634e487b7160e01b600052603260045260246000fd5b602402018260068110610a9057634e487b7160e01b600052603260045260246000fd5b600602015460ff161515600114610ad65760405162461bcd60e51b815260206004820152600a60248201526911549497d313d0d2d15160b21b604482015260640161091d565b3360009081526004602052604090208360068110610b0457634e487b7160e01b600052603260045260246000fd5b602402018260068110610b2757634e487b7160e01b600052603260045260246000fd5b600602015460ff610100909104161515600114610b735760405162461bcd60e51b815260206004820152600a60248201526911549497d5539554d15160b21b604482015260640161091d565b600a80543360009081526004602052604090206006916001600160a01b031690638d55953d9087848110610bb757634e487b7160e01b600052603260045260246000fd5b602402018660068110610bda57634e487b7160e01b600052603260045260246000fd5b60060201600101546040518263ffffffff1660e01b8152600401610c0091815260200190565b60a06040518083038186803b158015610c1857600080fd5b505afa158015610c2c573d6000803e3d6000fd5b505050506040513d601f19601f82011682018060405250810190610c509190611c3b565b51600b811115610c7057634e487b7160e01b600052602160045260246000fd5b60ff1681548110610c9157634e487b7160e01b600052603260045260246000fd5b6000918252602080832090910154338352600490915260409091208560068110610ccb57634e487b7160e01b600052603260045260246000fd5b602402018460068110610cee57634e487b7160e01b600052603260045260246000fd5b600602016002015442610d019190611fd2565b610d0c906064611fb3565b610d169190611f93565b1015610eaa573360009081526004602052604081208460068110610d4a57634e487b7160e01b600052603260045260246000fd5b602402018360068110610d6d57634e487b7160e01b600052603260045260246000fd5b6006020180549115156101000261ff0019909216919091179055610daa604080516060810182526000808252602082018190529181019190915290565b600160408083018290529082523360009081526004602052208460068110610de257634e487b7160e01b600052603260045260246000fd5b602402018360068110610e0557634e487b7160e01b600052603260045260246000fd5b6006020160019081015463ffffffff1660208301525460405163dd6803c760e01b81526001600160a01b039091169063dd6803c790610e4d9060009033908690600401611df2565b602060405180830381600087803b158015610e6757600080fd5b505af1158015610e7b573d6000803e3d6000fd5b505050506040513d601f19601f82011682018060405250810190610e9f9190611b77565b5060019150506109c4565b3360009081526004602052604081208460068110610ed857634e487b7160e01b600052603260045260246000fd5b602402018360068110610efb57634e487b7160e01b600052603260045260246000fd5b60069081029190910180549215156101000261ff001990931692909217909155336000908152600460205260409020610f789185908110610f4c57634e487b7160e01b600052603260045260246000fd5b602402018360068110610f6f57634e487b7160e01b600052603260045260246000fd5b60060201611a2d565b50600192915050565b60036020528160005260406000208181548110610f9d57600080fd5b6000918252602090912001546001600160a01b03169150829050565b600a54604051631e2514db60e11b815260048101839052600091829182916001600160a01b031690633c4a29b690602401604080518083038186803b15801561100157600080fd5b505afa158015611015573d6000803e3d6000fd5b505050506040513d601f19601f820116820180604052508101906110399190611d05565b600954604051633367d47360e21b815260048101889052919450919250600091600a916001600160a01b039091169063cd9f51cc9060240160206040518083038186803b15801561108957600080fd5b505afa15801561109d573d6000803e3d6000fd5b505050506040513d601f19601f820116820180604052508101906110c19190611ced565b6110cb9190611f93565b60015460405163095ec74560e01b8152336004820152602481018390529192506001600160a01b03169063095ec74590604401602060405180830381600087803b15801561111857600080fd5b505af115801561112c573d6000803e3d6000fd5b505050506040513d601f19601f820116820180604052508101906111509190611b77565b61115957600080fd5b60408051606081018252600180825281830181905263ffffffff8516602083015254915163dd6803c760e01b815290916001600160a01b03169063dd6803c7906111ac9060009033908690600401611df2565b602060405180830381600087803b1580156111c657600080fd5b505af11580156111da573d6000803e3d6000fd5b505050506040513d601f19601f820116820180604052508101906111fe9190611b77565b50831561133257604080516060810182526000602080830191909152600180835282840152600a54835163cea602a360e01b8152935192936001600160a01b039091169263cea602a392600480840193919291829003018186803b15801561126557600080fd5b505afa158015611279573d6000803e3d6000fd5b505050506040513d601f19601f8201168201806040525081019061129d9190611ced565b63ffffffff16602082015260015460405163dd6803c760e01b81526001600160a01b039091169063dd6803c7906112dd9060009033908690600401611df2565b602060405180830381600087803b1580156112f757600080fd5b505af115801561130b573d6000803e3d6000fd5b505050506040513d601f19601f8201168201806040525081019061132f9190611b77565b50505b3360009081526002602052604081208054849290611351908490611f56565b90915550939695505050505050565b336000908152600460205260409020826006811061138e57634e487b7160e01b600052603260045260246000fd5b6024020181600681106113b157634e487b7160e01b600052603260045260246000fd5b600602015460ff6101009091041615156001146113cd57600080fd5b33600090815260046020526040902082600681106113fb57634e487b7160e01b600052603260045260246000fd5b60240201816006811061141e57634e487b7160e01b600052603260045260246000fd5b600602015460ff16151560011461143457600080fd5b336000908152600460205260409020826006811061146257634e487b7160e01b600052603260045260246000fd5b60240201816006811061148557634e487b7160e01b600052603260045260246000fd5b600602016003015442101561149957600080fd5b33600090815260046020526040812083600681106114c757634e487b7160e01b600052603260045260246000fd5b6024020182600681106114ea57634e487b7160e01b600052603260045260246000fd5b6006020180549115156101000261ff00199092169190911790556001805460405163261e906160e21b8152600560048201526103e860248201526001600160a01b039091169063987a41849060440160206040518083038186803b15801561155157600080fd5b505afa158015611565573d6000803e3d6000fd5b505050506040513d601f19601f820116820180604052508101906115899190611b77565b1561159657506003611623565b60015460405163261e906160e21b8152600a60048201526103e360248201526001600160a01b039091169063987a41849060440160206040518083038186803b1580156115e257600080fd5b505afa1580156115f6573d6000803e3d6000fd5b505050506040513d601f19601f8201168201806040525081019061161a9190611b77565b15611623575060025b60408051606081018252600060208201819052600180835263ffffffff8516838501528054935163dd6803c760e01b815287948794926001600160a01b039091169163dd6803c79161167b9133908690600401611df2565b602060405180830381600087803b15801561169557600080fd5b505af11580156116a9573d6000803e3d6000fd5b505050506040513d601f19601f820116820180604052508101906116cd9190611b77565b50600954604051633367d47360e21b815260048101849052600a916001600160a01b03169063cd9f51cc9060240160206040518083038186803b15801561171357600080fd5b505afa158015611727573d6000803e3d6000fd5b505050506040513d601f19601f8201168201806040525081019061174b9190611ced565b6117559190611f93565b3360009081526002602052604081208054909190611774908490611f56565b90915550503360009081526004602052604090206117ce9088600681106117ab57634e487b7160e01b600052603260045260246000fd5b602402018760068110610f6f57634e487b7160e01b600052603260045260246000fd5b50505050505050565b6001546040516335911a1760e01b81526001600160a01b03909116906335911a1790611807908490600401611e3f565b600060405180830381600087803b15801561182157600080fd5b505af1158015611835573d6000803e3d6000fd5b505050506118436001610709565b6001546040516347af13f960e01b81523360048201526103e860248201526001600160a01b03909116906347af13f990604401600060405180830381600087803b15801561189057600080fd5b505af11580156118a4573d6000803e3d6000fd5b50505050600160009054906101000a90046001600160a01b03166001600160a01b0316632403e8836040518163ffffffff1660e01b8152600401600060405180830381600087803b1580156118f857600080fd5b505af115801561190c573d6000803e3d6000fd5b5050505050565b6000546001600160a01b0316331461196d5760405162461bcd60e51b815260206004820181905260248201527f4f776e61626c653a2063616c6c6572206973206e6f7420746865206f776e6572604482015260640161091d565b6001600160a01b0381166119d25760405162461bcd60e51b815260206004820152602660248201527f4f776e61626c653a206e6577206f776e657220697320746865207a65726f206160448201526564647265737360d01b606482015260840161091d565b600080546040516001600160a01b03808516939216917f8be0079c531659141344cd1fd0a4f28419497f9722a3daafe3b4186f6b6457e091a3600080546001600160a01b0319166001600160a01b0392909216919091179055565b8054610100900460ff16611a75576000600182018190556002820181905560038201556004810180546001600160a81b03191690556005810180546001600160a01b03191690555b50565b6040518060c001604052806006905b611a8f611aa5565b815260200190600190039081611a875790505090565b6040518060c001604052806006905b604080516101008101825260008082526020808301829052928201819052606082018190526080820181905260a0820181905260c0820181905260e08201528252600019909201910181611ab45790505090565b80356001600160a01b0381168114611b1f57600080fd5b919050565b80518015158114611b1f57600080fd5b600060208284031215611b45578081fd5b6105f882611b08565b60008060408385031215611b60578081fd5b611b6983611b08565b946020939093013593505050565b600060208284031215611b88578081fd5b6105f882611b24565b600060208284031215611ba2578081fd5b813567ffffffffffffffff80821115611bb9578283fd5b818401915084601f830112611bcc578283fd5b813581811115611bde57611bde612042565b604051601f8201601f19908116603f01168101908382118183101715611c0657611c06612042565b81604052828152876020848701011115611c1e578586fd5b826020860160208301379182016020019490945295945050505050565b600060a08284031215611c4c578081fd5b60405160a0810181811067ffffffffffffffff82111715611c6f57611c6f612042565b6040528251600c8110611c80578283fd5b81526020830151611c9081612058565b60208201526040830151611ca381612058565b60408201526060830151611cb681612058565b60608201526080830151611cc981612058565b60808201529392505050565b600060208284031215611ce6578081fd5b5035919050565b600060208284031215611cfe578081fd5b5051919050565b60008060408385031215611d17578182fd5b82519150611d2760208401611b24565b90509250929050565b60008060408385031215611d42578182fd5b50508035926020909101359150565b600080600060608486031215611d65578081fd5b505081359360208301359350604090920135919050565b600060208284031215611d8d578081fd5b81356105f881612058565b60038110611db657634e487b7160e01b600052602160045260246000fd5b9052565b6001600160a01b038516815260808101611dd76020830186611d98565b83604083015263ffffffff8316606083015295945050505050565b60a08101611e008286611d98565b60018060a01b0384166020830152825115156040830152602083015163ffffffff80821660608501528060408601511660808501525050949350505050565b6000602080835283518082850152825b81811015611e6b57858101830151858201604001528201611e4f565b81811115611e7c5783604083870101525b50601f01601f1916929092016040019392505050565b82815261242081016020808301846000805b6006808210611eb35750611f4a565b835185845b83811015611f325782518051151583528981015115158a84015260408082015190840152606080820151908401526080808201519084015260a08082015115159084015260c0808201516001600160a01b039081169185019190915260e09182015116908301529188019161010090910190600101611eb8565b50505061060094909401935091840191600101611ea4565b50505050509392505050565b60008219821115611f6957611f6961202c565b500190565b600060ff821660ff84168060ff03821115611f8b57611f8b61202c565b019392505050565b600082611fae57634e487b7160e01b81526012600452602481fd5b500490565b6000816000190483118215151615611fcd57611fcd61202c565b500290565b600082821015611fe457611fe461202c565b500390565b600060ff821660ff8416808210156120035761200361202c565b90039392505050565b600060ff821660ff8114156120235761202361202c565b60010192915050565b634e487b7160e01b600052601160045260246000fd5b634e487b7160e01b600052604160045260246000fd5b60ff81168114611a7557600080fdfea26469706673582212201c23cd43aa059a5826d161721ae3cbb8d2df487c530109907fecbcf5a94b2faf64736f6c63430008040033",
  "immutableReferences": {},
  "source": "// SPDX-License-Identifier: MIT\npragma solidity ^0.8.0;\n\nimport \"@openzeppelin/contracts/access/Ownable.sol\";\nimport \"./Repository.sol\";\nimport \"./FarmFactory.sol\";\nimport \"./FarmBase.sol\";\nimport \"./FarmMarket.sol\";\n\ninterface IPixFarm {\n    ///@dev \n    function sowing(\n        uint256 _x,\n        uint256 _y,\n        uint256 _seedTag\n    ) external returns (bool);\n\n    ///@dev \n    function harvest(uint256 _x, uint256 _y) external;\n\n    ///@dev \n    function eradicate(uint256 _x, uint256 _y) external returns (bool getSeed);\n\n    ///@dev \n    // function stealPlant(\n    //     address _owner,\n    //     uint256 _x,\n    //     uint256 _y\n    // ) external returns (bool);\n\n    ///@dev \n    function disassembling(uint256 _fruitTag) external returns (bool);\n}\n\ncontract PixFarm is Ownable, IPixFarm, FarmBase {\n    event SeedPlanted(address owner, uint8 x, uint8 y);\n    FarmMarket fm;\n    FarmFactory fc;\n\n    constructor(\n        FarmMarket _fm,\n        FarmFactory _fc,\n        Repository _repo\n    ) FarmBase(_repo) {\n        fm = _fm;\n        fc = _fc;\n    }\n\n    /// @notice \n    /// @param _x uint x\n    /// @param _y uint y\n    /// @param _seedTag uint256 \n    //bool\n    function sowing(\n        uint256 _x,\n        uint256 _y,\n        uint256 _seedTag\n    ) external override returns (bool) {\n        require(fields[msg.sender][_x][_y].unlocked == true);\n        require(fields[msg.sender][_x][_y].used == false);\n        if (\n            !repo.removeItem(msg.sender, Repository.ItemType.Seed, _seedTag, 1)\n        ) {\n            return false;\n        }\n        fields[msg.sender][_x][_y].seedTag = _seedTag;\n        fields[msg.sender][_x][_y].sowingTime = block.timestamp;\n        fields[msg.sender][_x][_y].maturityTime =\n            block.timestamp +\n            specieTime[uint8(fc.getPropertiesByTag(_seedTag).specie)];\n        fields[msg.sender][_x][_y].used = true;\n        return true;\n    }\n\n    event PlantHarvested(address owner, uint8 x, uint8 y);\n\n    /// @notice \n    /// @param _x x\n    /// @param _y y\n    function harvest(uint256 _x, uint256 _y) public override {\n        require(fields[msg.sender][_x][_y].used == true);\n        require(fields[msg.sender][_x][_y].unlocked == true);\n        require(block.timestamp >= fields[msg.sender][_x][_y].maturityTime);\n        fields[msg.sender][_x][_y].used = false;\n        uint32 num = 1;\n        if (repo.probabilityCheck(5, 1000)) {\n            num = 3;\n        } else if (repo.probabilityCheck(10, 995)) {\n            num = 2;\n        }\n        uint256 x = _x;\n        uint256 y = _y;\n        uint256 fruitTag;\n        // uint8 sign = fc.randomHybridize(msg.sender, uint8(_x), uint8(_y));\n        // if (sign == 1) {\n        //     //up\n        //     y += 1;\n        // } else if (sign == 2) {\n        //     //down\n        //     y -= 1;\n        // } else if (sign == 3) {\n        //     //left\n        //     x -= 1;\n        // } else {\n        //     //right\n        //     x += 1;\n        // }\n        // fruitTag = fc.getHarvestFruitTag(\n        //     fields[msg.sender][_x][_y].seedTag,\n        //     fields[msg.sender][x][y].seedTag\n        // );\n        // if (sign == 0) {\n        //     fruitTag = fc.getFruitTag(fields[msg.sender][_x][_y].seedTag);\n        // }\n\n        // if (giveItem(ItemType.Fruit,msg.sender, fruitTag, num)) {\n        //     _initField(fields[msg.sender][_x][_y]);\n        //     return (true, uint8(num));\n        // } else {\n        //     fields[msg.sender][_x][_y].used = true;\n        //     return (false, uint8(num));\n        // }\n        Repository.Item memory item;\n        item.usable = true;\n        item.tag = uint32(fruitTag);\n        item.stack = num;\n        repo.addItem(Repository.ItemType.Fruit, msg.sender, item);\n        farmExperience[msg.sender] += fm.getFruitValueByTag(fruitTag) / 10;\n        _initField(fields[msg.sender][_x][_y]);\n        //return uint8(num);\n    }\n\n    event PlantEradicated(address owner, uint8 x, uint8 y);\n\n    /// @notice \n    /// @param _x x\n    /// @param _y y\n    function eradicate(uint256 _x, uint256 _y)\n        external\n        override\n        returns (bool)\n    {\n        require(fields[msg.sender][_x][_y].unlocked == true, \"ERR_LOCKED\");\n        require(fields[msg.sender][_x][_y].used == true, \"ERR_UNUSED\");\n\n        if (\n            ((block.timestamp - fields[msg.sender][_x][_y].sowingTime) * 100) /\n                specieTime[\n                    uint8(\n                        fc\n                            .getPropertiesByTag(\n                            fields[msg.sender][_x][_y]\n                                .seedTag\n                        )\n                            .specie\n                    )\n                ] <\n            10\n        ) {\n            fields[msg.sender][_x][_y].used = false;\n            // if (giveItem(msg.sender, fields[msg.sender][_x][_y].seedTag, 1)) {\n            //     _initField(fields[msg.sender][_x][_y]);\n            //     return true;\n            // } else {\n            //     fields[msg.sender][_x][_y].used = true;\n            //     revert(\"Repository is full\");\n            // }\n            Repository.Item memory item;\n            item.stack = 1;\n            item.usable = true;\n            item.tag = uint32(fields[msg.sender][_x][_y].seedTag);\n            repo.addItem(Repository.ItemType.Seed, msg.sender, item);\n            return true;\n        }\n        fields[msg.sender][_x][_y].used=false;\n        _initField(fields[msg.sender][_x][_y]);\n        return true;\n    }\n\n    // event PlantStolen(address owner, address thief, uint8 x, uint8 y);\n\n    // /// @notice \n    // /// @dev false\n    // /// @param _owner \n    // /// @param _x x\n    // /// @param _y y\n    // function stealPlant(\n    //     address _owner,\n    //     uint256 _x,\n    //     uint256 _y\n    // ) public override returns (bool) {\n    //     require(fields[msg.sender][_x][_y].unlocked == true);\n    //     require(\n    //         fields[msg.sender][_x][_y].used == true &&\n    //             block.timestamp >= fields[_owner][_x][_y].maturityTime\n    //     );\n    //     require(friendCheck(msg.sender, _owner));\n    //     //\n    //     if (!fields[_owner][_x][_y].stolen) {\n    //         //\n    //         fields[_owner][_x][_y].stolen = true;\n    //         // if (\n    //         //     giveItem(\n    //         //         msg.sender,\n    //         //         getFruitTag(fields[_owner][_x][_y].seedTag),\n    //         //         1\n    //         //     )\n    //         // ) {\n    //         //\n    //         Item memory item;\n    //         item.stack = 1;\n    //         item.usable = true;\n    //         item.tag = uint32(fc.getFruitTag(fields[_owner][_x][_y].seedTag));\n    //         addItem(ItemType.Fruit, msg.sender, item);\n    //         fields[_owner][_x][_y].maturityTime = block.timestamp + 1800;\n    //         fields[_owner][_x][_y].firstThief = msg.sender;\n    //         return true;\n    //         // } else {\n    //         //     //\n    //         //     fields[_owner][_x][_y].stolen = false;\n    //         //     return false;\n    //         // }\n    //     }\n    //     //\n    //     else {\n    //         //Field memory _field = fields[_owner][_x][_y];\n    //         fields[_owner][_x][_y].used = false;\n    //         _initField(fields[_owner][_x][_y]);\n    //         // if (\n    //         //     giveItem(\n    //         //         msg.sender,\n    //         //         getFruitTag(fields[_owner][_x][_y].seedTag),\n    //         //         1\n    //         //     )\n    //         // ) {\n    //         //\n    //         Item memory item;\n    //         item.stack = 1;\n    //         item.usable = true;\n    //         item.tag = uint32(fc.getFruitTag(fields[_owner][_x][_y].seedTag));\n    //         addItem(ItemType.Fruit, msg.sender, item);\n    //         fields[_owner][_x][_y].secondThief = msg.sender;\n    //         return true;\n    //         // } else {\n    //         //     //\n    //         //     fields[_owner][_x][_y] = _field;\n    //         //     return false;\n    //         // }\n    //     }\n    // }\n\n    /// @notice \n    /// @dev false\n    /// @param _fruitTagTag\n    function disassembling(uint256 _fruitTag) public override returns (bool) {\n        bool check;\n        uint256 seedTag;\n        (seedTag, check) = fc.disassembleFruit(_fruitTag);\n        uint256 value = fm.getFruitValueByTag(_fruitTag) / 10;\n        require(repo.transferToShop(msg.sender, value));\n        Repository.Item memory seed;\n        seed.usable = true;\n        seed.stack = 1;\n        seed.tag = uint32(seedTag);\n        repo.addItem(Repository.ItemType.Seed, msg.sender, seed);\n        if (check) {\n            Repository.Item memory dreamy;\n            dreamy.usable = true;\n            dreamy.stack = 1;\n            dreamy.tag = uint32(fc.getDreamySeedTag());\n            repo.addItem(Repository.ItemType.Seed, msg.sender, dreamy);\n        }\n        farmExperience[msg.sender] += value;\n        return check;\n    }\n\n    function getFields(address player)\n        public\n        view\n        returns (uint256, Field[6][6] memory)\n    {\n        return (block.timestamp, fields[player]);\n    }\n\n    function getAge(uint256 sowingTime, uint256 maturityTime)\n        public\n        view\n        returns (uint8)\n    {\n        uint256 timePass = block.timestamp - sowingTime;\n        uint256 rate = timePass / (maturityTime - sowingTime);\n        if (rate <= 50) {\n            return 0;\n        }\n        if (rate <= 99) {\n            return 1;\n        }\n        return 2;\n    }\n}\n",
  "sourcePath": "F:/Projects/PixFarmon-frontend/src/util/pixfarmon-dapp/Pixfarmon/contracts/PixFarm.sol",
  "compiler": {
    "name": "solc",
    "version": "0.8.4+commit.c7e474f2.Emscripten.clang"
  },
  "schemaVersion": "3.3.4",
  "updatedAt": "2021-06-02T10:53:47.289Z",
  "networkType": "ethereum",
  "devdoc": {
    "kind": "dev",
    "methods": {
      "disassembling(uint256)": {
        "details": "false",
        "params": {
          "_fruitTag": "Tag"
        }
      },
      "eradicate(uint256,uint256)": {
        "params": {
          "_x": "x",
          "_y": "y"
        }
      },
      "getFarmLevel(address)": {
        "details": ""
      },
      "harvest(uint256,uint256)": {
        "params": {
          "_x": "x",
          "_y": "y"
        }
      },
      "owner()": {
        "details": "Returns the address of the current owner."
      },
      "register(string)": {
        "details": ""
      },
      "renounceOwnership()": {
        "details": "Leaves the contract without owner. It will not be possible to call `onlyOwner` functions anymore. Can only be called by the current owner. NOTE: Renouncing ownership will leave the contract without an owner, thereby removing any functionality that is only available to the owner."
      },
      "sowing(uint256,uint256,uint256)": {
        "params": {
          "_seedTag": "uint256 ",
          "_x": "uint x",
          "_y": "uint y"
        }
      },
      "transferOwnership(address)": {
        "details": "Transfers ownership of the contract to a new account (`newOwner`). Can only be called by the current owner."
      }
    },
    "version": 1
  },
  "userdoc": {
    "kind": "user",
    "methods": {
      "disassembling(uint256)": {
        "notice": ""
      },
      "eradicate(uint256,uint256)": {
        "notice": ""
      },
      "harvest(uint256,uint256)": {
        "notice": ""
      },
      "sowing(uint256,uint256,uint256)": {
        "notice": ""
      }
    },
    "version": 1
  }
}