{
  "contractName": "PixFarm",
  "abi": [
    {
      "inputs": [
        {
          "internalType": "contract Repository",
          "name": "_repo",
          "type": "address"
        },
        {
          "internalType": "contract Money",
          "name": "_mon",
          "type": "address"
        }
      ],
      "stateMutability": "nonpayable",
      "type": "constructor"
    },
    {
      "anonymous": false,
      "inputs": [
        {
          "indexed": true,
          "internalType": "address",
          "name": "previousOwner",
          "type": "address"
        },
        {
          "indexed": true,
          "internalType": "address",
          "name": "newOwner",
          "type": "address"
        }
      ],
      "name": "OwnershipTransferred",
      "type": "event"
    },
    {
      "anonymous": false,
      "inputs": [
        {
          "indexed": false,
          "internalType": "address",
          "name": "owner",
          "type": "address"
        },
        {
          "indexed": false,
          "internalType": "uint8",
          "name": "x",
          "type": "uint8"
        },
        {
          "indexed": false,
          "internalType": "uint8",
          "name": "y",
          "type": "uint8"
        }
      ],
      "name": "PlantEradicated",
      "type": "event"
    },
    {
      "anonymous": false,
      "inputs": [
        {
          "indexed": false,
          "internalType": "address",
          "name": "owner",
          "type": "address"
        },
        {
          "indexed": false,
          "internalType": "uint8",
          "name": "x",
          "type": "uint8"
        },
        {
          "indexed": false,
          "internalType": "uint8",
          "name": "y",
          "type": "uint8"
        }
      ],
      "name": "PlantHarvested",
      "type": "event"
    },
    {
      "anonymous": false,
      "inputs": [
        {
          "indexed": false,
          "internalType": "address",
          "name": "owner",
          "type": "address"
        },
        {
          "indexed": false,
          "internalType": "uint8",
          "name": "x",
          "type": "uint8"
        },
        {
          "indexed": false,
          "internalType": "uint8",
          "name": "y",
          "type": "uint8"
        }
      ],
      "name": "SeedPlanted",
      "type": "event"
    },
    {
      "inputs": [
        {
          "internalType": "enum FarmBase.Specie",
          "name": "",
          "type": "uint8"
        }
      ],
      "name": "PriceForSpecie",
      "outputs": [
        {
          "internalType": "uint256",
          "name": "",
          "type": "uint256"
        }
      ],
      "stateMutability": "view",
      "type": "function"
    },
    {
      "inputs": [
        {
          "internalType": "address",
          "name": "player",
          "type": "address"
        }
      ],
      "name": "getMoney",
      "outputs": [
        {
          "internalType": "uint256",
          "name": "",
          "type": "uint256"
        }
      ],
      "stateMutability": "view",
      "type": "function"
    },
    {
      "inputs": [
        {
          "internalType": "address",
          "name": "_person",
          "type": "address"
        },
        {
          "internalType": "uint256",
          "name": "_value",
          "type": "uint256"
        }
      ],
      "name": "getMoneyFromShop",
      "outputs": [],
      "stateMutability": "nonpayable",
      "type": "function"
    },
    {
      "inputs": [
        {
          "internalType": "address",
          "name": "",
          "type": "address"
        }
      ],
      "name": "money",
      "outputs": [
        {
          "internalType": "uint256",
          "name": "",
          "type": "uint256"
        }
      ],
      "stateMutability": "view",
      "type": "function"
    },
    {
      "inputs": [],
      "name": "owner",
      "outputs": [
        {
          "internalType": "address",
          "name": "",
          "type": "address"
        }
      ],
      "stateMutability": "view",
      "type": "function"
    },
    {
      "inputs": [
        {
          "internalType": "uint256",
          "name": "_value",
          "type": "uint256"
        }
      ],
      "name": "rechargeMoney",
      "outputs": [],
      "stateMutability": "payable",
      "type": "function"
    },
    {
      "inputs": [
        {
          "internalType": "string",
          "name": "_name",
          "type": "string"
        }
      ],
      "name": "register",
      "outputs": [],
      "stateMutability": "nonpayable",
      "type": "function"
    },
    {
      "inputs": [],
      "name": "renounceOwnership",
      "outputs": [],
      "stateMutability": "nonpayable",
      "type": "function"
    },
    {
      "inputs": [
        {
          "internalType": "address",
          "name": "newOwner",
          "type": "address"
        }
      ],
      "name": "transferOwnership",
      "outputs": [],
      "stateMutability": "nonpayable",
      "type": "function"
    },
    {
      "inputs": [
        {
          "internalType": "address",
          "name": "p1",
          "type": "address"
        },
        {
          "internalType": "address",
          "name": "p2",
          "type": "address"
        },
        {
          "internalType": "uint256",
          "name": "_value",
          "type": "uint256"
        }
      ],
      "name": "transferTo",
      "outputs": [
        {
          "internalType": "bool",
          "name": "",
          "type": "bool"
        }
      ],
      "stateMutability": "nonpayable",
      "type": "function"
    },
    {
      "inputs": [
        {
          "internalType": "address",
          "name": "_person",
          "type": "address"
        },
        {
          "internalType": "uint256",
          "name": "_value",
          "type": "uint256"
        }
      ],
      "name": "transferToShop",
      "outputs": [
        {
          "internalType": "bool",
          "name": "",
          "type": "bool"
        }
      ],
      "stateMutability": "nonpayable",
      "type": "function"
    },
    {
      "inputs": [
        {
          "internalType": "uint256",
          "name": "_x",
          "type": "uint256"
        },
        {
          "internalType": "uint256",
          "name": "_y",
          "type": "uint256"
        },
        {
          "internalType": "enum FarmBase.Specie",
          "name": "_specie",
          "type": "uint8"
        }
      ],
      "name": "sowing",
      "outputs": [
        {
          "internalType": "bool",
          "name": "",
          "type": "bool"
        }
      ],
      "stateMutability": "nonpayable",
      "type": "function"
    },
    {
      "inputs": [
        {
          "internalType": "uint256",
          "name": "_x",
          "type": "uint256"
        },
        {
          "internalType": "uint256",
          "name": "_y",
          "type": "uint256"
        }
      ],
      "name": "harvest",
      "outputs": [
        {
          "internalType": "bool",
          "name": "",
          "type": "bool"
        }
      ],
      "stateMutability": "nonpayable",
      "type": "function"
    },
    {
      "inputs": [],
      "name": "getFields",
      "outputs": [
        {
          "internalType": "uint256",
          "name": "",
          "type": "uint256"
        },
        {
          "components": [
            {
              "internalType": "enum FarmBase.Specie",
              "name": "specie",
              "type": "uint8"
            },
            {
              "internalType": "uint256",
              "name": "sowingTime",
              "type": "uint256"
            },
            {
              "internalType": "address",
              "name": "owner",
              "type": "address"
            },
            {
              "internalType": "address",
              "name": "farmer",
              "type": "address"
            }
          ],
          "internalType": "struct FarmBase.Field[6][6]",
          "name": "",
          "type": "tuple[6][6]"
        }
      ],
      "stateMutability": "view",
      "type": "function"
    },
    {
      "inputs": [
        {
          "internalType": "uint256",
          "name": "_x",
          "type": "uint256"
        },
        {
          "internalType": "uint256",
          "name": "_y",
          "type": "uint256"
        }
      ],
      "name": "getFieldsMessage",
      "outputs": [
        {
          "internalType": "enum FarmBase.Specie",
          "name": "",
          "type": "uint8"
        },
        {
          "internalType": "uint256",
          "name": "",
          "type": "uint256"
        },
        {
          "internalType": "address",
          "name": "",
          "type": "address"
        },
        {
          "internalType": "address",
          "name": "",
          "type": "address"
        }
      ],
      "stateMutability": "view",
      "type": "function"
    },
    {
      "inputs": [
        {
          "internalType": "uint256",
          "name": "sowingTime",
          "type": "uint256"
        },
        {
          "internalType": "uint256",
          "name": "maturityTime",
          "type": "uint256"
        }
      ],
      "name": "getAge",
      "outputs": [
        {
          "internalType": "uint8",
          "name": "",
          "type": "uint8"
        }
      ],
      "stateMutability": "view",
      "type": "function"
    },
    {
      "inputs": [
        {
          "internalType": "uint256",
          "name": "_x",
          "type": "uint256"
        },
        {
          "internalType": "uint256",
          "name": "_y",
          "type": "uint256"
        }
      ],
      "name": "buyLand",
      "outputs": [
        {
          "internalType": "bool",
          "name": "",
          "type": "bool"
        }
      ],
      "stateMutability": "nonpayable",
      "type": "function"
    }
  ],
  "bytecode": "0x60806040526001805460ff60a01b1916600360a11b1790553480156200002457600080fd5b5060405162001eef38038062001eef8339810160408190526200004791620003ab565b600080546001600160a01b03191633908117825560405184928392918291907f8be0079c531659141344cd1fd0a4f28419497f9722a3daafe3b4186f6b6457e0908290a350600180546001600160a01b0319166001600160a01b038316178155620000b4906000620003ea565b7ff32690bee57e29022528069e856666a4c94d80d6e20ecfc384d13712394a8ed9555061012c7faddaec9d1d3b26bf3fc48791a6fb7a35fd550fdd74b687234a56a3ee0a17d57e819055610e107f2d7784e164926896ebc14b7cb0296e9b3026a60f1cfb62c78be0a3679b1a96c6556154607f2ed53151f2af672bfe545bf210815b5a063ba102f44b0edb9b808c3020394a5b5561a8c07fab40d900b0c8e409fe0ec4fd407b48b5e7d9103f943090b76bb2aaf00e9f7d1855600a7f7e8dc06c87ab7a762aa9ab66951ffbe2ce5c32bbf37f9067e7f9b44668a6034b819055600f7fa85dabd40fce20f9d7c6b25b8a3950a395e86e9872d6cf62e2e20dc93ac6671381905560197fae2350ee47dc45c7bfb6462910609c63ba45a989ac4ea1000ac62b5f361596d3556004600090815260237f15e51d34b0e9e04d7f260d84c1e052f125f6143e4a0d50589273ee2436b7571655609680546001600160a01b039687166001600160a01b03199182161782557f683723e34a772b6e4f2c919bba7fa32ed8ea11a8325f54da7db716e9d9dd98c78390557f53bdca72fa8d2e145a1b3bd11cde5bd75428acd18eac3d6adf4e06e7e637706d919091557fd6ca216b3b8b63bcc0099d5c8294d1780d598ac9b3a29b15c3c3e68c85f6e30c949094556101f47f017b8d24b2a0f404d68a0b2abb80fd2d4d2105d3355f1fc48a1949fe7fce12e5556103207ff6fe0582e0e323a551f456b66350a1ed549948a34fdd35be011d229e00171c1f5560986020527fddaeee8e61001dbcfaf4f92c6943552c392a86665d734d3c1905d7b3c23b1b1e557fe66b7f18a15fed257e722ee4e0b46d479842712099771fae6234a4975b3be6fa919091557ffd16fc8d5a980cfe9c4de8806ae90ed1cbb06071ef932dd581a595eff814ae3855601e7f3dea5c3de2cb770c94064530343ebbb341255e0fca2e186b4f29c9835e5a5fb85560327ff5f5ca8671558a53d397e88a32fe91e496a8234b8919a18e3ceda04de44785cb55609980549390921692169190911790555062000429565b60008060408385031215620003bf57600080fd5b8251620003cc8162000410565b6020840151909250620003df8162000410565b809150509250929050565b6000828210156200040b57634e487b7160e01b600052601160045260246000fd5b500390565b6001600160a01b03811681146200042657600080fd5b50565b611ab680620004396000396000f3fe6080604052600436106100fe5760003560e01c80637c0c52f011610095578063ca60249211610064578063ca602492146102da578063e4a4b7b1146102fd578063f2c298be1461031d578063f2fde38b1461033d578063f5cacb5f1461035d57600080fd5b80637c0c52f0146102405780638da5cb5b14610272578063a5f2a1521461029a578063be977cd4146102ba57600080fd5b806347af13f9116100d157806347af13f9146101b5578063715018a6146101d5578063717d5527146101ea57806375465b8e1461022057600080fd5b8063095ec745146101035780630cb9e32814610138578063155b39041461017357806315e1f7cd14610188575b600080fd5b34801561010f57600080fd5b5061012361011e366004611656565b61038d565b60405190151581526020015b60405180910390f35b34801561014457600080fd5b506101656101533660046116a2565b60976020526000908152604090205481565b60405190815260200161012f565b61018661018136600461176e565b6103fc565b005b34801561019457600080fd5b506101656101a33660046115ff565b60946020526000908152604090205481565b3480156101c157600080fd5b506101866101d0366004611656565b61050a565b3480156101e157600080fd5b5061018661054e565b3480156101f657600080fd5b506101656102053660046115ff565b6001600160a01b031660009081526094602052604090205490565b34801561022c57600080fd5b5061012361023b3660046117a9565b6105f2565b34801561024c57600080fd5b5061026061025b366004611787565b6109f7565b60405160ff909116815260200161012f565b34801561027e57600080fd5b506000546040516001600160a01b03909116815260200161012f565b3480156102a657600080fd5b506101236102b536600461161a565b610a4f565b3480156102c657600080fd5b506101236102d5366004611787565b610ac6565b3480156102e657600080fd5b506102ef610c44565b60405161012f92919061191c565b34801561030957600080fd5b50610123610318366004611787565b610d2d565b34801561032957600080fd5b506101866103383660046116bd565b6111c7565b34801561034957600080fd5b506101866103583660046115ff565b6112f9565b34801561036957600080fd5b5061037d610378366004611787565b611413565b60405161012f9493929190611894565b6001600160a01b0382166000908152609460205260408120548211156103b5575060006103f6565b6001600160a01b0383166000908152609460205260409020546103d9908390611a11565b6001600160a01b0384166000908152609460205260409020555060015b92915050565b6095546040516323b872dd60e01b8152336004820152306024820152604481018390526000916001600160a01b0316906323b872dd90606401602060405180830381600087803b15801561044f57600080fd5b505af1158015610463573d6000803e3d6000fd5b505050506040513d601f19601f820116820180604052508101906104879190611680565b9050806104cd5760405162461bcd60e51b815260206004820152600f60248201526e149958da185c99d94819985a5b1959608a1b60448201526064015b60405180910390fd5b6104dc645d21dba000836119d0565b336000908152609460205260409020546104f691906119b8565b336000908152609460205260409020555050565b6001600160a01b03821660009081526094602052604090205461052e9082906119b8565b6001600160a01b0390921660009081526094602052604090209190915550565b6000546001600160a01b031633146105a85760405162461bcd60e51b815260206004820181905260248201527f4f776e61626c653a2063616c6c6572206973206e6f7420746865206f776e657260448201526064016104c4565b600080546040516001600160a01b03909116907f8be0079c531659141344cd1fd0a4f28419497f9722a3daafe3b4186f6b6457e0908390a3600080546001600160a01b0319169055565b6000806002856006811061060857610608611a54565b60180201846006811061061d5761061d611a54565b6004908102919091015460ff169081111561063a5761063a611a3e565b1461064457600080fd5b336002856006811061065857610658611a54565b60180201846006811061066d5761066d611a54565b60040201600201546001600160a01b0316146107435760646097600084600481111561069b5761069b611a3e565b60048111156106ac576106ac611a3e565b81526020019081526020016000205460086106c791906119f2565b6106d191906119d0565b33600090815260946020526040902054116107435760405162461bcd60e51b815260206004820152602c60248201527f596f7520646f6e2774206861766520656e6f756768206d6f6e657920746f207060448201526b185e481e5bdd5c881c995b9d60a21b60648201526084016104c4565b6099546001600160a01b031663a5f2a152336002876006811061076857610768611a54565b60180201866006811061077d5761077d611a54565b6004020160020160009054906101000a90046001600160a01b03166064609760008860048111156107b0576107b0611a3e565b60048111156107c1576107c1611a3e565b81526020019081526020016000205460086107dc91906119f2565b6107e691906119d0565b6040516001600160e01b031960e086901b1681526001600160a01b0393841660048201529290911660248301526044820152606401602060405180830381600087803b15801561083557600080fd5b505af1158015610849573d6000803e3d6000fd5b505050506040513d601f19601f8201168201806040525081019061086d9190611680565b610879575060006109f0565b60018054604051634dd4739160e11b81526001600160a01b0390911691639ba8e722916108af9133916000918891600401611802565b602060405180830381600087803b1580156108c957600080fd5b505af11580156108dd573d6000803e3d6000fd5b505050506040513d601f19601f820116820180604052508101906109019190611680565b61090d575060006109f0565b336002856006811061092157610921611a54565b60180201846006811061093657610936611a54565b6004020160030160006101000a8154816001600160a01b0302191690836001600160a01b03160217905550816002856006811061097557610975611a54565b60180201846006811061098a5761098a611a54565b6004020160000160006101000a81548160ff021916908360048111156109b2576109b2611a3e565b021790555042600285600681106109cb576109cb611a54565b6018020184600681106109e0576109e0611a54565b6004020160010181905550600190505b9392505050565b600080610a048442611a11565b90506000610a128585611a11565b610a1c90836119d0565b905060328111610a31576000925050506103f6565b60638111610a44576001925050506103f6565b506002949350505050565b6001600160a01b038316600090815260946020526040812054610a73908390611a11565b6001600160a01b038086166000908152609460205260408082209390935590851681522054610aa39083906119b8565b6001600160a01b0384166000908152609460205260409020555060019392505050565b60003060028460068110610adc57610adc611a54565b601802018360068110610af157610af1611a54565b60040201600201546001600160a01b031614610b4f5760405162461bcd60e51b815260206004820152601b60248201527f54686973206c616e6420686173206265656e20756e6c6f636b6564000000000060448201526064016104c4565b6099546040516352f950a960e11b81523360048201523060248201526103e760448201526001600160a01b039091169063a5f2a15290606401602060405180830381600087803b158015610ba257600080fd5b505af1158015610bb6573d6000803e3d6000fd5b505050506040513d601f19601f82011682018060405250810190610bda9190611680565b610be6575060006103f6565b3360028460068110610bfa57610bfa611a54565b601802018360068110610c0f57610c0f611a54565b6004020160020160006101000a8154816001600160a01b0302191690836001600160a01b031602179055506001905092915050565b6000610c4e611561565b6040805160c0810190915242906002908160066000835b82821015610d1f576040805160c0810190915260188302850160066000835b82821015610d0c5760408051608081019091526004808402860180549091839160ff1690811115610cb757610cb7611a3e565b6004811115610cc857610cc8611a3e565b815260018281015460208084019190915260028401546001600160a01b03908116604085015260039094015490931660609092019190915291835292019101610c84565b5050505081526020019060010190610c65565b505050509050915091509091565b60008060028460068110610d4357610d43611a54565b601802018360068110610d5857610d58611a54565b6004908102919091015460ff1690811115610d7557610d75611a3e565b1415610d8057600080fd5b6092600060028560068110610d9757610d97611a54565b601802018460068110610dac57610dac611a54565b6004908102919091015460ff1690811115610dc957610dc9611a3e565b6004811115610dda57610dda611a3e565b81526020019081526020016000205460028460068110610dfc57610dfc611a54565b601802018360068110610e1157610e11611a54565b6004020160010154610e2391906119b8565b421015610e2f57600080fd5b60028360068110610e4257610e42611a54565b601802018260068110610e5757610e57611a54565b60040201600301546001600160a01b03163314610f7d576092600060028560068110610e8557610e85611a54565b601802018460068110610e9a57610e9a611a54565b6004908102919091015460ff1690811115610eb757610eb7611a3e565b6004811115610ec857610ec8611a3e565b81526020019081526020016000205460028460068110610eea57610eea611a54565b601802018360068110610eff57610eff611a54565b6004020160010154610f1191906119b8565b610f1d906107086119b8565b421015610f6c5760405162461bcd60e51b815260206004820152601d60248201527f546869732063726f7020697320756e6465722070726f74656374696f6e00000060448201526064016104c4565b610f7683836114fc565b90506103f6565b6001546001600160a01b031663987a41846093600060028760068110610fa557610fa5611a54565b601802018660068110610fba57610fba611a54565b6004908102919091015460ff1690811115610fd757610fd7611a3e565b6004811115610fe857610fe8611a3e565b81526020019081526020016000205460646040518363ffffffff1660e01b815260040161101f929190918252602082015260400190565b60206040518083038186803b15801561103757600080fd5b505afa15801561104b573d6000803e3d6000fd5b505050506040513d601f19601f8201168201806040525081019061106f9190611680565b61107b575060006103f6565b604080516060810182526000602082018190529181019190915260018152600284600681106110ac576110ac611a54565b6018020183600681106110c1576110c1611a54565b60049081029190910154602083019160ff909116908111156110e5576110e5611a3e565b908160048111156110f8576110f8611a3e565b90525060016040808301829052815490516303ad41f960e61b81526001600160a01b039091169163eb507e4091611136919033908690600401611841565b602060405180830381600087803b15801561115057600080fd5b505af1158015611164573d6000803e3d6000fd5b505050506040513d601f19601f820116820180604052508101906111889190611680565b506111bd6002856006811061119f5761119f611a54565b6018020184600681106111b4576111b4611a54565b60040201611526565b5060019392505050565b6001546040516335911a1760e01b81526001600160a01b03909116906335911a17906111f79084906004016118c7565b600060405180830381600087803b15801561121157600080fd5b505af1158015611225573d6000803e3d6000fd5b50506001546040516347af13f960e01b81523360048201526103e860248201526001600160a01b0390911692506347af13f99150604401600060405180830381600087803b15801561127657600080fd5b505af115801561128a573d6000803e3d6000fd5b50505050600160009054906101000a90046001600160a01b03166001600160a01b0316632403e8836040518163ffffffff1660e01b8152600401600060405180830381600087803b1580156112de57600080fd5b505af11580156112f2573d6000803e3d6000fd5b5050505050565b6000546001600160a01b031633146113535760405162461bcd60e51b815260206004820181905260248201527f4f776e61626c653a2063616c6c6572206973206e6f7420746865206f776e657260448201526064016104c4565b6001600160a01b0381166113b85760405162461bcd60e51b815260206004820152602660248201527f4f776e61626c653a206e6577206f776e657220697320746865207a65726f206160448201526564647265737360d01b60648201526084016104c4565b600080546040516001600160a01b03808516939216917f8be0079c531659141344cd1fd0a4f28419497f9722a3daafe3b4186f6b6457e091a3600080546001600160a01b0319166001600160a01b0392909216919091179055565b6000806000806002866006811061142c5761142c611a54565b60180201856006811061144157611441611a54565b600402015460ff166002876006811061145c5761145c611a54565b60180201866006811061147157611471611a54565b60040201600101546002886006811061148c5761148c611a54565b6018020187600681106114a1576114a1611a54565b60040201600301546001600160a01b0316600289600681106114c5576114c5611a54565b6018020188600681106114da576114da611a54565b6004020160020154929991985096506001600160a01b03909116945092505050565b6001546000906001600160a01b031663987a418460938360028760068110610fa557610fa5611a54565b6000815460ff16600481111561153e5761153e611a3e565b141561155e57600060018201556003810180546001600160a01b03191690555b50565b6040518060c001604052806006905b61157861158e565b8152602001906001900390816115705790505090565b6040518060c001604052806006905b60408051608081018252600080825260208083018290529282018190526060820152825260001990920191018161159d5790505090565b80356001600160a01b03811681146115eb57600080fd5b919050565b8035600581106115eb57600080fd5b60006020828403121561161157600080fd5b6109f0826115d4565b60008060006060848603121561162f57600080fd5b611638846115d4565b9250611646602085016115d4565b9150604084013590509250925092565b6000806040838503121561166957600080fd5b611672836115d4565b946020939093013593505050565b60006020828403121561169257600080fd5b815180151581146109f057600080fd5b6000602082840312156116b457600080fd5b6109f0826115f0565b6000602082840312156116cf57600080fd5b813567ffffffffffffffff808211156116e757600080fd5b818401915084601f8301126116fb57600080fd5b81358181111561170d5761170d611a6a565b604051601f8201601f19908116603f0116810190838211818310171561173557611735611a6a565b8160405282815287602084870101111561174e57600080fd5b826020860160208301376000928101602001929092525095945050505050565b60006020828403121561178057600080fd5b5035919050565b6000806040838503121561179a57600080fd5b50508035926020909101359150565b6000806000606084860312156117be57600080fd5b83359250602084013591506117d5604085016115f0565b90509250925092565b600381106117ee576117ee611a3e565b9052565b600581106117ee576117ee611a3e565b6001600160a01b03851681526080810161181f60208301866117de565b61182c60408301856117f2565b63ffffffff8316606083015295945050505050565b60a0810161184f82866117de565b6001600160a01b03841660208381019190915283511515604084015283015161187b60608401826117f2565b5063ffffffff6040840151166080830152949350505050565b608081016118a282876117f2565b60208201949094526001600160a01b0392831660408201529116606090910152919050565b600060208083528351808285015260005b818110156118f4578581018301518582016040015282016118d8565b81811115611906576000604083870101525b50601f01601f1916929092016040019392505050565b82815261122081016020808301846000805b600680821061193d57506119ac565b835185845b838110156119945782516119578382516117f2565b808a0151838b01526040808201516001600160a01b0390811691850191909152606091820151169083015291880191608090910190600101611942565b5050506103009490940193509184019160010161192e565b50505050509392505050565b600082198211156119cb576119cb611a28565b500190565b6000826119ed57634e487b7160e01b600052601260045260246000fd5b500490565b6000816000190483118215151615611a0c57611a0c611a28565b500290565b600082821015611a2357611a23611a28565b500390565b634e487b7160e01b600052601160045260246000fd5b634e487b7160e01b600052602160045260246000fd5b634e487b7160e01b600052603260045260246000fd5b634e487b7160e01b600052604160045260246000fdfea26469706673582212200ee75d942719003ad08a74e4c6794b6fa9add1cd47ecdadc115e69c17a6512ef64736f6c63430008050033",
  "immutableReferences": {},
  "source": "// SPDX-License-Identifier: MIT\r\npragma solidity ^0.8.0;\r\n\r\nimport \"@openzeppelin/contracts/access/Ownable.sol\";\r\nimport \"./Repository.sol\";\r\nimport \"./FarmBase.sol\";\r\nimport \"./FarmMarket.sol\";\r\nimport \"./MarketBase.sol\";\r\n\r\ninterface IPixFarm {\r\n    ///@dev \r\n    function sowing(\r\n        uint256 _x,\r\n        uint256 _y,\r\n        FarmBase.Specie _specie\r\n    ) external returns (bool);\r\n\r\n    ///@dev \r\n    function harvest(uint256 _x, uint256 _y) external returns (bool);\r\n\r\n    // ///@dev \r\n    // function eradicate(uint256 _x, uint256 _y) external returns (bool getSeed);\r\n\r\n    ///@dev \r\n    // function stealPlant(\r\n    //     address _owner,\r\n    //     uint256 _x,\r\n    //     uint256 _y\r\n    // ) external returns (bool);\r\n\r\n    ///@dev \r\n    // function disassembling(uint256 _fruitTag) external returns (bool);\r\n}\r\n\r\ncontract PixFarm is Ownable, IPixFarm, FarmBase, Money, MarketBase {\r\n    event SeedPlanted(address owner, uint8 x, uint8 y);\r\n    Money mon;\r\n\r\n    constructor(Repository _repo, Money _mon)\r\n        FarmBase(_repo)\r\n        MarketBase(_repo)\r\n    {\r\n        mon = _mon;\r\n    }\r\n\r\n    /// @notice \r\n    /// @param _x uint x\r\n    /// @param _y uint y\r\n    /// @param _specie uint256 \r\n    //bool\r\n    function sowing(\r\n        uint256 _x,\r\n        uint256 _y,\r\n        Specie _specie\r\n    ) external override returns (bool) {\r\n        //require(fields[msg.sender][_x][_y].unlocked == true);\r\n        require(fields[_x][_y].specie == Specie.empty);\r\n\r\n        //Need Change\r\n        if (fields[_x][_y].owner != msg.sender) {\r\n            require(\r\n                money[msg.sender] > (PriceForSpecie[_specie] * 8) / 100,\r\n                \"You don't have enough money to pay your rent\"\r\n            );\r\n        }\r\n\r\n        if (\r\n            !mon.transferTo(\r\n                msg.sender,\r\n                fields[_x][_y].owner,\r\n                (PriceForSpecie[_specie] * 8) / 100\r\n            )\r\n        ) {\r\n            return false;\r\n        }\r\n\r\n        if (\r\n            !repo.removeItem(msg.sender, Repository.ItemType.Seed, _specie, 1)\r\n        ) {\r\n            return false;\r\n        }\r\n        fields[_x][_y].farmer = msg.sender;\r\n        fields[_x][_y].specie = _specie;\r\n        fields[_x][_y].sowingTime = block.timestamp;\r\n        return true;\r\n    }\r\n\r\n    event PlantHarvested(address owner, uint8 x, uint8 y);\r\n\r\n    /// @notice \r\n    /// @param _x x\r\n    /// @param _y y\r\n    function harvest(uint256 _x, uint256 _y) public override returns (bool) {\r\n        require(fields[_x][_y].specie != Specie.empty);\r\n        require(\r\n            block.timestamp >=\r\n                (fields[_x][_y].sowingTime + specieTime[fields[_x][_y].specie])\r\n        );\r\n\r\n        //uint32 num = 1;\r\n        if (msg.sender != fields[_x][_y].farmer) {\r\n            require(\r\n                block.timestamp >=\r\n                    (fields[_x][_y].sowingTime +\r\n                        specieTime[fields[_x][_y].specie] +\r\n                        1800),\r\n                \"This crop is under protection\"\r\n            );\r\n            return PlantStole(_x, _y);\r\n        }\r\n        if (!repo.probabilityCheck(successRate[fields[_x][_y].specie], 100)) {\r\n            return false;\r\n        }\r\n        // uint256 x = _x;\r\n        // uint256 y = _y;\r\n        Repository.Item memory item;\r\n        item.usable = true;\r\n        item.specie = fields[_x][_y].specie;\r\n        item.stack = 1;\r\n        repo.addItem(Repository.ItemType.Fruit, msg.sender, item);\r\n        _initField(fields[_x][_y]);\r\n        return true;\r\n    }\r\n\r\n    function PlantStole(uint256 _x, uint256 _y) internal returns (bool) {\r\n        //------------TODO\r\n        if (!repo.probabilityCheck(successRate[fields[_x][_y].specie], 100)) {\r\n            return false;\r\n        }\r\n        Repository.Item memory item;\r\n        item.usable = true;\r\n        item.specie = fields[_x][_y].specie;\r\n        item.stack = 1;\r\n        repo.addItem(Repository.ItemType.Fruit, msg.sender, item);\r\n        _initField(fields[_x][_y]);\r\n        return true;\r\n    }\r\n\r\n    event PlantEradicated(address owner, uint8 x, uint8 y);\r\n\r\n    // /// @notice \r\n    // /// @param _x x\r\n    // /// @param _y y\r\n    // function eradicate(uint256 _x, uint256 _y)\r\n    //     external\r\n    //     override\r\n    //     returns (bool)\r\n    // {\r\n    //     require(\r\n    //         fields[_x][_y].owner == msg.sender,\r\n    //         \"You have no right to do this\"\r\n    //     );\r\n    //     require(\r\n    //         fields[_x][_y].specie != Specie.empty,\r\n    //         \"Thers is no plant to remove\"\r\n    //     );\r\n\r\n    //     if (\r\n    //         ((block.timestamp - fields[_x][_y].sowingTime) * 100) /\r\n    //             specieTime[fields[_x][_y].specie] <\r\n    //         10\r\n    //     ) {\r\n    //         Repository.Item memory item;\r\n    //         item.stack = 1;\r\n    //         item.usable = true;\r\n    //         item.specie = fields[_x][_y].specie;\r\n    //         repo.addItem(Repository.ItemType.Seed, msg.sender, item);\r\n    //     }\r\n    //     fields[_x][_y].specie = Specie.empty;\r\n    //     _initField(fields[_x][_y]);\r\n    //     return true;\r\n    // }\r\n\r\n    // event PlantStolen(address owner, address thief, uint8 x, uint8 y);\r\n\r\n    // /// @notice \r\n    // /// @dev false\r\n    // /// @param _owner \r\n    // /// @param _x x\r\n    // /// @param _y y\r\n    // function stealPlant(\r\n    //     address _owner,\r\n    //     uint256 _x,\r\n    //     uint256 _y\r\n    // ) public override returns (bool) {\r\n    //     require(fields[msg.sender][_x][_y].unlocked == true);\r\n    //     require(\r\n    //         fields[msg.sender][_x][_y].used == true &&\r\n    //             block.timestamp >= fields[_owner][_x][_y].maturityTime\r\n    //     );\r\n    //     require(friendCheck(msg.sender, _owner));\r\n    //     //\r\n    //     if (!fields[_owner][_x][_y].stolen) {\r\n    //         //\r\n    //         fields[_owner][_x][_y].stolen = true;\r\n    //         // if (\r\n    //         //     giveItem(\r\n    //         //         msg.sender,\r\n    //         //         getFruitTag(fields[_owner][_x][_y].seedTag),\r\n    //         //         1\r\n    //         //     )\r\n    //         // ) {\r\n    //         //\r\n    //         Item memory item;\r\n    //         item.stack = 1;\r\n    //         item.usable = true;\r\n    //         item.tag = uint32(fc.getFruitTag(fields[_owner][_x][_y].seedTag));\r\n    //         addItem(ItemType.Fruit, msg.sender, item);\r\n    //         fields[_owner][_x][_y].maturityTime = block.timestamp + 1800;\r\n    //         fields[_owner][_x][_y].firstThief = msg.sender;\r\n    //         return true;\r\n    //         // } else {\r\n    //         //     //\r\n    //         //     fields[_owner][_x][_y].stolen = false;\r\n    //         //     return false;\r\n    //         // }\r\n    //     }\r\n    //     //\r\n    //     else {\r\n    //         //Field memory _field = fields[_owner][_x][_y];\r\n    //         fields[_owner][_x][_y].used = false;\r\n    //         _initField(fields[_owner][_x][_y]);\r\n    //         // if (\r\n    //         //     giveItem(\r\n    //         //         msg.sender,\r\n    //         //         getFruitTag(fields[_owner][_x][_y].seedTag),\r\n    //         //         1\r\n    //         //     )\r\n    //         // ) {\r\n    //         //\r\n    //         Item memory item;\r\n    //         item.stack = 1;\r\n    //         item.usable = true;\r\n    //         item.tag = uint32(fc.getFruitTag(fields[_owner][_x][_y].seedTag));\r\n    //         addItem(ItemType.Fruit, msg.sender, item);\r\n    //         fields[_owner][_x][_y].secondThief = msg.sender;\r\n    //         return true;\r\n    //         // } else {\r\n    //         //     //\r\n    //         //     fields[_owner][_x][_y] = _field;\r\n    //         //     return false;\r\n    //         // }\r\n    //     }\r\n    // }\r\n\r\n    function getFields() public view returns (uint256, Field[6][6] memory) {\r\n        return (block.timestamp, fields);\r\n    }\r\n\r\n    ///@dev \r\n    function getFieldsMessage(uint256 _x, uint256 _y)\r\n        public\r\n        view\r\n        returns (\r\n            Specie,\r\n            uint256,\r\n            address,\r\n            address\r\n        )\r\n    {\r\n        return (\r\n            fields[_x][_y].specie,\r\n            fields[_x][_y].sowingTime,\r\n            fields[_x][_y].farmer,\r\n            fields[_x][_y].owner\r\n        );\r\n    }\r\n\r\n    function getAge(uint256 sowingTime, uint256 maturityTime)\r\n        public\r\n        view\r\n        returns (uint8)\r\n    {\r\n        uint256 timePass = block.timestamp - sowingTime;\r\n        uint256 rate = timePass / (maturityTime - sowingTime);\r\n        if (rate <= 50) {\r\n            return 0;\r\n        }\r\n        if (rate <= 99) {\r\n            return 1;\r\n        }\r\n        return 2;\r\n    }\r\n\r\n    ///@dev \r\n    function buyLand(uint256 _x, uint256 _y) public returns (bool) {\r\n        require(\r\n            fields[_x][_y].owner == address(this),\r\n            \"This land has been unlocked\"\r\n        );\r\n        if (!mon.transferTo(msg.sender, address(this), 999)) {\r\n            return false;\r\n        }\r\n        fields[_x][_y].owner = msg.sender;\r\n        return true;\r\n    }\r\n\r\n    // ///@dev \r\n    // function sellLandToShop(uint256 _x, uint256 _y) public returns (bool) {\r\n    //     require(fields[_x][_y].owner == msg.sender);\r\n    //     if (!mon.getMoneyFromShop(msg.sender, 999)) {\r\n    //         return false;\r\n    //     }\r\n    //     fields[_x][_y].specie = Specie.empty;\r\n    //     fields[_x][_y].sowingTime = 0;\r\n    //     fields[_x][_y].owner = address(this);\r\n    //     fields[_x][_y].farmer = address(0);\r\n    //     return true;\r\n    // }\r\n}\r\n",
  "sourcePath": "D:\\ETH Project\\Pixfarmon\\contracts\\PixFarm.sol",
  "compiler": {
    "name": "solc",
    "version": "0.8.5+commit.a4f2e591.Emscripten.clang"
  },
  "schemaVersion": "3.4.1",
  "updatedAt": "2021-06-18T01:54:36.013Z",
  "devdoc": {
    "kind": "dev",
    "methods": {
      "buyLand(uint256,uint256)": {
        "details": ""
      },
      "getFieldsMessage(uint256,uint256)": {
        "details": ""
      },
      "getMoneyFromShop(address,uint256)": {
        "details": ""
      },
      "harvest(uint256,uint256)": {
        "params": {
          "_x": "x",
          "_y": "y"
        }
      },
      "owner()": {
        "details": "Returns the address of the current owner."
      },
      "register(string)": {
        "details": ""
      },
      "renounceOwnership()": {
        "details": "Leaves the contract without owner. It will not be possible to call `onlyOwner` functions anymore. Can only be called by the current owner. NOTE: Renouncing ownership will leave the contract without an owner, thereby removing any functionality that is only available to the owner."
      },
      "sowing(uint256,uint256,uint8)": {
        "params": {
          "_specie": "uint256 ",
          "_x": "uint x",
          "_y": "uint y"
        }
      },
      "transferOwnership(address)": {
        "details": "Transfers ownership of the contract to a new account (`newOwner`). Can only be called by the current owner."
      },
      "transferTo(address,address,uint256)": {
        "details": ""
      },
      "transferToShop(address,uint256)": {
        "details": ""
      }
    },
    "version": 1
  },
  "userdoc": {
    "kind": "user",
    "methods": {
      "harvest(uint256,uint256)": {
        "notice": ""
      },
      "rechargeMoney(uint256)": {
        "notice": ""
      },
      "sowing(uint256,uint256,uint8)": {
        "notice": ""
      }
    },
    "version": 1
  }
}