{
  "contractName": "PixPet",
  "abi": [
    {
      "inputs": [
        {
          "internalType": "contract Repository",
          "name": "_repo",
          "type": "address"
        }
      ],
      "stateMutability": "nonpayable",
      "type": "constructor"
    },
    {
      "anonymous": false,
      "inputs": [
        {
          "indexed": true,
          "internalType": "address",
          "name": "previousOwner",
          "type": "address"
        },
        {
          "indexed": true,
          "internalType": "address",
          "name": "newOwner",
          "type": "address"
        }
      ],
      "name": "OwnershipTransferred",
      "type": "event"
    },
    {
      "inputs": [
        {
          "internalType": "address",
          "name": "_owner",
          "type": "address"
        },
        {
          "internalType": "uint8",
          "name": "_x",
          "type": "uint8"
        },
        {
          "internalType": "uint8",
          "name": "_y",
          "type": "uint8"
        }
      ],
      "name": "HybridizationCheck",
      "outputs": [
        {
          "internalType": "uint8",
          "name": "",
          "type": "uint8"
        },
        {
          "internalType": "uint256",
          "name": "",
          "type": "uint256"
        }
      ],
      "stateMutability": "view",
      "type": "function"
    },
    {
      "inputs": [
        {
          "internalType": "address",
          "name": "_player",
          "type": "address"
        },
        {
          "internalType": "enum Repository.ItemType",
          "name": "_itemType",
          "type": "uint8"
        }
      ],
      "name": "_findFirstPlace",
      "outputs": [
        {
          "internalType": "uint256",
          "name": "",
          "type": "uint256"
        }
      ],
      "stateMutability": "view",
      "type": "function"
    },
    {
      "inputs": [
        {
          "internalType": "address",
          "name": "_person",
          "type": "address"
        }
      ],
      "name": "_isregister",
      "outputs": [
        {
          "internalType": "bool",
          "name": "",
          "type": "bool"
        }
      ],
      "stateMutability": "view",
      "type": "function"
    },
    {
      "inputs": [
        {
          "internalType": "string",
          "name": "_name",
          "type": "string"
        }
      ],
      "name": "_registration",
      "outputs": [],
      "stateMutability": "nonpayable",
      "type": "function"
    },
    {
      "inputs": [
        {
          "internalType": "uint256",
          "name": "_index",
          "type": "uint256"
        }
      ],
      "name": "acceptFriend",
      "outputs": [],
      "stateMutability": "nonpayable",
      "type": "function"
    },
    {
      "inputs": [
        {
          "internalType": "address",
          "name": "_address",
          "type": "address"
        }
      ],
      "name": "addFriendByAddress",
      "outputs": [
        {
          "internalType": "bool",
          "name": "",
          "type": "bool"
        }
      ],
      "stateMutability": "nonpayable",
      "type": "function"
    },
    {
      "inputs": [
        {
          "internalType": "string",
          "name": "_name",
          "type": "string"
        }
      ],
      "name": "addFriendByName",
      "outputs": [
        {
          "internalType": "bool",
          "name": "",
          "type": "bool"
        }
      ],
      "stateMutability": "nonpayable",
      "type": "function"
    },
    {
      "inputs": [
        {
          "internalType": "uint256",
          "name": "_tag",
          "type": "uint256"
        },
        {
          "internalType": "address",
          "name": "_player",
          "type": "address"
        },
        {
          "internalType": "uint256",
          "name": "_amount",
          "type": "uint256"
        }
      ],
      "name": "addFruit",
      "outputs": [],
      "stateMutability": "nonpayable",
      "type": "function"
    },
    {
      "inputs": [
        {
          "internalType": "enum Repository.ItemType",
          "name": "_itemType",
          "type": "uint8"
        },
        {
          "internalType": "address",
          "name": "_player",
          "type": "address"
        },
        {
          "components": [
            {
              "internalType": "bool",
              "name": "usable",
              "type": "bool"
            },
            {
              "internalType": "uint32",
              "name": "tag",
              "type": "uint32"
            },
            {
              "internalType": "uint32",
              "name": "stack",
              "type": "uint32"
            }
          ],
          "internalType": "struct Repository.Item",
          "name": "_item",
          "type": "tuple"
        }
      ],
      "name": "addItem",
      "outputs": [
        {
          "internalType": "bool",
          "name": "",
          "type": "bool"
        }
      ],
      "stateMutability": "nonpayable",
      "type": "function"
    },
    {
      "inputs": [
        {
          "internalType": "uint256",
          "name": "_tag",
          "type": "uint256"
        },
        {
          "internalType": "address",
          "name": "_player",
          "type": "address"
        },
        {
          "internalType": "uint256",
          "name": "_amount",
          "type": "uint256"
        }
      ],
      "name": "addSeed",
      "outputs": [],
      "stateMutability": "nonpayable",
      "type": "function"
    },
    {
      "inputs": [
        {
          "internalType": "address",
          "name": "",
          "type": "address"
        }
      ],
      "name": "addressToName",
      "outputs": [
        {
          "internalType": "string",
          "name": "",
          "type": "string"
        }
      ],
      "stateMutability": "view",
      "type": "function"
    },
    {
      "inputs": [
        {
          "components": [
            {
              "internalType": "enum FarmBase.Specie",
              "name": "specie",
              "type": "uint8"
            },
            {
              "internalType": "uint8",
              "name": "hp",
              "type": "uint8"
            },
            {
              "internalType": "uint8",
              "name": "atk",
              "type": "uint8"
            },
            {
              "internalType": "uint8",
              "name": "def",
              "type": "uint8"
            },
            {
              "internalType": "uint8",
              "name": "spd",
              "type": "uint8"
            }
          ],
          "internalType": "struct FarmBase.PlantPropertiesPacked",
          "name": "_pack",
          "type": "tuple"
        }
      ],
      "name": "calDna",
      "outputs": [
        {
          "internalType": "uint256",
          "name": "dna",
          "type": "uint256"
        }
      ],
      "stateMutability": "pure",
      "type": "function"
    },
    {
      "inputs": [
        {
          "components": [
            {
              "internalType": "enum FarmBase.Specie",
              "name": "specie",
              "type": "uint8"
            },
            {
              "internalType": "uint8",
              "name": "hp",
              "type": "uint8"
            },
            {
              "internalType": "uint8",
              "name": "atk",
              "type": "uint8"
            },
            {
              "internalType": "uint8",
              "name": "def",
              "type": "uint8"
            },
            {
              "internalType": "uint8",
              "name": "spd",
              "type": "uint8"
            }
          ],
          "internalType": "struct FarmBase.PlantPropertiesPacked",
          "name": "_pack",
          "type": "tuple"
        },
        {
          "internalType": "enum FarmBase.Quality",
          "name": "quality",
          "type": "uint8"
        },
        {
          "internalType": "enum Repository.ItemType",
          "name": "itemType",
          "type": "uint8"
        }
      ],
      "name": "calTag",
      "outputs": [
        {
          "internalType": "uint256",
          "name": "tag",
          "type": "uint256"
        }
      ],
      "stateMutability": "pure",
      "type": "function"
    },
    {
      "inputs": [
        {
          "internalType": "address",
          "name": "user",
          "type": "address"
        },
        {
          "internalType": "address",
          "name": "target",
          "type": "address"
        }
      ],
      "name": "changePermission",
      "outputs": [],
      "stateMutability": "nonpayable",
      "type": "function"
    },
    {
      "inputs": [
        {
          "internalType": "uint256",
          "name": "_fruitTag",
          "type": "uint256"
        }
      ],
      "name": "disassembleFruit",
      "outputs": [
        {
          "internalType": "uint256",
          "name": "seedTag",
          "type": "uint256"
        },
        {
          "internalType": "bool",
          "name": "getSpecialSeed",
          "type": "bool"
        }
      ],
      "stateMutability": "view",
      "type": "function"
    },
    {
      "inputs": [
        {
          "internalType": "address",
          "name": "p1",
          "type": "address"
        },
        {
          "internalType": "address",
          "name": "p2",
          "type": "address"
        }
      ],
      "name": "friendCheck",
      "outputs": [
        {
          "internalType": "bool",
          "name": "",
          "type": "bool"
        }
      ],
      "stateMutability": "view",
      "type": "function"
    },
    {
      "inputs": [
        {
          "internalType": "address",
          "name": "",
          "type": "address"
        },
        {
          "internalType": "uint256",
          "name": "",
          "type": "uint256"
        }
      ],
      "name": "friendList",
      "outputs": [
        {
          "internalType": "string",
          "name": "friendName",
          "type": "string"
        },
        {
          "internalType": "address",
          "name": "friendAddress",
          "type": "address"
        }
      ],
      "stateMutability": "view",
      "type": "function"
    },
    {
      "inputs": [
        {
          "components": [
            {
              "internalType": "enum FarmBase.Specie",
              "name": "specie",
              "type": "uint8"
            },
            {
              "internalType": "uint8",
              "name": "hp",
              "type": "uint8"
            },
            {
              "internalType": "uint8",
              "name": "atk",
              "type": "uint8"
            },
            {
              "internalType": "uint8",
              "name": "def",
              "type": "uint8"
            },
            {
              "internalType": "uint8",
              "name": "spd",
              "type": "uint8"
            }
          ],
          "internalType": "struct FarmBase.PlantPropertiesPacked",
          "name": "_pack",
          "type": "tuple"
        },
        {
          "internalType": "uint256",
          "name": "quality",
          "type": "uint256"
        }
      ],
      "name": "generateRandomAttribute",
      "outputs": [
        {
          "components": [
            {
              "internalType": "enum FarmBase.Specie",
              "name": "specie",
              "type": "uint8"
            },
            {
              "internalType": "uint8",
              "name": "hp",
              "type": "uint8"
            },
            {
              "internalType": "uint8",
              "name": "atk",
              "type": "uint8"
            },
            {
              "internalType": "uint8",
              "name": "def",
              "type": "uint8"
            },
            {
              "internalType": "uint8",
              "name": "spd",
              "type": "uint8"
            }
          ],
          "internalType": "struct FarmBase.PlantPropertiesPacked",
          "name": "",
          "type": "tuple"
        }
      ],
      "stateMutability": "view",
      "type": "function"
    },
    {
      "inputs": [],
      "name": "getDreamySeedTag",
      "outputs": [
        {
          "internalType": "uint256",
          "name": "",
          "type": "uint256"
        }
      ],
      "stateMutability": "view",
      "type": "function"
    },
    {
      "inputs": [
        {
          "internalType": "address",
          "name": "_owner",
          "type": "address"
        }
      ],
      "name": "getFarmLevel",
      "outputs": [
        {
          "internalType": "uint8",
          "name": "",
          "type": "uint8"
        }
      ],
      "stateMutability": "view",
      "type": "function"
    },
    {
      "inputs": [],
      "name": "getFriendList",
      "outputs": [
        {
          "components": [
            {
              "internalType": "string",
              "name": "friendName",
              "type": "string"
            },
            {
              "internalType": "address",
              "name": "friendAddress",
              "type": "address"
            }
          ],
          "internalType": "struct Repository.friend[]",
          "name": "",
          "type": "tuple[]"
        }
      ],
      "stateMutability": "view",
      "type": "function"
    },
    {
      "inputs": [
        {
          "internalType": "uint256",
          "name": "_seedTag",
          "type": "uint256"
        }
      ],
      "name": "getFruitTag",
      "outputs": [
        {
          "internalType": "uint256",
          "name": "fruitTag",
          "type": "uint256"
        }
      ],
      "stateMutability": "view",
      "type": "function"
    },
    {
      "inputs": [
        {
          "internalType": "uint256",
          "name": "parent1",
          "type": "uint256"
        },
        {
          "internalType": "uint256",
          "name": "parent2",
          "type": "uint256"
        }
      ],
      "name": "getHarvestFruitTag",
      "outputs": [
        {
          "internalType": "uint256",
          "name": "",
          "type": "uint256"
        }
      ],
      "stateMutability": "view",
      "type": "function"
    },
    {
      "inputs": [
        {
          "internalType": "uint256",
          "name": "parent1",
          "type": "uint256"
        },
        {
          "internalType": "uint256",
          "name": "parent2",
          "type": "uint256"
        }
      ],
      "name": "getHybridizedSeedTag",
      "outputs": [
        {
          "internalType": "uint256",
          "name": "",
          "type": "uint256"
        }
      ],
      "stateMutability": "pure",
      "type": "function"
    },
    {
      "inputs": [
        {
          "internalType": "uint8",
          "name": "itemType",
          "type": "uint8"
        },
        {
          "internalType": "address",
          "name": "user",
          "type": "address"
        },
        {
          "internalType": "address",
          "name": "target",
          "type": "address"
        }
      ],
      "name": "getItemList",
      "outputs": [
        {
          "components": [
            {
              "internalType": "bool",
              "name": "usable",
              "type": "bool"
            },
            {
              "internalType": "uint32",
              "name": "tag",
              "type": "uint32"
            },
            {
              "internalType": "uint32",
              "name": "stack",
              "type": "uint32"
            }
          ],
          "internalType": "struct Repository.Item[50]",
          "name": "",
          "type": "tuple[50]"
        }
      ],
      "stateMutability": "view",
      "type": "function"
    },
    {
      "inputs": [
        {
          "internalType": "address",
          "name": "player",
          "type": "address"
        }
      ],
      "name": "getMoney",
      "outputs": [
        {
          "internalType": "uint256",
          "name": "",
          "type": "uint256"
        }
      ],
      "stateMutability": "view",
      "type": "function"
    },
    {
      "inputs": [
        {
          "internalType": "address",
          "name": "_person",
          "type": "address"
        },
        {
          "internalType": "uint256",
          "name": "_value",
          "type": "uint256"
        }
      ],
      "name": "getMoneyFromShop",
      "outputs": [],
      "stateMutability": "nonpayable",
      "type": "function"
    },
    {
      "inputs": [
        {
          "internalType": "uint256",
          "name": "_dna",
          "type": "uint256"
        }
      ],
      "name": "getPlantProperties",
      "outputs": [
        {
          "components": [
            {
              "internalType": "enum FarmBase.Specie",
              "name": "specie",
              "type": "uint8"
            },
            {
              "internalType": "uint8",
              "name": "hp",
              "type": "uint8"
            },
            {
              "internalType": "uint8",
              "name": "atk",
              "type": "uint8"
            },
            {
              "internalType": "uint8",
              "name": "def",
              "type": "uint8"
            },
            {
              "internalType": "uint8",
              "name": "spd",
              "type": "uint8"
            }
          ],
          "internalType": "struct FarmBase.PlantPropertiesPacked",
          "name": "",
          "type": "tuple"
        }
      ],
      "stateMutability": "pure",
      "type": "function"
    },
    {
      "inputs": [
        {
          "internalType": "uint256",
          "name": "_tag",
          "type": "uint256"
        }
      ],
      "name": "getPropertiesByTag",
      "outputs": [
        {
          "components": [
            {
              "internalType": "enum FarmBase.Specie",
              "name": "specie",
              "type": "uint8"
            },
            {
              "internalType": "uint8",
              "name": "hp",
              "type": "uint8"
            },
            {
              "internalType": "uint8",
              "name": "atk",
              "type": "uint8"
            },
            {
              "internalType": "uint8",
              "name": "def",
              "type": "uint8"
            },
            {
              "internalType": "uint8",
              "name": "spd",
              "type": "uint8"
            }
          ],
          "internalType": "struct FarmBase.PlantPropertiesPacked",
          "name": "",
          "type": "tuple"
        }
      ],
      "stateMutability": "pure",
      "type": "function"
    },
    {
      "inputs": [
        {
          "internalType": "uint256",
          "name": "decimal",
          "type": "uint256"
        }
      ],
      "name": "getRandom",
      "outputs": [
        {
          "internalType": "uint256",
          "name": "",
          "type": "uint256"
        }
      ],
      "stateMutability": "view",
      "type": "function"
    },
    {
      "inputs": [
        {
          "components": [
            {
              "internalType": "enum FarmBase.Specie",
              "name": "specie",
              "type": "uint8"
            },
            {
              "internalType": "uint8",
              "name": "hp",
              "type": "uint8"
            },
            {
              "internalType": "uint8",
              "name": "atk",
              "type": "uint8"
            },
            {
              "internalType": "uint8",
              "name": "def",
              "type": "uint8"
            },
            {
              "internalType": "uint8",
              "name": "spd",
              "type": "uint8"
            }
          ],
          "internalType": "struct FarmBase.PlantPropertiesPacked",
          "name": "_pack",
          "type": "tuple"
        }
      ],
      "name": "getSeedTag",
      "outputs": [
        {
          "internalType": "uint256",
          "name": "SeedTag",
          "type": "uint256"
        }
      ],
      "stateMutability": "pure",
      "type": "function"
    },
    {
      "inputs": [
        {
          "internalType": "address",
          "name": "_person",
          "type": "address"
        }
      ],
      "name": "getUsername",
      "outputs": [
        {
          "internalType": "string",
          "name": "",
          "type": "string"
        }
      ],
      "stateMutability": "view",
      "type": "function"
    },
    {
      "inputs": [],
      "name": "owner",
      "outputs": [
        {
          "internalType": "address",
          "name": "",
          "type": "address"
        }
      ],
      "stateMutability": "view",
      "type": "function"
    },
    {
      "inputs": [
        {
          "internalType": "address",
          "name": "",
          "type": "address"
        },
        {
          "internalType": "uint256",
          "name": "",
          "type": "uint256"
        }
      ],
      "name": "owners",
      "outputs": [
        {
          "internalType": "address",
          "name": "",
          "type": "address"
        }
      ],
      "stateMutability": "view",
      "type": "function"
    },
    {
      "inputs": [
        {
          "internalType": "string",
          "name": "_name",
          "type": "string"
        }
      ],
      "name": "playerCreate",
      "outputs": [
        {
          "internalType": "bool",
          "name": "",
          "type": "bool"
        }
      ],
      "stateMutability": "nonpayable",
      "type": "function"
    },
    {
      "inputs": [
        {
          "internalType": "uint256",
          "name": "numerator",
          "type": "uint256"
        },
        {
          "internalType": "uint256",
          "name": "denominator",
          "type": "uint256"
        }
      ],
      "name": "probabilityCheck",
      "outputs": [
        {
          "internalType": "bool",
          "name": "",
          "type": "bool"
        }
      ],
      "stateMutability": "view",
      "type": "function"
    },
    {
      "inputs": [
        {
          "internalType": "enum Repository.ItemType",
          "name": "_itemType",
          "type": "uint8"
        },
        {
          "internalType": "address",
          "name": "_player",
          "type": "address"
        },
        {
          "components": [
            {
              "internalType": "bool",
              "name": "usable",
              "type": "bool"
            },
            {
              "internalType": "uint32",
              "name": "tag",
              "type": "uint32"
            },
            {
              "internalType": "uint32",
              "name": "stack",
              "type": "uint32"
            }
          ],
          "internalType": "struct Repository.Item",
          "name": "_item",
          "type": "tuple"
        }
      ],
      "name": "quieckAddItem",
      "outputs": [
        {
          "internalType": "bool",
          "name": "",
          "type": "bool"
        }
      ],
      "stateMutability": "nonpayable",
      "type": "function"
    },
    {
      "inputs": [
        {
          "internalType": "address",
          "name": "_owner",
          "type": "address"
        },
        {
          "internalType": "uint8",
          "name": "_x",
          "type": "uint8"
        },
        {
          "internalType": "uint8",
          "name": "_y",
          "type": "uint8"
        }
      ],
      "name": "randomHybridize",
      "outputs": [
        {
          "internalType": "uint8",
          "name": "",
          "type": "uint8"
        }
      ],
      "stateMutability": "view",
      "type": "function"
    },
    {
      "inputs": [
        {
          "internalType": "uint256",
          "name": "_value",
          "type": "uint256"
        }
      ],
      "name": "rechargeMoney",
      "outputs": [],
      "stateMutability": "payable",
      "type": "function"
    },
    {
      "inputs": [
        {
          "internalType": "uint256",
          "name": "_index",
          "type": "uint256"
        }
      ],
      "name": "refuseFriend",
      "outputs": [],
      "stateMutability": "nonpayable",
      "type": "function"
    },
    {
      "inputs": [
        {
          "internalType": "string",
          "name": "_name",
          "type": "string"
        }
      ],
      "name": "register",
      "outputs": [],
      "stateMutability": "nonpayable",
      "type": "function"
    },
    {
      "inputs": [
        {
          "internalType": "address",
          "name": "_player",
          "type": "address"
        },
        {
          "internalType": "enum Repository.ItemType",
          "name": "_itemType",
          "type": "uint8"
        },
        {
          "internalType": "uint256",
          "name": "_tag",
          "type": "uint256"
        },
        {
          "internalType": "uint32",
          "name": "_amount",
          "type": "uint32"
        }
      ],
      "name": "removeItem",
      "outputs": [
        {
          "internalType": "bool",
          "name": "",
          "type": "bool"
        }
      ],
      "stateMutability": "nonpayable",
      "type": "function"
    },
    {
      "inputs": [],
      "name": "renounceOwnership",
      "outputs": [],
      "stateMutability": "nonpayable",
      "type": "function"
    },
    {
      "inputs": [
        {
          "internalType": "address",
          "name": "",
          "type": "address"
        },
        {
          "internalType": "address",
          "name": "",
          "type": "address"
        }
      ],
      "name": "storageAllowence",
      "outputs": [
        {
          "internalType": "bool",
          "name": "",
          "type": "bool"
        }
      ],
      "stateMutability": "view",
      "type": "function"
    },
    {
      "inputs": [
        {
          "internalType": "address",
          "name": "newOwner",
          "type": "address"
        }
      ],
      "name": "transferOwnership",
      "outputs": [],
      "stateMutability": "nonpayable",
      "type": "function"
    },
    {
      "inputs": [
        {
          "internalType": "address",
          "name": "p1",
          "type": "address"
        },
        {
          "internalType": "address",
          "name": "p2",
          "type": "address"
        },
        {
          "internalType": "uint256",
          "name": "_value",
          "type": "uint256"
        }
      ],
      "name": "transferTo",
      "outputs": [],
      "stateMutability": "nonpayable",
      "type": "function"
    },
    {
      "inputs": [
        {
          "internalType": "address",
          "name": "_person",
          "type": "address"
        },
        {
          "internalType": "uint256",
          "name": "_value",
          "type": "uint256"
        }
      ],
      "name": "transferToShop",
      "outputs": [
        {
          "internalType": "bool",
          "name": "",
          "type": "bool"
        }
      ],
      "stateMutability": "nonpayable",
      "type": "function"
    },
    {
      "inputs": [],
      "name": "updateMaxIndex",
      "outputs": [],
      "stateMutability": "nonpayable",
      "type": "function"
    },
    {
      "inputs": [
        {
          "internalType": "uint8",
          "name": "level",
          "type": "uint8"
        }
      ],
      "name": "upgradeLand",
      "outputs": [],
      "stateMutability": "nonpayable",
      "type": "function"
    },
    {
      "inputs": [
        {
          "internalType": "address",
          "name": "_challenger",
          "type": "address"
        },
        {
          "internalType": "uint256",
          "name": "_challengerIndex",
          "type": "uint256"
        },
        {
          "internalType": "address",
          "name": "_defender",
          "type": "address"
        },
        {
          "internalType": "uint256",
          "name": "_defenderIndex",
          "type": "uint256"
        }
      ],
      "name": "fight",
      "outputs": [
        {
          "components": [
            {
              "internalType": "uint8",
              "name": "hp",
              "type": "uint8"
            },
            {
              "internalType": "uint8",
              "name": "atk",
              "type": "uint8"
            },
            {
              "internalType": "uint8",
              "name": "def",
              "type": "uint8"
            },
            {
              "internalType": "uint8",
              "name": "spd",
              "type": "uint8"
            },
            {
              "internalType": "uint32",
              "name": "petExperience",
              "type": "uint32"
            },
            {
              "internalType": "uint16",
              "name": "maxPropertiesTrough",
              "type": "uint16"
            },
            {
              "internalType": "uint8",
              "name": "fullDegree",
              "type": "uint8"
            },
            {
              "internalType": "uint256",
              "name": "zeroTime",
              "type": "uint256"
            }
          ],
          "internalType": "struct PetBase.PetPropertiesPacked",
          "name": "_winner",
          "type": "tuple"
        }
      ],
      "stateMutability": "nonpayable",
      "type": "function"
    },
    {
      "inputs": [
        {
          "internalType": "uint256",
          "name": "_tag",
          "type": "uint256"
        },
        {
          "internalType": "uint256",
          "name": "_petIndex",
          "type": "uint256"
        }
      ],
      "name": "feed",
      "outputs": [],
      "stateMutability": "nonpayable",
      "type": "function"
    },
    {
      "inputs": [
        {
          "internalType": "uint256",
          "name": "_petIndex",
          "type": "uint256"
        }
      ],
      "name": "decreaseHunger",
      "outputs": [
        {
          "internalType": "uint8",
          "name": "_hunger",
          "type": "uint8"
        }
      ],
      "stateMutability": "nonpayable",
      "type": "function"
    },
    {
      "inputs": [
        {
          "internalType": "uint256",
          "name": "_petIndex",
          "type": "uint256"
        }
      ],
      "name": "getZerTime",
      "outputs": [
        {
          "internalType": "uint256",
          "name": "_zeroTime",
          "type": "uint256"
        }
      ],
      "stateMutability": "nonpayable",
      "type": "function"
    }
  ],
  "bytecode": "0x6101a060405260006080908152600260a052600460c052600560e0526007610100526008610120526009610140819052600a610160819052610180526200004991600c9162000394565b50604051806101000160405280604051806080016040528060018152602001600019815260200160001981526020016001815250815260200160405180608001604052806001815260200160001981526020016000198152602001600181525081526020016040518060800160405280600181526020016000198152602001600181526020016000198152508152602001604051806080016040528060001981526020016001815260200160018152602001600019815250815260200160405180608001604052806000198152602001600181526020016000198152602001600181525081526020016040518060800160405280600019815260200160001981526020016001815260200160018152508152602001604051806080016040528060018152602001600081526020016000815260200160008152508152602001604051806080016040528060008152602001600081526020016000815260200160018152508152506011906008620001c292919062000441565b5060405180610180016040528061012c815260200161025881526020016107088152602001610e108152602001611c2081526020016146508152602001617080815260200161a8c0815260200162015180815260200162015180815260200162015180815260200162015180815250601290600c620002439291906200049b565b506040805161018081018252600a808252602082018190529181018290526060810182905260146080820181905260a0820152600f60c0820181905260e0820181905261010082018190526101208201819052610140820192909252610160810191909152620002b890601390600c620004d9565b5060408051608081018252612ee08152620493e06020820152625b8d8091810191909152627a12006060820152620002f59060149060046200051c565b503480156200030357600080fd5b5060405162006890380380620068908339810160408190526200032691620005bc565b600080546001600160a01b03191633908117825560405183928392918291907f8be0079c531659141344cd1fd0a4f28419497f9722a3daafe3b4186f6b6457e0908290a350600d80546001600160a01b0319166001600160a01b039290921691909117905550620005ec9050565b82805482825590600052602060002090601f016020900481019282156200042f5791602002820160005b83821115620003fe57835183826101000a81548160ff021916908360ff1602179055509260200192600101602081600001049283019260010302620003be565b80156200042d5782816101000a81549060ff0219169055600101602081600001049283019260010302620003fe565b505b506200043d92915062000561565b5090565b8280548282559060005260206000209081019282156200048d579160200282015b828111156200048d5782516200047c90839060046200049b565b509160200191906001019062000462565b506200043d92915062000578565b8280548282559060005260206000209081019282156200042f579160200282015b828111156200042f578251825591602001919060010190620004bc565b8280548282559060005260206000209081019282156200042f579160200282015b828111156200042f578251829060ff16905591602001919060010190620004fa565b8280548282559060005260206000209081019282156200042f579160200282015b828111156200042f578251829062ffffff169055916020019190600101906200053d565b5b808211156200043d576000815560010162000562565b808211156200043d5760006200058f828262000599565b5060010162000578565b5080546000825590600052602060002090810190620005b9919062000561565b50565b600060208284031215620005ce578081fd5b81516001600160a01b0381168114620005e5578182fd5b9392505050565b61629480620005fc6000396000f3fe60806040526004361061031a5760003560e01c80638d55953d116101ab578063cc39e721116100f7578063e0691cfe11610095578063f2c298be1161006f578063f2c298be14610a6e578063f2fde38b14610a8e578063f434d74814610aae578063fccadeef14610ace57600080fd5b8063e0691cfe14610a01578063e2a04b6214610a21578063e87cb06b14610a4157600080fd5b8063cea602a3116100d1578063cea602a31461097f578063d17caa3414610994578063db9b80e6146109c1578063dd6803c7146109e157600080fd5b8063cc39e72114610912578063cd4b691414610932578063ce43c0321461095257600080fd5b8063a762e9c411610164578063b60689c71161013e578063b60689c714610850578063b7bf0299146108a4578063bf73337d146108c4578063c8099513146108f257600080fd5b8063a762e9c4146107f0578063abeac80714610810578063afc186791461083057600080fd5b80638d55953d1461071e5780638da5cb5b1461073e57806393f8cccf14610770578063987a4184146107905780639b3e2787146107b0578063a5f2a152146107d057600080fd5b806347af13f91161026a57806370b5d4b811610223578063794ac79b116101fd578063794ac79b146106835780637da1618f146106bc57806389be4668146106dc5780638d2cb64f146106fc57600080fd5b806370b5d4b814610618578063715018a614610638578063717d55271461064d57600080fd5b806347af13f914610546578063593a5d51146105665780635975b2571461058657806362384508146105a65780636d6aa5bb146105c65780636e866ee7146105e657600080fd5b80632403e883116102d757806335911a17116102b157806335911a17146104b15780633b955fcb146104d15780633c4a29b6146104f15780633df918721461052657600080fd5b80632403e8831461041f5780632d8051f6146104715780633093b2f71461049157600080fd5b8063013fdb871461031f57806307e1373d14610352578063095ec7451461037f578063155b3904146103af5780631699a9fa146103c457806322a050d7146103ff575b600080fd5b34801561032b57600080fd5b5061033f61033a366004615981565b610aee565b6040519081526020015b60405180910390f35b34801561035e57600080fd5b5061037261036d366004615c91565b610cd2565b6040516103499190615f32565b34801561038b57600080fd5b5061039f61039a3660046159f6565b610da3565b6040519015158152602001610349565b6103c26103bd366004615c91565b610e16565b005b3480156103d057600080fd5b5061039f6103df366004615914565b600a60209081526000928352604080842090915290825290205460ff1681565b34801561040b57600080fd5b5061033f61041a366004615c91565b610f24565b34801561042b57600080fd5b506103c233600090815260076020819052604082208281556001810183905560028101839055600381018390556004810183905560058101839055600681018390550155565b34801561047d57600080fd5b5061033f61048c366004615ce5565b611016565b34801561049d57600080fd5b5061039f6104ac3660046158fa565b6110bc565b3480156104bd57600080fd5b506103c26104cc366004615b63565b61112f565b3480156104dd57600080fd5b5061039f6104ec366004615b63565b6111d5565b3480156104fd57600080fd5b5061051161050c366004615c91565b611299565b60408051928352901515602083015201610349565b34801561053257600080fd5b5061039f610541366004615914565b6114ae565b34801561055257600080fd5b506103c26105613660046159f6565b611558565b34801561057257600080fd5b506103c2610581366004615d06565b61159c565b34801561059257600080fd5b506103c26105a1366004615cc1565b611756565b3480156105b257600080fd5b5061039f6105c1366004615ac0565b61178d565b3480156105d257600080fd5b506103c26105e1366004615ce5565b611864565b3480156105f257600080fd5b50610606610601366004615c91565b6120a2565b60405160ff9091168152602001610349565b34801561062457600080fd5b506103c2610633366004615c91565b61235c565b34801561064457600080fd5b506103c26124cf565b34801561065957600080fd5b5061033f6106683660046158fa565b6001600160a01b031660009081526001602052604090205490565b34801561068f57600080fd5b506106a361069e366004615a62565b612573565b6040805160ff9093168352602083019190915201610349565b3480156106c857600080fd5b506106066106d73660046158fa565b612a99565b3480156106e857600080fd5b5061033f6106f7366004615c0d565b612b0c565b34801561070857600080fd5b50610711612b95565b6040516103499190615df7565b34801561072a57600080fd5b50610372610739366004615c91565b612ca4565b34801561074a57600080fd5b506000546001600160a01b03165b6040516001600160a01b039091168152602001610349565b34801561077c57600080fd5b5061033f61078b366004615c28565b612cd1565b34801561079c57600080fd5b5061039f6107ab366004615ce5565b612d41565b3480156107bc57600080fd5b506107586107cb3660046159f6565b612d64565b3480156107dc57600080fd5b506103c26107eb366004615946565b612d9c565b3480156107fc57600080fd5b5061039f61080b3660046159aa565b612e11565b34801561081c57600080fd5b5061039f61082b3660046158fa565b613019565b34801561083c57600080fd5b506103c261084b366004615c91565b6131f5565b34801561085c57600080fd5b506103c261086b366004615914565b6001600160a01b039182166000908152600a602090815260408083209390941682529190915220805460ff81161560ff19909116179055565b3480156108b057600080fd5b5061039f6108bf366004615b63565b613661565b3480156108d057600080fd5b506108e46108df3660046159f6565b613796565b604051610349929190615e88565b3480156108fe57600080fd5b5061037261090d366004615c67565b613868565b34801561091e57600080fd5b506103c261092d366004615cc1565b613a3b565b34801561093e57600080fd5b5061033f61094d366004615c91565b613a6d565b34801561095e57600080fd5b5061097261096d3660046158fa565b613b06565b6040516103499190615e75565b34801561098b57600080fd5b5061033f613c09565b3480156109a057600080fd5b506109b46109af366004615a1f565b613cf4565b6040516103499190615eb2565b3480156109cd57600080fd5b5061033f6109dc366004615c91565b613ff0565b3480156109ed57600080fd5b5061039f6109fc366004615ac0565b6141bb565b348015610a0d57600080fd5b5061033f610a1c366004615c0d565b61455f565b348015610a2d57600080fd5b50610972610a3c3660046158fa565b61456b565b348015610a4d57600080fd5b50610a61610a5c366004615d20565b614605565b6040516103499190615da1565b348015610a7a57600080fd5b506103c2610a89366004615b63565b6146be565b348015610a9a57600080fd5b506103c2610aa93660046158fa565b6147f3565b348015610aba57600080fd5b50610606610ac9366004615a62565b61490d565b348015610ada57600080fd5b5061033f610ae9366004615ce5565b614b77565b60008060005b6001600160a01b0385166000908152600760205260409020846002811115610b2c57634e487b7160e01b600052602160045260246000fd5b60ff1660088110610b4d57634e487b7160e01b600052603260045260246000fd5b0154811015610bf3576001600160a01b038516600090815260066020526040812090856002811115610b8f57634e487b7160e01b600052602160045260246000fd5b6002811115610bae57634e487b7160e01b600052602160045260246000fd5b815260208082019290925260409081016000908120848252909252902054600160281b900463ffffffff16610be1578091505b80610beb816161bf565b915050610af4565b5080158015610c5e57506001600160a01b0384166000908152600760205260409020603190846002811115610c3857634e487b7160e01b600052602160045260246000fd5b60ff1660088110610c5957634e487b7160e01b600052603260045260246000fd5b015411155b15610cc6576001600160a01b0384166000908152600760205260409020836002811115610c9b57634e487b7160e01b600052602160045260246000fd5b60ff1660088110610cbc57634e487b7160e01b600052603260045260246000fd5b0154915050610ccc565b60329150505b92915050565b610cda615618565b81611000811115610ce95760051b5b610cf1615618565b610cfc6008836161fa565b60ff166080820152610d0f6008836161fa565b60ff166060820152610d226008836161fa565b60ff166040820152610d356010836161fa565b60ff16600b811115610d5757634e487b7160e01b600052602160045260246000fd5b8190600b811115610d7857634e487b7160e01b600052602160045260246000fd5b9081600b811115610d9957634e487b7160e01b600052602160045260246000fd5b9052509392505050565b6001600160a01b038216600090815260016020526040812054821115610dcb57506000610ccc565b6001600160a01b038316600090815260016020526040902054610def9083906160e6565b6001600160a01b038416600090815260016020819052604090912091909155905092915050565b6002546040516323b872dd60e01b8152336004820152306024820152604481018390526000916001600160a01b0316906323b872dd90606401602060405180830381600087803b158015610e6957600080fd5b505af1158015610e7d573d6000803e3d6000fd5b505050506040513d601f19601f82011682018060405250810190610ea19190615aa4565b905080610ee75760405162461bcd60e51b815260206004820152600f60248201526e149958da185c99d94819985a5b1959608a1b60448201526064015b60405180910390fd5b610ef6645d21dba0008361603a565b33600090815260016020526040902054610f109190615fd5565b336000908152600160205260409020555050565b336000908152600b60205260408120805483908110610f5357634e487b7160e01b600052603260045260246000fd5b6000918252602090912060029091020154610f7a90600160501b900460ff16610168616070565b610f889061ffff1642615fd5565b336000908152600b60205260409020805484908110610fb757634e487b7160e01b600052603260045260246000fd5b6000918252602080832060016002909302019190910192909255338152600b90915260409020805483908110610ffd57634e487b7160e01b600052603260045260246000fd5b9060005260206000209060020201600101549050919050565b600d5460405163261e906160e21b8152600a6004820152601460248201526000916001600160a01b03169063987a41849060440160206040518083038186803b15801561106257600080fd5b505afa158015611076573d6000803e3d6000fd5b505050506040513d601f19601f8201168201806040525081019061109a9190615aa4565b156110af576110a883613ff0565b9050610ccc565b6110a86109dc8484614b77565b600080805b60035481101561112857836001600160a01b0316600382815481106110f657634e487b7160e01b600052603260045260246000fd5b6000918252602090912001546001600160a01b0316141561111657600191505b80611120816161bf565b9150506110c1565b5092915050565b600380546001810182556000919091527fc2575a0e9e593c00f959f8c92f12db2869c3395a3b0502d05e2516446f71f85b0180546001600160a01b03191633908117909155604051600490611185908490615d85565b908152604080516020928190038301902080546001600160a01b0319166001600160a01b039490941693909317909255336000908152600582529190912082516111d192840190615648565b5050565b60006111e082614b8f565b61128c5760038054600181019091557fc2575a0e9e593c00f959f8c92f12db2869c3395a3b0502d05e2516446f71f85b0180546001600160a01b031916339081179091556000908152600560209081526040909120835161124392850190615648565b50336004836040516112559190615d85565b90815260405190819003602001902080546001600160a01b03929092166001600160a01b0319909216919091179055506001919050565b506000919050565b919050565b600080601183901c600881106112cb5760405162461bcd60e51b81526020600482015260006024820152604401610ede565b600384901c60006112dd6004836161fa565b905060006112ea83610cd2565b90506112f68183613868565b90506000826003141561138e57600d5460405163261e906160e21b815260056004820152606460248201526001600160a01b039091169063987a4184906044015b60206040518083038186803b15801561134f57600080fd5b505afa158015611363573d6000803e3d6000fd5b505050506040513d601f19601f820116820180604052508101906113879190615aa4565b9050611498565b82600214156113cf57600d5460405163261e906160e21b815260016004820152605f60248201526001600160a01b039091169063987a418490604401611337565b826001141561141157600d5460405163261e906160e21b8152600560048201526103ac60248201526001600160a01b039091169063987a418490604401611337565b600d5460405163261e906160e21b8152600160048201526103a760248201526001600160a01b039091169063987a41849060440160206040518083038186803b15801561145d57600080fd5b505afa158015611471573d6000803e3d6000fd5b505050506040513d601f19601f820116820180604052508101906114959190615aa4565b90505b6114a18261455f565b9890975095505050505050565b6000805b6001600160a01b03841660009081526008602052604090205481101561154e576001600160a01b0384811660009081526008602052604090208054918516918390811061150f57634e487b7160e01b600052603260045260246000fd5b60009182526020909120600160029092020101546001600160a01b0316141561153c576001915050610ccc565b80611546816161bf565b9150506114b2565b5060009392505050565b6001600160a01b03821660009081526001602052604090205461157c908290615fd5565b6001600160a01b0390921660009081526001602052604090209190915550565b8060ff166115a933612a99565b60ff1610156115b757600080fd5b8060ff1660011461168e57600d546001600160a01b031663095ec7453360146115e160028661611a565b60ff168154811061160257634e487b7160e01b600052603260045260246000fd5b6000918252602090912001546040516001600160e01b031960e085901b1681526001600160a01b0390921660048301526024820152604401602060405180830381600087803b15801561165457600080fd5b505af1158015611668573d6000803e3d6000fd5b505050506040513d601f19601f8201168201806040525081019061168c9190615aa4565b505b60005b61169c826001616015565b60ff168160ff1610156111d15760005b6116b7836001616015565b60ff168160ff1610156117435733600090815260106020526040902060019060ff8416600681106116f857634e487b7160e01b600052603260045260246000fd5b602402018260ff166006811061171e57634e487b7160e01b600052603260045260246000fd5b60060201805460ff19169115159190911790558061173b816161da565b9150506116ac565b508061174e816161da565b915050611691565b6040805160608101825263ffffffff858116602083015260018252831691810191909152611786600084836141bb565b5050505050565b6001600160a01b03821660009081526006602052604081208290828660028111156117c857634e487b7160e01b600052602160045260246000fd5b60028111156117e757634e487b7160e01b600052602160045260246000fd5b8152602080820192909252604090810160009081206001808352908452908290208451815494860151959093015164ffffffffff1990941692151564ffffffff0019169290921761010063ffffffff958616021768ffffffff00000000001916600160281b949093169390930291909117905590505b9392505050565b61186f6008836161fa565b600214156119af57336000908152600b60205260409020805460199190839081106118aa57634e487b7160e01b600052603260045260246000fd5b600091825260209091206002909102018054600a906118d4908490600160501b900460ff16616015565b92506101000a81548160ff021916908360ff160217905550611953600b6000336001600160a01b03166001600160a01b03168152602001908152602001600020828154811061193357634e487b7160e01b600052603260045260246000fd5b6000918252602090912060029091020154600160501b900460ff16614bd1565b336000908152600b6020526040902080548390811061198257634e487b7160e01b600052603260045260246000fd5b9060005260206000209060020201600001600a6101000a81548160ff021916908360ff1602179055505050565b60006119ba83612ca4565b905060088160000151600b8111156119e257634e487b7160e01b600052602160045260246000fd5b60ff161015611e4b57602080820151336000908152600b9092526040909120805484908110611a2157634e487b7160e01b600052603260045260246000fd5b6000918252602082206002909102018054909190611a4390849060ff16616015565b92506101000a81548160ff021916908360ff1602179055508060400151600b6000336001600160a01b03166001600160a01b031681526020019081526020016000208381548110611aa457634e487b7160e01b600052603260045260246000fd5b600091825260209091206002909102018054600190611acc908490610100900460ff16616015565b92506101000a81548160ff021916908360ff1602179055508060600151600b6000336001600160a01b03166001600160a01b031681526020019081526020016000208381548110611b2d57634e487b7160e01b600052603260045260246000fd5b906000526020600020906002020160000160028282829054906101000a900460ff16611b599190616015565b92506101000a81548160ff021916908360ff1602179055508060800151600b6000336001600160a01b03166001600160a01b031681526020019081526020016000208381548110611bba57634e487b7160e01b600052603260045260246000fd5b600091825260209091206002909102018054600390611be49084906301000000900460ff16616015565b92506101000a81548160ff021916908360ff160217905550600c8160800151826060015183604001518460200151611c1c9190616015565b611c269190616015565b611c309190616015565b60ff1681548110611c5157634e487b7160e01b600052603260045260246000fd5b600091825260208083208183040154338452600b90915260409092208054601f9092166101000a90920460ff16919084908110611c9e57634e487b7160e01b600052603260045260246000fd5b600091825260209091206002909102018054600890611cc9908490600160401b900461ffff166160c3565b92506101000a81548161ffff021916908361ffff16021790555060138160000151600b811115611d0957634e487b7160e01b600052602160045260246000fd5b60ff1681548110611d2a57634e487b7160e01b600052603260045260246000fd5b6000918252602080832090910154338352600b9091526040909120805484908110611d6557634e487b7160e01b600052603260045260246000fd5b600091825260209091206002909102018054600a90611d8f908490600160501b900460ff16616015565b92506101000a81548160ff021916908360ff160217905550611dee600b6000336001600160a01b03166001600160a01b03168152602001908152602001600020838154811061193357634e487b7160e01b600052603260045260246000fd5b336000908152600b60205260409020805484908110611e1d57634e487b7160e01b600052603260045260246000fd5b9060005260206000209060020201600001600a6101000a81548160ff021916908360ff160217905550505050565b602080820151336000908152600b9092526040909120805484908110611e8157634e487b7160e01b600052603260045260246000fd5b6000918252602082206002909102018054909190611ea390849060ff16616015565b92506101000a81548160ff021916908360ff1602179055508060400151600b6000336001600160a01b03166001600160a01b031681526020019081526020016000208381548110611f0457634e487b7160e01b600052603260045260246000fd5b600091825260209091206002909102018054600190611f2c908490610100900460ff16616015565b92506101000a81548160ff021916908360ff1602179055508060600151600b6000336001600160a01b03166001600160a01b031681526020019081526020016000208381548110611f8d57634e487b7160e01b600052603260045260246000fd5b906000526020600020906002020160000160028282829054906101000a900460ff16611fb99190616015565b92506101000a81548160ff021916908360ff1602179055508060800151600b6000336001600160a01b03166001600160a01b03168152602001908152602001600020838154811061201a57634e487b7160e01b600052603260045260246000fd5b6000918252602090912060029091020180546003906120449084906301000000900460ff16616015565b92506101000a81548160ff021916908360ff1602179055506001600b6000336001600160a01b03166001600160a01b031681526020019081526020016000208381548110611c9e57634e487b7160e01b600052603260045260246000fd5b336000908152600b602052604081208054829190849081106120d457634e487b7160e01b600052603260045260246000fd5b6000918252602090912060029091020154600160501b900460ff1611801561213e5750336000908152600b6020526040902080544291908490811061212957634e487b7160e01b600052603260045260246000fd5b90600052602060002090600202016001015410155b156122b357336000908152600b6020526040902080546101689142918590811061217857634e487b7160e01b600052603260045260246000fd5b90600052602060002090600202016001015461219491906160e6565b61219e919061603a565b336000908152600b602052604090208054849081106121cd57634e487b7160e01b600052603260045260246000fd5b600091825260209091206002909102018054600a906121f7908490600160501b900460ff1661611a565b92506101000a81548160ff021916908360ff160217905550612256600b6000336001600160a01b03166001600160a01b03168152602001908152602001600020838154811061193357634e487b7160e01b600052603260045260246000fd5b336000908152600b6020526040902080548490811061228557634e487b7160e01b600052603260045260246000fd5b9060005260206000209060020201600001600a6101000a81548160ff021916908360ff16021790555061230c565b336000908152600b602052604081208054849081106122e257634e487b7160e01b600052603260045260246000fd5b9060005260206000209060020201600001600a6101000a81548160ff021916908360ff1602179055505b336000908152600b6020526040902080548390811061233b57634e487b7160e01b600052603260045260246000fd5b6000918252602090912060029091020154600160501b900460ff1692915050565b805b336000908152600960205260409020548110156124645733600090815260096020526040902061238f826001615fd5565b815481106123ad57634e487b7160e01b600052603260045260246000fd5b906000526020600020906002020160096000336001600160a01b03166001600160a01b0316815260200190815260200160002082815481106123ff57634e487b7160e01b600052603260045260246000fd5b906000526020600020906002020160008201816000019080546124219061618a565b61242c9291906156c8565b50600191820154910180546001600160a01b0319166001600160a01b039092169190911790558061245c816161bf565b91505061235e565b503360009081526009602052604090208054612482906001906160e6565b815481106124a057634e487b7160e01b600052603260045260246000fd5b600091825260208220600290910201906124ba8282615743565b5060010180546001600160a01b031916905550565b6000546001600160a01b031633146125295760405162461bcd60e51b815260206004820181905260248201527f4f776e61626c653a2063616c6c6572206973206e6f7420746865206f776e65726044820152606401610ede565b600080546040516001600160a01b03909116907f8be0079c531659141344cd1fd0a4f28419497f9722a3daafe3b4186f6b6457e0908390a3600080546001600160a01b0319169055565b6001600160a01b03831660009081526010602052604081208190819060119060ff8716600681106125b457634e487b7160e01b600052603260045260246000fd5b602402018560ff16600681106125da57634e487b7160e01b600052603260045260246000fd5b6006020160010154901c905060008060058660ff1610801561267257506001600160a01b0388166000908152601060205260409020839060119060ff8a166006811061263657634e487b7160e01b600052603260045260246000fd5b60240201612645896001616015565b60ff166006811061266657634e487b7160e01b600052603260045260246000fd5b6006020160010154901c145b80156126ef57506001600160a01b038816600090815260106020526040902060ff8816600681106126b357634e487b7160e01b600052603260045260246000fd5b602402016126c2876001616015565b60ff16600681106126e357634e487b7160e01b600052603260045260246000fd5b60060201600301544210155b1561271257612702600183811b90615fd5565b91508061270e816161da565b9150505b60008660ff1611801561279b57506001600160a01b0388166000908152601060205260409020839060119060ff8a166006811061275f57634e487b7160e01b600052603260045260246000fd5b6024020161276e60018a61611a565b60ff166006811061278f57634e487b7160e01b600052603260045260246000fd5b6006020160010154901c145b801561281857506001600160a01b038816600090815260106020526040902060ff8816600681106127dc57634e487b7160e01b600052603260045260246000fd5b602402016127eb60018861611a565b60ff166006811061280c57634e487b7160e01b600052603260045260246000fd5b60060201600301544210155b1561283b5761282b600183811b90615fd5565b915080612837816161da565b9150505b60008760ff161180156128c457506001600160a01b0388166000908152601060205260409020839060119061287160018b61611a565b60ff166006811061289257634e487b7160e01b600052603260045260246000fd5b602402018860ff16600681106128b857634e487b7160e01b600052603260045260246000fd5b6006020160010154901c145b801561294157506001600160a01b03881660009081526010602052604090206128ee60018961611a565b60ff166006811061290f57634e487b7160e01b600052603260045260246000fd5b602402018660ff166006811061293557634e487b7160e01b600052603260045260246000fd5b60060201600301544210155b1561296457612954600183811b90615fd5565b915080612960816161da565b9150505b60058760ff161080156129ed57506001600160a01b0388166000908152601060205260409020839060119061299a8a6001616015565b60ff16600681106129bb57634e487b7160e01b600052603260045260246000fd5b602402018860ff16600681106129e157634e487b7160e01b600052603260045260246000fd5b6006020160010154901c145b8015612a6a57506001600160a01b0388166000908152601060205260409020612a17886001616015565b60ff1660068110612a3857634e487b7160e01b600052603260045260246000fd5b602402018660ff1660068110612a5e57634e487b7160e01b600052603260045260246000fd5b60060201600301544210155b15612a8d57612a7d600183811b90615fd5565b915080612a89816161da565b9150505b97909650945050505050565b6001600160a01b0381166000908152600e602052604081205481906101f4811015612ac75760019150611128565b611f40811015612ada5760029150611128565b6201d4c0811015612aee5760039150611128565b6207a120811015612b025760049150611128565b5060059392505050565b600080600d8360000151600b811115612b3557634e487b7160e01b600052602160045260246000fd5b60ff16901b6009846020015160ff16901b6006856040015160ff16901b6003866060015160ff16901b8660800151612b6d9190616015565b612b779190616015565b612b819190616015565b612b8b9190616015565b60ff169392505050565b336000908152600860209081526040808320805482518185028101850190935280835260609492939192909184015b82821015612c9b5783829060005260206000209060020201604051806040016040529081600082018054612bf79061618a565b80601f0160208091040260200160405190810160405280929190818152602001828054612c239061618a565b8015612c705780601f10612c4557610100808354040283529160200191612c70565b820191906000526020600020905b815481529060010190602001808311612c5357829003601f168201915b50505091835250506001918201546001600160a01b0316602091820152918352929092019101612bc4565b50505050905090565b612cac615618565b6002612cb96008846161fa565b1115612cc457600080fd5b610ccc600583901c610cd2565b600080826002811115612cf457634e487b7160e01b600052602160045260246000fd5b6003856003811115612d1657634e487b7160e01b600052602160045260246000fd5b901b6005612d2388612b0c565b612d2e92911b615fd5565b612d389190615fd5565b95945050505050565b600082612d4d83613a6d565b1015612d5b57506001610ccc565b50600092915050565b600f6020528160005260406000208181548110612d8057600080fd5b6000918252602090912001546001600160a01b03169150829050565b6001600160a01b038316600090815260016020526040902054612dc09082906160e6565b6001600160a01b038085166000908152600160205260408082209390935590841681522054612df0908290615fd5565b6001600160a01b039092166000908152600160205260409020919091555050565b6000805b603281101561300b576001600160a01b03861660009081526006602052604081208591876002811115612e5857634e487b7160e01b600052602160045260246000fd5b6002811115612e7757634e487b7160e01b600052602160045260246000fd5b815260208082019290925260409081016000908120858252909252902054610100900463ffffffff161415612ff9576001600160a01b038616600090815260066020526040812090866002811115612edf57634e487b7160e01b600052602160045260246000fd5b6002811115612efe57634e487b7160e01b600052602160045260246000fd5b81526020808201929092526040908101600090812084825290925290205463ffffffff600160281b90910481169084161115612f3e576000915050613011565b6001600160a01b03861660009081526006602052604081208491876002811115612f7857634e487b7160e01b600052602160045260246000fd5b6002811115612f9757634e487b7160e01b600052602160045260246000fd5b81526020808201929092526040908101600090812085825290925290208054600590612fd1908490600160281b900463ffffffff166160fd565b92506101000a81548163ffffffff021916908363ffffffff1602179055506001915050613011565b80613003816161bf565b915050612e15565b50600090505b949350505050565b6001600160a01b038116600090815260056020526040812080546130c491906130419061618a565b80601f016020809104026020016040519081016040528092919081815260200182805461306d9061618a565b80156130ba5780601f1061308f576101008083540402835291602001916130ba565b820191906000526020600020905b81548152906001019060200180831161309d57829003601f168201915b5050505050614b8f565b6130d057506000919050565b604080518082018252606081523360208083018290526000918252600590529190912080546130fe9061618a565b80601f016020809104026020016040519081016040528092919081815260200182805461312a9061618a565b80156131775780601f1061314c57610100808354040283529160200191613177565b820191906000526020600020905b81548152906001019060200180831161315a57829003601f168201915b50505091835250506001600160a01b03831660009081526009602090815260408220805460018101825590835291819020835180518594600202909201926131c492849290910190615648565b5060209190910151600191820180546001600160a01b0319166001600160a01b039092169190911790559392505050565b60408051808201909152606081526000602082015233600090815260096020526040902080548390811061323957634e487b7160e01b600052603260045260246000fd5b906000526020600020906002020160000180546132559061618a565b80601f01602080910402602001604051908101604052809291908181526020018280546132819061618a565b80156132ce5780601f106132a3576101008083540402835291602001916132ce565b820191906000526020600020905b8154815290600101906020018083116132b157829003601f168201915b505050918352505033600090815260096020526040902080548390811061330557634e487b7160e01b600052603260045260246000fd5b600091825260208083206002928302016001908101546001600160a01b0316858301523384526008825260408420805491820181558452928190208451805186959094029091019261335a9284920190615648565b5060209182015160019190910180546001600160a01b0319166001600160a01b039092169190911790556040805180820182526060815260008184018190523381526005909352912080546133ae9061618a565b80601f01602080910402602001604051908101604052809291908181526020018280546133da9061618a565b80156134275780601f106133fc57610100808354040283529160200191613427565b820191906000526020600020905b81548152906001019060200180831161340a57829003601f168201915b505050918352505033602080830182905260009182526009905260408120805460089291908690811061346a57634e487b7160e01b600052603260045260246000fd5b600091825260208083206002928302016001908101546001600160a01b03168552848201959095526040909301822080549485018155825290829020845180518695909302909101926134c292849290910190615648565b5060209190910151600190910180546001600160a01b0319166001600160a01b03909216919091179055825b336000908152600960205260409020548110156135f45733600090815260096020526040902061351f826001615fd5565b8154811061353d57634e487b7160e01b600052603260045260246000fd5b906000526020600020906002020160096000336001600160a01b03166001600160a01b03168152602001908152602001600020828154811061358f57634e487b7160e01b600052603260045260246000fd5b906000526020600020906002020160008201816000019080546135b19061618a565b6135bc9291906156c8565b50600191820154910180546001600160a01b0319166001600160a01b03909216919091179055806135ec816161bf565b9150506134ee565b503360009081526009602052604090208054613612906001906160e6565b8154811061363057634e487b7160e01b600052603260045260246000fd5b6000918252602082206002909102019061364a8282615743565b5060010180546001600160a01b0319169055505050565b600061366c82614b8f565b61367857506000919050565b604080518082018252606081523360208083018290526000918252600590529190912080546136a69061618a565b80601f01602080910402602001604051908101604052809291908181526020018280546136d29061618a565b801561371f5780601f106136f45761010080835404028352916020019161371f565b820191906000526020600020905b81548152906001019060200180831161370257829003601f168201915b505050918352505060405160099060009060049061373e908790615d85565b9081526040805160209281900383019020546001600160a01b0316835282820193909352910160009081208054600181018255908252908290208351805185946002909402909201926131c492849290910190615648565b600860205281600052604060002081815481106137b257600080fd5b9060005260206000209060020201600091509150508060000180546137d69061618a565b80601f01602080910402602001604051908101604052809291908181526020018280546138029061618a565b801561384f5780601f106138245761010080835404028352916020019161384f565b820191906000526020600020905b81548152906001019060200180831161383257829003601f168201915b505050600190930154919250506001600160a01b031682565b613870615618565b600d5460405163261e906160e21b815260026004820152600a60248201526001600160a01b039091169063987a41849060440160206040518083038186803b1580156138bb57600080fd5b505afa1580156138cf573d6000803e3d6000fd5b505050506040513d601f19601f820116820180604052508101906138f39190615aa4565b156139045761390183614bf8565b92505b61390d83614c8c565b508160031415613920576110a883614ef6565b81600214156139c257600d5460405163261e906160e21b815260326004820152606460248201526001600160a01b039091169063987a4184906044015b60206040518083038186803b15801561397557600080fd5b505afa158015613989573d6000803e3d6000fd5b505050506040513d601f19601f820116820180604052508101906139ad9190615aa4565b156139bb576110a883614ef6565b5081610ccc565b8160011415613a0357600d5460405163261e906160e21b8152601e6004820152606460248201526001600160a01b039091169063987a41849060440161395d565b600d5460405163261e906160e21b8152600a6004820152606460248201526001600160a01b039091169063987a41849060440161395d565b6040805160608101825263ffffffff8581166020830152600180835290841692820192909252906117869084836141bb565b600081335a444345604051602001613a8791815260200190565b60405160208183030381529060405280519060200120604051602001613ae395949392919060609590951b6bffffffffffffffffffffffff19168552601485019390935260348401919091526054830152607482015260940190565b6040516020818303038152906040528051906020012060001c610ccc91906161fa565b6001600160a01b038116600090815260056020526040812080546060929190613b2e9061618a565b80601f0160208091040260200160405190810160405280929190818152602001828054613b5a9061618a565b8015613ba75780601f10613b7c57610100808354040283529160200191613ba7565b820191906000526020600020905b815481529060010190602001808311613b8a57829003601f168201915b50505050509050613bc781604051806020016040528060008152506151ec565b15610ccc5760405162461bcd60e51b81526020600482015260126024820152711554d15497d393d5149151d254d51154915160721b6044820152606401610ede565b6000613c13615618565b600d54604051633352da4560e21b81526004808201526000916001600160a01b03169063cd4b69149060240160206040518083038186803b158015613c5757600080fd5b505afa158015613c6b573d6000803e3d6000fd5b505050506040513d601f19601f82011682018060405250810190613c8f9190615ca9565b905080613ca6576008825260056020830152613ce4565b8060011415613cbf576009825260056040830152613ce4565b8060021415613cd857600a825260056060830152613ce4565b600b8252600560808301525b613ced8261455f565b9250505090565b613cfc615780565b6001600160a01b0385166000908152600b602052604081208054613dcd919087908110613d3957634e487b7160e01b600052603260045260246000fd5b60009182526020918290206040805161010080820183526002909402909201805460ff8082168552948104851695840195909552620100008504841691830191909152630100000084048316606083015263ffffffff640100000000850416608083015261ffff600160401b85041660a0830152600160501b90930490911660c082015260019091015460e0820152615245565b90506000613e18600b6000876001600160a01b03166001600160a01b031681526020019081526020016000208581548110613d3957634e487b7160e01b600052603260045260246000fd5b90506000816060015160ff16836060015160ff161115613e4d5781606001518360600151613e46919061604e565b9050613e64565b82606001518260600151613e61919061604e565b90505b816060015160ff16836060015160ff1610613f3a5760015b8160ff168111613ee6576040830151613e96906064616015565b8360400151613ea5919061604e565b613eb090600161611a565b8460200151613ebf919061609a565b83518490613ece90839061611a565b60ff1690525080613ede816161bf565b915050613e7c565b506040830151613ef7906064616015565b8360400151613f06919061604e565b613f1190600161611a565b8260200151613f20919061609a565b83518490613f2f90839061611a565b60ff16905250613e64565b60015b8160ff168111613fa7576040840151613f57906064616015565b8460400151613f66919061604e565b613f7190600161611a565b8360200151613f80919061609a565b84518590613f8f90839061611a565b60ff1690525080613f9f816161bf565b915050613f3d565b506040820151613fb8906064616015565b8260400151613fc7919061604e565b613fd290600161611a565b8360200151613fe1919061609a565b82518390613f2f90839061611a565b600080613ffc83612ca4565b600d5460405163261e906160e21b815260016004820152606460248201529192506000916001600160a01b039091169063987a41849060440160206040518083038186803b15801561404d57600080fd5b505afa158015614061573d6000803e3d6000fd5b505050506040513d601f19601f820116820180604052508101906140859190615aa4565b156140945760035b90506141af565b600d5460405163261e906160e21b815260056004820152606360248201526001600160a01b039091169063987a41849060440160206040518083038186803b1580156140df57600080fd5b505afa1580156140f3573d6000803e3d6000fd5b505050506040513d601f19601f820116820180604052508101906141179190615aa4565b1561412357600261408d565b600d5460405163261e906160e21b8152600a6004820152605e60248201526001600160a01b039091169063987a41849060440160206040518083038186803b15801561416e57600080fd5b505afa158015614182573d6000803e3d6000fd5b505050506040513d601f19601f820116820180604052508101906141a69190615aa4565b156141af575060015b61301182826001612cd1565b6000805b6001600160a01b03841660009081526007602052604090208560028111156141f757634e487b7160e01b600052602160045260246000fd5b60ff166008811061421857634e487b7160e01b600052603260045260246000fd5b0154811015614388576020808401516001600160a01b038616600090815260069092526040822063ffffffff9091169187600281111561426857634e487b7160e01b600052602160045260246000fd5b600281111561428757634e487b7160e01b600052602160045260246000fd5b815260208082019290925260409081016000908120858252909252902054610100900463ffffffff161415614376576040808401516001600160a01b0386166000908152600660205291822090918760028111156142f557634e487b7160e01b600052602160045260246000fd5b600281111561431457634e487b7160e01b600052602160045260246000fd5b8152602080820192909252604090810160009081208582529092529020805460059061434e908490600160281b900463ffffffff16615fed565b92506101000a81548163ffffffff021916908363ffffffff160217905550600191505061185d565b80614380816161bf565b9150506141bf565b506143938385610aee565b603214156143a35750600061185d565b6001600160a01b038316600090815260066020526040812083918660028111156143dd57634e487b7160e01b600052602160045260246000fd5b60028111156143fc57634e487b7160e01b600052602160045260246000fd5b815260200190815260200160002060006144168688610aee565b81526020808201929092526040908101600090812084518154868601519685015164ffffffffff1990911691151564ffffffff0019169190911761010063ffffffff978816021768ffffffff00000000001916600160281b9690911695909502949094179093556001600160a01b0386168352600790915290208460028111156144b057634e487b7160e01b600052602160045260246000fd5b60ff16600881106144d157634e487b7160e01b600052603260045260246000fd5b01546144dd8486610aee565b1415614555576001600160a01b038316600090815260076020526040902060019085600281111561451e57634e487b7160e01b600052602160045260246000fd5b60ff166008811061453f57634e487b7160e01b600052603260045260246000fd5b01600082825461454f9190615fd5565b90915550505b5060019392505050565b60008061185d83612b0c565b600560205260009081526040902080546145849061618a565b80601f01602080910402602001604051908101604052809291908181526020018280546145b09061618a565b80156145fd5780601f106145d2576101008083540402835291602001916145fd565b820191906000526020600020905b8154815290600101906020018083116145e057829003601f168201915b505050505081565b61460d6157c4565b816001600160a01b0316836001600160a01b0316148061465257506001600160a01b038083166000908152600a602090815260408083209387168352929052205460ff165b6146925760405162461bcd60e51b81526020600482015260116024820152701c195c9b5a5cdcda5bdb8819195b9a5959607a1b6044820152606401610ede565b6130118460ff1660028111156146b857634e487b7160e01b600052602160045260246000fd5b836152ef565b600d546040516335911a1760e01b81526001600160a01b03909116906335911a17906146ee908490600401615e75565b600060405180830381600087803b15801561470857600080fd5b505af115801561471c573d6000803e3d6000fd5b5050505061472a600161159c565b600d546040516347af13f960e01b81523360048201526103e860248201526001600160a01b03909116906347af13f990604401600060405180830381600087803b15801561477757600080fd5b505af115801561478b573d6000803e3d6000fd5b50505050600d60009054906101000a90046001600160a01b03166001600160a01b0316632403e8836040518163ffffffff1660e01b8152600401600060405180830381600087803b1580156147df57600080fd5b505af1158015611786573d6000803e3d6000fd5b6000546001600160a01b0316331461484d5760405162461bcd60e51b815260206004820181905260248201527f4f776e61626c653a2063616c6c6572206973206e6f7420746865206f776e65726044820152606401610ede565b6001600160a01b0381166148b25760405162461bcd60e51b815260206004820152602660248201527f4f776e61626c653a206e6577206f776e657220697320746865207a65726f206160448201526564647265737360d01b6064820152608401610ede565b600080546040516001600160a01b03808516939216917f8be0079c531659141344cd1fd0a4f28419497f9722a3daafe3b4186f6b6457e091a3600080546001600160a01b0319166001600160a01b0392909216919091179055565b60008060008061491e878787612573565b909350915060ff8316614937576000935050505061185d565b600d54604051633352da4560e21b815260ff851660048201526000916001600160a01b03169063cd4b69149060240160206040518083038186803b15801561497e57600080fd5b505afa158015614992573d6000803e3d6000fd5b505050506040513d601f19601f820116820180604052508101906149b69190615ca9565b905060606149c56002856161fa565b60011415614a12576004818460ff16815181106149f257634e487b7160e01b600052603260045260246000fd5b60ff9092166020928302919091019091015282614a0e816161da565b9350505b614a1d60028561603a565b9350614a2a6002856161fa565b60011415614a77576003818460ff1681518110614a5757634e487b7160e01b600052603260045260246000fd5b60ff9092166020928302919091019091015282614a73816161da565b9350505b614a8260028561603a565b9350614a8f6002856161fa565b60011415614adc576002818460ff1681518110614abc57634e487b7160e01b600052603260045260246000fd5b60ff9092166020928302919091019091015282614ad8816161da565b9350505b614ae760028561603a565b9350614af46002856161fa565b60011415614b41576001818460ff1681518110614b2157634e487b7160e01b600052603260045260246000fd5b60ff9092166020928302919091019091015282614b3d816161da565b9350505b808281518110614b6157634e487b7160e01b600052603260045260246000fd5b6020026020010151955050505050509392505050565b60006002614b858385615fd5565b61185d919061603a565b6000806001600160a01b0316600483604051614bab9190615d85565b908152604051908190036020019020546001600160a01b03161461128c57506001919050565b600060648260ff161115614bf457614bea60648361611a565b610ccc908361611a565b5090565b614c00615618565b614c086154f4565b8260200151614c179190615f95565b60ff166020830152614c276154f4565b8260400151614c369190615f95565b60ff166040830152614c466154f4565b8260600151614c559190615f95565b60ff166060830152614c656154f4565b8260800151614c749190615f95565b60ff166080830152614c8582614c8c565b5090919050565b614c94615618565b6006826020015160ff161115614cac57600060208301525b6006826040015160ff161115614cc457600060408301525b6006826060015160ff161115614cdc57600060608301525b6006826080015160ff161115614cf457600060808301525b816020015160ff1660061415614d1b5760208201805190614d148261616d565b60ff169052505b816040015160ff1660061415614d425760408201805190614d3b8261616d565b60ff169052505b816060015160ff1660061415614d695760608201805190614d628261616d565b60ff169052505b816080015160ff1660061415614d905760808201805190614d898261616d565b60ff169052505b600060088360800151846060015185604001518660200151614db29190616015565b614dbc9190616015565b614dc69190616015565b60ff161115614ef057600d54604051633352da4560e21b81526004808201526001600160a01b039091169063cd4b69149060240160206040518083038186803b158015614e1257600080fd5b505afa158015614e26573d6000803e3d6000fd5b505050506040513d601f19601f82011682018060405250810190614e4a9190615ca9565b905080614e7a57602083015160ff1615614e755760208301805190614e6e8261616d565b60ff169052505b614c85565b8060011415614ea057604083015160ff1615614e755760408301805190614e6e8261616d565b8060021415614ec657606083015160ff1615614e755760608301805190614e6e8261616d565b608083015160ff1615614c855760808301805190614ee38261616d565b60ff169052505090919050565b50919050565b614efe615618565b600d54604051633352da4560e21b81526004808201526000916001600160a01b03169063cd4b69149060240160206040518083038186803b158015614f4257600080fd5b505afa158015614f56573d6000803e3d6000fd5b505050506040513d601f19601f82011682018060405250810190614f7a9190615ca9565b905080615014578251601190600b811115614fa557634e487b7160e01b600052602160045260246000fd5b81548110614fc357634e487b7160e01b600052603260045260246000fd5b90600052602060002001600081548110614fed57634e487b7160e01b600052603260045260246000fd5b906000526020600020015483602001516150079190615f95565b60ff1660208401526151db565b80600114156150b0578251601190600b81111561504157634e487b7160e01b600052602160045260246000fd5b8154811061505f57634e487b7160e01b600052603260045260246000fd5b9060005260206000200160018154811061508957634e487b7160e01b600052603260045260246000fd5b906000526020600020015483604001516150a39190615f95565b60ff1660408401526151db565b806002141561514c578251601190600b8111156150dd57634e487b7160e01b600052602160045260246000fd5b815481106150fb57634e487b7160e01b600052603260045260246000fd5b9060005260206000200160028154811061512557634e487b7160e01b600052603260045260246000fd5b9060005260206000200154836060015161513f9190615f95565b60ff1660608401526151db565b8251601190600b81111561517057634e487b7160e01b600052602160045260246000fd5b8154811061518e57634e487b7160e01b600052603260045260246000fd5b906000526020600020016003815481106151b857634e487b7160e01b600052603260045260246000fd5b906000526020600020015483608001516151d29190615f95565b60ff1660808401525b6151e483614c8c565b509192915050565b6000816040516020016151ff9190615d85565b60405160208183030381529060405280519060200120836040516020016152269190615d85565b6040516020818303038152906040528051906020012014905092915050565b61524d615780565b60288260c0015160ff161015614bf457606482602001516046615270919061609a565b61527a919061604e565b60ff166020830152604082015160649061529590604661609a565b61529f919061604e565b60ff16604083015281516064906152b790604661609a565b6152c1919061604e565b60ff16825260608201516064906152d990604661609a565b6152e3919061604e565b60ff1660608301525090565b6152f76157c4565b6152ff6157c4565b6000805b6001600160a01b038516600090815260076020526040902086600281111561533b57634e487b7160e01b600052602160045260246000fd5b60ff166008811061535c57634e487b7160e01b600052603260045260246000fd5b01548160ff1610156154ea576001600160a01b0385166000908152600660205260408120908760028111156153a157634e487b7160e01b600052602160045260246000fd5b60028111156153c057634e487b7160e01b600052602160045260246000fd5b81526020808201929092526040908101600090812060ff85168252909252902054600160281b900463ffffffff16156154d8576001600160a01b03851660009081526006602052604081209087600281111561542c57634e487b7160e01b600052602160045260246000fd5b600281111561544b57634e487b7160e01b600052602160045260246000fd5b81526020808201929092526040908101600090812060ff808616835290845290829020825160608101845290548083161515825263ffffffff6101008204811695830195909552600160281b90049093169183019190915284908416603281106154c557634e487b7160e01b600052603260045260246000fd5b60200201526154d5600183616015565b91505b806154e2816161da565b915050615303565b5090949350505050565b600d5460405163261e906160e21b815260056004820152606460248201526000916001600160a01b03169063987a41849060440160206040518083038186803b15801561554057600080fd5b505afa158015615554573d6000803e3d6000fd5b505050506040513d601f19601f820116820180604052508101906155789190615aa4565b156155835750600190565b600d5460405163261e906160e21b815260056004820152605f60248201526001600160a01b039091169063987a41849060440160206040518083038186803b1580156155ce57600080fd5b505afa1580156155e2573d6000803e3d6000fd5b505050506040513d601f19601f820116820180604052508101906156069190615aa4565b15615612575060001990565b50600090565b6040805160a081019091528060008152600060208201819052604082018190526060820181905260809091015290565b8280546156549061618a565b90600052602060002090601f01602090048101928261567657600085556156bc565b82601f1061568f57805160ff19168380011785556156bc565b828001600101855582156156bc579182015b828111156156bc5782518255916020019190600101906156a1565b50614bf4929150615804565b8280546156d49061618a565b90600052602060002090601f0160209004810192826156f657600085556156bc565b82601f1061570757805485556156bc565b828001600101855582156156bc57600052602060002091601f016020900482015b828111156156bc578254825591600101919060010190615728565b50805461574f9061618a565b6000825580601f1061575f575050565b601f01602090049060005260206000209081019061577d9190615804565b50565b6040805161010081018252600080825260208201819052918101829052606081018290526080810182905260a0810182905260c0810182905260e081019190915290565b6040518061064001604052806032905b60408051606081018252600080825260208083018290529282015282526000199092019101816157d45790505090565b5b80821115614bf45760008155600101615805565b80356001600160a01b038116811461129457600080fd5b80356003811061129457600080fd5b600060a08284031215615850578081fd5b60405160a0810181811067ffffffffffffffff821117156158735761587361623a565b6040529050808235600c811061588857600080fd5b8152615896602084016158e9565b60208201526158a7604084016158e9565b60408201526158b8606084016158e9565b60608201526158c9608084016158e9565b60808201525092915050565b803563ffffffff8116811461129457600080fd5b803560ff8116811461129457600080fd5b60006020828403121561590b578081fd5b61185d82615819565b60008060408385031215615926578081fd5b61592f83615819565b915061593d60208401615819565b90509250929050565b60008060006060848603121561595a578081fd5b61596384615819565b925061597160208501615819565b9150604084013590509250925092565b60008060408385031215615993578182fd5b61599c83615819565b915061593d60208401615830565b600080600080608085870312156159bf578081fd5b6159c885615819565b93506159d660208601615830565b9250604085013591506159eb606086016158d5565b905092959194509250565b60008060408385031215615a08578182fd5b615a1183615819565b946020939093013593505050565b60008060008060808587031215615a34578384fd5b615a3d85615819565b935060208501359250615a5260408601615819565b9396929550929360600135925050565b600080600060608486031215615a76578283fd5b615a7f84615819565b9250615a8d602085016158e9565b9150615a9b604085016158e9565b90509250925092565b600060208284031215615ab5578081fd5b815161185d81616250565b600080600083850360a0811215615ad5578182fd5b615ade85615830565b9350615aec60208601615819565b92506060603f1982011215615aff578182fd5b506040516060810181811067ffffffffffffffff82111715615b2357615b2361623a565b6040908152850135615b3481616250565b8152615b42606086016158d5565b6020820152615b53608086016158d5565b6040820152809150509250925092565b600060208284031215615b74578081fd5b813567ffffffffffffffff80821115615b8b578283fd5b818401915084601f830112615b9e578283fd5b813581811115615bb057615bb061623a565b604051601f8201601f19908116603f01168101908382118183101715615bd857615bd861623a565b81604052828152876020848701011115615bf0578586fd5b826020860160208301379182016020019490945295945050505050565b600060a08284031215615c1e578081fd5b61185d838361583f565b600080600060e08486031215615c3c578081fd5b615c46858561583f565b925060a084013560048110615c59578182fd5b9150615a9b60c08501615830565b60008060c08385031215615c79578182fd5b615c83848461583f565b9460a0939093013593505050565b600060208284031215615ca2578081fd5b5035919050565b600060208284031215615cba578081fd5b5051919050565b600080600060608486031215615cd5578081fd5b8335925061597160208501615819565b60008060408385031215615cf7578182fd5b50508035926020909101359150565b600060208284031215615d17578081fd5b61185d826158e9565b600080600060608486031215615d34578081fd5b615d3d846158e9565b9250615d4b60208501615819565b9150615a9b60408501615819565b60008151808452615d7181602086016020860161613d565b601f01601f19169290920160200192915050565b60008251615d9781846020870161613d565b9190910192915050565b6112c08101818360005b6032811015615dee57815180511515845260208082015163ffffffff90811682870152604092830151169185019190915260609093019290910190600101615dab565b50505092915050565b60006020808301818452808551808352604092508286019150828160051b870101848801865b83811015615e6757888303603f1901855281518051878552615e4188860182615d59565b918901516001600160a01b03169489019490945294870194925090860190600101615e1d565b509098975050505050505050565b60208152600061185d6020830184615d59565b604081526000615e9b6040830185615d59565b905060018060a01b03831660208301529392505050565b60006101008201905060ff835116825260ff602084015116602083015260ff604084015116604083015260ff606084015116606083015263ffffffff608084015116608083015260a0830151615f0e60a084018261ffff169052565b5060c0830151615f2360c084018260ff169052565b5060e092830151919092015290565b815160a0820190600c8110615f5757634e487b7160e01b600052602160045260246000fd5b8083525060ff602084015116602083015260ff604084015116604083015260ff606084015116606083015260ff608084015116608083015292915050565b600081810b83820b82821282607f03821381151615615fb657615fb661620e565b82607f19038212811615615fcc57615fcc61620e565b50019392505050565b60008219821115615fe857615fe861620e565b500190565b600063ffffffff80831681851680830382111561600c5761600c61620e565b01949350505050565b600060ff821660ff84168060ff038211156160325761603261620e565b019392505050565b60008261604957616049616224565b500490565b600060ff83168061606157616061616224565b8060ff84160491505092915050565b600061ffff808316818516818304811182151516156160915761609161620e565b02949350505050565b600060ff821660ff84168160ff04811182151516156160bb576160bb61620e565b029392505050565b600061ffff838116908316818110156160de576160de61620e565b039392505050565b6000828210156160f8576160f861620e565b500390565b600063ffffffff838116908316818110156160de576160de61620e565b600060ff821660ff8416808210156161345761613461620e565b90039392505050565b60005b83811015616158578181015183820152602001616140565b83811115616167576000848401525b50505050565b600060ff8216806161805761618061620e565b6000190192915050565b600181811c9082168061619e57607f821691505b60208210811415614ef057634e487b7160e01b600052602260045260246000fd5b60006000198214156161d3576161d361620e565b5060010190565b600060ff821660ff8114156161f1576161f161620e565b60010192915050565b60008261620957616209616224565b500690565b634e487b7160e01b600052601160045260246000fd5b634e487b7160e01b600052601260045260246000fd5b634e487b7160e01b600052604160045260246000fd5b801515811461577d57600080fdfea2646970667358221220cfd24cfdb3f15eb18b195e79868332eb11b889f6d9160bc369c4a25e88e9793964736f6c63430008040033",
  "immutableReferences": {},
  "source": "// SPDX-License-Identifier: MIT\npragma solidity ^0.8.0;\n\nimport \"./PetFactory.sol\";\nimport \"./FarmFactory.sol\";\n\ncontract PixPet is PetFactory, FarmFactory {\n    constructor(Repository _repo) FarmFactory(_repo) {}\n\n    /// @dev  \n    // function breed(\n    //     address _petOwner,\n    //     uint256 _fatherIndex,\n    //     address _getMoneyPerson,\n    //     uint256 _motherIndex,\n    //     uint256 _money\n    // ) public {\n    //     // bool isSuccess = erc20.transferFrom(_petOwner, address(this), _money);\n    //     // if (isSuccess == false) {\n    //     //     revert(\"Transfer failed\");\n    //     // }\n    //     transferToShop(msg.sender, _money);\n    //     PetPropertiesPacked memory descendant;\n    //     // descendant = _getDescendant(\n    //     //     petList[_petOwner][_fatherIndex],\n    //     //     petList[_getMoneyPerson][_motherIndex]\n    //     // );\n    //     petList[_petOwner].push(descendant);\n\n    //     // isSuccess = erc20.transfer(_getMoneyPerson, (_money * 95) / 100);\n    //     // if (isSuccess == false) {\n    //     //     revert(\"Transfer failed\");\n    //     // }\n    //     getMoneyFromShop(_getMoneyPerson, (_money * 95) / 100);\n    // }\n\n    /// @dev  \n    // function _getDescendant(\n    //     PetPropertiesPacked memory _fatherPet,\n    //     PetPropertiesPacked memory _motherPet\n    // ) internal pure returns (PetPropertiesPacked memory _descendant) {\n    //     PetPropertiesPacked memory descendant;\n\n    //     //function\n\n    //     return descendant;\n    // }\n\n    /// @dev  -30%\n    function _isHungry(PetPropertiesPacked memory _pet)\n        internal\n        pure\n        returns (PetPropertiesPacked memory _petChecked)\n    {\n        if (_pet.fullDegree < 40) {\n            _pet.atk = (_pet.atk * 70) / 100;\n            _pet.def = (_pet.def * 70) / 100;\n            _pet.hp = (_pet.hp * 70) / 100;\n            _pet.spd = (_pet.spd * 70) / 100;\n            return (_pet);\n        } else {\n            return _pet;\n        }\n    }\n\n    /// @dev  \n    function fight(\n        address _challenger,\n        uint256 _challengerIndex,\n        address _defender,\n        uint256 _defenderIndex\n    ) public returns (PetPropertiesPacked memory _winner) {\n        PetPropertiesPacked memory challengerPet =\n            _isHungry(petList[_challenger][_challengerIndex]);\n        PetPropertiesPacked memory defenderPet =\n            _isHungry(petList[_defender][_defenderIndex]);\n\n        uint8 round;\n\n        if (challengerPet.spd > defenderPet.spd) {\n            round = challengerPet.spd / defenderPet.spd;\n        } else {\n            round = defenderPet.spd / challengerPet.spd;\n        }\n\n        while (challengerPet.hp >= 0 && defenderPet.hp >= 0) {\n            if (challengerPet.spd >= defenderPet.spd) {\n                for (uint256 i = 1; i <= round; i++) {\n                    defenderPet.hp -=\n                        challengerPet.atk *\n                        (1 - (defenderPet.def / (100 + defenderPet.def)));\n                }\n                challengerPet.hp -=\n                    defenderPet.atk *\n                    (1 - (challengerPet.def / (100 + challengerPet.def)));\n            } else {\n                for (uint256 i = 1; i <= round; i++) {\n                    challengerPet.hp -=\n                        defenderPet.atk *\n                        (1 - (challengerPet.def / (100 + challengerPet.def)));\n                }\n                defenderPet.hp -=\n                    challengerPet.atk *\n                    (1 - (defenderPet.def / (100 + defenderPet.def)));\n            }\n        }\n\n        // challengerPet.hp = challengerOriginalHp;\n        // defenderPet.hp = defenderOriginalHp;\n\n        if (challengerPet.hp == 0) {\n            if (challengerPet.petExperience >= defenderPet.petExperience) {\n                petList[_defender][_defenderIndex].petExperience +=\n                    (challengerPet.petExperience * 1) /\n                    100 +\n                    100;\n            } else {\n                petList[_defender][_defenderIndex].petExperience +=\n                    (defenderPet.petExperience * 1) /\n                    100 +\n                    100;\n            }\n            return (defenderPet);\n        } else {\n            if (challengerPet.petExperience >= defenderPet.petExperience) {\n                petList[_challenger][_challengerIndex].petExperience +=\n                    (challengerPet.petExperience * 1) /\n                    100 +\n                    100;\n            } else {\n                petList[_challenger][_challengerIndex].petExperience +=\n                    (defenderPet.petExperience * 1) /\n                    100 +\n                    100;\n            }\n            return (challengerPet);\n        }\n    }\n\n    /// @dev  \n    function feed(uint256 _tag, uint256 _petIndex) public {\n        if (_tag % 8 == 2) {\n            petList[msg.sender][_petIndex].fullDegree += 25;\n            petList[msg.sender][_petIndex].fullDegree = correctHunger(\n                petList[msg.sender][_petIndex].fullDegree\n            );\n        } else {\n            PlantPropertiesPacked memory pac = getPropertiesByTag(_tag);\n            if (uint8(pac.specie) < 8) {\n                petList[msg.sender][_petIndex].hp += pac.hp;\n                petList[msg.sender][_petIndex].atk += pac.atk;\n                petList[msg.sender][_petIndex].def += pac.def;\n                petList[msg.sender][_petIndex].spd += pac.spd;\n                petList[msg.sender][_petIndex]\n                    .maxPropertiesTrough -= propertiesTrough[\n                    pac.hp + pac.atk + pac.def + pac.spd\n                ];\n                petList[msg.sender][_petIndex].fullDegree += uint8(\n                    specieFull[uint8(pac.specie)]\n                );\n                petList[msg.sender][_petIndex].fullDegree = correctHunger(\n                    petList[msg.sender][_petIndex].fullDegree\n                );\n            } else {\n                petList[msg.sender][_petIndex].hp += pac.hp;\n                petList[msg.sender][_petIndex].atk += pac.atk;\n                petList[msg.sender][_petIndex].def += pac.def;\n                petList[msg.sender][_petIndex].spd += pac.spd;\n                petList[msg.sender][_petIndex].maxPropertiesTrough -= 1;\n                petList[msg.sender][_petIndex].fullDegree += uint8(\n                    specieFull[uint8(pac.specie)]\n                );\n                petList[msg.sender][_petIndex].fullDegree = correctHunger(\n                    petList[msg.sender][_petIndex].fullDegree\n                );\n            }\n        }\n    }\n\n    /// @dev  \n    function correctHunger(uint8 _hunger)\n        internal\n        pure\n        returns (uint8 _correctDegree)\n    {\n        if (_hunger > 100) {\n            return (_hunger - (_hunger - 100));\n        } else if (_hunger < 0) {\n            return 0;\n        } else {\n            return _hunger;\n        }\n    }\n\n    /// @dev      1 = 360   100 = 10\n    function decreaseHunger(uint256 _petIndex) public returns (uint8 _hunger) {\n        if (\n            petList[msg.sender][_petIndex].fullDegree > 0 &&\n            petList[msg.sender][_petIndex].zeroTime >= block.timestamp\n        ) {\n            petList[msg.sender][_petIndex].fullDegree -= uint8(\n                (petList[msg.sender][_petIndex].zeroTime - block.timestamp) /\n                    360\n            );\n            petList[msg.sender][_petIndex].fullDegree = correctHunger(\n                petList[msg.sender][_petIndex].fullDegree\n            );\n        } else {\n            petList[msg.sender][_petIndex].fullDegree = 0;\n        }\n        return petList[msg.sender][_petIndex].fullDegree;\n    }\n\n    /// @dev  \n    function getZerTime(uint256 _petIndex) public returns (uint256 _zeroTime) {\n        petList[msg.sender][_petIndex].zeroTime =\n            block.timestamp +\n            petList[msg.sender][_petIndex].fullDegree *\n            360;\n        return petList[msg.sender][_petIndex].zeroTime;\n    }\n}\n",
  "sourcePath": "F:/Projects/PixFarmon-frontend/src/util/pixfarmon-dapp/Pixfarmon/contracts/PixPet.sol",
  "compiler": {
    "name": "solc",
    "version": "0.8.4+commit.c7e474f2.Emscripten.clang"
  },
  "schemaVersion": "3.3.4",
  "updatedAt": "2021-06-02T10:53:47.319Z",
  "networkType": "ethereum",
  "devdoc": {
    "kind": "dev",
    "methods": {
      "HybridizationCheck(address,uint8,uint8)": {
        "details": ""
      },
      "_findFirstPlace(address,uint8)": {
        "details": ""
      },
      "_isregister(address)": {
        "details": ""
      },
      "_registration(string)": {
        "details": ""
      },
      "addFruit(uint256,address,uint256)": {
        "details": ""
      },
      "addItem(uint8,address,(bool,uint32,uint32))": {
        "details": ""
      },
      "addSeed(uint256,address,uint256)": {
        "details": ""
      },
      "calDna((uint8,uint8,uint8,uint8,uint8))": {
        "details": "DNA"
      },
      "calTag((uint8,uint8,uint8,uint8,uint8),uint8,uint8)": {
        "details": "Tag"
      },
      "decreaseHunger(uint256)": {
        "details": "    1 = 360   100 = 10"
      },
      "disassembleFruit(uint256)": {
        "details": ""
      },
      "feed(uint256,uint256)": {
        "details": ""
      },
      "fight(address,uint256,address,uint256)": {
        "details": ""
      },
      "getDreamySeedTag()": {
        "details": "tag"
      },
      "getFarmLevel(address)": {
        "details": ""
      },
      "getFruitTag(uint256)": {
        "details": ""
      },
      "getHarvestFruitTag(uint256,uint256)": {
        "details": "tag"
      },
      "getHybridizedSeedTag(uint256,uint256)": {
        "details": "tag"
      },
      "getMoneyFromShop(address,uint256)": {
        "details": ""
      },
      "getPlantProperties(uint256)": {
        "details": ""
      },
      "getSeedTag((uint8,uint8,uint8,uint8,uint8))": {
        "details": ""
      },
      "getZerTime(uint256)": {
        "details": ""
      },
      "owner()": {
        "details": "Returns the address of the current owner."
      },
      "randomHybridize(address,uint8,uint8)": {
        "details": ""
      },
      "register(string)": {
        "details": ""
      },
      "removeItem(address,uint8,uint256,uint32)": {
        "details": " tag  _amount "
      },
      "renounceOwnership()": {
        "details": "Leaves the contract without owner. It will not be possible to call `onlyOwner` functions anymore. Can only be called by the current owner. NOTE: Renouncing ownership will leave the contract without an owner, thereby removing any functionality that is only available to the owner."
      },
      "transferOwnership(address)": {
        "details": "Transfers ownership of the contract to a new account (`newOwner`). Can only be called by the current owner."
      },
      "transferTo(address,address,uint256)": {
        "details": ""
      },
      "transferToShop(address,uint256)": {
        "details": ""
      }
    },
    "version": 1
  },
  "userdoc": {
    "kind": "user",
    "methods": {
      "rechargeMoney(uint256)": {
        "notice": ""
      }
    },
    "version": 1
  }
}