{
  "contractName": "Repository",
  "abi": [
    {
      "inputs": [
        {
          "internalType": "address",
          "name": "",
          "type": "address"
        }
      ],
      "name": "addressToName",
      "outputs": [
        {
          "internalType": "string",
          "name": "",
          "type": "string"
        }
      ],
      "stateMutability": "view",
      "type": "function",
      "constant": true
    },
    {
      "inputs": [
        {
          "internalType": "address",
          "name": "",
          "type": "address"
        },
        {
          "internalType": "uint256",
          "name": "",
          "type": "uint256"
        }
      ],
      "name": "friendList",
      "outputs": [
        {
          "internalType": "string",
          "name": "friendName",
          "type": "string"
        },
        {
          "internalType": "address",
          "name": "friendAddress",
          "type": "address"
        }
      ],
      "stateMutability": "view",
      "type": "function",
      "constant": true
    },
    {
      "inputs": [
        {
          "internalType": "address",
          "name": "player",
          "type": "address"
        }
      ],
      "name": "getMoney",
      "outputs": [
        {
          "internalType": "uint256",
          "name": "",
          "type": "uint256"
        }
      ],
      "stateMutability": "view",
      "type": "function",
      "constant": true
    },
    {
      "inputs": [
        {
          "internalType": "address",
          "name": "_person",
          "type": "address"
        },
        {
          "internalType": "uint256",
          "name": "_value",
          "type": "uint256"
        }
      ],
      "name": "getMoneyFromShop",
      "outputs": [],
      "stateMutability": "nonpayable",
      "type": "function"
    },
    {
      "inputs": [
        {
          "internalType": "address",
          "name": "",
          "type": "address"
        }
      ],
      "name": "money",
      "outputs": [
        {
          "internalType": "uint256",
          "name": "",
          "type": "uint256"
        }
      ],
      "stateMutability": "view",
      "type": "function",
      "constant": true
    },
    {
      "inputs": [
        {
          "internalType": "uint256",
          "name": "_value",
          "type": "uint256"
        }
      ],
      "name": "rechargeMoney",
      "outputs": [],
      "stateMutability": "payable",
      "type": "function",
      "payable": true
    },
    {
      "inputs": [
        {
          "internalType": "address",
          "name": "",
          "type": "address"
        },
        {
          "internalType": "address",
          "name": "",
          "type": "address"
        }
      ],
      "name": "storageAllowence",
      "outputs": [
        {
          "internalType": "bool",
          "name": "",
          "type": "bool"
        }
      ],
      "stateMutability": "view",
      "type": "function",
      "constant": true
    },
    {
      "inputs": [
        {
          "internalType": "address",
          "name": "p1",
          "type": "address"
        },
        {
          "internalType": "address",
          "name": "p2",
          "type": "address"
        },
        {
          "internalType": "uint256",
          "name": "_value",
          "type": "uint256"
        }
      ],
      "name": "transferTo",
      "outputs": [],
      "stateMutability": "nonpayable",
      "type": "function"
    },
    {
      "inputs": [
        {
          "internalType": "address",
          "name": "_person",
          "type": "address"
        },
        {
          "internalType": "uint256",
          "name": "_value",
          "type": "uint256"
        }
      ],
      "name": "transferToShop",
      "outputs": [
        {
          "internalType": "bool",
          "name": "",
          "type": "bool"
        }
      ],
      "stateMutability": "nonpayable",
      "type": "function"
    },
    {
      "inputs": [
        {
          "internalType": "enum Repository.ItemType",
          "name": "_itemType",
          "type": "uint8"
        },
        {
          "internalType": "address",
          "name": "_player",
          "type": "address"
        },
        {
          "components": [
            {
              "internalType": "bool",
              "name": "usable",
              "type": "bool"
            },
            {
              "internalType": "uint32",
              "name": "tag",
              "type": "uint32"
            },
            {
              "internalType": "uint32",
              "name": "stack",
              "type": "uint32"
            }
          ],
          "internalType": "struct Repository.Item",
          "name": "_item",
          "type": "tuple"
        }
      ],
      "name": "quieckAddItem",
      "outputs": [
        {
          "internalType": "bool",
          "name": "",
          "type": "bool"
        }
      ],
      "stateMutability": "nonpayable",
      "type": "function"
    },
    {
      "inputs": [
        {
          "internalType": "enum Repository.ItemType",
          "name": "_itemType",
          "type": "uint8"
        },
        {
          "internalType": "address",
          "name": "_player",
          "type": "address"
        },
        {
          "components": [
            {
              "internalType": "bool",
              "name": "usable",
              "type": "bool"
            },
            {
              "internalType": "uint32",
              "name": "tag",
              "type": "uint32"
            },
            {
              "internalType": "uint32",
              "name": "stack",
              "type": "uint32"
            }
          ],
          "internalType": "struct Repository.Item",
          "name": "_item",
          "type": "tuple"
        }
      ],
      "name": "addItem",
      "outputs": [
        {
          "internalType": "bool",
          "name": "",
          "type": "bool"
        }
      ],
      "stateMutability": "nonpayable",
      "type": "function"
    },
    {
      "inputs": [
        {
          "internalType": "address",
          "name": "_player",
          "type": "address"
        },
        {
          "internalType": "enum Repository.ItemType",
          "name": "_itemType",
          "type": "uint8"
        }
      ],
      "name": "_findFirstPlace",
      "outputs": [
        {
          "internalType": "uint256",
          "name": "",
          "type": "uint256"
        }
      ],
      "stateMutability": "view",
      "type": "function",
      "constant": true
    },
    {
      "inputs": [
        {
          "internalType": "address",
          "name": "_player",
          "type": "address"
        },
        {
          "internalType": "enum Repository.ItemType",
          "name": "_itemType",
          "type": "uint8"
        },
        {
          "internalType": "uint256",
          "name": "_tag",
          "type": "uint256"
        },
        {
          "internalType": "uint32",
          "name": "_amount",
          "type": "uint32"
        }
      ],
      "name": "removeItem",
      "outputs": [
        {
          "internalType": "bool",
          "name": "",
          "type": "bool"
        }
      ],
      "stateMutability": "nonpayable",
      "type": "function"
    },
    {
      "inputs": [
        {
          "internalType": "uint256",
          "name": "numerator",
          "type": "uint256"
        },
        {
          "internalType": "uint256",
          "name": "denominator",
          "type": "uint256"
        }
      ],
      "name": "probabilityCheck",
      "outputs": [
        {
          "internalType": "bool",
          "name": "",
          "type": "bool"
        }
      ],
      "stateMutability": "view",
      "type": "function",
      "constant": true
    },
    {
      "inputs": [
        {
          "internalType": "uint256",
          "name": "decimal",
          "type": "uint256"
        }
      ],
      "name": "getRandom",
      "outputs": [
        {
          "internalType": "uint256",
          "name": "",
          "type": "uint256"
        }
      ],
      "stateMutability": "view",
      "type": "function",
      "constant": true
    },
    {
      "inputs": [
        {
          "internalType": "string",
          "name": "_name",
          "type": "string"
        }
      ],
      "name": "playerCreate",
      "outputs": [
        {
          "internalType": "bool",
          "name": "",
          "type": "bool"
        }
      ],
      "stateMutability": "nonpayable",
      "type": "function"
    },
    {
      "inputs": [
        {
          "internalType": "string",
          "name": "_name",
          "type": "string"
        }
      ],
      "name": "addFriendByName",
      "outputs": [
        {
          "internalType": "bool",
          "name": "",
          "type": "bool"
        }
      ],
      "stateMutability": "nonpayable",
      "type": "function"
    },
    {
      "inputs": [
        {
          "internalType": "address",
          "name": "_address",
          "type": "address"
        }
      ],
      "name": "addFriendByAddress",
      "outputs": [
        {
          "internalType": "bool",
          "name": "",
          "type": "bool"
        }
      ],
      "stateMutability": "nonpayable",
      "type": "function"
    },
    {
      "inputs": [
        {
          "internalType": "uint256",
          "name": "_index",
          "type": "uint256"
        }
      ],
      "name": "acceptFriend",
      "outputs": [],
      "stateMutability": "nonpayable",
      "type": "function"
    },
    {
      "inputs": [
        {
          "internalType": "uint256",
          "name": "_index",
          "type": "uint256"
        }
      ],
      "name": "refuseFriend",
      "outputs": [],
      "stateMutability": "nonpayable",
      "type": "function"
    },
    {
      "inputs": [
        {
          "internalType": "uint8",
          "name": "itemType",
          "type": "uint8"
        },
        {
          "internalType": "address",
          "name": "user",
          "type": "address"
        },
        {
          "internalType": "address",
          "name": "target",
          "type": "address"
        }
      ],
      "name": "getItemList",
      "outputs": [
        {
          "components": [
            {
              "internalType": "bool",
              "name": "usable",
              "type": "bool"
            },
            {
              "internalType": "uint32",
              "name": "tag",
              "type": "uint32"
            },
            {
              "internalType": "uint32",
              "name": "stack",
              "type": "uint32"
            }
          ],
          "internalType": "struct Repository.Item[50]",
          "name": "",
          "type": "tuple[50]"
        }
      ],
      "stateMutability": "view",
      "type": "function",
      "constant": true
    },
    {
      "inputs": [
        {
          "internalType": "address",
          "name": "user",
          "type": "address"
        },
        {
          "internalType": "address",
          "name": "target",
          "type": "address"
        }
      ],
      "name": "changePermission",
      "outputs": [],
      "stateMutability": "nonpayable",
      "type": "function"
    },
    {
      "inputs": [
        {
          "internalType": "address",
          "name": "p1",
          "type": "address"
        },
        {
          "internalType": "address",
          "name": "p2",
          "type": "address"
        }
      ],
      "name": "friendCheck",
      "outputs": [
        {
          "internalType": "bool",
          "name": "",
          "type": "bool"
        }
      ],
      "stateMutability": "view",
      "type": "function",
      "constant": true
    },
    {
      "inputs": [
        {
          "internalType": "string",
          "name": "_name",
          "type": "string"
        }
      ],
      "name": "_registration",
      "outputs": [],
      "stateMutability": "nonpayable",
      "type": "function"
    },
    {
      "inputs": [
        {
          "internalType": "address",
          "name": "_person",
          "type": "address"
        }
      ],
      "name": "_isregister",
      "outputs": [
        {
          "internalType": "bool",
          "name": "",
          "type": "bool"
        }
      ],
      "stateMutability": "view",
      "type": "function",
      "constant": true
    },
    {
      "inputs": [
        {
          "internalType": "address",
          "name": "_person",
          "type": "address"
        }
      ],
      "name": "getUsername",
      "outputs": [
        {
          "internalType": "string",
          "name": "",
          "type": "string"
        }
      ],
      "stateMutability": "view",
      "type": "function",
      "constant": true
    },
    {
      "inputs": [],
      "name": "getFriendList",
      "outputs": [
        {
          "components": [
            {
              "internalType": "string",
              "name": "friendName",
              "type": "string"
            },
            {
              "internalType": "address",
              "name": "friendAddress",
              "type": "address"
            }
          ],
          "internalType": "struct Repository.friend[]",
          "name": "",
          "type": "tuple[]"
        }
      ],
      "stateMutability": "view",
      "type": "function",
      "constant": true
    },
    {
      "inputs": [
        {
          "internalType": "uint256",
          "name": "_tag",
          "type": "uint256"
        },
        {
          "internalType": "address",
          "name": "_player",
          "type": "address"
        },
        {
          "internalType": "uint256",
          "name": "_amount",
          "type": "uint256"
        }
      ],
      "name": "addSeed",
      "outputs": [],
      "stateMutability": "nonpayable",
      "type": "function"
    },
    {
      "inputs": [
        {
          "internalType": "uint256",
          "name": "_tag",
          "type": "uint256"
        },
        {
          "internalType": "address",
          "name": "_player",
          "type": "address"
        },
        {
          "internalType": "uint256",
          "name": "_amount",
          "type": "uint256"
        }
      ],
      "name": "addFruit",
      "outputs": [],
      "stateMutability": "nonpayable",
      "type": "function"
    },
    {
      "inputs": [],
      "name": "updateMaxIndex",
      "outputs": [],
      "stateMutability": "nonpayable",
      "type": "function"
    }
  ],
  "bytecode": "0x608060405234801561001057600080fd5b50612cd5806100206000396000f3fe6080604052600436106101cd5760003560e01c80638d2cb64f116100f7578063b7bf029911610095578063ce43c03211610064578063ce43c032146105df578063dd6803c71461060c578063e2a04b621461062c578063e87cb06b1461064c57600080fd5b8063b7bf029914610551578063bf73337d14610571578063cc39e7211461059f578063cd4b6914146105bf57600080fd5b8063a762e9c4116100d1578063a762e9c41461049d578063abeac807146104bd578063afc18679146104dd578063b60689c7146104fd57600080fd5b80638d2cb64f1461043b578063987a41841461045d578063a5f2a1521461047d57600080fd5b806335911a171161016f5780635975b2571161013e5780635975b257146103a557806362384508146103c557806370b5d4b8146103e5578063717d55271461040557600080fd5b806335911a17146103255780633b955fcb146103455780633df918721461036557806347af13f91461038557600080fd5b806315e1f7cd116101ab57806315e1f7cd1461024a5780631699a9fa146102775780632403e883146102b25780633093b2f71461030557600080fd5b8063013fdb87146101d2578063095ec74514610205578063155b390414610235575b600080fd5b3480156101de57600080fd5b506101f26101ed3660046126da565b610679565b6040519081526020015b60405180910390f35b34801561021157600080fd5b5061022561022036600461274f565b61085d565b60405190151581526020016101fc565b6102486102433660046128e1565b6108cb565b005b34801561025657600080fd5b506101f2610265366004612653565b60006020819052908152604090205481565b34801561028357600080fd5b5061022561029236600461266d565b600960209081526000928352604080842090915290825290205460ff1681565b3480156102be57600080fd5b506102483360009081526006602081905260408220828155600181018390556002810183905560038101839055600481018390556005810183905590810182905560070155565b34801561031157600080fd5b50610225610320366004612653565b6109d9565b34801561033157600080fd5b50610248610340366004612837565b610a4c565b34801561035157600080fd5b50610225610360366004612837565b610af2565b34801561037157600080fd5b5061022561038036600461266d565b610bb6565b34801561039157600080fd5b506102486103a036600461274f565b610c60565b3480156103b157600080fd5b506102486103c03660046128f9565b610ca4565b3480156103d157600080fd5b506102256103e0366004612794565b610cdb565b3480156103f157600080fd5b506102486104003660046128e1565b610db2565b34801561041157600080fd5b506101f2610420366004612653565b6001600160a01b031660009081526020819052604090205490565b34801561044757600080fd5b50610450610f25565b6040516101fc9190612a25565b34801561046957600080fd5b5061022561047836600461291d565b611034565b34801561048957600080fd5b5061024861049836600461269f565b611057565b3480156104a957600080fd5b506102256104b8366004612703565b6110cc565b3480156104c957600080fd5b506102256104d8366004612653565b6112d4565b3480156104e957600080fd5b506102486104f83660046128e1565b6114b0565b34801561050957600080fd5b5061024861051836600461266d565b6001600160a01b0391821660009081526009602090815260408083209390941682529190915220805460ff81161560ff19909116179055565b34801561055d57600080fd5b5061022561056c366004612837565b61191c565b34801561057d57600080fd5b5061059161058c36600461274f565b611a51565b6040516101fc929190612ab6565b3480156105ab57600080fd5b506102486105ba3660046128f9565b611b23565b3480156105cb57600080fd5b506101f26105da3660046128e1565b611b55565b3480156105eb57600080fd5b506105ff6105fa366004612653565b611bee565b6040516101fc9190612aa3565b34801561061857600080fd5b50610225610627366004612794565b611cf1565b34801561063857600080fd5b506105ff610647366004612653565b612095565b34801561065857600080fd5b5061066c61066736600461293e565b61212f565b6040516101fc91906129cf565b60008060005b6001600160a01b03851660009081526006602052604090208460028111156106b757634e487b7160e01b600052602160045260246000fd5b60ff16600881106106d857634e487b7160e01b600052603260045260246000fd5b015481101561077e576001600160a01b03851660009081526005602052604081209085600281111561071a57634e487b7160e01b600052602160045260246000fd5b600281111561073957634e487b7160e01b600052602160045260246000fd5b815260208082019290925260409081016000908120848252909252902054600160281b900463ffffffff1661076c578091505b8061077681612c00565b91505061067f565b50801580156107e957506001600160a01b03841660009081526006602052604090206031908460028111156107c357634e487b7160e01b600052602160045260246000fd5b60ff16600881106107e457634e487b7160e01b600052603260045260246000fd5b015411155b15610851576001600160a01b038416600090815260066020526040902083600281111561082657634e487b7160e01b600052602160045260246000fd5b60ff166008811061084757634e487b7160e01b600052603260045260246000fd5b0154915050610857565b60329150505b92915050565b6001600160a01b03821660009081526020819052604081205482111561088557506000610857565b6001600160a01b0383166000908152602081905260409020546108a9908390612b59565b6001600160a01b03841660009081526020819052604090205550600192915050565b6001546040516323b872dd60e01b8152336004820152306024820152604481018390526000916001600160a01b0316906323b872dd90606401602060405180830381600087803b15801561091e57600080fd5b505af1158015610932573d6000803e3d6000fd5b505050506040513d601f19601f820116820180604052508101906109569190612778565b90508061099c5760405162461bcd60e51b815260206004820152600f60248201526e149958da185c99d94819985a5b1959608a1b60448201526064015b60405180910390fd5b6109ab645d21dba00083612b45565b336000908152602081905260409020546109c59190612ae0565b336000908152602081905260409020555050565b600080805b600254811015610a4557836001600160a01b031660028281548110610a1357634e487b7160e01b600052603260045260246000fd5b6000918252602090912001546001600160a01b03161415610a3357600191505b80610a3d81612c00565b9150506109de565b5092915050565b600280546001810182556000919091527f405787fa12a823e0f2b7631cc41b3ba8828b3321ca811111fa75cd3aa3bb5ace0180546001600160a01b03191633908117909155604051600390610aa29084906129b3565b908152604080516020928190038301902080546001600160a01b0319166001600160a01b03949094169390931790925533600090815260048252919091208251610aee92840190612488565b5050565b6000610afd826121e8565b610ba95760028054600181019091557f405787fa12a823e0f2b7631cc41b3ba8828b3321ca811111fa75cd3aa3bb5ace0180546001600160a01b0319163390811790915560009081526004602090815260409091208351610b6092850190612488565b5033600383604051610b7291906129b3565b90815260405190819003602001902080546001600160a01b03929092166001600160a01b0319909216919091179055506001919050565b506000919050565b919050565b6000805b6001600160a01b038416600090815260076020526040902054811015610c56576001600160a01b03848116600090815260076020526040902080549185169183908110610c1757634e487b7160e01b600052603260045260246000fd5b60009182526020909120600160029092020101546001600160a01b03161415610c44576001915050610857565b80610c4e81612c00565b915050610bba565b5060009392505050565b6001600160a01b038216600090815260208190526040902054610c84908290612ae0565b6001600160a01b0390921660009081526020819052604090209190915550565b6040805160608101825263ffffffff858116602083015260018252831691810191909152610cd460008483611cf1565b5050505050565b6001600160a01b0382166000908152600560205260408120829082866002811115610d1657634e487b7160e01b600052602160045260246000fd5b6002811115610d3557634e487b7160e01b600052602160045260246000fd5b8152602080820192909252604090810160009081206001808352908452908290208451815494860151959093015164ffffffffff1990941692151564ffffffff0019169290921761010063ffffffff958616021768ffffffff00000000001916600160281b949093169390930291909117905590505b9392505050565b805b33600090815260086020526040902054811015610eba57336000908152600860205260409020610de5826001612ae0565b81548110610e0357634e487b7160e01b600052603260045260246000fd5b906000526020600020906002020160086000336001600160a01b03166001600160a01b031681526020019081526020016000208281548110610e5557634e487b7160e01b600052603260045260246000fd5b90600052602060002090600202016000820181600001908054610e7790612bc5565b610e8292919061250c565b50600191820154910180546001600160a01b0319166001600160a01b0390921691909117905580610eb281612c00565b915050610db4565b503360009081526008602052604090208054610ed890600190612b59565b81548110610ef657634e487b7160e01b600052603260045260246000fd5b60009182526020822060029091020190610f108282612587565b5060010180546001600160a01b031916905550565b336000908152600760209081526040808320805482518185028101850190935280835260609492939192909184015b8282101561102b5783829060005260206000209060020201604051806040016040529081600082018054610f8790612bc5565b80601f0160208091040260200160405190810160405280929190818152602001828054610fb390612bc5565b80156110005780601f10610fd557610100808354040283529160200191611000565b820191906000526020600020905b815481529060010190602001808311610fe357829003601f168201915b50505091835250506001918201546001600160a01b0316602091820152918352929092019101610f54565b50505050905090565b60008261104083611b55565b101561104e57506001610857565b50600092915050565b6001600160a01b03831660009081526020819052604090205461107b908290612b59565b6001600160a01b0380851660009081526020819052604080822093909355908416815220546110ab908290612ae0565b6001600160a01b039092166000908152602081905260409020919091555050565b6000805b60328110156112c6576001600160a01b0386166000908152600560205260408120859187600281111561111357634e487b7160e01b600052602160045260246000fd5b600281111561113257634e487b7160e01b600052602160045260246000fd5b815260208082019290925260409081016000908120858252909252902054610100900463ffffffff1614156112b4576001600160a01b03861660009081526005602052604081209086600281111561119a57634e487b7160e01b600052602160045260246000fd5b60028111156111b957634e487b7160e01b600052602160045260246000fd5b81526020808201929092526040908101600090812084825290925290205463ffffffff600160281b909104811690841611156111f95760009150506112cc565b6001600160a01b0386166000908152600560205260408120849187600281111561123357634e487b7160e01b600052602160045260246000fd5b600281111561125257634e487b7160e01b600052602160045260246000fd5b8152602080820192909252604090810160009081208582529092529020805460059061128c908490600160281b900463ffffffff16612b70565b92506101000a81548163ffffffff021916908363ffffffff16021790555060019150506112cc565b806112be81612c00565b9150506110d0565b50600090505b949350505050565b6001600160a01b0381166000908152600460205260408120805461137f91906112fc90612bc5565b80601f016020809104026020016040519081016040528092919081815260200182805461132890612bc5565b80156113755780601f1061134a57610100808354040283529160200191611375565b820191906000526020600020905b81548152906001019060200180831161135857829003601f168201915b50505050506121e8565b61138b57506000919050565b604080518082018252606081523360208083018290526000918252600490529190912080546113b990612bc5565b80601f01602080910402602001604051908101604052809291908181526020018280546113e590612bc5565b80156114325780601f1061140757610100808354040283529160200191611432565b820191906000526020600020905b81548152906001019060200180831161141557829003601f168201915b50505091835250506001600160a01b038316600090815260086020908152604082208054600181018255908352918190208351805185946002029092019261147f92849290910190612488565b5060209190910151600191820180546001600160a01b0319166001600160a01b039092169190911790559392505050565b6040805180820190915260608152600060208201523360009081526008602052604090208054839081106114f457634e487b7160e01b600052603260045260246000fd5b9060005260206000209060020201600001805461151090612bc5565b80601f016020809104026020016040519081016040528092919081815260200182805461153c90612bc5565b80156115895780601f1061155e57610100808354040283529160200191611589565b820191906000526020600020905b81548152906001019060200180831161156c57829003601f168201915b50505091835250503360009081526008602052604090208054839081106115c057634e487b7160e01b600052603260045260246000fd5b600091825260208083206002928302016001908101546001600160a01b031685830152338452600782526040842080549182018155845292819020845180518695909402909101926116159284920190612488565b5060209182015160019190910180546001600160a01b0319166001600160a01b0390921691909117905560408051808201825260608152600081840181905233815260049093529120805461166990612bc5565b80601f016020809104026020016040519081016040528092919081815260200182805461169590612bc5565b80156116e25780601f106116b7576101008083540402835291602001916116e2565b820191906000526020600020905b8154815290600101906020018083116116c557829003601f168201915b505050918352505033602080830182905260009182526008905260408120805460079291908690811061172557634e487b7160e01b600052603260045260246000fd5b600091825260208083206002928302016001908101546001600160a01b031685528482019590955260409093018220805494850181558252908290208451805186959093029091019261177d92849290910190612488565b5060209190910151600190910180546001600160a01b0319166001600160a01b03909216919091179055825b336000908152600860205260409020548110156118af573360009081526008602052604090206117da826001612ae0565b815481106117f857634e487b7160e01b600052603260045260246000fd5b906000526020600020906002020160086000336001600160a01b03166001600160a01b03168152602001908152602001600020828154811061184a57634e487b7160e01b600052603260045260246000fd5b9060005260206000209060020201600082018160000190805461186c90612bc5565b61187792919061250c565b50600191820154910180546001600160a01b0319166001600160a01b03909216919091179055806118a781612c00565b9150506117a9565b5033600090815260086020526040902080546118cd90600190612b59565b815481106118eb57634e487b7160e01b600052603260045260246000fd5b600091825260208220600290910201906119058282612587565b5060010180546001600160a01b0319169055505050565b6000611927826121e8565b61193357506000919050565b6040805180820182526060815233602080830182905260009182526004905291909120805461196190612bc5565b80601f016020809104026020016040519081016040528092919081815260200182805461198d90612bc5565b80156119da5780601f106119af576101008083540402835291602001916119da565b820191906000526020600020905b8154815290600101906020018083116119bd57829003601f168201915b50505091835250506040516008906000906003906119f99087906129b3565b9081526040805160209281900383019020546001600160a01b03168352828201939093529101600090812080546001810182559082529082902083518051859460029094029092019261147f92849290910190612488565b60076020528160005260406000208181548110611a6d57600080fd5b906000526020600020906002020160009150915050806000018054611a9190612bc5565b80601f0160208091040260200160405190810160405280929190818152602001828054611abd90612bc5565b8015611b0a5780601f10611adf57610100808354040283529160200191611b0a565b820191906000526020600020905b815481529060010190602001808311611aed57829003601f168201915b505050600190930154919250506001600160a01b031682565b6040805160608101825263ffffffff858116602083015260018083529084169282019290925290610cd4908483611cf1565b600081335a444345604051602001611b6f91815260200190565b60405160208183030381529060405280519060200120604051602001611bcb95949392919060609590951b6bffffffffffffffffffffffff19168552601485019390935260348401919091526054830152607482015260940190565b6040516020818303038152906040528051906020012060001c6108579190612c3b565b6001600160a01b038116600090815260046020526040812080546060929190611c1690612bc5565b80601f0160208091040260200160405190810160405280929190818152602001828054611c4290612bc5565b8015611c8f5780601f10611c6457610100808354040283529160200191611c8f565b820191906000526020600020905b815481529060010190602001808311611c7257829003601f168201915b50505050509050611caf816040518060200160405280600081525061222a565b156108575760405162461bcd60e51b81526020600482015260126024820152711554d15497d393d5149151d254d51154915160721b6044820152606401610993565b6000805b6001600160a01b0384166000908152600660205260409020856002811115611d2d57634e487b7160e01b600052602160045260246000fd5b60ff1660088110611d4e57634e487b7160e01b600052603260045260246000fd5b0154811015611ebe576020808401516001600160a01b038616600090815260059092526040822063ffffffff90911691876002811115611d9e57634e487b7160e01b600052602160045260246000fd5b6002811115611dbd57634e487b7160e01b600052602160045260246000fd5b815260208082019290925260409081016000908120858252909252902054610100900463ffffffff161415611eac576040808401516001600160a01b038616600090815260056020529182209091876002811115611e2b57634e487b7160e01b600052602160045260246000fd5b6002811115611e4a57634e487b7160e01b600052602160045260246000fd5b81526020808201929092526040908101600090812085825290925290208054600590611e84908490600160281b900463ffffffff16612af8565b92506101000a81548163ffffffff021916908363ffffffff1602179055506001915050610dab565b80611eb681612c00565b915050611cf5565b50611ec98385610679565b60321415611ed957506000610dab565b6001600160a01b03831660009081526005602052604081208391866002811115611f1357634e487b7160e01b600052602160045260246000fd5b6002811115611f3257634e487b7160e01b600052602160045260246000fd5b81526020019081526020016000206000611f4c8688610679565b81526020808201929092526040908101600090812084518154868601519685015164ffffffffff1990911691151564ffffffff0019169190911761010063ffffffff978816021768ffffffff00000000001916600160281b9690911695909502949094179093556001600160a01b038616835260069091529020846002811115611fe657634e487b7160e01b600052602160045260246000fd5b60ff166008811061200757634e487b7160e01b600052603260045260246000fd5b01546120138486610679565b141561208b576001600160a01b038316600090815260066020526040902060019085600281111561205457634e487b7160e01b600052602160045260246000fd5b60ff166008811061207557634e487b7160e01b600052603260045260246000fd5b0160008282546120859190612ae0565b90915550505b5060019392505050565b600460205260009081526040902080546120ae90612bc5565b80601f01602080910402602001604051908101604052809291908181526020018280546120da90612bc5565b80156121275780601f106120fc57610100808354040283529160200191612127565b820191906000526020600020905b81548152906001019060200180831161210a57829003601f168201915b505050505081565b6121376125c4565b816001600160a01b0316836001600160a01b0316148061217c57506001600160a01b0380831660009081526009602090815260408083209387168352929052205460ff165b6121bc5760405162461bcd60e51b81526020600482015260116024820152701c195c9b5a5cdcda5bdb8819195b9a5959607a1b6044820152606401610993565b6112cc8460ff1660028111156121e257634e487b7160e01b600052602160045260246000fd5b83612283565b6000806001600160a01b031660038360405161220491906129b3565b908152604051908190036020019020546001600160a01b031614610ba957506001919050565b60008160405160200161223d91906129b3565b604051602081830303815290604052805190602001208360405160200161226491906129b3565b6040516020818303038152906040528051906020012014905092915050565b61228b6125c4565b6122936125c4565b6000805b6001600160a01b03851660009081526006602052604090208660028111156122cf57634e487b7160e01b600052602160045260246000fd5b60ff16600881106122f057634e487b7160e01b600052603260045260246000fd5b01548160ff16101561247e576001600160a01b03851660009081526005602052604081209087600281111561233557634e487b7160e01b600052602160045260246000fd5b600281111561235457634e487b7160e01b600052602160045260246000fd5b81526020808201929092526040908101600090812060ff85168252909252902054600160281b900463ffffffff161561246c576001600160a01b0385166000908152600560205260408120908760028111156123c057634e487b7160e01b600052602160045260246000fd5b60028111156123df57634e487b7160e01b600052602160045260246000fd5b81526020808201929092526040908101600090812060ff808616835290845290829020825160608101845290548083161515825263ffffffff6101008204811695830195909552600160281b900490931691830191909152849084166032811061245957634e487b7160e01b600052603260045260246000fd5b6020020152612469600183612b20565b91505b8061247681612c1b565b915050612297565b5090949350505050565b82805461249490612bc5565b90600052602060002090601f0160209004810192826124b657600085556124fc565b82601f106124cf57805160ff19168380011785556124fc565b828001600101855582156124fc579182015b828111156124fc5782518255916020019190600101906124e1565b50612508929150612604565b5090565b82805461251890612bc5565b90600052602060002090601f01602090048101928261253a57600085556124fc565b82601f1061254b57805485556124fc565b828001600101855582156124fc57600052602060002091601f016020900482015b828111156124fc57825482559160010191906001019061256c565b50805461259390612bc5565b6000825580601f106125a3575050565b601f0160209004906000526020600020908101906125c19190612604565b50565b6040518061064001604052806032905b60408051606081018252600080825260208083018290529282015282526000199092019101816125d45790505090565b5b808211156125085760008155600101612605565b80356001600160a01b0381168114610bb157600080fd5b803560038110610bb157600080fd5b803563ffffffff81168114610bb157600080fd5b600060208284031215612664578081fd5b610dab82612619565b6000806040838503121561267f578081fd5b61268883612619565b915061269660208401612619565b90509250929050565b6000806000606084860312156126b3578081fd5b6126bc84612619565b92506126ca60208501612619565b9150604084013590509250925092565b600080604083850312156126ec578182fd5b6126f583612619565b915061269660208401612630565b60008060008060808587031215612718578081fd5b61272185612619565b935061272f60208601612630565b9250604085013591506127446060860161263f565b905092959194509250565b60008060408385031215612761578182fd5b61276a83612619565b946020939093013593505050565b600060208284031215612789578081fd5b8151610dab81612c91565b600080600083850360a08112156127a9578384fd5b6127b285612630565b93506127c060208601612619565b92506060603f19820112156127d3578182fd5b506040516060810181811067ffffffffffffffff821117156127f7576127f7612c7b565b604090815285013561280881612c91565b81526128166060860161263f565b60208201526128276080860161263f565b6040820152809150509250925092565b600060208284031215612848578081fd5b813567ffffffffffffffff8082111561285f578283fd5b818401915084601f830112612872578283fd5b81358181111561288457612884612c7b565b604051601f8201601f19908116603f011681019083821181831017156128ac576128ac612c7b565b816040528281528760208487010111156128c4578586fd5b826020860160208301379182016020019490945295945050505050565b6000602082840312156128f2578081fd5b5035919050565b60008060006060848603121561290d578283fd5b833592506126ca60208501612619565b6000806040838503121561292f578182fd5b50508035926020909101359150565b600080600060608486031215612952578081fd5b833560ff81168114612962578182fd5b925061297060208501612619565b915061297e60408501612619565b90509250925092565b6000815180845261299f816020860160208601612b95565b601f01601f19169290920160200192915050565b600082516129c5818460208701612b95565b9190910192915050565b6112c08101818360005b6032811015612a1c57815180511515845260208082015163ffffffff908116828701526040928301511691850191909152606090930192909101906001016129d9565b50505092915050565b60006020808301818452808551808352604092508286019150828160051b870101848801865b83811015612a9557888303603f1901855281518051878552612a6f88860182612987565b918901516001600160a01b03169489019490945294870194925090860190600101612a4b565b509098975050505050505050565b602081526000610dab6020830184612987565b604081526000612ac96040830185612987565b905060018060a01b03831660208301529392505050565b60008219821115612af357612af3612c4f565b500190565b600063ffffffff808316818516808303821115612b1757612b17612c4f565b01949350505050565b600060ff821660ff84168060ff03821115612b3d57612b3d612c4f565b019392505050565b600082612b5457612b54612c65565b500490565b600082821015612b6b57612b6b612c4f565b500390565b600063ffffffff83811690831681811015612b8d57612b8d612c4f565b039392505050565b60005b83811015612bb0578181015183820152602001612b98565b83811115612bbf576000848401525b50505050565b600181811c90821680612bd957607f821691505b60208210811415612bfa57634e487b7160e01b600052602260045260246000fd5b50919050565b6000600019821415612c1457612c14612c4f565b5060010190565b600060ff821660ff811415612c3257612c32612c4f565b60010192915050565b600082612c4a57612c4a612c65565b500690565b634e487b7160e01b600052601160045260246000fd5b634e487b7160e01b600052601260045260246000fd5b634e487b7160e01b600052604160045260246000fd5b80151581146125c157600080fdfea26469706673582212201345a7050a724679d6a8d06d9625548f39ff79a148a5fcabddbc3312aae7cfc464736f6c63430008040033",
  "immutableReferences": {},
  "source": "// SPDX-License-Identifier: MIT\npragma solidity ^0.8.0;\n\nimport \"@openzeppelin/contracts/access/Ownable.sol\";\nimport \"./Money.sol\";\n\n/// @dev \ncontract Repository is Money {\n    // \n    enum ItemType {Seed, Fruit, Feed} // 3bits for futher development\n\n    /// @dev \n    address[] playersAddress;\n    mapping(string => address) nameToAddress;\n    mapping(address => string) public addressToName;\n\n    /// @dev \n    //mapping(ItemType => mapping(address => Item[])) internal _repository;\n    mapping(address => mapping(ItemType => mapping(uint256 => Item)))\n        internal _backpack;\n    mapping(address => uint256[8]) internal maxIndex;\n\n    /// @dev \n    struct friend {\n        string friendName;\n        address friendAddress;\n    }\n    mapping(address => friend[]) public friendList;\n\n    struct Item {\n        bool usable;\n        uint32 tag;\n        uint32 stack;\n    }\n\n    struct request {\n        string senderName;\n        address senderAddress;\n    }\n\n    mapping(address => request[]) requestList;\n\n    /// @dev is value has permission to see key's storage\n    mapping(address => mapping(address => bool)) public storageAllowence;\n\n    /// @dev \n    function _remove(\n        ItemType _type,\n        address _player,\n        uint256 _index,\n        uint32 _amount\n    ) internal {\n        _backpack[_player][_type][_index].stack -= _amount;\n    }\n\n    ///@dev \n    function _get(\n        ItemType _type,\n        address _player,\n        uint256 _index\n    ) internal view returns (Item memory) {\n        return _backpack[_player][_type][_index];\n    }\n\n    /// @dev \n    function _getAll(ItemType _type, address _player)\n        internal\n        view\n        returns (Item[50] memory)\n    {\n        Item[50] memory items;\n        uint8 p = 0;\n        for (uint8 i = 0; i < maxIndex[_player][uint8(_type)]; i++) {\n            if (_backpack[_player][_type][i].stack != 0) {\n                items[p] = _backpack[_player][_type][i];\n                p += 1;\n            }\n        }\n        return items;\n    }\n\n    function quieckAddItem(\n        ItemType _itemType,\n        address _player,\n        Item memory _item\n    ) public returns (bool) {\n        // _repository[_itemType][_player][1].tag == _item.tag;\n        // _repository[_itemType][_player][1].stack == _item.stack;\n        _backpack[_player][_itemType][1] = _item;\n        return true;\n    }\n\n    ///@dev \n    function addItem(\n        ItemType _itemType,\n        address _player,\n        Item memory _item\n    ) public returns (bool) {\n        // TODO \n        for (uint256 i = 0; i < maxIndex[_player][uint8(_itemType)]; i++) {\n            if (_backpack[_player][_itemType][i].tag == _item.tag) {\n                _backpack[_player][_itemType][i].stack += _item.stack;\n                return true;\n            }\n        }\n        if (_findFirstPlace(_player, _itemType) == 50) {\n            return false;\n        }\n        _backpack[_player][_itemType][\n            _findFirstPlace(_player, _itemType)\n        ] = _item;\n        if (\n            _findFirstPlace(_player, _itemType) ==\n            maxIndex[_player][uint8(_itemType)]\n        ) {\n            maxIndex[_player][uint8(_itemType)] += 1;\n        }\n        return true;\n    }\n\n    /// @dev \n    function _findFirstPlace(address _player, ItemType _itemType)\n        public\n        view\n        returns (uint256)\n    {\n        uint256 index;\n        for (uint256 i = 0; i < maxIndex[_player][uint8(_itemType)]; i++) {\n            if (_backpack[_player][_itemType][i].stack == 0) {\n                index = i;\n            }\n        }\n        if (index == 0 && maxIndex[_player][uint8(_itemType)] <= 49) {\n            return maxIndex[_player][uint8(_itemType)];\n        }\n        return 50;\n    }\n\n    /// @dev  tag  _amount \n    function removeItem(\n        address _player,\n        ItemType _itemType,\n        uint256 _tag,\n        uint32 _amount\n    ) public returns (bool) {\n        for (uint256 i = 0; i < 50; i++) {\n            if (_backpack[_player][_itemType][i].tag == _tag) {\n                if (_amount > _backpack[_player][_itemType][i].stack) {\n                    return false;\n                } else {\n                    _backpack[_player][_itemType][i].stack -= _amount;\n                    return true;\n                }\n            }\n        }\n        return false;\n    }\n\n    modifier requireVisibility(address host, address visitor) {\n        require(\n            storageAllowence[host][visitor],\n            \"You have no permission to see this receiver's storage\"\n        );\n        _;\n    }\n\n    //TODO seprate\n    function probabilityCheck(uint256 numerator, uint256 denominator)\n        public\n        view\n        returns (bool)\n    {\n        if (getRandom(denominator) < numerator) {\n            return true;\n        }\n        return false;\n    }\n\n    // TODO seprate\n    function getRandom(uint256 decimal) public view returns (uint256) {\n        return\n            uint256(\n                keccak256(\n                    abi.encodePacked(\n                        msg.sender,\n                        gasleft(),\n                        block.difficulty,\n                        block.number,\n                        keccak256(abi.encode(block.gaslimit))\n                    )\n                )\n            ) % decimal;\n    }\n\n    function playerCreate(string memory _name) public returns (bool) {\n        if (!isNameExist(_name)) {\n            playersAddress.push(msg.sender);\n            addressToName[msg.sender] = _name;\n            nameToAddress[_name] = msg.sender;\n            return true;\n        } else {\n            return false;\n        }\n    }\n\n    function isNameExist(string memory _name) internal view returns (bool) {\n        if (nameToAddress[_name] != address(0)) {\n            return true;\n        } else {\n            return false;\n        }\n    }\n\n    /// @dev \n    function hashCompare(string memory a, string memory b)\n        internal\n        pure\n        returns (bool)\n    {\n        return keccak256(abi.encodePacked(a)) == keccak256(abi.encodePacked(b));\n    }\n\n    function addFriendByName(string memory _name) public returns (bool) {\n        if (!isNameExist(_name)) {\n            return false;\n        } else {\n            request memory newRequest;\n            newRequest.senderAddress = msg.sender;\n            newRequest.senderName = addressToName[msg.sender];\n            requestList[nameToAddress[_name]].push(newRequest);\n            return true;\n        }\n    }\n\n    function addFriendByAddress(address _address) public returns (bool) {\n        if (!isNameExist(addressToName[_address])) {\n            return false;\n        } else {\n            request memory newRequest;\n            newRequest.senderAddress = msg.sender;\n            newRequest.senderName = addressToName[msg.sender];\n            requestList[_address].push(newRequest);\n            return true;\n        }\n    }\n\n    function acceptFriend(uint256 _index) public {\n        friend memory newFriend;\n        newFriend.friendName = requestList[msg.sender][_index].senderName;\n        newFriend.friendAddress = requestList[msg.sender][_index].senderAddress;\n        friendList[msg.sender].push(newFriend);\n\n        friend memory receiver;\n        receiver.friendName = addressToName[msg.sender];\n        receiver.friendAddress = msg.sender;\n        friendList[requestList[msg.sender][_index].senderAddress].push(\n            receiver\n        );\n\n        for (uint256 i = _index; i < requestList[msg.sender].length; i++) {\n            requestList[msg.sender][i] = requestList[msg.sender][i + 1];\n        }\n        delete requestList[msg.sender][requestList[msg.sender].length - 1];\n    }\n\n    function refuseFriend(uint256 _index) public {\n        for (uint256 i = _index; i < requestList[msg.sender].length; i++) {\n            requestList[msg.sender][i] = requestList[msg.sender][i + 1];\n        }\n        delete requestList[msg.sender][requestList[msg.sender].length - 1];\n    }\n\n    function getItemList(\n        uint8 itemType,\n        address user,\n        address target\n    ) public view returns (Item[50] memory) {\n        require(\n            user == target || storageAllowence[target][user],\n            \"permission denied\"\n        );\n        return _getAll(ItemType(itemType), target);\n    }\n\n    function changePermission(address user, address target) public {\n        storageAllowence[user][target] = !storageAllowence[user][target];\n    }\n\n    function friendCheck(address p1, address p2) public view returns (bool) {\n        for (uint256 i = 0; i < friendList[p1].length; i++) {\n            if (friendList[p1][i].friendAddress == p2) {\n                return true;\n            }\n        }\n        return false;\n    }\n\n    /// @dev \n    function _registration(string memory _name) public {\n        playersAddress.push(msg.sender);\n        nameToAddress[_name] = msg.sender;\n        addressToName[msg.sender] = _name;\n    }\n\n    /// @dev \n    function _isregister(address _person) public view returns (bool) {\n        bool flag = false;\n        //TODO\n        for (uint256 i = 0; i < playersAddress.length; i++) {\n            if (playersAddress[i] == _person) {\n                flag = true;\n            }\n        }\n        return flag;\n    }\n\n    function getUsername(address _person) public view returns (string memory) {\n        string memory name = addressToName[_person];\n        require(!hashCompare(name, \"\"), \"USER_NOTREGISTERED\");\n        return name;\n    }\n\n    function getFriendList() public view returns (friend[] memory) {\n        return friendList[msg.sender];\n    }\n\n    /// @dev \n    function addSeed(\n        uint256 _tag,\n        address _player,\n        uint256 _amount\n    ) public {\n        Item memory newItem;\n        newItem.tag = uint32(_tag);\n        newItem.usable = true;\n        newItem.stack = uint32(_amount);\n        addItem(ItemType(ItemType.Seed), _player, newItem);\n    }\n\n    /// @dev \n    function addFruit(\n        uint256 _tag,\n        address _player,\n        uint256 _amount\n    ) public {\n        Item memory newItem;\n        newItem.tag = uint32(_tag);\n        newItem.usable = true;\n        newItem.stack = uint32(_amount);\n        addItem(ItemType(ItemType.Fruit), _player, newItem);\n    }\n\n    function updateMaxIndex() external {\n        maxIndex[msg.sender][0] = 0;\n        maxIndex[msg.sender][1] = 0;\n        maxIndex[msg.sender][2] = 0;\n        maxIndex[msg.sender][3] = 0;\n        maxIndex[msg.sender][4] = 0;\n        maxIndex[msg.sender][5] = 0;\n        maxIndex[msg.sender][6] = 0;\n        maxIndex[msg.sender][7] = 0;\n    }\n}\n",
  "sourcePath": "F:\\Projects\\PixFarmon-frontend\\src\\util\\pixfarmon-dapp\\Pixfarmon\\contracts\\Repository.sol",
  "compiler": {
    "name": "solc",
    "version": "0.8.4+commit.c7e474f2.Emscripten.clang"
  },
  "schemaVersion": "3.3.4",
  "updatedAt": "2021-06-02T10:53:47.110Z",
  "networkType": "ethereum",
  "devdoc": {
    "details": "",
    "kind": "dev",
    "methods": {
      "_findFirstPlace(address,uint8)": {
        "details": ""
      },
      "_isregister(address)": {
        "details": ""
      },
      "_registration(string)": {
        "details": ""
      },
      "addFruit(uint256,address,uint256)": {
        "details": ""
      },
      "addItem(uint8,address,(bool,uint32,uint32))": {
        "details": ""
      },
      "addSeed(uint256,address,uint256)": {
        "details": ""
      },
      "getMoneyFromShop(address,uint256)": {
        "details": ""
      },
      "removeItem(address,uint8,uint256,uint32)": {
        "details": " tag  _amount "
      },
      "transferTo(address,address,uint256)": {
        "details": ""
      },
      "transferToShop(address,uint256)": {
        "details": ""
      }
    },
    "stateVariables": {
      "_backpack": {
        "details": ""
      },
      "playersAddress": {
        "details": ""
      },
      "storageAllowence": {
        "details": "is value has permission to see key's storage"
      }
    },
    "version": 1
  },
  "userdoc": {
    "kind": "user",
    "methods": {
      "rechargeMoney(uint256)": {
        "notice": ""
      }
    },
    "version": 1
  }
}