{
  "contractName": "Repository",
  "abi": [
    {
      "inputs": [
        {
          "internalType": "address",
          "name": "",
          "type": "address"
        }
      ],
      "name": "addressToName",
      "outputs": [
        {
          "internalType": "string",
          "name": "",
          "type": "string"
        }
      ],
      "stateMutability": "view",
      "type": "function"
    },
    {
      "inputs": [
        {
          "internalType": "address",
          "name": "",
          "type": "address"
        },
        {
          "internalType": "uint256",
          "name": "",
          "type": "uint256"
        }
      ],
      "name": "friendList",
      "outputs": [
        {
          "internalType": "string",
          "name": "friendName",
          "type": "string"
        },
        {
          "internalType": "address",
          "name": "friendAddress",
          "type": "address"
        }
      ],
      "stateMutability": "view",
      "type": "function"
    },
    {
      "inputs": [
        {
          "internalType": "address",
          "name": "player",
          "type": "address"
        }
      ],
      "name": "getMoney",
      "outputs": [
        {
          "internalType": "uint256",
          "name": "",
          "type": "uint256"
        }
      ],
      "stateMutability": "view",
      "type": "function"
    },
    {
      "inputs": [
        {
          "internalType": "address",
          "name": "_person",
          "type": "address"
        },
        {
          "internalType": "uint256",
          "name": "_value",
          "type": "uint256"
        }
      ],
      "name": "getMoneyFromShop",
      "outputs": [],
      "stateMutability": "nonpayable",
      "type": "function"
    },
    {
      "inputs": [
        {
          "internalType": "address",
          "name": "",
          "type": "address"
        }
      ],
      "name": "money",
      "outputs": [
        {
          "internalType": "uint256",
          "name": "",
          "type": "uint256"
        }
      ],
      "stateMutability": "view",
      "type": "function"
    },
    {
      "inputs": [
        {
          "internalType": "uint256",
          "name": "_value",
          "type": "uint256"
        }
      ],
      "name": "rechargeMoney",
      "outputs": [],
      "stateMutability": "payable",
      "type": "function"
    },
    {
      "inputs": [
        {
          "internalType": "address",
          "name": "",
          "type": "address"
        },
        {
          "internalType": "address",
          "name": "",
          "type": "address"
        }
      ],
      "name": "storageAllowence",
      "outputs": [
        {
          "internalType": "bool",
          "name": "",
          "type": "bool"
        }
      ],
      "stateMutability": "view",
      "type": "function"
    },
    {
      "inputs": [
        {
          "internalType": "address",
          "name": "p1",
          "type": "address"
        },
        {
          "internalType": "address",
          "name": "p2",
          "type": "address"
        },
        {
          "internalType": "uint256",
          "name": "_value",
          "type": "uint256"
        }
      ],
      "name": "transferTo",
      "outputs": [
        {
          "internalType": "bool",
          "name": "",
          "type": "bool"
        }
      ],
      "stateMutability": "nonpayable",
      "type": "function"
    },
    {
      "inputs": [
        {
          "internalType": "address",
          "name": "_person",
          "type": "address"
        },
        {
          "internalType": "uint256",
          "name": "_value",
          "type": "uint256"
        }
      ],
      "name": "transferToShop",
      "outputs": [
        {
          "internalType": "bool",
          "name": "",
          "type": "bool"
        }
      ],
      "stateMutability": "nonpayable",
      "type": "function"
    },
    {
      "inputs": [
        {
          "internalType": "enum Repository.ItemType",
          "name": "_itemType",
          "type": "uint8"
        },
        {
          "internalType": "address",
          "name": "_player",
          "type": "address"
        },
        {
          "components": [
            {
              "internalType": "bool",
              "name": "usable",
              "type": "bool"
            },
            {
              "internalType": "enum FarmBase.Specie",
              "name": "specie",
              "type": "uint8"
            },
            {
              "internalType": "uint32",
              "name": "stack",
              "type": "uint32"
            }
          ],
          "internalType": "struct Repository.Item",
          "name": "_item",
          "type": "tuple"
        }
      ],
      "name": "quieckAddItem",
      "outputs": [
        {
          "internalType": "bool",
          "name": "",
          "type": "bool"
        }
      ],
      "stateMutability": "nonpayable",
      "type": "function"
    },
    {
      "inputs": [
        {
          "internalType": "enum Repository.ItemType",
          "name": "_itemType",
          "type": "uint8"
        },
        {
          "internalType": "address",
          "name": "_player",
          "type": "address"
        },
        {
          "components": [
            {
              "internalType": "bool",
              "name": "usable",
              "type": "bool"
            },
            {
              "internalType": "enum FarmBase.Specie",
              "name": "specie",
              "type": "uint8"
            },
            {
              "internalType": "uint32",
              "name": "stack",
              "type": "uint32"
            }
          ],
          "internalType": "struct Repository.Item",
          "name": "_item",
          "type": "tuple"
        }
      ],
      "name": "addItem",
      "outputs": [
        {
          "internalType": "bool",
          "name": "",
          "type": "bool"
        }
      ],
      "stateMutability": "nonpayable",
      "type": "function"
    },
    {
      "inputs": [
        {
          "internalType": "address",
          "name": "_player",
          "type": "address"
        },
        {
          "internalType": "enum Repository.ItemType",
          "name": "_itemType",
          "type": "uint8"
        }
      ],
      "name": "_findFirstPlace",
      "outputs": [
        {
          "internalType": "uint256",
          "name": "",
          "type": "uint256"
        }
      ],
      "stateMutability": "view",
      "type": "function"
    },
    {
      "inputs": [
        {
          "internalType": "address",
          "name": "_player",
          "type": "address"
        },
        {
          "internalType": "enum Repository.ItemType",
          "name": "_itemType",
          "type": "uint8"
        },
        {
          "internalType": "enum FarmBase.Specie",
          "name": "_specie",
          "type": "uint8"
        },
        {
          "internalType": "uint32",
          "name": "_amount",
          "type": "uint32"
        }
      ],
      "name": "removeItem",
      "outputs": [
        {
          "internalType": "bool",
          "name": "",
          "type": "bool"
        }
      ],
      "stateMutability": "nonpayable",
      "type": "function"
    },
    {
      "inputs": [
        {
          "internalType": "uint256",
          "name": "numerator",
          "type": "uint256"
        },
        {
          "internalType": "uint256",
          "name": "denominator",
          "type": "uint256"
        }
      ],
      "name": "probabilityCheck",
      "outputs": [
        {
          "internalType": "bool",
          "name": "",
          "type": "bool"
        }
      ],
      "stateMutability": "view",
      "type": "function"
    },
    {
      "inputs": [
        {
          "internalType": "uint256",
          "name": "decimal",
          "type": "uint256"
        }
      ],
      "name": "getRandom",
      "outputs": [
        {
          "internalType": "uint256",
          "name": "",
          "type": "uint256"
        }
      ],
      "stateMutability": "view",
      "type": "function"
    },
    {
      "inputs": [
        {
          "internalType": "string",
          "name": "_name",
          "type": "string"
        }
      ],
      "name": "playerCreate",
      "outputs": [
        {
          "internalType": "bool",
          "name": "",
          "type": "bool"
        }
      ],
      "stateMutability": "nonpayable",
      "type": "function"
    },
    {
      "inputs": [
        {
          "internalType": "uint8",
          "name": "itemType",
          "type": "uint8"
        },
        {
          "internalType": "address",
          "name": "user",
          "type": "address"
        },
        {
          "internalType": "address",
          "name": "target",
          "type": "address"
        }
      ],
      "name": "getItemList",
      "outputs": [
        {
          "components": [
            {
              "internalType": "bool",
              "name": "usable",
              "type": "bool"
            },
            {
              "internalType": "enum FarmBase.Specie",
              "name": "specie",
              "type": "uint8"
            },
            {
              "internalType": "uint32",
              "name": "stack",
              "type": "uint32"
            }
          ],
          "internalType": "struct Repository.Item[50]",
          "name": "",
          "type": "tuple[50]"
        }
      ],
      "stateMutability": "view",
      "type": "function"
    },
    {
      "inputs": [
        {
          "internalType": "address",
          "name": "user",
          "type": "address"
        },
        {
          "internalType": "address",
          "name": "target",
          "type": "address"
        }
      ],
      "name": "changePermission",
      "outputs": [],
      "stateMutability": "nonpayable",
      "type": "function"
    },
    {
      "inputs": [
        {
          "internalType": "string",
          "name": "_name",
          "type": "string"
        }
      ],
      "name": "_registration",
      "outputs": [],
      "stateMutability": "nonpayable",
      "type": "function"
    },
    {
      "inputs": [
        {
          "internalType": "address",
          "name": "_person",
          "type": "address"
        }
      ],
      "name": "_isregister",
      "outputs": [
        {
          "internalType": "bool",
          "name": "",
          "type": "bool"
        }
      ],
      "stateMutability": "view",
      "type": "function"
    },
    {
      "inputs": [
        {
          "internalType": "enum FarmBase.Specie",
          "name": "_specie",
          "type": "uint8"
        },
        {
          "internalType": "address",
          "name": "_player",
          "type": "address"
        },
        {
          "internalType": "uint256",
          "name": "_amount",
          "type": "uint256"
        }
      ],
      "name": "addSeed",
      "outputs": [],
      "stateMutability": "nonpayable",
      "type": "function"
    },
    {
      "inputs": [
        {
          "internalType": "enum FarmBase.Specie",
          "name": "_specie",
          "type": "uint8"
        },
        {
          "internalType": "address",
          "name": "_player",
          "type": "address"
        },
        {
          "internalType": "uint256",
          "name": "_amount",
          "type": "uint256"
        }
      ],
      "name": "addFruit",
      "outputs": [],
      "stateMutability": "nonpayable",
      "type": "function"
    },
    {
      "inputs": [],
      "name": "updateMaxIndex",
      "outputs": [],
      "stateMutability": "nonpayable",
      "type": "function"
    }
  ],
  "bytecode": "0x608060405234801561001057600080fd5b50611d66806100206000396000f3fe6080604052600436106101405760003560e01c8063987a4184116100b6578063cd4b69141161006f578063cd4b691414610430578063e2a04b6214610450578063e6ae0c9e1461047d578063e87cb06b1461049d578063eb507e40146104ca578063f9d6b652146104ea57600080fd5b8063987a41841461032e5780639ba8e7221461034e578063a5f2a1521461036e578063b60689c71461038e578063bf73337d146103e2578063c2dcc1b01461041057600080fd5b80632403e883116101085780632403e883146102255780633093b2f71461027857806335911a17146102985780633b955fcb146102b857806347af13f9146102d8578063717d5527146102f857600080fd5b8063013fdb8714610145578063095ec74514610178578063155b3904146101a857806315e1f7cd146101bd5780631699a9fa146101ea575b600080fd5b34801561015157600080fd5b5061016561016036600461178c565b61050a565b6040519081526020015b60405180910390f35b34801561018457600080fd5b5061019861019336600461180a565b61067d565b604051901515815260200161016f565b6101bb6101b63660046119c5565b6106eb565b005b3480156101c957600080fd5b506101656101d8366004611702565b60006020819052908152604090205481565b3480156101f657600080fd5b5061019861020536600461171d565b600960209081526000928352604080842090915290825290205460ff1681565b34801561023157600080fd5b506101bb3360009081526006602081905260408220828155600181018390556002810183905560038101839055600481018390556005810183905590810182905560070155565b34801561028457600080fd5b50610198610293366004611702565b6107f9565b3480156102a457600080fd5b506101bb6102b3366004611914565b61085e565b3480156102c457600080fd5b506101986102d3366004611914565b610904565b3480156102e457600080fd5b506101bb6102f336600461180a565b6109c8565b34801561030457600080fd5b50610165610313366004611702565b6001600160a01b031660009081526020819052604090205490565b34801561033a57600080fd5b506101986103493660046119de565b610a0c565b34801561035a57600080fd5b506101986103693660046117b6565b610a2f565b34801561037a57600080fd5b50610198610389366004611750565b610c00565b34801561039a57600080fd5b506101bb6103a936600461171d565b6001600160a01b0391821660009081526009602090815260408083209390941682529190915220805460ff81161560ff19909116179055565b3480156103ee57600080fd5b506104026103fd36600461180a565b610c78565b60405161016f929190611b18565b34801561041c57600080fd5b506101bb61042b3660046118f6565b610d4a565b34801561043c57600080fd5b5061016561044b3660046119c5565b610db0565b34801561045c57600080fd5b5061047061046b366004611702565b610e49565b60405161016f9190611b05565b34801561048957600080fd5b506101bb6104983660046118f6565b610ee3565b3480156104a957600080fd5b506104bd6104b8366004611a00565b610f42565b60405161016f9190611a93565b3480156104d657600080fd5b506101986104e5366004611851565b610fed565b3480156104f657600080fd5b50610198610505366004611851565b61130e565b60008060005b6001600160a01b038516600090815260066020526040902084600281111561053a5761053a611cdd565b60ff166008811061054d5761054d611cf3565b01548110156105d6576001600160a01b03851660009081526005602052604081209085600281111561058157610581611cdd565b600281111561059257610592611cdd565b81526020808201929092526040908101600090812084825290925290205462010000900463ffffffff166105c4578091505b806105ce81611c62565b915050610510565b508015801561062557506001600160a01b038416600090815260066020526040902060319084600281111561060d5761060d611cdd565b60ff166008811061062057610620611cf3565b015411155b15610671576001600160a01b038416600090815260066020526040902083600281111561065457610654611cdd565b60ff166008811061066757610667611cf3565b0154915050610677565b60329150505b92915050565b6001600160a01b0382166000908152602081905260408120548211156106a557506000610677565b6001600160a01b0383166000908152602081905260409020546106c9908390611bbb565b6001600160a01b03841660009081526020819052604090205550600192915050565b6001546040516323b872dd60e01b8152336004820152306024820152604481018390526000916001600160a01b0316906323b872dd90606401602060405180830381600087803b15801561073e57600080fd5b505af1158015610752573d6000803e3d6000fd5b505050506040513d601f19601f820116820180604052508101906107769190611834565b9050806107bc5760405162461bcd60e51b815260206004820152600f60248201526e149958da185c99d94819985a5b1959608a1b60448201526064015b60405180910390fd5b6107cb645d21dba00083611ba7565b336000908152602081905260409020546107e59190611b42565b336000908152602081905260409020555050565b600080805b60025481101561085757836001600160a01b03166002828154811061082557610825611cf3565b6000918252602090912001546001600160a01b0316141561084557600191505b8061084f81611c62565b9150506107fe565b5092915050565b600280546001810182556000919091527f405787fa12a823e0f2b7631cc41b3ba8828b3321ca811111fa75cd3aa3bb5ace0180546001600160a01b031916339081179091556040516003906108b4908490611a77565b908152604080516020928190038301902080546001600160a01b0319166001600160a01b03949094169390931790925533600090815260048252919091208251610900928401906115e0565b5050565b600061090f826113d7565b6109bb5760028054600181019091557f405787fa12a823e0f2b7631cc41b3ba8828b3321ca811111fa75cd3aa3bb5ace0180546001600160a01b0319163390811790915560009081526004602090815260409091208351610972928501906115e0565b50336003836040516109849190611a77565b90815260405190819003602001902080546001600160a01b03929092166001600160a01b0319909216919091179055506001919050565b506000919050565b919050565b6001600160a01b0382166000908152602081905260409020546109ec908290611b42565b6001600160a01b0390921660009081526020819052604090209190915550565b600082610a1883610db0565b1015610a2657506001610677565b50600092915050565b6000805b6032811015610bf257836004811115610a4e57610a4e611cdd565b6001600160a01b038716600090815260056020526040812090876002811115610a7957610a79611cdd565b6002811115610a8a57610a8a611cdd565b815260208082019290925260409081016000908120858252909252902054610100900460ff166004811115610ac157610ac1611cdd565b1415610be0576001600160a01b038616600090815260056020526040812090866002811115610af257610af2611cdd565b6002811115610b0357610b03611cdd565b81526020808201929092526040908101600090812084825290925290205463ffffffff6201000090910481169084161115610b42576000915050610bf8565b6001600160a01b03861660009081526005602052604081208491876002811115610b6e57610b6e611cdd565b6002811115610b7f57610b7f611cdd565b81526020808201929092526040908101600090812085825290925290208054600290610bb890849062010000900463ffffffff16611bd2565b92506101000a81548163ffffffff021916908363ffffffff1602179055506001915050610bf8565b80610bea81611c62565b915050610a33565b50600090505b949350505050565b6001600160a01b038316600090815260208190526040812054610c24908390611bbb565b6001600160a01b038086166000908152602081905260408082209390935590851681522054610c54908390611b42565b6001600160a01b0384166000908152602081905260409020555060015b9392505050565b60076020528160005260406000208181548110610c9457600080fd5b906000526020600020906002020160009150915050806000018054610cb890611c27565b80601f0160208091040260200160405190810160405280929190818152602001828054610ce490611c27565b8015610d315780601f10610d0657610100808354040283529160200191610d31565b820191906000526020600020905b815481529060010190602001808311610d1457829003601f168201915b505050600190930154919250506001600160a01b031682565b604080516060810182526000808252602082018181529282015290846004811115610d7757610d77611cdd565b90816004811115610d8a57610d8a611cdd565b9052506001815263ffffffff82166040820152610da960008483610fed565b5050505050565b600081335a444345604051602001610dca91815260200190565b60405160208183030381529060405280519060200120604051602001610e2695949392919060609590951b6bffffffffffffffffffffffff19168552601485019390935260348401919091526054830152607482015260940190565b6040516020818303038152906040528051906020012060001c6106779190611c9d565b60046020526000908152604090208054610e6290611c27565b80601f0160208091040260200160405190810160405280929190818152602001828054610e8e90611c27565b8015610edb5780601f10610eb057610100808354040283529160200191610edb565b820191906000526020600020905b815481529060010190602001808311610ebe57829003601f168201915b505050505081565b604080516060810182526000808252602082018181529282015290846004811115610f1057610f10611cdd565b90816004811115610f2357610f23611cdd565b905250600180825263ffffffff83166040830152610da9908483610fed565b610f4a611664565b816001600160a01b0316836001600160a01b03161480610f8f57506001600160a01b0380831660009081526009602090815260408083209387168352929052205460ff165b610fcf5760405162461bcd60e51b81526020600482015260116024820152701c195c9b5a5cdcda5bdb8819195b9a5959607a1b60448201526064016107b3565b610bf88460ff166002811115610fe757610fe7611cdd565b83611419565b6000805b6001600160a01b038416600090815260066020526040902085600281111561101b5761101b611cdd565b60ff166008811061102e5761102e611cf3565b015481101561117b578260200151600481111561104d5761104d611cdd565b6001600160a01b03851660009081526005602052604081209087600281111561107857611078611cdd565b600281111561108957611089611cdd565b815260208082019290925260409081016000908120858252909252902054610100900460ff1660048111156110c0576110c0611cdd565b1415611169576040808401516001600160a01b0386166000908152600560205291822090918760028111156110f7576110f7611cdd565b600281111561110857611108611cdd565b8152602080820192909252604090810160009081208582529092529020805460029061114190849062010000900463ffffffff16611b5a565b92506101000a81548163ffffffff021916908363ffffffff1602179055506001915050610c71565b8061117381611c62565b915050610ff1565b50611186838561050a565b6032141561119657506000610c71565b6001600160a01b038316600090815260056020526040812083918660028111156111c2576111c2611cdd565b60028111156111d3576111d3611cdd565b815260200190815260200160002060006111ed868861050a565b81526020808201929092526040016000208251815490151560ff19821681178355928401519192839161ff001990911661ffff199091161761010083600481111561123a5761123a611cdd565b0217905550604091820151815463ffffffff909116620100000265ffffffff0000199091161790556001600160a01b038416600090815260066020522084600281111561128957611289611cdd565b60ff166008811061129c5761129c611cf3565b01546112a8848661050a565b1415611304576001600160a01b03831660009081526006602052604090206001908560028111156112db576112db611cdd565b60ff16600881106112ee576112ee611cf3565b0160008282546112fe9190611b42565b90915550505b5060019392505050565b6001600160a01b038216600090815260056020526040812082908286600281111561133b5761133b611cdd565b600281111561134c5761134c611cdd565b815260208082019290925260409081016000908120600182528352208251815490151560ff19821681178355928401519192839161ff001990911661ffff19909116176101008360048111156113a4576113a4611cdd565b021790555060409190910151815463ffffffff909116620100000265ffffffff0000199091161790555060019392505050565b6000806001600160a01b03166003836040516113f39190611a77565b908152604051908190036020019020546001600160a01b0316146109bb57506001919050565b611421611664565b611429611664565b6000805b6001600160a01b038516600090815260066020526040902086600281111561145757611457611cdd565b60ff166008811061146a5761146a611cf3565b01548160ff1610156115d6576001600160a01b0385166000908152600560205260408120908760028111156114a1576114a1611cdd565b60028111156114b2576114b2611cdd565b81526020808201929092526040908101600090812060ff8516825290925290205462010000900463ffffffff16156115c4576001600160a01b03851660009081526005602052604081209087600281111561150f5761150f611cdd565b600281111561152057611520611cdd565b81526020808201929092526040908101600090812060ff808616835290845290829020825160608101909352805480831615158452929390929084019161010090910416600481111561157557611575611cdd565b600481111561158657611586611cdd565b8152905462010000900463ffffffff166020909101528360ff8416603281106115b1576115b1611cf3565b60200201526115c1600183611b82565b91505b806115ce81611c7d565b91505061142d565b5090949350505050565b8280546115ec90611c27565b90600052602060002090601f01602090048101928261160e5760008555611654565b82601f1061162757805160ff1916838001178555611654565b82800160010185558215611654579182015b82811115611654578251825591602001919060010190611639565b506116609291506116a4565b5090565b6040518061064001604052806032905b60408051606081018252600080825260208083018290529282015282526000199092019101816116745790505090565b5b8082111561166057600081556001016116a5565b80356001600160a01b03811681146109c357600080fd5b8035600381106109c357600080fd5b8035600581106109c357600080fd5b803563ffffffff811681146109c357600080fd5b60006020828403121561171457600080fd5b610c71826116b9565b6000806040838503121561173057600080fd5b611739836116b9565b9150611747602084016116b9565b90509250929050565b60008060006060848603121561176557600080fd5b61176e846116b9565b925061177c602085016116b9565b9150604084013590509250925092565b6000806040838503121561179f57600080fd5b6117a8836116b9565b9150611747602084016116d0565b600080600080608085870312156117cc57600080fd5b6117d5856116b9565b93506117e3602086016116d0565b92506117f1604086016116df565b91506117ff606086016116ee565b905092959194509250565b6000806040838503121561181d57600080fd5b611826836116b9565b946020939093013593505050565b60006020828403121561184657600080fd5b8151610c7181611d1f565b600080600083850360a081121561186757600080fd5b611870856116d0565b935061187e602086016116b9565b92506060603f198201121561189257600080fd5b506040516060810181811067ffffffffffffffff821117156118b6576118b6611d09565b60409081528501356118c781611d1f565b81526118d5606086016116df565b60208201526118e6608086016116ee565b6040820152809150509250925092565b60008060006060848603121561190b57600080fd5b61176e846116df565b60006020828403121561192657600080fd5b813567ffffffffffffffff8082111561193e57600080fd5b818401915084601f83011261195257600080fd5b81358181111561196457611964611d09565b604051601f8201601f19908116603f0116810190838211818310171561198c5761198c611d09565b816040528281528760208487010111156119a557600080fd5b826020860160208301376000928101602001929092525095945050505050565b6000602082840312156119d757600080fd5b5035919050565b600080604083850312156119f157600080fd5b50508035926020909101359150565b600080600060608486031215611a1557600080fd5b833560ff81168114611a2657600080fd5b9250611a34602085016116b9565b9150611a42604085016116b9565b90509250925092565b60008151808452611a63816020860160208601611bf7565b601f01601f19169290920160200192915050565b60008251611a89818460208701611bf7565b9190910192915050565b6112c0810181836000805b6032811015611afb57825180511515855260208082015160058110611ad157634e487b7160e01b85526021600452602485fd5b8682015260409182015163ffffffff16918601919091526060909401939290920191600101611a9e565b5050505092915050565b602081526000610c716020830184611a4b565b604081526000611b2b6040830185611a4b565b905060018060a01b03831660208301529392505050565b60008219821115611b5557611b55611cb1565b500190565b600063ffffffff808316818516808303821115611b7957611b79611cb1565b01949350505050565b600060ff821660ff84168060ff03821115611b9f57611b9f611cb1565b019392505050565b600082611bb657611bb6611cc7565b500490565b600082821015611bcd57611bcd611cb1565b500390565b600063ffffffff83811690831681811015611bef57611bef611cb1565b039392505050565b60005b83811015611c12578181015183820152602001611bfa565b83811115611c21576000848401525b50505050565b600181811c90821680611c3b57607f821691505b60208210811415611c5c57634e487b7160e01b600052602260045260246000fd5b50919050565b6000600019821415611c7657611c76611cb1565b5060010190565b600060ff821660ff811415611c9457611c94611cb1565b60010192915050565b600082611cac57611cac611cc7565b500690565b634e487b7160e01b600052601160045260246000fd5b634e487b7160e01b600052601260045260246000fd5b634e487b7160e01b600052602160045260246000fd5b634e487b7160e01b600052603260045260246000fd5b634e487b7160e01b600052604160045260246000fd5b8015158114611d2d57600080fd5b5056fea2646970667358221220a403ebe6ef695128a69178f3ba4a3b1f9ffd945baccc431ed5087b405d8b303464736f6c63430008050033",
  "immutableReferences": {},
  "source": "// SPDX-License-Identifier: MIT\r\npragma solidity ^0.8.0;\r\n\r\nimport \"@openzeppelin/contracts/access/Ownable.sol\";\r\nimport \"./Money.sol\";\r\nimport \"./FarmBase.sol\";\r\n\r\n/// @dev \r\ncontract Repository is Money {\r\n    // \r\n    enum ItemType {Seed, Fruit, Tool} // 3bits for futher development\r\n\r\n    /// @dev \r\n    address[] playersAddress;\r\n    mapping(string => address) nameToAddress;\r\n    mapping(address => string) public addressToName;\r\n\r\n    /// @dev \r\n    //mapping(ItemType => mapping(address => Item[])) internal _repository;\r\n    mapping(address => mapping(ItemType => mapping(uint256 => Item)))\r\n        internal _backpack;\r\n    mapping(address => uint256[8]) internal maxIndex;\r\n\r\n    /// @dev \r\n    struct friend {\r\n        string friendName;\r\n        address friendAddress;\r\n    }\r\n    mapping(address => friend[]) public friendList;\r\n\r\n    struct Item {\r\n        bool usable;\r\n        //uint32 tag;\r\n        FarmBase.Specie specie;\r\n        uint32 stack;\r\n    }\r\n\r\n    struct request {\r\n        string senderName;\r\n        address senderAddress;\r\n    }\r\n\r\n    mapping(address => request[]) requestList;\r\n\r\n    /// @dev is value has permission to see key's storage\r\n    mapping(address => mapping(address => bool)) public storageAllowence;\r\n\r\n    /// @dev \r\n    function _remove(\r\n        ItemType _type,\r\n        address _player,\r\n        uint256 _index,\r\n        uint32 _amount\r\n    ) internal {\r\n        _backpack[_player][_type][_index].stack -= _amount;\r\n    }\r\n\r\n    ///@dev \r\n    function _get(\r\n        ItemType _type,\r\n        address _player,\r\n        uint256 _index\r\n    ) internal view returns (Item memory) {\r\n        return _backpack[_player][_type][_index];\r\n    }\r\n\r\n    /// @dev \r\n    function _getAll(ItemType _type, address _player)\r\n        internal\r\n        view\r\n        returns (Item[50] memory)\r\n    {\r\n        Item[50] memory items;\r\n        uint8 p = 0;\r\n        for (uint8 i = 0; i < maxIndex[_player][uint8(_type)]; i++) {\r\n            if (_backpack[_player][_type][i].stack != 0) {\r\n                items[p] = _backpack[_player][_type][i];\r\n                p += 1;\r\n            }\r\n        }\r\n        return items;\r\n    }\r\n\r\n    function quieckAddItem(\r\n        ItemType _itemType,\r\n        address _player,\r\n        Item memory _item\r\n    ) public returns (bool) {\r\n        // _repository[_itemType][_player][1].tag == _item.tag;\r\n        // _repository[_itemType][_player][1].stack == _item.stack;\r\n        _backpack[_player][_itemType][1] = _item;\r\n        return true;\r\n    }\r\n\r\n    ///@dev \r\n    function addItem(\r\n        ItemType _itemType,\r\n        address _player,\r\n        Item memory _item\r\n    ) public returns (bool) {\r\n        // TODO \r\n        for (uint256 i = 0; i < maxIndex[_player][uint8(_itemType)]; i++) {\r\n            if (_backpack[_player][_itemType][i].specie == _item.specie) {\r\n                _backpack[_player][_itemType][i].stack += _item.stack;\r\n                return true;\r\n            }\r\n        }\r\n        if (_findFirstPlace(_player, _itemType) == 50) {\r\n            return false;\r\n        }\r\n        _backpack[_player][_itemType][\r\n            _findFirstPlace(_player, _itemType)\r\n        ] = _item;\r\n        if (\r\n            _findFirstPlace(_player, _itemType) ==\r\n            maxIndex[_player][uint8(_itemType)]\r\n        ) {\r\n            maxIndex[_player][uint8(_itemType)] += 1;\r\n        }\r\n        return true;\r\n    }\r\n\r\n    /// @dev \r\n    function _findFirstPlace(address _player, ItemType _itemType)\r\n        public\r\n        view\r\n        returns (uint256)\r\n    {\r\n        uint256 index;\r\n        for (uint256 i = 0; i < maxIndex[_player][uint8(_itemType)]; i++) {\r\n            if (_backpack[_player][_itemType][i].stack == 0) {\r\n                index = i;\r\n            }\r\n        }\r\n        if (index == 0 && maxIndex[_player][uint8(_itemType)] <= 49) {\r\n            return maxIndex[_player][uint8(_itemType)];\r\n        }\r\n        return 50;\r\n    }\r\n\r\n    /// @dev  tag  _amount \r\n    function removeItem(\r\n        address _player,\r\n        ItemType _itemType,\r\n        FarmBase.Specie _specie,\r\n        uint32 _amount\r\n    ) public returns (bool) {\r\n        for (uint256 i = 0; i < 50; i++) {\r\n            if (_backpack[_player][_itemType][i].specie == _specie) {\r\n                if (_amount > _backpack[_player][_itemType][i].stack) {\r\n                    return false;\r\n                } else {\r\n                    _backpack[_player][_itemType][i].stack -= _amount;\r\n                    return true;\r\n                }\r\n            }\r\n        }\r\n        return false;\r\n    }\r\n\r\n    modifier requireVisibility(address host, address visitor) {\r\n        require(\r\n            storageAllowence[host][visitor],\r\n            \"You have no permission to see this receiver's storage\"\r\n        );\r\n        _;\r\n    }\r\n\r\n    //TODO seprate\r\n    function probabilityCheck(uint256 numerator, uint256 denominator)\r\n        public\r\n        view\r\n        returns (bool)\r\n    {\r\n        if (getRandom(denominator) < numerator) {\r\n            return true;\r\n        }\r\n        return false;\r\n    }\r\n\r\n    // TODO seprate\r\n    function getRandom(uint256 decimal) public view returns (uint256) {\r\n        return\r\n            uint256(\r\n                keccak256(\r\n                    abi.encodePacked(\r\n                        msg.sender,\r\n                        gasleft(),\r\n                        block.difficulty,\r\n                        block.number,\r\n                        keccak256(abi.encode(block.gaslimit))\r\n                    )\r\n                )\r\n            ) % decimal;\r\n    }\r\n\r\n    function playerCreate(string memory _name) public returns (bool) {\r\n        if (!isNameExist(_name)) {\r\n            playersAddress.push(msg.sender);\r\n            addressToName[msg.sender] = _name;\r\n            nameToAddress[_name] = msg.sender;\r\n            return true;\r\n        } else {\r\n            return false;\r\n        }\r\n    }\r\n\r\n    function isNameExist(string memory _name) internal view returns (bool) {\r\n        if (nameToAddress[_name] != address(0)) {\r\n            return true;\r\n        } else {\r\n            return false;\r\n        }\r\n    }\r\n\r\n    /// @dev \r\n    function hashCompare(string memory a, string memory b)\r\n        internal\r\n        pure\r\n        returns (bool)\r\n    {\r\n        return keccak256(abi.encodePacked(a)) == keccak256(abi.encodePacked(b));\r\n    }\r\n\r\n    function getItemList(\r\n        uint8 itemType,\r\n        address user,\r\n        address target\r\n    ) public view returns (Item[50] memory) {\r\n        require(\r\n            user == target || storageAllowence[target][user],\r\n            \"permission denied\"\r\n        );\r\n        return _getAll(ItemType(itemType), target);\r\n    }\r\n\r\n    function changePermission(address user, address target) public {\r\n        storageAllowence[user][target] = !storageAllowence[user][target];\r\n    }\r\n\r\n    /// @dev \r\n    function _registration(string memory _name) public {\r\n        playersAddress.push(msg.sender);\r\n        nameToAddress[_name] = msg.sender;\r\n        addressToName[msg.sender] = _name;\r\n    }\r\n\r\n    /// @dev \r\n    function _isregister(address _person) public view returns (bool) {\r\n        bool flag = false;\r\n        //TODO\r\n        for (uint256 i = 0; i < playersAddress.length; i++) {\r\n            if (playersAddress[i] == _person) {\r\n                flag = true;\r\n            }\r\n        }\r\n        return flag;\r\n    }\r\n\r\n    /// @dev \r\n    function addSeed(\r\n        FarmBase.Specie _specie,\r\n        address _player,\r\n        uint256 _amount\r\n    ) public {\r\n        Item memory newItem;\r\n        newItem.specie = _specie;\r\n        newItem.usable = true;\r\n        newItem.stack = uint32(_amount);\r\n        addItem(ItemType(ItemType.Seed), _player, newItem);\r\n    }\r\n\r\n    /// @dev \r\n    function addFruit(\r\n        FarmBase.Specie _specie,\r\n        address _player,\r\n        uint256 _amount\r\n    ) public {\r\n        Item memory newItem;\r\n        newItem.specie = _specie;\r\n        newItem.usable = true;\r\n        newItem.stack = uint32(_amount);\r\n        addItem(ItemType(ItemType.Fruit), _player, newItem);\r\n    }\r\n\r\n    function updateMaxIndex() external {\r\n        maxIndex[msg.sender][0] = 0;\r\n        maxIndex[msg.sender][1] = 0;\r\n        maxIndex[msg.sender][2] = 0;\r\n        maxIndex[msg.sender][3] = 0;\r\n        maxIndex[msg.sender][4] = 0;\r\n        maxIndex[msg.sender][5] = 0;\r\n        maxIndex[msg.sender][6] = 0;\r\n        maxIndex[msg.sender][7] = 0;\r\n    }\r\n}\r\n",
  "sourcePath": "D:\\ETH Project\\Pixfarmon\\contracts\\Repository.sol",
  "compiler": {
    "name": "solc",
    "version": "0.8.5+commit.a4f2e591.Emscripten.clang"
  },
  "schemaVersion": "3.4.1",
  "updatedAt": "2021-06-18T01:54:36.041Z",
  "devdoc": {
    "details": "",
    "kind": "dev",
    "methods": {
      "_findFirstPlace(address,uint8)": {
        "details": ""
      },
      "_isregister(address)": {
        "details": ""
      },
      "_registration(string)": {
        "details": ""
      },
      "addFruit(uint8,address,uint256)": {
        "details": ""
      },
      "addItem(uint8,address,(bool,uint8,uint32))": {
        "details": ""
      },
      "addSeed(uint8,address,uint256)": {
        "details": ""
      },
      "getMoneyFromShop(address,uint256)": {
        "details": ""
      },
      "removeItem(address,uint8,uint8,uint32)": {
        "details": " tag  _amount "
      },
      "transferTo(address,address,uint256)": {
        "details": ""
      },
      "transferToShop(address,uint256)": {
        "details": ""
      }
    },
    "stateVariables": {
      "_backpack": {
        "details": ""
      },
      "playersAddress": {
        "details": ""
      },
      "storageAllowence": {
        "details": "is value has permission to see key's storage"
      }
    },
    "version": 1
  },
  "userdoc": {
    "kind": "user",
    "methods": {
      "rechargeMoney(uint256)": {
        "notice": ""
      }
    },
    "version": 1
  }
}